{
  "transactions": [
    {
      "hash": "0xed4846f0e2bb2338ffebdad4f5cfd559eaaecdc339558b304f4b315ae89f5701",
      "transactionType": "CREATE",
      "contractName": "MMOSessionModule",
      "contractAddress": "0x5D46e9caFA94047986D77F832149C2BA329F18F0",
      "function": null,
      "arguments": null,
      "transaction": {
        "type": "0x02",
        "from": "0x2273ffed38ed040fbcd3e45cd807594d27ebfae3",
        "gas": "0xd6993",
        "value": "0x0",
        "data": "0x60e0604052600760a090815266706c617965727360c81b60c05260809081526200002e9060009060016200007c565b5060408051606081018252600860208201908152676a6f696e47616d6560c01b928201929092529081526200006790600190816200007c565b503480156200007557600080fd5b50620002c6565b828054828255906000526020600020908101928215620000c7579160200282015b82811115620000c75782518290620000b69082620001fa565b50916020019190600101906200009d565b50620000d5929150620000d9565b5090565b80821115620000d5576000620000f08282620000fa565b50600101620000d9565b508054620001089062000169565b6000825580601f1062000119575050565b601f0160209004906000526020600020908101906200013991906200013c565b50565b5b80821115620000d557600081556001016200013d565b634e487b7160e01b600052604160045260246000fd5b600181811c908216806200017e57607f821691505b6020821081036200019f57634e487b7160e01b600052602260045260246000fd5b50919050565b601f821115620001f5576000816000526020600020601f850160051c81016020861015620001d05750805b601f850160051c820191505b81811015620001f157828155600101620001dc565b5050505b505050565b81516001600160401b0381111562000216576200021662000153565b6200022e8162000227845462000169565b84620001a5565b602080601f8311600181146200026657600084156200024d5750858301515b600019600386901b1c1916600185901b178555620001f1565b600085815260208120601f198616915b82811015620002975788860151825594840194600190910190840162000276565b5085821015620002b65787850151600019600388901b60f8161c191681555b5050505050600190811b01905550565b61097680620002d66000396000f3fe608060405234801561001057600080fd5b50600436106100625760003560e01c80631b73f830146100675780634051ddac14610090578063467e4a2f146100a5578063c4d66de8146100c6578063ce690668146100db578063eac0bd90146100ee575b600080fd5b61007a610075366004610723565b610101565b6040516100879190610782565b60405180910390f35b6100986101ad565b60405161008791906107ef565b6100b86100b336600461087a565b6103d5565b604051908152602001610087565b6100d96100d436600461087a565b6104bf565b005b6100b86100e9366004610897565b61061b565b61007a6100fc366004610723565b610713565b6000818154811061011157600080fd5b90600052602060002001600091509050805461012c906108d0565b80601f0160208091040260200160405190810160405280929190818152602001828054610158906108d0565b80156101a55780601f1061017a576101008083540402835291602001916101a5565b820191906000526020600020905b81548152906001019060200180831161018857829003601f168201915b505050505081565b6101e1604051806080016040528060006001600160a01b031681526020016060815260200160608152602001606081525090565b6040518060800160405280306001600160a01b031681526020016001805480602002602001604051908101604052809291908181526020016000905b828210156102c957838290600052602060002001805461023c906108d0565b80601f0160208091040260200160405190810160405280929190818152602001828054610268906108d0565b80156102b55780601f1061028a576101008083540402835291602001916102b5565b820191906000526020600020905b81548152906001019060200180831161029857829003601f168201915b50505050508152602001906001019061021d565b5050505081526020016000805480602002602001604051908101604052809291908181526020016000905b828210156103a0578382906000526020600020018054610313906108d0565b80601f016020809104026020016040519081016040528092919081815260200182805461033f906108d0565b801561038c5780601f106103615761010080835404028352916020019161038c565b820191906000526020600020905b81548152906001019060200180831161036f57829003601f168201915b5050505050815260200190600101906102f4565b5050505081526020016040518060400160405280600b81526020016a26a6a79029b2b9b9b4b7b760a91b815250815250905090565b60405163070c412b60e01b8152602060048201526007602482015266706c617965727360c81b60448201526000906001600160a01b0383169063070c412b90606401602060405180830381865afa158015610434573d6000803e3d6000fd5b505050506040513d601f19601f82011682018060405250810190610458919061090a565b6001600160a01b031663c2e522066040518163ffffffff1660e01b8152600401602060405180830381865afa158015610495573d6000803e3d6000fd5b505050506040513d601f19601f820116820180604052508101906104b99190610927565b92915050565b6000816001600160a01b031663eab150676040518163ffffffff1660e01b8152600401602060405180830381865afa1580156104ff573d6000803e3d6000fd5b505050506040513d601f19601f82011682018060405250810190610523919061090a565b604080516337dffb9360e01b81526001600160a01b0385811660048301526024820192909252601060448201526f4d4d4f53657373696f6e456e7469747960801b60648201529116906337dffb93906084016020604051808303816000875af1158015610594573d6000803e3d6000fd5b505050506040513d601f19601f820116820180604052508101906105b8919061090a565b604051633c5c0f4960e21b81526001600160a01b0380831660048301529192509083169063f1703d2490602401600060405180830381600087803b1580156105ff57600080fd5b505af1158015610613573d6000803e3d6000fd5b505050505050565b60405163070c412b60e01b8152602060048201526007602482015266706c617965727360c81b60448201526000906001600160a01b0384169063070c412b90606401602060405180830381865afa15801561067a573d6000803e3d6000fd5b505050506040513d601f19601f8201168201806040525081019061069e919061090a565b604051635893afcd60e11b81526001600160a01b038481166004830152919091169063b1275f9a906024016020604051808303816000875af11580156106e8573d6000803e3d6000fd5b505050506040513d601f19601f8201168201806040525081019061070c9190610927565b9392505050565b6001818154811061011157600080fd5b60006020828403121561073557600080fd5b5035919050565b6000815180845260005b8181101561076257602081850181015186830182015201610746565b506000602082860101526020601f19601f83011685010191505092915050565b60208152600061070c602083018461073c565b60008282518085526020808601955060208260051b8401016020860160005b848110156107e257601f198684030189526107d083835161073c565b988401989250908301906001016107b4565b5090979650505050505050565b602080825282516001600160a01b0316828201528201516080604083015260009061081d60a0840182610795565b90506040840151601f198085840301606086015261083b8383610795565b9250606086015191508085840301608086015250610859828261073c565b95945050505050565b6001600160a01b038116811461087757600080fd5b50565b60006020828403121561088c57600080fd5b813561070c81610862565b600080604083850312156108aa57600080fd5b82356108b581610862565b915060208301356108c581610862565b809150509250929050565b600181811c908216806108e457607f821691505b60208210810361090457634e487b7160e01b600052602260045260246000fd5b50919050565b60006020828403121561091c57600080fd5b815161070c81610862565b60006020828403121561093957600080fd5b505191905056fea26469706673582212209e9d47c2c8c8d9624deff653512d7a992b260012c6e24478ec0d1745d5e4050d64736f6c63430008180033",
        "nonce": "0x22f",
        "accessList": []
      },
      "additionalContracts": [],
      "isFixedGasLimit": false
    },
    {
      "hash": "0x780606c77553bcfa2fe8d3ecf0496e65b09f23e45ed1561e113d91d9fc700a72",
      "transactionType": "CALL",
      "contractName": "ModuleRegistry",
      "contractAddress": "0x260eA6C8D3A462FB42CE1B5416941C014b002441",
      "function": "register(address)",
      "arguments": [
        "0x5D46e9caFA94047986D77F832149C2BA329F18F0"
      ],
      "transaction": {
        "type": "0x02",
        "from": "0x2273ffed38ed040fbcd3e45cd807594d27ebfae3",
        "to": "0x260ea6c8d3a462fb42ce1b5416941c014b002441",
        "gas": "0x10da9",
        "value": "0x0",
        "data": "0x4420e4860000000000000000000000005d46e9cafa94047986d77f832149c2ba329f18f0",
        "nonce": "0x230",
        "accessList": []
      },
      "additionalContracts": [],
      "isFixedGasLimit": false
    },
    {
      "hash": "0x000b60542b310377a3e5bc679c38f622bb4a1b975a0fdbdce9a00a3e4c35de0b",
      "transactionType": "CREATE",
      "contractName": "MMOSessionEntity",
      "contractAddress": "0xCd960a266d57c8Ae2eAc1e1B3dBBD3B9fF269A0c",
      "function": null,
      "arguments": null,
      "transaction": {
        "type": "0x02",
        "from": "0x2273ffed38ed040fbcd3e45cd807594d27ebfae3",
        "gas": "0x1172e5",
        "value": "0x0",
        "data": "0x608060405234801561001057600080fd5b50610ef4806100206000396000f3fe608060405234801561001057600080fd5b50600436106100935760003560e01c8063c3fe3e2811610066578063c3fe3e28146100ff578063c4d66de81461012a578063e82d2a851461013d578063ee88f1231461015d578063f71d96cb1461017257600080fd5b80630cb6aaf1146100985780635bb12a1a146100c1578063b1275f9a146100d6578063c2e52206146100f7575b600080fd5b6100ab6100a63660046109e2565b610185565b6040516100b89190610a4b565b60405180910390f35b6100d46100cf366004610a7c565b610231565b005b6100e96100e4366004610a7c565b61045c565b6040519081526020016100b8565b6002546100e9565b600054610112906001600160a01b031681565b6040516001600160a01b0390911681526020016100b8565b6100d4610138366004610a7c565b6105c7565b61015061014b366004610a97565b61069f565b6040516100b89190610ac1565b61016561087e565b6040516100b89190610b0e565b6101126101803660046109e2565b610957565b6001818154811061019557600080fd5b9060005260206000200160009150905080546101b090610b72565b80601f01602080910402602001604051908101604052809291908181526020018280546101dc90610b72565b80156102295780601f106101fe57610100808354040283529160200191610229565b820191906000526020600020905b81548152906001019060200180831161020c57829003601f168201915b505050505081565b60005460405163a555cfcd60e01b81523360048201526001600160a01b039091169063a555cfcd90602401600060405180830381865afa158015610279573d6000803e3d6000fd5b505050506040513d6000823e601f3d908101601f191682016040526102a19190810190610bf3565b516000036102ed5760405162461bcd60e51b8152602060048201526014602482015273135bd91d5b19481b9bdd081cdd5c1c1bdc9d195960621b60448201526064015b60405180910390fd5b6001600160a01b03811660009081526003602052604081205490036103255760405163184537df60e21b815260040160405180910390fd5b6001600160a01b03811660009081526003602052604081205461034a90600190610d20565b600280549192509061035e90600190610d20565b8154811061036e5761036e610d33565b600091825260209091200154600280546001600160a01b03909216918390811061039a5761039a610d33565b600091825260209091200180546001600160a01b0319166001600160a01b03929092169190911790556103ce816001610d49565b60036000600284815481106103e5576103e5610d33565b60009182526020808320909101546001600160a01b03168352820192909252604001902055600280548061041b5761041b610d5c565b60008281526020808220830160001990810180546001600160a01b03191690559092019092556001600160a01b039390931681526003909252506040812055565b6000805460405163a555cfcd60e01b81523360048201526001600160a01b039091169063a555cfcd90602401600060405180830381865afa1580156104a5573d6000803e3d6000fd5b505050506040513d6000823e601f3d908101601f191682016040526104cd9190810190610bf3565b516000036105145760405162461bcd60e51b8152602060048201526014602482015273135bd91d5b19481b9bdd081cdd5c1c1bdc9d195960621b60448201526064016102e4565b6001600160a01b0382166000908152600360205260409020541561054b5760405163301c5d0160e21b815260040160405180910390fd5b600280546001808201835560008390527f405787fa12a823e0f2b7631cc41b3ba8828b3321ca811111fa75cd3aa3bb5ace90910180546001600160a01b0319166001600160a01b03861617905590546105a49190610d20565b6001600160a01b038316600090815260036020526040902081905590505b919050565b600080546001600160a01b0319166001600160a01b0383161781556001805480820182559152604080518082019091526007815266706c617965727360c81b60208201527fb10e2d527612073b26eecdfd717e6a320cf44b4afac2b0732d9fcbe2b7fa0cf69091019061063a9082610dc3565b5060018054808201825560009190915260408051808201909152600b81526a0e0d8c2f2cae492dcc8caf60ab1b60208201527fb10e2d527612073b26eecdfd717e6a320cf44b4afac2b0732d9fcbe2b7fa0cf69091019061069b9082610dc3565b5050565b6001600160a01b0382166000908152600360205260408120546060919081908411156106ce57600091506106f5565b6001600160a01b0385166000908152600360205260409020546106f2908590610d20565b91505b6002546001600160a01b03861660009081526003602052604090205461071c908690610d49565b111561072b5750600254610752565b6001600160a01b03851660009081526003602052604090205461074f908590610d49565b90505b600061075e8383610d20565b67ffffffffffffffff81111561077657610776610bac565b60405190808252806020026020018201604052801561079f578160200160208202803683370190505b5090506107cc604051806040016040528060088152602001671cdd185c9d08185d60c21b81525084610981565b6107f460405180604001604052806006815260200165195b9908185d60d21b81525083610981565b6000835b83811015610870576002818154811061081357610813610d33565b9060005260206000200160009054906101000a90046001600160a01b031683838151811061084357610843610d33565b6001600160a01b03909216602092830291909101909101528161086581610e83565b9250506001016107f8565b509093505050505b92915050565b60606001805480602002602001604051908101604052809291908181526020016000905b8282101561094e5783829060005260206000200180546108c190610b72565b80601f01602080910402602001604051908101604052809291908181526020018280546108ed90610b72565b801561093a5780601f1061090f5761010080835404028352916020019161093a565b820191906000526020600020905b81548152906001019060200180831161091d57829003601f168201915b5050505050815260200190600101906108a2565b50505050905090565b6002818154811061096757600080fd5b6000918252602090912001546001600160a01b0316905081565b61069b8282604051602401610997929190610e9c565b60408051601f198184030181529190526020810180516001600160e01b03166309710a9d60e41b17905280516a636f6e736f6c652e6c6f67602083016000808483855afa5050505050565b6000602082840312156109f457600080fd5b5035919050565b60005b83811015610a165781810151838201526020016109fe565b50506000910152565b60008151808452610a378160208601602086016109fb565b601f01601f19169290920160200192915050565b602081526000610a5e6020830184610a1f565b9392505050565b80356001600160a01b03811681146105c257600080fd5b600060208284031215610a8e57600080fd5b610a5e82610a65565b60008060408385031215610aaa57600080fd5b610ab383610a65565b946020939093013593505050565b6020808252825182820181905260009190848201906040850190845b81811015610b025783516001600160a01b031683529284019291840191600101610add565b50909695505050505050565b600060208083016020845280855180835260408601915060408160051b87010192506020870160005b82811015610b6557603f19888603018452610b53858351610a1f565b94509285019290850190600101610b37565b5092979650505050505050565b600181811c90821680610b8657607f821691505b602082108103610ba657634e487b7160e01b600052602260045260246000fd5b50919050565b634e487b7160e01b600052604160045260246000fd5b604051601f8201601f1916810167ffffffffffffffff81118282101715610beb57610beb610bac565b604052919050565b60006020808385031215610c0657600080fd5b825167ffffffffffffffff80821115610c1e57600080fd5b8185019150601f86601f840112610c3457600080fd5b825182811115610c4657610c46610bac565b8060051b610c55868201610bc2565b918252848101860191868101908a841115610c6f57600080fd5b87870192505b83831015610cfc57825186811115610c8d5760008081fd5b8701603f81018c13610c9f5760008081fd5b88810151604088821115610cb557610cb5610bac565b610cc6828901601f19168c01610bc2565b8281528e82848601011115610cdb5760008081fd5b610cea838d83018487016109fb565b85525050509187019190870190610c75565b9a9950505050505050505050565b634e487b7160e01b600052601160045260246000fd5b8181038181111561087857610878610d0a565b634e487b7160e01b600052603260045260246000fd5b8082018082111561087857610878610d0a565b634e487b7160e01b600052603160045260246000fd5b601f821115610dbe576000816000526020600020601f850160051c81016020861015610d9b5750805b601f850160051c820191505b81811015610dba57828155600101610da7565b5050505b505050565b815167ffffffffffffffff811115610ddd57610ddd610bac565b610df181610deb8454610b72565b84610d72565b602080601f831160018114610e265760008415610e0e5750858301515b600019600386901b1c1916600185901b178555610dba565b600085815260208120601f198616915b82811015610e5557888601518255948401946001909101908401610e36565b5085821015610e735787850151600019600388901b60f8161c191681555b5050505050600190811b01905550565b600060018201610e9557610e95610d0a565b5060010190565b604081526000610eaf6040830185610a1f565b9050826020830152939250505056fea26469706673582212208b41dcd11b86b006b679074c8cac2330db257f048f6c628b60529c4729f9d53164736f6c63430008180033",
        "nonce": "0x231",
        "accessList": []
      },
      "additionalContracts": [],
      "isFixedGasLimit": false
    },
    {
      "hash": "0xcb6ed6971d3a29337a8807bb51bf4ea28d3a7d485c581bcec8ff0c71f139bbfa",
      "transactionType": "CALL",
      "contractName": "EntityFactory",
      "contractAddress": "0x5bAeEf2cB355A62b70c2578E48D9C4C90629F4A4",
      "function": "registerEntity(string,address)",
      "arguments": [
        "\"MMOSessionEntity\"",
        "0xCd960a266d57c8Ae2eAc1e1B3dBBD3B9fF269A0c"
      ],
      "transaction": {
        "type": "0x02",
        "from": "0x2273ffed38ed040fbcd3e45cd807594d27ebfae3",
        "to": "0x5baeef2cb355a62b70c2578e48d9c4c90629f4a4",
        "gas": "0x123e9",
        "value": "0x0",
        "data": "0xb2533d9d0000000000000000000000000000000000000000000000000000000000000040000000000000000000000000cd960a266d57c8ae2eac1e1b3dbbd3b9ff269a0c00000000000000000000000000000000000000000000000000000000000000104d4d4f53657373696f6e456e7469747900000000000000000000000000000000",
        "nonce": "0x232",
        "accessList": []
      },
      "additionalContracts": [],
      "isFixedGasLimit": false
    },
    {
      "hash": "0x1cdfffbbe036709de4342220f2fc1e862f317e6119b16c88d3f298f5f1777e9c",
      "transactionType": "CREATE",
      "contractName": "MMONeighborInteractionModule",
      "contractAddress": "0x3Ec11A31f21Df59C9CCDA45926b92FD9a9e84658",
      "function": null,
      "arguments": null,
      "transaction": {
        "type": "0x02",
        "from": "0x2273ffed38ed040fbcd3e45cd807594d27ebfae3",
        "gas": "0x22a723",
        "value": "0x0",
        "data": "0x60c060405260116080908152702230b4b63c9024b73a32b930b1ba34b7b760791b60a052600090620000329082620003fe565b5060408051608081018252600781830190815266706c617965727360c81b606083015281528151808301909252600e82526d63616e506c617965725468726f7760901b6020838101919091528101919091526200009490600190600262000235565b50604080516101608101825260096101208201818152681d1a1c9bddd0985b1b60ba1b6101408401528252825180840184528181526818d85d18da10985b1b60ba1b6020828101919091528084019190915283518085018552600e8082526d0c6c2dca0d8c2f2cae486c2e8c6d60931b8284015284860191909152845180860186528181526d63616e506c617965725468726f7760901b818401526060850152845180860186528181526d19d95d141b185e595c90dbdd5b9d60921b81840152608085015284518086018652600c81526b19d95d10985b1b10dbdd5b9d60a21b8184015260a085015284518086018652601481527f67657442616c6c486f6c646572496e64657865730000000000000000000000008184015260c0850152845180860186529081526d0cecae8a0d8c2f2cae492dcc8caf60931b8183015260e08401528351808501909452601384527f676574436174636861626c65496e6465786573000000000000000000000000009084015261010082019290925262000220916002919062000292565b503480156200022e57600080fd5b50620004ca565b82805482825590600052602060002090810192821562000280579160200282015b828111156200028057825182906200026f9082620003fe565b509160200191906001019062000256565b506200028e929150620002dd565b5090565b82805482825590600052602060002090810192821562000280579160200282015b82811115620002805782518290620002cc9082620003fe565b5091602001919060010190620002b3565b808211156200028e576000620002f48282620002fe565b50600101620002dd565b5080546200030c906200036d565b6000825580601f106200031d575050565b601f0160209004906000526020600020908101906200033d919062000340565b50565b5b808211156200028e576000815560010162000341565b634e487b7160e01b600052604160045260246000fd5b600181811c908216806200038257607f821691505b602082108103620003a357634e487b7160e01b600052602260045260246000fd5b50919050565b601f821115620003f9576000816000526020600020601f850160051c81016020861015620003d45750805b601f850160051c820191505b81811015620003f557828155600101620003e0565b5050505b505050565b81516001600160401b038111156200041a576200041a62000357565b62000432816200042b84546200036d565b84620003a9565b602080601f8311600181146200046a5760008415620004515750858301515b600019600386901b1c1916600185901b178555620003f5565b600085815260208120601f198616915b828110156200049b578886015182559484019460019091019084016200047a565b5085821015620004ba5787850151600019600388901b60f8161c191681555b5050505050600190811b01905550565b61189780620004da6000396000f3fe608060405234801561001057600080fd5b50600436106100f55760003560e01c8063a79312dd11610097578063dc64051011610066578063dc640510146101f5578063e6e84ea014610218578063eac0bd901461022b578063ef536fbc1461023e57600080fd5b8063a79312dd146101a9578063aa84eb79146101bc578063c4d66de8146101cf578063ce690668146101e257600080fd5b8063467e4a2f116100d3578063467e4a2f146101595780634affb2601461016c5780636bcca4571461017457806371f1551f1461018957600080fd5b80631b73f830146100fa5780633e88345c146101235780634051ddac14610144575b600080fd5b61010d6101083660046112fd565b610251565b60405161011a919061135c565b60405180910390f35b610136610131366004611387565b6102fd565b60405190815260200161011a565b61014c6103de565b60405161011a919061141a565b61013661016736600461148d565b61060f565b61010d6106f9565b610187610182366004611387565b610706565b005b61019c61019736600461148d565b6108ce565b60405161011a91906114aa565b6101366101b736600461148d565b6109a1565b6101876101ca366004611502565b610a4c565b6101876101dd36600461148d565b610d16565b6101876101f0366004611387565b610e6d565b610208610203366004611387565b6110c9565b604051901515815260200161011a565b61019c61022636600461148d565b6111a4565b61010d6102393660046112fd565b61124f565b61020861024c366004611387565b61125f565b6001818154811061026157600080fd5b90600052602060002001600091509050805461027c90611543565b80601f01602080910402602001604051908101604052809291908181526020018280546102a890611543565b80156102f55780601f106102ca576101008083540402835291602001916102f5565b820191906000526020600020905b8154815290600101906020018083116102d857829003601f168201915b505050505081565b60405163070c412b60e01b81526000906001600160a01b0384169063070c412b9061032a9060040161157d565b602060405180830381865afa158015610347573d6000803e3d6000fd5b505050506040513d601f19601f8201168201806040525081019061036b919061159c565b6040516303f8318160e41b81526001600160a01b0384811660048301529190911690633f83181090602401602060405180830381865afa1580156103b3573d6000803e3d6000fd5b505050506040513d601f19601f820116820180604052508101906103d791906115b9565b9392505050565b610412604051806080016040528060006001600160a01b031681526020016060815260200160608152602001606081525090565b6040518060800160405280306001600160a01b031681526020016002805480602002602001604051908101604052809291908181526020016000905b828210156104fa57838290600052602060002001805461046d90611543565b80601f016020809104026020016040519081016040528092919081815260200182805461049990611543565b80156104e65780601f106104bb576101008083540402835291602001916104e6565b820191906000526020600020905b8154815290600101906020018083116104c957829003601f168201915b50505050508152602001906001019061044e565b5050505081526020016001805480602002602001604051908101604052809291908181526020016000905b828210156105d157838290600052602060002001805461054490611543565b80601f016020809104026020016040519081016040528092919081815260200182805461057090611543565b80156105bd5780601f10610592576101008083540402835291602001916105bd565b820191906000526020600020905b8154815290600101906020018083116105a057829003601f168201915b505050505081526020019060010190610525565b505050508152602001604051806040016040528060148152602001732732b4b3b43137b91024b73a32b930b1ba34b7b760611b815250815250905090565b60405163070c412b60e01b8152602060048201526007602482015266706c617965727360c81b60448201526000906001600160a01b0383169063070c412b90606401602060405180830381865afa15801561066e573d6000803e3d6000fd5b505050506040513d601f19601f82011682018060405250810190610692919061159c565b6001600160a01b031663c2e522066040518163ffffffff1660e01b8152600401602060405180830381865afa1580156106cf573d6000803e3d6000fd5b505050506040513d601f19601f820116820180604052508101906106f391906115b9565b92915050565b6000805461027c90611543565b60405163070c412b60e01b81526000906001600160a01b0384169063070c412b906107339060040161157d565b602060405180830381865afa158015610750573d6000803e3d6000fd5b505050506040513d601f19601f82011682018060405250810190610774919061159c565b604051631298741160e01b81526001600160a01b0384811660048301529190911690631298741190602401602060405180830381865afa1580156107bc573d6000803e3d6000fd5b505050506040513d601f19601f820116820180604052508101906107e091906115d2565b90508061080057604051630baae5ab60e31b815260040160405180910390fd5b60405163070c412b60e01b81526001600160a01b0384169063070c412b9061082a9060040161157d565b602060405180830381865afa158015610847573d6000803e3d6000fd5b505050506040513d601f19601f8201168201806040525081019061086b919061159c565b604051632c59437b60e01b81526001600160a01b0384811660048301529190911690632c59437b906024015b600060405180830381600087803b1580156108b157600080fd5b505af11580156108c5573d6000803e3d6000fd5b50505050505050565b60405163070c412b60e01b81526060906001600160a01b0383169063070c412b906108fb9060040161157d565b602060405180830381865afa158015610918573d6000803e3d6000fd5b505050506040513d601f19601f8201168201806040525081019061093c919061159c565b6001600160a01b031663414b226e6040518163ffffffff1660e01b8152600401600060405180830381865afa158015610979573d6000803e3d6000fd5b505050506040513d6000823e601f3d908101601f191682016040526106f39190810190611688565b60405163070c412b60e01b81526000906001600160a01b0383169063070c412b906109ce9060040161157d565b602060405180830381865afa1580156109eb573d6000803e3d6000fd5b505050506040513d601f19601f82011682018060405250810190610a0f919061159c565b6001600160a01b0316639ceaddc96040518163ffffffff1660e01b8152600401602060405180830381865afa1580156106cf573d6000803e3d6000fd5b60405163070c412b60e01b81526000906001600160a01b0385169063070c412b90610a799060040161157d565b602060405180830381865afa158015610a96573d6000803e3d6000fd5b505050506040513d601f19601f82011682018060405250810190610aba919061159c565b60405163070dae7760e51b81526001600160a01b038581166004830152919091169063e1b5cee090602401602060405180830381865afa158015610b02573d6000803e3d6000fd5b505050506040513d601f19601f82011682018060405250810190610b2691906115d2565b905080610b4657604051630da4cc7560e31b815260040160405180910390fd5b60405163070c412b60e01b8152602060048201526007602482015266706c617965727360c81b60448201526000906001600160a01b0386169063070c412b90606401602060405180830381865afa158015610ba5573d6000803e3d6000fd5b505050506040513d601f19601f82011682018060405250810190610bc9919061159c565b60405163e82d2a8560e01b81526001600160a01b03868116600483015260248201869052919091169063e82d2a8590604401600060405180830381865afa158015610c18573d6000803e3d6000fd5b505050506040513d6000823e601f3d908101601f19168201604052610c40919081019061174d565b60405163070c412b60e01b81529091506001600160a01b0386169063070c412b90610c6d9060040161157d565b602060405180830381865afa158015610c8a573d6000803e3d6000fd5b505050506040513d601f19601f82011682018060405250810190610cae919061159c565b6001600160a01b03166353eec7928585846040518463ffffffff1660e01b8152600401610cdd939291906117dc565b600060405180830381600087803b158015610cf757600080fd5b505af1158015610d0b573d6000803e3d6000fd5b505050505050505050565b6000816001600160a01b031663eab150676040518163ffffffff1660e01b8152600401602060405180830381865afa158015610d56573d6000803e3d6000fd5b505050506040513d601f19601f82011682018060405250810190610d7a919061159c565b604080516337dffb9360e01b81526001600160a01b0385811660048301526024820192909252600b60448201526a4361746368456e7469747960a81b60648201529116906337dffb93906084016020604051808303816000875af1158015610de6573d6000803e3d6000fd5b505050506040513d601f19601f82011682018060405250810190610e0a919061159c565b604051633c5c0f4960e21b81526001600160a01b0380831660048301529192509083169063f1703d2490602401600060405180830381600087803b158015610e5157600080fd5b505af1158015610e65573d6000803e3d6000fd5b505050505050565b60405163011ea47b60e31b81526020600482015260086024820152676a6f696e47616d6560c01b60448201526000906001600160a01b038416906308f523d890606401602060405180830381865afa158015610ecd573d6000803e3d6000fd5b505050506040513d601f19601f82011682018060405250810190610ef1919061159c565b6040516319cd20cd60e31b81526001600160a01b0385811660048301528481166024830152919091169063ce690668906044016020604051808303816000875af1158015610f43573d6000803e3d6000fd5b505050506040513d601f19601f82011682018060405250810190610f6791906115b9565b90506002610f748461060f565b610f7e919061183f565b6000036110275760405163070c412b60e01b81526001600160a01b0384169063070c412b90610faf9060040161157d565b602060405180830381865afa158015610fcc573d6000803e3d6000fd5b505050506040513d601f19601f82011682018060405250810190610ff0919061159c565b604051630ebcf79b60e11b81526001600160a01b038481166004830152602482018490529190911690631d79ef3690604401610897565b60405163070c412b60e01b81526001600160a01b0384169063070c412b906110519060040161157d565b602060405180830381865afa15801561106e573d6000803e3d6000fd5b505050506040513d601f19601f82011682018060405250810190611092919061159c565b6040516330a37ed560e21b81526001600160a01b03848116600483015260248201849052919091169063c28dfb5490604401610897565b60405163070c412b60e01b81526000906001600160a01b0384169063070c412b906110f69060040161157d565b602060405180830381865afa158015611113573d6000803e3d6000fd5b505050506040513d601f19601f82011682018060405250810190611137919061159c565b60405163070dae7760e51b81526001600160a01b038481166004830152919091169063e1b5cee0906024015b602060405180830381865afa158015611180573d6000803e3d6000fd5b505050506040513d601f19601f820116820180604052508101906103d791906115d2565b60405163070c412b60e01b81526060906001600160a01b0383169063070c412b906111d19060040161157d565b602060405180830381865afa1580156111ee573d6000803e3d6000fd5b505050506040513d601f19601f82011682018060405250810190611212919061159c565b6001600160a01b0316633fdb8e0a6040518163ffffffff1660e01b8152600401600060405180830381865afa158015610979573d6000803e3d6000fd5b6002818154811061026157600080fd5b60405163070c412b60e01b81526000906001600160a01b0384169063070c412b9061128c9060040161157d565b602060405180830381865afa1580156112a9573d6000803e3d6000fd5b505050506040513d601f19601f820116820180604052508101906112cd919061159c565b604051631298741160e01b81526001600160a01b0384811660048301529190911690631298741190602401611163565b60006020828403121561130f57600080fd5b5035919050565b6000815180845260005b8181101561133c57602081850181015186830182015201611320565b506000602082860101526020601f19601f83011685010191505092915050565b6020815260006103d76020830184611316565b6001600160a01b038116811461138457600080fd5b50565b6000806040838503121561139a57600080fd5b82356113a58161136f565b915060208301356113b58161136f565b809150509250929050565b60008282518085526020808601955060208260051b8401016020860160005b8481101561140d57601f198684030189526113fb838351611316565b988401989250908301906001016113df565b5090979650505050505050565b602080825282516001600160a01b0316828201528201516080604083015260009061144860a08401826113c0565b90506040840151601f198085840301606086015261146683836113c0565b92506060860151915080858403016080860152506114848282611316565b95945050505050565b60006020828403121561149f57600080fd5b81356103d78161136f565b602080825282518282018190526000919060409081850190868401855b828110156114f5578151805185528601516001600160a01b03168685015292840192908501906001016114c7565b5091979650505050505050565b60008060006060848603121561151757600080fd5b83356115228161136f565b925060208401356115328161136f565b929592945050506040919091013590565b600181811c9082168061155757607f821691505b60208210810361157757634e487b7160e01b600052602260045260246000fd5b50919050565b60208082526005908201526462616c6c7360d81b604082015260600190565b6000602082840312156115ae57600080fd5b81516103d78161136f565b6000602082840312156115cb57600080fd5b5051919050565b6000602082840312156115e457600080fd5b815180151581146103d757600080fd5b634e487b7160e01b600052604160045260246000fd5b6040805190810167ffffffffffffffff8111828210171561162d5761162d6115f4565b60405290565b604051601f8201601f1916810167ffffffffffffffff8111828210171561165c5761165c6115f4565b604052919050565b600067ffffffffffffffff82111561167e5761167e6115f4565b5060051b60200190565b6000602080838503121561169b57600080fd5b825167ffffffffffffffff8111156116b257600080fd5b8301601f810185136116c357600080fd5b80516116d66116d182611664565b611633565b81815260069190911b820183019083810190878311156116f557600080fd5b928401925b8284101561174257604084890312156117135760008081fd5b61171b61160a565b845181528585015161172c8161136f565b81870152825260409390930192908401906116fa565b979650505050505050565b6000602080838503121561176057600080fd5b825167ffffffffffffffff81111561177757600080fd5b8301601f8101851361178857600080fd5b80516117966116d182611664565b81815260059190911b820183019083810190878311156117b557600080fd5b928401925b828410156117425783516117cd8161136f565b825292840192908401906117ba565b6001600160a01b038481168252602080830185905260606040840181905284519084018190526000928583019290916080860190855b81811015611830578551851683529483019491830191600101611812565b50909998505050505050505050565b60008261185c57634e487b7160e01b600052601260045260246000fd5b50069056fea2646970667358221220f864b80b474d8624cf9535b48ebfc3d8572c6e4f0ed4c7d6eadf822bc2f2a9be64736f6c63430008180033",
        "nonce": "0x233",
        "accessList": []
      },
      "additionalContracts": [],
      "isFixedGasLimit": false
    },
    {
      "hash": "0xc3cac41675b1129c2a3abb0a7747e24fc07a8792cbe7125ebff7bbbbb79d0577",
      "transactionType": "CALL",
      "contractName": "ModuleRegistry",
      "contractAddress": "0x260eA6C8D3A462FB42CE1B5416941C014b002441",
      "function": "register(address)",
      "arguments": [
        "0x3Ec11A31f21Df59C9CCDA45926b92FD9a9e84658"
      ],
      "transaction": {
        "type": "0x02",
        "from": "0x2273ffed38ed040fbcd3e45cd807594d27ebfae3",
        "to": "0x260ea6c8d3a462fb42ce1b5416941c014b002441",
        "gas": "0x10da9",
        "value": "0x0",
        "data": "0x4420e4860000000000000000000000003ec11a31f21df59c9ccda45926b92fd9a9e84658",
        "nonce": "0x234",
        "accessList": []
      },
      "additionalContracts": [],
      "isFixedGasLimit": false
    },
    {
      "hash": "0xf85acaa58b4405ea8706aff60168a55b085a58bdd5448e4478c90b35a830c518",
      "transactionType": "CREATE",
      "contractName": "CatchEntity",
      "contractAddress": "0x4358f8414499865B330ab91F7E2bE17e5C368Fc5",
      "function": null,
      "arguments": null,
      "transaction": {
        "type": "0x02",
        "from": "0x2273ffed38ed040fbcd3e45cd807594d27ebfae3",
        "gas": "0x222c50",
        "value": "0x0",
        "data": "0x608060405234801561001057600080fd5b50611e35806100206000396000f3fe608060405234801561001057600080fd5b50600436106101005760003560e01c80636eee2f7a11610097578063c3fe3e2811610066578063c3fe3e281461025d578063c4d66de814610288578063e1b5cee01461029b578063ee88f123146102c657600080fd5b80636eee2f7a146101fe5780639ceaddc91461022e578063a33257a314610237578063c28dfb541461024a57600080fd5b80633f831810116100d35780633f831810146101945780633fdb8e0a146101ce578063414b226e146101e357806353eec792146101eb57600080fd5b80630cb6aaf114610105578063129874111461012e5780631d79ef361461016c5780632c59437b14610181575b600080fd5b61011861011336600461181f565b6102db565b6040516101259190611888565b60405180910390f35b61015c61013c3660046118be565b6001600160a01b0316600090815260056020526040902060010154151590565b6040519015158152602001610125565b61017f61017a3660046118d9565b610387565b005b61017f61018f3660046118be565b6105a6565b6101c06101a23660046118be565b6001600160a01b031660009081526005602052604090206002015490565b604051908152602001610125565b6101d6610dbd565b6040516101259190611903565b6101d6610ead565b61017f6101f93660046119c6565b610f18565b61021161020c36600461181f565b6114be565b604080519283526001600160a01b03909116602083015201610125565b6101c060025481565b61021161024536600461181f565b6114f5565b61017f6102583660046118d9565b611505565b600054610270906001600160a01b031681565b6040516001600160a01b039091168152602001610125565b61017f6102963660046118be565b6115b4565b61015c6102a93660046118be565b6001600160a01b0316600090815260056020526040902054151590565b6102ce611629565b6040516101259190611a7f565b600181815481106102eb57600080fd5b90600052602060002001600091509050805461030690611ae3565b80601f016020809104026020016040519081016040528092919081815260200182805461033290611ae3565b801561037f5780601f106103545761010080835404028352916020019161037f565b820191906000526020600020905b81548152906001019060200180831161036257829003601f168201915b505050505081565b60005460405163a555cfcd60e01b81523360048201526001600160a01b039091169063a555cfcd90602401600060405180830381865afa1580156103cf573d6000803e3d6000fd5b505050506040513d6000823e601f3d908101601f191682016040526103f79190810190611b1d565b516000036104205760405162461bcd60e51b815260040161041790611c22565b60405180910390fd5b6002805490600061043083611c66565b90915550506001600160a01b038216600081815260056020908152604080832060028054825460018101845583875285872001558585520185905580516060810182529384528051838152808301909152908301915081526000602091820181905260025481526006825260409020825181546001600160a01b0319166001600160a01b0390911617815582820151805191926104d5926001850192909101906117a5565b5060409182015160029182015581518083019092528282526001600160a01b038085166020840190815260038054600181810183556000839052955194027fc2575a0e9e593c00f959f8c92f12db2869c3395a3b0502d05e2516446f71f85b81019490945590517fc2575a0e9e593c00f959f8c92f12db2869c3395a3b0502d05e2516446f71f85c9093018054939092166001600160a01b0319909316929092179055546105839190611c7f565b6001600160a01b0390921660009081526005602052604090206003019190915550565b60005460405163a555cfcd60e01b81523360048201526001600160a01b039091169063a555cfcd90602401600060405180830381865afa1580156105ee573d6000803e3d6000fd5b505050506040513d6000823e601f3d908101601f191682016040526106169190810190611b1d565b516000036106365760405162461bcd60e51b815260040161041790611c22565b6001600160a01b03811660009081526005602052604081206001018054829061066157610661611c98565b60009182526020808320909101546001600160a01b03851680845260058352604084208054600181810183558287529486200183905593529181018054929350916106ac9190611c7f565b815481106106bc576106bc611c98565b906000526020600020015460056000846001600160a01b03166001600160a01b0316815260200190815260200160002060010160008154811061070157610701611c98565b60009182526020808320909101929092556001600160a01b038416815260059091526040902060010180548061073957610739611cae565b6000828152602080822083016000199081018390559092019092556001600160a01b0384168252600590526040902054600103610843576040805180820182526001600160a01b03848116600081815260056020908152948120600290810154855294840191825260038054600180820183559282905294517fc2575a0e9e593c00f959f8c92f12db2869c3395a3b0502d05e2516446f71f85b959096029485019590955590517fc2575a0e9e593c00f959f8c92f12db2869c3395a3b0502d05e2516446f71f85c90930180546001600160a01b0319169390921692909217905590546108269190611c7f565b6001600160a01b0383166000908152600560205260409020600301555b60005b600082815260066020526040902060010154811015610d57576000828152600660205260408120600101805460059291908490811061088757610887611c98565b60009182526020808320909101546001600160a01b0316835282019290925260400190206001908101549003610aaa57600480546108c790600190611c7f565b815481106108d7576108d7611c98565b906000526020600020906002020160046005600060066000878152602001908152602001600020600101858154811061091257610912611c98565b60009182526020808320909101546001600160a01b031683528201929092526040019020600401548154811061094a5761094a611c98565b60009182526020808320845460029093020191825560019384015491840180546001600160a01b0319166001600160a01b0390931692909217909155848252600690526040812090910180546005929190849081106109ab576109ab611c98565b60009182526020808320909101546001600160a01b0316835282810193909352604091820181206004908101548683526006909452918120600101805460059391849184919088908110610a0157610a01611c98565b60009182526020808320909101546001600160a01b0316835282019290925260400190206004015481548110610a3957610a39611c98565b60009182526020808320600160029093020191909101546001600160a01b031683528201929092526040019020600490810191909155805480610a7e57610a7e611cae565b60008281526020812060026000199093019283020190815560010180546001600160a01b031916905590555b60005b60008381526006602052604081206001018054600592919085908110610ad557610ad5611c98565b60009182526020808320909101546001600160a01b03168352820192909252604001902060010154811015610d4e578260056000600660008781526020019081526020016000206001018581548110610b3057610b30611c98565b60009182526020808320909101546001600160a01b031683528201929092526040019020600101805483908110610b6957610b69611c98565b906000526020600020015403610d465760008381526006602052604081206001018054600592919085908110610ba157610ba1611c98565b9060005260206000200160009054906101000a90046001600160a01b03166001600160a01b03166001600160a01b03168152602001908152602001600020600101600160056000600660008881526020019081526020016000206001018681548110610c0f57610c0f611c98565b60009182526020808320909101546001600160a01b03168352820192909252604001902060010154610c419190611c7f565b81548110610c5157610c51611c98565b906000526020600020015460056000600660008781526020019081526020016000206001018581548110610c8757610c87611c98565b60009182526020808320909101546001600160a01b031683528201929092526040019020600101805483908110610cc057610cc0611c98565b906000526020600020018190555060056000600660008681526020019081526020016000206001018481548110610cf957610cf9611c98565b60009182526020808320909101546001600160a01b031683528201929092526040019020600101805480610d2f57610d2f611cae565b600190038181906000526020600020016000905590555b600101610aad565b50600101610846565b50604080516000808252602080830180855285835260069091529290209051610d8692600190920191906117a5565b506000908152600660205260408120600281019190915580546001600160a01b0319166001600160a01b0392909216919091179055565b606060005b600454811015610e3957610e316040518060400160405280601481526020017362616c6c43617463686572506f736974696f6e7360601b81525060048381548110610e0f57610e0f611c98565b60009182526020909120600160029092020101546001600160a01b03166116f9565b600101610dc2565b506004805480602002602001604051908101604052809291908181526020016000905b82821015610ea45760008481526020908190206040805180820190915260028502909101805482526001908101546001600160a01b0316828401529083529092019101610e5c565b50505050905090565b606060038054806020026020016040519081016040528092919081815260200160009082821015610ea45760008481526020908190206040805180820190915260028502909101805482526001908101546001600160a01b0316828401529083529092019101610e5c565b60005460405163a555cfcd60e01b81523360048201526001600160a01b039091169063a555cfcd90602401600060405180830381865afa158015610f60573d6000803e3d6000fd5b505050506040513d6000823e601f3d908101601f19168201604052610f889190810190611b1d565b51600003610fa85760405162461bcd60e51b815260040161041790611c22565b6001600160a01b038316600090815260056020526040812080548290610fd057610fd0611c98565b906000526020600020015490508260066000838152602001908152602001600020600201819055506110256040518060400160405280600c81526020016b1d5c19185d19590818985b1b60a21b81525061173e565b60005b8251811015611243576005600084838151811061104757611047611c98565b6020908102919091018101516001600160a01b0316825281810192909252604090810160009081206001908101805480830182559083528483200186905585825260069093522084519101908490839081106110a5576110a5611c98565b6020908102919091018101518254600181018455600093845291832090910180546001600160a01b0319166001600160a01b039092169190911790558351600591908590849081106110f9576110f9611c98565b60200260200101516001600160a01b03166001600160a01b031681526020019081526020016000206001018054905060010361123b57600460405180604001604052806005600087868151811061115257611152611c98565b60200260200101516001600160a01b03166001600160a01b0316815260200190815260200160002060020154815260200185848151811061119557611195611c98565b6020908102919091018101516001600160a01b03908116909252835460018082018655600095865294829020845160029092020190815592015191830180546001600160a01b031916929091169190911790556004546111f59190611c7f565b6005600085848151811061120b5761120b611c98565b60200260200101516001600160a01b03166001600160a01b03168152602001908152602001600020600401819055505b600101611028565b506112756040518060400160405280601081526020016f7570646174656420636174636865727360801b81525061173e565b6001600160a01b0384166000908152600560205260409020805461129b90600190611c7f565b815481106112ab576112ab611c98565b60009182526020808320909101546001600160a01b03871683526005909152604082208054919290916112e0576112e0611c98565b60009182526020808320909101929092556001600160a01b038616815260059091526040902080548061131557611315611cae565b6001900381819060005260206000200160009055905561135a6040518060400160405280600e81526020016d3ab83230ba32b210383630bcb2b960911b81525061173e565b6001600160a01b03841660009081526005602052604081205490036114b8576003805461138990600190611c7f565b8154811061139957611399611c98565b9060005260206000209060020201600360056000876001600160a01b03166001600160a01b0316815260200190815260200160002060030154815481106113e2576113e2611c98565b6000918252602080832084546002909302019182556001938401549390910180546001600160a01b0319166001600160a01b03948516179055918616815260059182905260408120600390810154815490939291908490811061144757611447611c98565b60009182526020808320600160029093020191909101546001600160a01b03168352820192909252604001902060039081019190915580548061148c5761148c611cae565b60008281526020812060026000199093019283020190815560010180546001600160a01b031916905590555b50505050565b600481815481106114ce57600080fd5b6000918252602090912060029091020180546001909101549091506001600160a01b031682565b600381815481106114ce57600080fd5b60005460405163a555cfcd60e01b81523360048201526001600160a01b039091169063a555cfcd90602401600060405180830381865afa15801561154d573d6000803e3d6000fd5b505050506040513d6000823e601f3d908101601f191682016040526115759190810190611b1d565b516000036115955760405162461bcd60e51b815260040161041790611c22565b6001600160a01b03909116600090815260056020526040902060020155565b600080546001600160a01b0319166001600160a01b038316178155600180548082018255915260408051808201909152600581526462616c6c7360d81b60208201527fb10e2d527612073b26eecdfd717e6a320cf44b4afac2b0732d9fcbe2b7fa0cf6909101906116259082611d15565b5050565b60606001805480602002602001604051908101604052809291908181526020016000905b82821015610ea457838290600052602060002001805461166c90611ae3565b80601f016020809104026020016040519081016040528092919081815260200182805461169890611ae3565b80156116e55780601f106116ba576101008083540402835291602001916116e5565b820191906000526020600020905b8154815290600101906020018083116116c857829003601f168201915b50505050508152602001906001019061164d565b611625828260405160240161170f929190611dd5565b60408051601f198184030181529190526020810180516001600160e01b031663319af33360e01b179052611784565b611781816040516024016117529190611888565b60408051601f198184030181529190526020810180516001600160e01b031663104c13eb60e21b179052611784565b50565b80516a636f6e736f6c652e6c6f67602083016000808483855afa5050505050565b8280548282559060005260206000209081019282156117fa579160200282015b828111156117fa57825182546001600160a01b0319166001600160a01b039091161782556020909201916001909101906117c5565b5061180692915061180a565b5090565b5b80821115611806576000815560010161180b565b60006020828403121561183157600080fd5b5035919050565b60005b8381101561185357818101518382015260200161183b565b50506000910152565b60008151808452611874816020860160208601611838565b601f01601f19169290920160200192915050565b60208152600061189b602083018461185c565b9392505050565b80356001600160a01b03811681146118b957600080fd5b919050565b6000602082840312156118d057600080fd5b61189b826118a2565b600080604083850312156118ec57600080fd5b6118f5836118a2565b946020939093013593505050565b602080825282518282018190526000919060409081850190868401855b8281101561194e578151805185528601516001600160a01b0316868501529284019290850190600101611920565b5091979650505050505050565b634e487b7160e01b600052604160045260246000fd5b604051601f8201601f1916810167ffffffffffffffff8111828210171561199a5761199a61195b565b604052919050565b600067ffffffffffffffff8211156119bc576119bc61195b565b5060051b60200190565b6000806000606084860312156119db57600080fd5b6119e4846118a2565b92506020808501359250604085013567ffffffffffffffff811115611a0857600080fd5b8501601f81018713611a1957600080fd5b8035611a2c611a27826119a2565b611971565b81815260059190911b82018301908381019089831115611a4b57600080fd5b928401925b82841015611a7057611a61846118a2565b82529284019290840190611a50565b80955050505050509250925092565b600060208083016020845280855180835260408601915060408160051b87010192506020870160005b82811015611ad657603f19888603018452611ac485835161185c565b94509285019290850190600101611aa8565b5092979650505050505050565b600181811c90821680611af757607f821691505b602082108103611b1757634e487b7160e01b600052602260045260246000fd5b50919050565b60006020808385031215611b3057600080fd5b825167ffffffffffffffff80821115611b4857600080fd5b8185019150601f86601f840112611b5e57600080fd5b8251611b6c611a27826119a2565b81815260059190911b84018501908581019089831115611b8b57600080fd5b8686015b83811015611c1457805186811115611ba75760008081fd5b8701603f81018c13611bb95760008081fd5b88810151604088821115611bcf57611bcf61195b565b611be0828901601f19168c01611971565b8281528e82848601011115611bf55760008081fd5b611c04838d8301848701611838565b8652505050918701918701611b8f565b509998505050505050505050565b602080825260149082015273135bd91d5b19481b9bdd081cdd5c1c1bdc9d195960621b604082015260600190565b634e487b7160e01b600052601160045260246000fd5b600060018201611c7857611c78611c50565b5060010190565b81810381811115611c9257611c92611c50565b92915050565b634e487b7160e01b600052603260045260246000fd5b634e487b7160e01b600052603160045260246000fd5b601f821115611d10576000816000526020600020601f850160051c81016020861015611ced5750805b601f850160051c820191505b81811015611d0c57828155600101611cf9565b5050505b505050565b815167ffffffffffffffff811115611d2f57611d2f61195b565b611d4381611d3d8454611ae3565b84611cc4565b602080601f831160018114611d785760008415611d605750858301515b600019600386901b1c1916600185901b178555611d0c565b600085815260208120601f198616915b82811015611da757888601518255948401946001909101908401611d88565b5085821015611dc55787850151600019600388901b60f8161c191681555b5050505050600190811b01905550565b604081526000611de8604083018561185c565b905060018060a01b0383166020830152939250505056fea264697066735822122097d9f0cd2933fa078f8c7978a8a80ff6a68f4685935db6e95f9a4dca03a5a7f564736f6c63430008180033",
        "nonce": "0x235",
        "accessList": []
      },
      "additionalContracts": [],
      "isFixedGasLimit": false
    },
    {
      "hash": "0x97d40f6a56bd9e24bf3edba917ccaa47ba8fbdf4487ae236bbbc715fdd68443c",
      "transactionType": "CALL",
      "contractName": "EntityFactory",
      "contractAddress": "0x5bAeEf2cB355A62b70c2578E48D9C4C90629F4A4",
      "function": "registerEntity(string,address)",
      "arguments": [
        "\"CatchEntity\"",
        "0x4358f8414499865B330ab91F7E2bE17e5C368Fc5"
      ],
      "transaction": {
        "type": "0x02",
        "from": "0x2273ffed38ed040fbcd3e45cd807594d27ebfae3",
        "to": "0x5baeef2cb355a62b70c2578e48d9c4c90629f4a4",
        "gas": "0x123b1",
        "value": "0x0",
        "data": "0xb2533d9d00000000000000000000000000000000000000000000000000000000000000400000000000000000000000004358f8414499865b330ab91f7e2be17e5c368fc5000000000000000000000000000000000000000000000000000000000000000b4361746368456e74697479000000000000000000000000000000000000000000",
        "nonce": "0x236",
        "accessList": []
      },
      "additionalContracts": [],
      "isFixedGasLimit": false
    },
    {
      "hash": "0x3de2711554c0429953e7f548a960c54995460c8a43910c741d37e2ac6df7430c",
      "transactionType": "CALL",
      "contractName": null,
      "contractAddress": "0x7225884a4fd15948F128049bC6170a78ec225CB6",
      "function": "createGame(address,string)",
      "arguments": [
        "0x2273fFEd38ED040FBcd3e45Cd807594d27ebfAE3",
        "\"Catch Demo\""
      ],
      "transaction": {
        "type": "0x02",
        "from": "0x2273ffed38ed040fbcd3e45cd807594d27ebfae3",
        "to": "0x7225884a4fd15948f128049bc6170a78ec225cb6",
        "gas": "0x4a0d2",
        "value": "0x0",
        "data": "0xec06bb5d0000000000000000000000002273ffed38ed040fbcd3e45cd807594d27ebfae30000000000000000000000000000000000000000000000000000000000000040000000000000000000000000000000000000000000000000000000000000000a43617463682044656d6f00000000000000000000000000000000000000000000",
        "nonce": "0x237",
        "accessList": []
      },
      "additionalContracts": [
        {
          "transactionType": "CREATE",
          "address": "0x67cBe2e647b543E666722192bdbf136663F71A98",
          "initCode": "0x602c3d8160093d39f33d3d3d3d363d3d37363d73afd7c6a400c275738294ce43b313a59c7aa0eb0a5af43d3d93803e602a57fd5bf3"
        }
      ],
      "isFixedGasLimit": false
    },
    {
      "hash": "0x7ca67f60d6acc43952f4e435865d4a30b5fcb57144d668387aea65faa76705bc",
      "transactionType": "CALL",
      "contractName": "MetaMultiSigWallet",
      "contractAddress": "0x67cBe2e647b543E666722192bdbf136663F71A98",
      "function": "addModule(address)",
      "arguments": [
        "0x5D46e9caFA94047986D77F832149C2BA329F18F0"
      ],
      "transaction": {
        "type": "0x02",
        "from": "0x2273ffed38ed040fbcd3e45cd807594d27ebfae3",
        "to": "0x67cbe2e647b543e666722192bdbf136663f71a98",
        "gas": "0xe9eeb",
        "value": "0x0",
        "data": "0x1ed86f190000000000000000000000005d46e9cafa94047986d77f832149c2ba329f18f0",
        "nonce": "0x238",
        "accessList": []
      },
      "additionalContracts": [
        {
          "transactionType": "CREATE",
          "address": "0xc1d27041fD705C578e176eF5FEF99DEAC3D7F666",
          "initCode": "0x602c3d8160093d39f33d3d3d3d363d3d37363d73cd960a266d57c8ae2eac1e1b3dbbd3b9ff269a0c5af43d3d93803e602a57fd5bf3"
        }
      ],
      "isFixedGasLimit": false
    },
    {
      "hash": "0xf820edc8e79030ffb35c28afdcb47fbe0815aeeae0ea463ce609322b8459b1f2",
      "transactionType": "CALL",
      "contractName": "MetaMultiSigWallet",
      "contractAddress": "0x67cBe2e647b543E666722192bdbf136663F71A98",
      "function": "addModule(address)",
      "arguments": [
        "0x3Ec11A31f21Df59C9CCDA45926b92FD9a9e84658"
      ],
      "transaction": {
        "type": "0x02",
        "from": "0x2273ffed38ed040fbcd3e45cd807594d27ebfae3",
        "to": "0x67cbe2e647b543e666722192bdbf136663f71a98",
        "gas": "0x1bca05",
        "value": "0x0",
        "data": "0x1ed86f190000000000000000000000003ec11a31f21df59c9ccda45926b92fd9a9e84658",
        "nonce": "0x239",
        "accessList": []
      },
      "additionalContracts": [
        {
          "transactionType": "CREATE",
          "address": "0xa01Ecf849869FC9671faBAeFfcC7DfDACE5AA1f1",
          "initCode": "0x602c3d8160093d39f33d3d3d3d363d3d37363d734358f8414499865b330ab91f7e2be17e5c368fc55af43d3d93803e602a57fd5bf3"
        }
      ],
      "isFixedGasLimit": false
    },
    {
      "hash": "0xe37873b07e066043a932bd3b4d7c682cc77d3ca4e3001c4f3bab8073df64aba2",
      "transactionType": "CALL",
      "contractName": "src/modules/MMONeighborInteractionModule.sol:MMONeighborInteractionModule",
      "contractAddress": "0x3Ec11A31f21Df59C9CCDA45926b92FD9a9e84658",
      "function": "joinSession(address,address)",
      "arguments": [
        "0x67cBe2e647b543E666722192bdbf136663F71A98",
        "0x0000000000000000000000000000000000000001"
      ],
      "transaction": {
        "type": "0x02",
        "from": "0x2273ffed38ed040fbcd3e45cd807594d27ebfae3",
        "to": "0x3ec11a31f21df59c9ccda45926b92fd9a9e84658",
        "gas": "0x37907",
        "value": "0x0",
        "data": "0xce69066800000000000000000000000067cbe2e647b543e666722192bdbf136663f71a980000000000000000000000000000000000000000000000000000000000000001",
        "nonce": "0x23a",
        "accessList": []
      },
      "additionalContracts": [],
      "isFixedGasLimit": false
    },
    {
      "hash": "0x3ae7d04548c1acd8e2609faf4cd972ba4869c43d25435a59cb255104d4d4c17c",
      "transactionType": "CALL",
      "contractName": "src/modules/MMONeighborInteractionModule.sol:MMONeighborInteractionModule",
      "contractAddress": "0x3Ec11A31f21Df59C9CCDA45926b92FD9a9e84658",
      "function": "joinSession(address,address)",
      "arguments": [
        "0x67cBe2e647b543E666722192bdbf136663F71A98",
        "0x0000000000000000000000000000000000000002"
      ],
      "transaction": {
        "type": "0x02",
        "from": "0x2273ffed38ed040fbcd3e45cd807594d27ebfae3",
        "to": "0x3ec11a31f21df59c9ccda45926b92fd9a9e84658",
        "gas": "0x79c0f",
        "value": "0x0",
        "data": "0xce69066800000000000000000000000067cbe2e647b543e666722192bdbf136663f71a980000000000000000000000000000000000000000000000000000000000000002",
        "nonce": "0x23b",
        "accessList": []
      },
      "additionalContracts": [],
      "isFixedGasLimit": false
    },
    {
      "hash": "0x54b85024726169aed100cf8a35b4b1f9e928c73ed4e75706db7b16067a8f1e14",
      "transactionType": "CALL",
      "contractName": "src/modules/MMONeighborInteractionModule.sol:MMONeighborInteractionModule",
      "contractAddress": "0x3Ec11A31f21Df59C9CCDA45926b92FD9a9e84658",
      "function": "joinSession(address,address)",
      "arguments": [
        "0x67cBe2e647b543E666722192bdbf136663F71A98",
        "0x0000000000000000000000000000000000000003"
      ],
      "transaction": {
        "type": "0x02",
        "from": "0x2273ffed38ed040fbcd3e45cd807594d27ebfae3",
        "to": "0x3ec11a31f21df59c9ccda45926b92fd9a9e84658",
        "gas": "0x3c21c",
        "value": "0x0",
        "data": "0xce69066800000000000000000000000067cbe2e647b543e666722192bdbf136663f71a980000000000000000000000000000000000000000000000000000000000000003",
        "nonce": "0x23c",
        "accessList": []
      },
      "additionalContracts": [],
      "isFixedGasLimit": false
    },
    {
      "hash": "0xe934bf72cadd3b86197e28dd8d4d0f2f8176bfdca8ea69a57ae5328bf6c3cff8",
      "transactionType": "CALL",
      "contractName": "src/modules/MMONeighborInteractionModule.sol:MMONeighborInteractionModule",
      "contractAddress": "0x3Ec11A31f21Df59C9CCDA45926b92FD9a9e84658",
      "function": "joinSession(address,address)",
      "arguments": [
        "0x67cBe2e647b543E666722192bdbf136663F71A98",
        "0x0000000000000000000000000000000000000004"
      ],
      "transaction": {
        "type": "0x02",
        "from": "0x2273ffed38ed040fbcd3e45cd807594d27ebfae3",
        "to": "0x3ec11a31f21df59c9ccda45926b92fd9a9e84658",
        "gas": "0x6e2ad",
        "value": "0x0",
        "data": "0xce69066800000000000000000000000067cbe2e647b543e666722192bdbf136663f71a980000000000000000000000000000000000000000000000000000000000000004",
        "nonce": "0x23d",
        "accessList": []
      },
      "additionalContracts": [],
      "isFixedGasLimit": false
    },
    {
      "hash": "0xa10fc00c198be27cd9a11c2e0ac35ef807e4951046d7c873f5e855fadcebb395",
      "transactionType": "CALL",
      "contractName": "src/modules/MMONeighborInteractionModule.sol:MMONeighborInteractionModule",
      "contractAddress": "0x3Ec11A31f21Df59C9CCDA45926b92FD9a9e84658",
      "function": "joinSession(address,address)",
      "arguments": [
        "0x67cBe2e647b543E666722192bdbf136663F71A98",
        "0x0000000000000000000000000000000000000005"
      ],
      "transaction": {
        "type": "0x02",
        "from": "0x2273ffed38ed040fbcd3e45cd807594d27ebfae3",
        "to": "0x3ec11a31f21df59c9ccda45926b92fd9a9e84658",
        "gas": "0x3c21c",
        "value": "0x0",
        "data": "0xce69066800000000000000000000000067cbe2e647b543e666722192bdbf136663f71a980000000000000000000000000000000000000000000000000000000000000005",
        "nonce": "0x23e",
        "accessList": []
      },
      "additionalContracts": [],
      "isFixedGasLimit": false
    },
    {
      "hash": "0xb98688cb7975b503eb4d8822318fdab33ae6959de011e90b76b7c5da009f1bb8",
      "transactionType": "CALL",
      "contractName": "src/modules/MMONeighborInteractionModule.sol:MMONeighborInteractionModule",
      "contractAddress": "0x3Ec11A31f21Df59C9CCDA45926b92FD9a9e84658",
      "function": "joinSession(address,address)",
      "arguments": [
        "0x67cBe2e647b543E666722192bdbf136663F71A98",
        "0x0000000000000000000000000000000000000006"
      ],
      "transaction": {
        "type": "0x02",
        "from": "0x2273ffed38ed040fbcd3e45cd807594d27ebfae3",
        "to": "0x3ec11a31f21df59c9ccda45926b92fd9a9e84658",
        "gas": "0x6e2ad",
        "value": "0x0",
        "data": "0xce69066800000000000000000000000067cbe2e647b543e666722192bdbf136663f71a980000000000000000000000000000000000000000000000000000000000000006",
        "nonce": "0x23f",
        "accessList": []
      },
      "additionalContracts": [],
      "isFixedGasLimit": false
    },
    {
      "hash": "0x60687fed23d77158043150f6f17e8432f31ea7346451beb5b503f8f9d8ba6d97",
      "transactionType": "CALL",
      "contractName": "src/modules/MMONeighborInteractionModule.sol:MMONeighborInteractionModule",
      "contractAddress": "0x3Ec11A31f21Df59C9CCDA45926b92FD9a9e84658",
      "function": "joinSession(address,address)",
      "arguments": [
        "0x67cBe2e647b543E666722192bdbf136663F71A98",
        "0x0000000000000000000000000000000000000007"
      ],
      "transaction": {
        "type": "0x02",
        "from": "0x2273ffed38ed040fbcd3e45cd807594d27ebfae3",
        "to": "0x3ec11a31f21df59c9ccda45926b92fd9a9e84658",
        "gas": "0x3c21c",
        "value": "0x0",
        "data": "0xce69066800000000000000000000000067cbe2e647b543e666722192bdbf136663f71a980000000000000000000000000000000000000000000000000000000000000007",
        "nonce": "0x240",
        "accessList": []
      },
      "additionalContracts": [],
      "isFixedGasLimit": false
    },
    {
      "hash": "0xe10b4a78cb459b3aefe074d1bea5eed8aff5148fbbb2d167b08657a74dbbd165",
      "transactionType": "CALL",
      "contractName": "src/modules/MMONeighborInteractionModule.sol:MMONeighborInteractionModule",
      "contractAddress": "0x3Ec11A31f21Df59C9CCDA45926b92FD9a9e84658",
      "function": "joinSession(address,address)",
      "arguments": [
        "0x67cBe2e647b543E666722192bdbf136663F71A98",
        "0x0000000000000000000000000000000000000008"
      ],
      "transaction": {
        "type": "0x02",
        "from": "0x2273ffed38ed040fbcd3e45cd807594d27ebfae3",
        "to": "0x3ec11a31f21df59c9ccda45926b92fd9a9e84658",
        "gas": "0x6e2ad",
        "value": "0x0",
        "data": "0xce69066800000000000000000000000067cbe2e647b543e666722192bdbf136663f71a980000000000000000000000000000000000000000000000000000000000000008",
        "nonce": "0x241",
        "accessList": []
      },
      "additionalContracts": [],
      "isFixedGasLimit": false
    },
    {
      "hash": "0x393f6e4889b3ec26c2162446ad5dc55b60571796d6b88dc610fea2c736f2e703",
      "transactionType": "CALL",
      "contractName": "src/modules/MMONeighborInteractionModule.sol:MMONeighborInteractionModule",
      "contractAddress": "0x3Ec11A31f21Df59C9CCDA45926b92FD9a9e84658",
      "function": "joinSession(address,address)",
      "arguments": [
        "0x67cBe2e647b543E666722192bdbf136663F71A98",
        "0x0000000000000000000000000000000000000009"
      ],
      "transaction": {
        "type": "0x02",
        "from": "0x2273ffed38ed040fbcd3e45cd807594d27ebfae3",
        "to": "0x3ec11a31f21df59c9ccda45926b92fd9a9e84658",
        "gas": "0x3c21c",
        "value": "0x0",
        "data": "0xce69066800000000000000000000000067cbe2e647b543e666722192bdbf136663f71a980000000000000000000000000000000000000000000000000000000000000009",
        "nonce": "0x242",
        "accessList": []
      },
      "additionalContracts": [],
      "isFixedGasLimit": false
    },
    {
      "hash": "0xbbe1734774cc1925ec602160f88e6bf34bc2c6a4272dec5e4f07d9211be34a50",
      "transactionType": "CALL",
      "contractName": "src/modules/MMONeighborInteractionModule.sol:MMONeighborInteractionModule",
      "contractAddress": "0x3Ec11A31f21Df59C9CCDA45926b92FD9a9e84658",
      "function": "joinSession(address,address)",
      "arguments": [
        "0x67cBe2e647b543E666722192bdbf136663F71A98",
        "0x000000000000000000000000000000000000000A"
      ],
      "transaction": {
        "type": "0x02",
        "from": "0x2273ffed38ed040fbcd3e45cd807594d27ebfae3",
        "to": "0x3ec11a31f21df59c9ccda45926b92fd9a9e84658",
        "gas": "0x6e2ad",
        "value": "0x0",
        "data": "0xce69066800000000000000000000000067cbe2e647b543e666722192bdbf136663f71a98000000000000000000000000000000000000000000000000000000000000000a",
        "nonce": "0x243",
        "accessList": []
      },
      "additionalContracts": [],
      "isFixedGasLimit": false
    },
    {
      "hash": "0x552334091ecbafcd59765fd9c772f608774f5633381ac37ecd25b63ae1472274",
      "transactionType": "CALL",
      "contractName": "src/modules/MMONeighborInteractionModule.sol:MMONeighborInteractionModule",
      "contractAddress": "0x3Ec11A31f21Df59C9CCDA45926b92FD9a9e84658",
      "function": "joinSession(address,address)",
      "arguments": [
        "0x67cBe2e647b543E666722192bdbf136663F71A98",
        "0x000000000000000000000000000000000000000b"
      ],
      "transaction": {
        "type": "0x02",
        "from": "0x2273ffed38ed040fbcd3e45cd807594d27ebfae3",
        "to": "0x3ec11a31f21df59c9ccda45926b92fd9a9e84658",
        "gas": "0x3c21c",
        "value": "0x0",
        "data": "0xce69066800000000000000000000000067cbe2e647b543e666722192bdbf136663f71a98000000000000000000000000000000000000000000000000000000000000000b",
        "nonce": "0x244",
        "accessList": []
      },
      "additionalContracts": [],
      "isFixedGasLimit": false
    },
    {
      "hash": "0x841ea9caf1045c148ad4cd37c6cd654456ce8c38bfe3cf45094a1038ce59c5c4",
      "transactionType": "CALL",
      "contractName": "src/modules/MMONeighborInteractionModule.sol:MMONeighborInteractionModule",
      "contractAddress": "0x3Ec11A31f21Df59C9CCDA45926b92FD9a9e84658",
      "function": "joinSession(address,address)",
      "arguments": [
        "0x67cBe2e647b543E666722192bdbf136663F71A98",
        "0x000000000000000000000000000000000000000C"
      ],
      "transaction": {
        "type": "0x02",
        "from": "0x2273ffed38ed040fbcd3e45cd807594d27ebfae3",
        "to": "0x3ec11a31f21df59c9ccda45926b92fd9a9e84658",
        "gas": "0x6e2ad",
        "value": "0x0",
        "data": "0xce69066800000000000000000000000067cbe2e647b543e666722192bdbf136663f71a98000000000000000000000000000000000000000000000000000000000000000c",
        "nonce": "0x245",
        "accessList": []
      },
      "additionalContracts": [],
      "isFixedGasLimit": false
    },
    {
      "hash": "0x6d6550036b5c7863415093f8fb07c803b3d61bf53033d9f94812b7e05ad52e24",
      "transactionType": "CALL",
      "contractName": "src/modules/MMONeighborInteractionModule.sol:MMONeighborInteractionModule",
      "contractAddress": "0x3Ec11A31f21Df59C9CCDA45926b92FD9a9e84658",
      "function": "joinSession(address,address)",
      "arguments": [
        "0x67cBe2e647b543E666722192bdbf136663F71A98",
        "0x000000000000000000000000000000000000000d"
      ],
      "transaction": {
        "type": "0x02",
        "from": "0x2273ffed38ed040fbcd3e45cd807594d27ebfae3",
        "to": "0x3ec11a31f21df59c9ccda45926b92fd9a9e84658",
        "gas": "0x3c21c",
        "value": "0x0",
        "data": "0xce69066800000000000000000000000067cbe2e647b543e666722192bdbf136663f71a98000000000000000000000000000000000000000000000000000000000000000d",
        "nonce": "0x246",
        "accessList": []
      },
      "additionalContracts": [],
      "isFixedGasLimit": false
    },
    {
      "hash": "0xaf64a3a1fab0b6d78b07328a9b3debd6c44eec9f90d3c535865a2146ed2f447b",
      "transactionType": "CALL",
      "contractName": "src/modules/MMONeighborInteractionModule.sol:MMONeighborInteractionModule",
      "contractAddress": "0x3Ec11A31f21Df59C9CCDA45926b92FD9a9e84658",
      "function": "joinSession(address,address)",
      "arguments": [
        "0x67cBe2e647b543E666722192bdbf136663F71A98",
        "0x000000000000000000000000000000000000000E"
      ],
      "transaction": {
        "type": "0x02",
        "from": "0x2273ffed38ed040fbcd3e45cd807594d27ebfae3",
        "to": "0x3ec11a31f21df59c9ccda45926b92fd9a9e84658",
        "gas": "0x6e2ad",
        "value": "0x0",
        "data": "0xce69066800000000000000000000000067cbe2e647b543e666722192bdbf136663f71a98000000000000000000000000000000000000000000000000000000000000000e",
        "nonce": "0x247",
        "accessList": []
      },
      "additionalContracts": [],
      "isFixedGasLimit": false
    },
    {
      "hash": "0x4416859c6f597eb213b8427741da2dea0e6d36259825af72ebe3b7b6a8257376",
      "transactionType": "CALL",
      "contractName": "src/modules/MMONeighborInteractionModule.sol:MMONeighborInteractionModule",
      "contractAddress": "0x3Ec11A31f21Df59C9CCDA45926b92FD9a9e84658",
      "function": "joinSession(address,address)",
      "arguments": [
        "0x67cBe2e647b543E666722192bdbf136663F71A98",
        "0x000000000000000000000000000000000000000F"
      ],
      "transaction": {
        "type": "0x02",
        "from": "0x2273ffed38ed040fbcd3e45cd807594d27ebfae3",
        "to": "0x3ec11a31f21df59c9ccda45926b92fd9a9e84658",
        "gas": "0x3c21c",
        "value": "0x0",
        "data": "0xce69066800000000000000000000000067cbe2e647b543e666722192bdbf136663f71a98000000000000000000000000000000000000000000000000000000000000000f",
        "nonce": "0x248",
        "accessList": []
      },
      "additionalContracts": [],
      "isFixedGasLimit": false
    },
    {
      "hash": "0xea8bfd29c186f21b2835c15bbfd70e09301e068db3a0e9194e294f9b2bfcf1c2",
      "transactionType": "CALL",
      "contractName": "src/modules/MMONeighborInteractionModule.sol:MMONeighborInteractionModule",
      "contractAddress": "0x3Ec11A31f21Df59C9CCDA45926b92FD9a9e84658",
      "function": "joinSession(address,address)",
      "arguments": [
        "0x67cBe2e647b543E666722192bdbf136663F71A98",
        "0x0000000000000000000000000000000000000010"
      ],
      "transaction": {
        "type": "0x02",
        "from": "0x2273ffed38ed040fbcd3e45cd807594d27ebfae3",
        "to": "0x3ec11a31f21df59c9ccda45926b92fd9a9e84658",
        "gas": "0x6e2ad",
        "value": "0x0",
        "data": "0xce69066800000000000000000000000067cbe2e647b543e666722192bdbf136663f71a980000000000000000000000000000000000000000000000000000000000000010",
        "nonce": "0x249",
        "accessList": []
      },
      "additionalContracts": [],
      "isFixedGasLimit": false
    },
    {
      "hash": "0xff0ddb351d2dfbe6a452457c3549548faacfc09d4eeded8748673492b30bc56b",
      "transactionType": "CALL",
      "contractName": "src/modules/MMONeighborInteractionModule.sol:MMONeighborInteractionModule",
      "contractAddress": "0x3Ec11A31f21Df59C9CCDA45926b92FD9a9e84658",
      "function": "joinSession(address,address)",
      "arguments": [
        "0x67cBe2e647b543E666722192bdbf136663F71A98",
        "0x0000000000000000000000000000000000000011"
      ],
      "transaction": {
        "type": "0x02",
        "from": "0x2273ffed38ed040fbcd3e45cd807594d27ebfae3",
        "to": "0x3ec11a31f21df59c9ccda45926b92fd9a9e84658",
        "gas": "0x3c21c",
        "value": "0x0",
        "data": "0xce69066800000000000000000000000067cbe2e647b543e666722192bdbf136663f71a980000000000000000000000000000000000000000000000000000000000000011",
        "nonce": "0x24a",
        "accessList": []
      },
      "additionalContracts": [],
      "isFixedGasLimit": false
    }
  ],
  "receipts": [
    {
      "transactionHash": "0xed4846f0e2bb2338ffebdad4f5cfd559eaaecdc339558b304f4b315ae89f5701",
      "transactionIndex": "0xf",
      "blockHash": "0xf016c9f3fbfc6df9e740ed29a2ce759dc7a511c3c39ccc8267f1ea9f84a2de63",
      "blockNumber": "0x577e9c",
      "from": "0x2273fFEd38ED040FBcd3e45Cd807594d27ebfAE3",
      "to": null,
      "cumulativeGasUsed": "0x1b7d2e",
      "gasUsed": "0xa51fc",
      "contractAddress": "0x5D46e9caFA94047986D77F832149C2BA329F18F0",
      "logs": [],
      "status": "0x1",
      "logsBloom": "0x00000000000000000000000000000000000000000000000000000000000000000000000000000000000000000000000000000000000000000000000000000000000000000000000000000000000000000000000000000000000000000000000000000000000000000000000000000000000000000000000000000000000000000000000000000000000000000000000000000000000000000000000000000000000000000000000000000000000000000000000000000000000000000000000000000000000000000000000000000000000000000000000000000000000000000000000000000000000000000000000000000000000000000000000000000000",
      "type": "0x2",
      "effectiveGasPrice": "0xc92993d0"
    },
    {
      "transactionHash": "0x780606c77553bcfa2fe8d3ecf0496e65b09f23e45ed1561e113d91d9fc700a72",
      "transactionIndex": "0x10",
      "blockHash": "0xf016c9f3fbfc6df9e740ed29a2ce759dc7a511c3c39ccc8267f1ea9f84a2de63",
      "blockNumber": "0x577e9c",
      "from": "0x2273fFEd38ED040FBcd3e45Cd807594d27ebfAE3",
      "to": "0x260eA6C8D3A462FB42CE1B5416941C014b002441",
      "cumulativeGasUsed": "0x1c406a",
      "gasUsed": "0xc33c",
      "contractAddress": null,
      "logs": [
        {
          "address": "0x260eA6C8D3A462FB42CE1B5416941C014b002441",
          "topics": [
            "0x0961fbae397458c42f3f186eaabee4a989aafde93ac5d8d122cff462423a241e"
          ],
          "data": "0x0000000000000000000000005d46e9cafa94047986d77f832149c2ba329f18f0",
          "blockHash": "0xf016c9f3fbfc6df9e740ed29a2ce759dc7a511c3c39ccc8267f1ea9f84a2de63",
          "blockNumber": "0x577e9c",
          "transactionHash": "0x780606c77553bcfa2fe8d3ecf0496e65b09f23e45ed1561e113d91d9fc700a72",
          "transactionIndex": "0x10",
          "logIndex": "0x21",
          "removed": false
        }
      ],
      "status": "0x1",
      "logsBloom": "0x00000000000000000000000000000000000040000000000000000000000000000000000000000000000010000000000000000000000000000000000000000000000000000004000000000000000000008000000000000000000000000000000000000000000000000000000000000000000000000000000000000000000000000000000000000000000000000000000000000000000000000000000000020000000000000000000000000000000000000000000000000000002000000000000000000000000000000000000000000000000000000000000000000000000000000000000000000000000000000000000000000000000000000000000000000000",
      "type": "0x2",
      "effectiveGasPrice": "0xc92993d0"
    },
    {
      "transactionHash": "0x000b60542b310377a3e5bc679c38f622bb4a1b975a0fdbdce9a00a3e4c35de0b",
      "transactionIndex": "0x11",
      "blockHash": "0xf016c9f3fbfc6df9e740ed29a2ce759dc7a511c3c39ccc8267f1ea9f84a2de63",
      "blockNumber": "0x577e9c",
      "from": "0x2273fFEd38ED040FBcd3e45Cd807594d27ebfAE3",
      "to": null,
      "cumulativeGasUsed": "0x29ad6f",
      "gasUsed": "0xd6d05",
      "contractAddress": "0xCd960a266d57c8Ae2eAc1e1B3dBBD3B9fF269A0c",
      "logs": [],
      "status": "0x1",
      "logsBloom": "0x00000000000000000000000000000000000000000000000000000000000000000000000000000000000000000000000000000000000000000000000000000000000000000000000000000000000000000000000000000000000000000000000000000000000000000000000000000000000000000000000000000000000000000000000000000000000000000000000000000000000000000000000000000000000000000000000000000000000000000000000000000000000000000000000000000000000000000000000000000000000000000000000000000000000000000000000000000000000000000000000000000000000000000000000000000000",
      "type": "0x2",
      "effectiveGasPrice": "0xc92993d0"
    },
    {
      "transactionHash": "0xcb6ed6971d3a29337a8807bb51bf4ea28d3a7d485c581bcec8ff0c71f139bbfa",
      "transactionIndex": "0x12",
      "blockHash": "0xf016c9f3fbfc6df9e740ed29a2ce759dc7a511c3c39ccc8267f1ea9f84a2de63",
      "blockNumber": "0x577e9c",
      "from": "0x2273fFEd38ED040FBcd3e45Cd807594d27ebfAE3",
      "to": "0x5bAeEf2cB355A62b70c2578E48D9C4C90629F4A4",
      "cumulativeGasUsed": "0x2a7508",
      "gasUsed": "0xc799",
      "contractAddress": null,
      "logs": [],
      "status": "0x1",
      "logsBloom": "0x00000000000000000000000000000000000000000000000000000000000000000000000000000000000000000000000000000000000000000000000000000000000000000000000000000000000000000000000000000000000000000000000000000000000000000000000000000000000000000000000000000000000000000000000000000000000000000000000000000000000000000000000000000000000000000000000000000000000000000000000000000000000000000000000000000000000000000000000000000000000000000000000000000000000000000000000000000000000000000000000000000000000000000000000000000000",
      "type": "0x2",
      "effectiveGasPrice": "0xc92993d0"
    },
    {
      "transactionHash": "0x1cdfffbbe036709de4342220f2fc1e862f317e6119b16c88d3f298f5f1777e9c",
      "transactionIndex": "0x13",
      "blockHash": "0xf016c9f3fbfc6df9e740ed29a2ce759dc7a511c3c39ccc8267f1ea9f84a2de63",
      "blockNumber": "0x577e9c",
      "from": "0x2273fFEd38ED040FBcd3e45Cd807594d27ebfAE3",
      "to": null,
      "cumulativeGasUsed": "0x451ed4",
      "gasUsed": "0x1aa9cc",
      "contractAddress": "0x3Ec11A31f21Df59C9CCDA45926b92FD9a9e84658",
      "logs": [],
      "status": "0x1",
      "logsBloom": "0x00000000000000000000000000000000000000000000000000000000000000000000000000000000000000000000000000000000000000000000000000000000000000000000000000000000000000000000000000000000000000000000000000000000000000000000000000000000000000000000000000000000000000000000000000000000000000000000000000000000000000000000000000000000000000000000000000000000000000000000000000000000000000000000000000000000000000000000000000000000000000000000000000000000000000000000000000000000000000000000000000000000000000000000000000000000",
      "type": "0x2",
      "effectiveGasPrice": "0xc92993d0"
    },
    {
      "transactionHash": "0xc3cac41675b1129c2a3abb0a7747e24fc07a8792cbe7125ebff7bbbbb79d0577",
      "transactionIndex": "0x14",
      "blockHash": "0xf016c9f3fbfc6df9e740ed29a2ce759dc7a511c3c39ccc8267f1ea9f84a2de63",
      "blockNumber": "0x577e9c",
      "from": "0x2273fFEd38ED040FBcd3e45Cd807594d27ebfAE3",
      "to": "0x260eA6C8D3A462FB42CE1B5416941C014b002441",
      "cumulativeGasUsed": "0x45e210",
      "gasUsed": "0xc33c",
      "contractAddress": null,
      "logs": [
        {
          "address": "0x260eA6C8D3A462FB42CE1B5416941C014b002441",
          "topics": [
            "0x0961fbae397458c42f3f186eaabee4a989aafde93ac5d8d122cff462423a241e"
          ],
          "data": "0x0000000000000000000000003ec11a31f21df59c9ccda45926b92fd9a9e84658",
          "blockHash": "0xf016c9f3fbfc6df9e740ed29a2ce759dc7a511c3c39ccc8267f1ea9f84a2de63",
          "blockNumber": "0x577e9c",
          "transactionHash": "0xc3cac41675b1129c2a3abb0a7747e24fc07a8792cbe7125ebff7bbbbb79d0577",
          "transactionIndex": "0x14",
          "logIndex": "0x22",
          "removed": false
        }
      ],
      "status": "0x1",
      "logsBloom": "0x00000000000000000000000000000000000040000000000000000000000000000000000000000000000010000000000000000000000000000000000000000000000000000004000000000000000000008000000000000000000000000000000000000000000000000000000000000000000000000000000000000000000000000000000000000000000000000000000000000000000000000000000000020000000000000000000000000000000000000000000000000000002000000000000000000000000000000000000000000000000000000000000000000000000000000000000000000000000000000000000000000000000000000000000000000000",
      "type": "0x2",
      "effectiveGasPrice": "0xc92993d0"
    },
    {
      "transactionHash": "0xf85acaa58b4405ea8706aff60168a55b085a58bdd5448e4478c90b35a830c518",
      "transactionIndex": "0x15",
      "blockHash": "0xf016c9f3fbfc6df9e740ed29a2ce759dc7a511c3c39ccc8267f1ea9f84a2de63",
      "blockNumber": "0x577e9c",
      "from": "0x2273fFEd38ED040FBcd3e45Cd807594d27ebfAE3",
      "to": null,
      "cumulativeGasUsed": "0x602d6f",
      "gasUsed": "0x1a4b5f",
      "contractAddress": "0x4358f8414499865B330ab91F7E2bE17e5C368Fc5",
      "logs": [],
      "status": "0x1",
      "logsBloom": "0x00000000000000000000000000000000000000000000000000000000000000000000000000000000000000000000000000000000000000000000000000000000000000000000000000000000000000000000000000000000000000000000000000000000000000000000000000000000000000000000000000000000000000000000000000000000000000000000000000000000000000000000000000000000000000000000000000000000000000000000000000000000000000000000000000000000000000000000000000000000000000000000000000000000000000000000000000000000000000000000000000000000000000000000000000000000",
      "type": "0x2",
      "effectiveGasPrice": "0xc92993d0"
    },
    {
      "transactionHash": "0x97d40f6a56bd9e24bf3edba917ccaa47ba8fbdf4487ae236bbbc715fdd68443c",
      "transactionIndex": "0x16",
      "blockHash": "0xf016c9f3fbfc6df9e740ed29a2ce759dc7a511c3c39ccc8267f1ea9f84a2de63",
      "blockNumber": "0x577e9c",
      "from": "0x2273fFEd38ED040FBcd3e45Cd807594d27ebfAE3",
      "to": "0x5bAeEf2cB355A62b70c2578E48D9C4C90629F4A4",
      "cumulativeGasUsed": "0x60f4e2",
      "gasUsed": "0xc773",
      "contractAddress": null,
      "logs": [],
      "status": "0x1",
      "logsBloom": "0x00000000000000000000000000000000000000000000000000000000000000000000000000000000000000000000000000000000000000000000000000000000000000000000000000000000000000000000000000000000000000000000000000000000000000000000000000000000000000000000000000000000000000000000000000000000000000000000000000000000000000000000000000000000000000000000000000000000000000000000000000000000000000000000000000000000000000000000000000000000000000000000000000000000000000000000000000000000000000000000000000000000000000000000000000000000",
      "type": "0x2",
      "effectiveGasPrice": "0xc92993d0"
    },
    {
      "transactionHash": "0x3de2711554c0429953e7f548a960c54995460c8a43910c741d37e2ac6df7430c",
      "transactionIndex": "0x17",
      "blockHash": "0xf016c9f3fbfc6df9e740ed29a2ce759dc7a511c3c39ccc8267f1ea9f84a2de63",
      "blockNumber": "0x577e9c",
      "from": "0x2273fFEd38ED040FBcd3e45Cd807594d27ebfAE3",
      "to": "0x7225884a4fd15948F128049bC6170a78ec225CB6",
      "cumulativeGasUsed": "0x641f09",
      "gasUsed": "0x32a27",
      "contractAddress": null,
      "logs": [
        {
          "address": "0x67cBe2e647b543E666722192bdbf136663F71A98",
          "topics": [
            "0xc7f505b2f371ae2175ee4913f4499e1f2633a7b5936321eed1cdaeb6115181d2"
          ],
          "data": "0x0000000000000000000000000000000000000000000000000000000000000001",
          "blockHash": "0xf016c9f3fbfc6df9e740ed29a2ce759dc7a511c3c39ccc8267f1ea9f84a2de63",
          "blockNumber": "0x577e9c",
          "transactionHash": "0x3de2711554c0429953e7f548a960c54995460c8a43910c741d37e2ac6df7430c",
          "transactionIndex": "0x17",
          "logIndex": "0x23",
          "removed": false
        },
        {
          "address": "0x7225884a4fd15948F128049bC6170a78ec225CB6",
          "topics": [
            "0xb60d84e37a6658effce28870b1d123cb86f86409df5888679310c0f276e1f5d2"
          ],
          "data": "0x0000000000000000000000002273ffed38ed040fbcd3e45cd807594d27ebfae300000000000000000000000067cbe2e647b543e666722192bdbf136663f71a98",
          "blockHash": "0xf016c9f3fbfc6df9e740ed29a2ce759dc7a511c3c39ccc8267f1ea9f84a2de63",
          "blockNumber": "0x577e9c",
          "transactionHash": "0x3de2711554c0429953e7f548a960c54995460c8a43910c741d37e2ac6df7430c",
          "transactionIndex": "0x17",
          "logIndex": "0x24",
          "removed": false
        }
      ],
      "status": "0x1",
      "logsBloom": "0x00000000000000000000000000000000000000000000000000000000000000000000000000000000000000000000000000000000000000000000000000000000000000000000000000000080000000000000000000000000000000000000000000000000000000000000000000080000400000000000400000000000000000000000000000000000000800000000000000000000000080000000000000000000000000000000000000000000800000000020000000000000000000000000000000000000000000000000000000000000000000000004001000000000000000000000000000000000000000000000008000000000000000000002000000000000",
      "type": "0x2",
      "effectiveGasPrice": "0xc92993d0"
    },
    {
      "transactionHash": "0x7ca67f60d6acc43952f4e435865d4a30b5fcb57144d668387aea65faa76705bc",
      "transactionIndex": "0x18",
      "blockHash": "0xf016c9f3fbfc6df9e740ed29a2ce759dc7a511c3c39ccc8267f1ea9f84a2de63",
      "blockNumber": "0x577e9c",
      "from": "0x2273fFEd38ED040FBcd3e45Cd807594d27ebfAE3",
      "to": "0x67cBe2e647b543E666722192bdbf136663F71A98",
      "cumulativeGasUsed": "0x6eb4dc",
      "gasUsed": "0xa95d3",
      "contractAddress": null,
      "logs": [],
      "status": "0x1",
      "logsBloom": "0x00000000000000000000000000000000000000000000000000000000000000000000000000000000000000000000000000000000000000000000000000000000000000000000000000000000000000000000000000000000000000000000000000000000000000000000000000000000000000000000000000000000000000000000000000000000000000000000000000000000000000000000000000000000000000000000000000000000000000000000000000000000000000000000000000000000000000000000000000000000000000000000000000000000000000000000000000000000000000000000000000000000000000000000000000000000",
      "type": "0x2",
      "effectiveGasPrice": "0xc92993d0"
    },
    {
      "transactionHash": "0xf820edc8e79030ffb35c28afdcb47fbe0815aeeae0ea463ce609322b8459b1f2",
      "transactionIndex": "0x19",
      "blockHash": "0xf016c9f3fbfc6df9e740ed29a2ce759dc7a511c3c39ccc8267f1ea9f84a2de63",
      "blockNumber": "0x577e9c",
      "from": "0x2273fFEd38ED040FBcd3e45Cd807594d27ebfAE3",
      "to": "0x67cBe2e647b543E666722192bdbf136663F71A98",
      "cumulativeGasUsed": "0x81b52a",
      "gasUsed": "0x13004e",
      "contractAddress": null,
      "logs": [],
      "status": "0x1",
      "logsBloom": "0x00000000000000000000000000000000000000000000000000000000000000000000000000000000000000000000000000000000000000000000000000000000000000000000000000000000000000000000000000000000000000000000000000000000000000000000000000000000000000000000000000000000000000000000000000000000000000000000000000000000000000000000000000000000000000000000000000000000000000000000000000000000000000000000000000000000000000000000000000000000000000000000000000000000000000000000000000000000000000000000000000000000000000000000000000000000",
      "type": "0x2",
      "effectiveGasPrice": "0xc92993d0"
    },
    {
      "transactionHash": "0xe37873b07e066043a932bd3b4d7c682cc77d3ca4e3001c4f3bab8073df64aba2",
      "transactionIndex": "0x1a",
      "blockHash": "0xf016c9f3fbfc6df9e740ed29a2ce759dc7a511c3c39ccc8267f1ea9f84a2de63",
      "blockNumber": "0x577e9c",
      "from": "0x2273fFEd38ED040FBcd3e45Cd807594d27ebfAE3",
      "to": "0x3Ec11A31f21Df59C9CCDA45926b92FD9a9e84658",
      "cumulativeGasUsed": "0x84150c",
      "gasUsed": "0x25fe2",
      "contractAddress": null,
      "logs": [],
      "status": "0x1",
      "logsBloom": "0x00000000000000000000000000000000000000000000000000000000000000000000000000000000000000000000000000000000000000000000000000000000000000000000000000000000000000000000000000000000000000000000000000000000000000000000000000000000000000000000000000000000000000000000000000000000000000000000000000000000000000000000000000000000000000000000000000000000000000000000000000000000000000000000000000000000000000000000000000000000000000000000000000000000000000000000000000000000000000000000000000000000000000000000000000000000",
      "type": "0x2",
      "effectiveGasPrice": "0xc92993d0"
    },
    {
      "transactionHash": "0x3ae7d04548c1acd8e2609faf4cd972ba4869c43d25435a59cb255104d4d4c17c",
      "transactionIndex": "0x1b",
      "blockHash": "0xf016c9f3fbfc6df9e740ed29a2ce759dc7a511c3c39ccc8267f1ea9f84a2de63",
      "blockNumber": "0x577e9c",
      "from": "0x2273fFEd38ED040FBcd3e45Cd807594d27ebfAE3",
      "to": "0x3Ec11A31f21Df59C9CCDA45926b92FD9a9e84658",
      "cumulativeGasUsed": "0x89490e",
      "gasUsed": "0x53402",
      "contractAddress": null,
      "logs": [],
      "status": "0x1",
      "logsBloom": "0x00000000000000000000000000000000000000000000000000000000000000000000000000000000000000000000000000000000000000000000000000000000000000000000000000000000000000000000000000000000000000000000000000000000000000000000000000000000000000000000000000000000000000000000000000000000000000000000000000000000000000000000000000000000000000000000000000000000000000000000000000000000000000000000000000000000000000000000000000000000000000000000000000000000000000000000000000000000000000000000000000000000000000000000000000000000",
      "type": "0x2",
      "effectiveGasPrice": "0xc92993d0"
    },
    {
      "transactionHash": "0x54b85024726169aed100cf8a35b4b1f9e928c73ed4e75706db7b16067a8f1e14",
      "transactionIndex": "0x1c",
      "blockHash": "0xf016c9f3fbfc6df9e740ed29a2ce759dc7a511c3c39ccc8267f1ea9f84a2de63",
      "blockNumber": "0x577e9c",
      "from": "0x2273fFEd38ED040FBcd3e45Cd807594d27ebfAE3",
      "to": "0x3Ec11A31f21Df59C9CCDA45926b92FD9a9e84658",
      "cumulativeGasUsed": "0x8c019c",
      "gasUsed": "0x2b88e",
      "contractAddress": null,
      "logs": [],
      "status": "0x1",
      "logsBloom": "0x00000000000000000000000000000000000000000000000000000000000000000000000000000000000000000000000000000000000000000000000000000000000000000000000000000000000000000000000000000000000000000000000000000000000000000000000000000000000000000000000000000000000000000000000000000000000000000000000000000000000000000000000000000000000000000000000000000000000000000000000000000000000000000000000000000000000000000000000000000000000000000000000000000000000000000000000000000000000000000000000000000000000000000000000000000000",
      "type": "0x2",
      "effectiveGasPrice": "0xc92993d0"
    },
    {
      "transactionHash": "0xe934bf72cadd3b86197e28dd8d4d0f2f8176bfdca8ea69a57ae5328bf6c3cff8",
      "transactionIndex": "0x1d",
      "blockHash": "0xf016c9f3fbfc6df9e740ed29a2ce759dc7a511c3c39ccc8267f1ea9f84a2de63",
      "blockNumber": "0x577e9c",
      "from": "0x2273fFEd38ED040FBcd3e45Cd807594d27ebfAE3",
      "to": "0x3Ec11A31f21Df59C9CCDA45926b92FD9a9e84658",
      "cumulativeGasUsed": "0x90fdc2",
      "gasUsed": "0x4fc26",
      "contractAddress": null,
      "logs": [],
      "status": "0x1",
      "logsBloom": "0x00000000000000000000000000000000000000000000000000000000000000000000000000000000000000000000000000000000000000000000000000000000000000000000000000000000000000000000000000000000000000000000000000000000000000000000000000000000000000000000000000000000000000000000000000000000000000000000000000000000000000000000000000000000000000000000000000000000000000000000000000000000000000000000000000000000000000000000000000000000000000000000000000000000000000000000000000000000000000000000000000000000000000000000000000000000",
      "type": "0x2",
      "effectiveGasPrice": "0xc92993d0"
    },
    {
      "transactionHash": "0xa10fc00c198be27cd9a11c2e0ac35ef807e4951046d7c873f5e855fadcebb395",
      "transactionIndex": "0x1e",
      "blockHash": "0xf016c9f3fbfc6df9e740ed29a2ce759dc7a511c3c39ccc8267f1ea9f84a2de63",
      "blockNumber": "0x577e9c",
      "from": "0x2273fFEd38ED040FBcd3e45Cd807594d27ebfAE3",
      "to": "0x3Ec11A31f21Df59C9CCDA45926b92FD9a9e84658",
      "cumulativeGasUsed": "0x93b650",
      "gasUsed": "0x2b88e",
      "contractAddress": null,
      "logs": [],
      "status": "0x1",
      "logsBloom": "0x00000000000000000000000000000000000000000000000000000000000000000000000000000000000000000000000000000000000000000000000000000000000000000000000000000000000000000000000000000000000000000000000000000000000000000000000000000000000000000000000000000000000000000000000000000000000000000000000000000000000000000000000000000000000000000000000000000000000000000000000000000000000000000000000000000000000000000000000000000000000000000000000000000000000000000000000000000000000000000000000000000000000000000000000000000000",
      "type": "0x2",
      "effectiveGasPrice": "0xc92993d0"
    },
    {
      "transactionHash": "0xb98688cb7975b503eb4d8822318fdab33ae6959de011e90b76b7c5da009f1bb8",
      "transactionIndex": "0x1f",
      "blockHash": "0xf016c9f3fbfc6df9e740ed29a2ce759dc7a511c3c39ccc8267f1ea9f84a2de63",
      "blockNumber": "0x577e9c",
      "from": "0x2273fFEd38ED040FBcd3e45Cd807594d27ebfAE3",
      "to": "0x3Ec11A31f21Df59C9CCDA45926b92FD9a9e84658",
      "cumulativeGasUsed": "0x98b276",
      "gasUsed": "0x4fc26",
      "contractAddress": null,
      "logs": [],
      "status": "0x1",
      "logsBloom": "0x00000000000000000000000000000000000000000000000000000000000000000000000000000000000000000000000000000000000000000000000000000000000000000000000000000000000000000000000000000000000000000000000000000000000000000000000000000000000000000000000000000000000000000000000000000000000000000000000000000000000000000000000000000000000000000000000000000000000000000000000000000000000000000000000000000000000000000000000000000000000000000000000000000000000000000000000000000000000000000000000000000000000000000000000000000000",
      "type": "0x2",
      "effectiveGasPrice": "0xc92993d0"
    },
    {
      "transactionHash": "0x60687fed23d77158043150f6f17e8432f31ea7346451beb5b503f8f9d8ba6d97",
      "transactionIndex": "0x20",
      "blockHash": "0xf016c9f3fbfc6df9e740ed29a2ce759dc7a511c3c39ccc8267f1ea9f84a2de63",
      "blockNumber": "0x577e9c",
      "from": "0x2273fFEd38ED040FBcd3e45Cd807594d27ebfAE3",
      "to": "0x3Ec11A31f21Df59C9CCDA45926b92FD9a9e84658",
      "cumulativeGasUsed": "0x9b6b04",
      "gasUsed": "0x2b88e",
      "contractAddress": null,
      "logs": [],
      "status": "0x1",
      "logsBloom": "0x00000000000000000000000000000000000000000000000000000000000000000000000000000000000000000000000000000000000000000000000000000000000000000000000000000000000000000000000000000000000000000000000000000000000000000000000000000000000000000000000000000000000000000000000000000000000000000000000000000000000000000000000000000000000000000000000000000000000000000000000000000000000000000000000000000000000000000000000000000000000000000000000000000000000000000000000000000000000000000000000000000000000000000000000000000000",
      "type": "0x2",
      "effectiveGasPrice": "0xc92993d0"
    },
    {
      "transactionHash": "0xe10b4a78cb459b3aefe074d1bea5eed8aff5148fbbb2d167b08657a74dbbd165",
      "transactionIndex": "0x21",
      "blockHash": "0xf016c9f3fbfc6df9e740ed29a2ce759dc7a511c3c39ccc8267f1ea9f84a2de63",
      "blockNumber": "0x577e9c",
      "from": "0x2273fFEd38ED040FBcd3e45Cd807594d27ebfAE3",
      "to": "0x3Ec11A31f21Df59C9CCDA45926b92FD9a9e84658",
      "cumulativeGasUsed": "0xa0672a",
      "gasUsed": "0x4fc26",
      "contractAddress": null,
      "logs": [],
      "status": "0x1",
      "logsBloom": "0x00000000000000000000000000000000000000000000000000000000000000000000000000000000000000000000000000000000000000000000000000000000000000000000000000000000000000000000000000000000000000000000000000000000000000000000000000000000000000000000000000000000000000000000000000000000000000000000000000000000000000000000000000000000000000000000000000000000000000000000000000000000000000000000000000000000000000000000000000000000000000000000000000000000000000000000000000000000000000000000000000000000000000000000000000000000",
      "type": "0x2",
      "effectiveGasPrice": "0xc92993d0"
    },
    {
      "transactionHash": "0x393f6e4889b3ec26c2162446ad5dc55b60571796d6b88dc610fea2c736f2e703",
      "transactionIndex": "0x22",
      "blockHash": "0xf016c9f3fbfc6df9e740ed29a2ce759dc7a511c3c39ccc8267f1ea9f84a2de63",
      "blockNumber": "0x577e9c",
      "from": "0x2273fFEd38ED040FBcd3e45Cd807594d27ebfAE3",
      "to": "0x3Ec11A31f21Df59C9CCDA45926b92FD9a9e84658",
      "cumulativeGasUsed": "0xa31fb8",
      "gasUsed": "0x2b88e",
      "contractAddress": null,
      "logs": [],
      "status": "0x1",
      "logsBloom": "0x00000000000000000000000000000000000000000000000000000000000000000000000000000000000000000000000000000000000000000000000000000000000000000000000000000000000000000000000000000000000000000000000000000000000000000000000000000000000000000000000000000000000000000000000000000000000000000000000000000000000000000000000000000000000000000000000000000000000000000000000000000000000000000000000000000000000000000000000000000000000000000000000000000000000000000000000000000000000000000000000000000000000000000000000000000000",
      "type": "0x2",
      "effectiveGasPrice": "0xc92993d0"
    },
    {
      "transactionHash": "0xbbe1734774cc1925ec602160f88e6bf34bc2c6a4272dec5e4f07d9211be34a50",
      "transactionIndex": "0x23",
      "blockHash": "0xf016c9f3fbfc6df9e740ed29a2ce759dc7a511c3c39ccc8267f1ea9f84a2de63",
      "blockNumber": "0x577e9c",
      "from": "0x2273fFEd38ED040FBcd3e45Cd807594d27ebfAE3",
      "to": "0x3Ec11A31f21Df59C9CCDA45926b92FD9a9e84658",
      "cumulativeGasUsed": "0xa81bde",
      "gasUsed": "0x4fc26",
      "contractAddress": null,
      "logs": [],
      "status": "0x1",
      "logsBloom": "0x00000000000000000000000000000000000000000000000000000000000000000000000000000000000000000000000000000000000000000000000000000000000000000000000000000000000000000000000000000000000000000000000000000000000000000000000000000000000000000000000000000000000000000000000000000000000000000000000000000000000000000000000000000000000000000000000000000000000000000000000000000000000000000000000000000000000000000000000000000000000000000000000000000000000000000000000000000000000000000000000000000000000000000000000000000000",
      "type": "0x2",
      "effectiveGasPrice": "0xc92993d0"
    },
    {
      "transactionHash": "0x552334091ecbafcd59765fd9c772f608774f5633381ac37ecd25b63ae1472274",
      "transactionIndex": "0x24",
      "blockHash": "0xf016c9f3fbfc6df9e740ed29a2ce759dc7a511c3c39ccc8267f1ea9f84a2de63",
      "blockNumber": "0x577e9c",
      "from": "0x2273fFEd38ED040FBcd3e45Cd807594d27ebfAE3",
      "to": "0x3Ec11A31f21Df59C9CCDA45926b92FD9a9e84658",
      "cumulativeGasUsed": "0xaad46c",
      "gasUsed": "0x2b88e",
      "contractAddress": null,
      "logs": [],
      "status": "0x1",
      "logsBloom": "0x00000000000000000000000000000000000000000000000000000000000000000000000000000000000000000000000000000000000000000000000000000000000000000000000000000000000000000000000000000000000000000000000000000000000000000000000000000000000000000000000000000000000000000000000000000000000000000000000000000000000000000000000000000000000000000000000000000000000000000000000000000000000000000000000000000000000000000000000000000000000000000000000000000000000000000000000000000000000000000000000000000000000000000000000000000000",
      "type": "0x2",
      "effectiveGasPrice": "0xc92993d0"
    },
    {
      "transactionHash": "0x841ea9caf1045c148ad4cd37c6cd654456ce8c38bfe3cf45094a1038ce59c5c4",
      "transactionIndex": "0x25",
      "blockHash": "0xf016c9f3fbfc6df9e740ed29a2ce759dc7a511c3c39ccc8267f1ea9f84a2de63",
      "blockNumber": "0x577e9c",
      "from": "0x2273fFEd38ED040FBcd3e45Cd807594d27ebfAE3",
      "to": "0x3Ec11A31f21Df59C9CCDA45926b92FD9a9e84658",
      "cumulativeGasUsed": "0xafd092",
      "gasUsed": "0x4fc26",
      "contractAddress": null,
      "logs": [],
      "status": "0x1",
      "logsBloom": "0x00000000000000000000000000000000000000000000000000000000000000000000000000000000000000000000000000000000000000000000000000000000000000000000000000000000000000000000000000000000000000000000000000000000000000000000000000000000000000000000000000000000000000000000000000000000000000000000000000000000000000000000000000000000000000000000000000000000000000000000000000000000000000000000000000000000000000000000000000000000000000000000000000000000000000000000000000000000000000000000000000000000000000000000000000000000",
      "type": "0x2",
      "effectiveGasPrice": "0xc92993d0"
    },
    {
      "transactionHash": "0x6d6550036b5c7863415093f8fb07c803b3d61bf53033d9f94812b7e05ad52e24",
      "transactionIndex": "0x26",
      "blockHash": "0xf016c9f3fbfc6df9e740ed29a2ce759dc7a511c3c39ccc8267f1ea9f84a2de63",
      "blockNumber": "0x577e9c",
      "from": "0x2273fFEd38ED040FBcd3e45Cd807594d27ebfAE3",
      "to": "0x3Ec11A31f21Df59C9CCDA45926b92FD9a9e84658",
      "cumulativeGasUsed": "0xb28920",
      "gasUsed": "0x2b88e",
      "contractAddress": null,
      "logs": [],
      "status": "0x1",
      "logsBloom": "0x00000000000000000000000000000000000000000000000000000000000000000000000000000000000000000000000000000000000000000000000000000000000000000000000000000000000000000000000000000000000000000000000000000000000000000000000000000000000000000000000000000000000000000000000000000000000000000000000000000000000000000000000000000000000000000000000000000000000000000000000000000000000000000000000000000000000000000000000000000000000000000000000000000000000000000000000000000000000000000000000000000000000000000000000000000000",
      "type": "0x2",
      "effectiveGasPrice": "0xc92993d0"
    },
    {
      "transactionHash": "0xaf64a3a1fab0b6d78b07328a9b3debd6c44eec9f90d3c535865a2146ed2f447b",
      "transactionIndex": "0x27",
      "blockHash": "0xf016c9f3fbfc6df9e740ed29a2ce759dc7a511c3c39ccc8267f1ea9f84a2de63",
      "blockNumber": "0x577e9c",
      "from": "0x2273fFEd38ED040FBcd3e45Cd807594d27ebfAE3",
      "to": "0x3Ec11A31f21Df59C9CCDA45926b92FD9a9e84658",
      "cumulativeGasUsed": "0xb78546",
      "gasUsed": "0x4fc26",
      "contractAddress": null,
      "logs": [],
      "status": "0x1",
      "logsBloom": "0x00000000000000000000000000000000000000000000000000000000000000000000000000000000000000000000000000000000000000000000000000000000000000000000000000000000000000000000000000000000000000000000000000000000000000000000000000000000000000000000000000000000000000000000000000000000000000000000000000000000000000000000000000000000000000000000000000000000000000000000000000000000000000000000000000000000000000000000000000000000000000000000000000000000000000000000000000000000000000000000000000000000000000000000000000000000",
      "type": "0x2",
      "effectiveGasPrice": "0xc92993d0"
    },
    {
      "transactionHash": "0x4416859c6f597eb213b8427741da2dea0e6d36259825af72ebe3b7b6a8257376",
      "transactionIndex": "0x28",
      "blockHash": "0xf016c9f3fbfc6df9e740ed29a2ce759dc7a511c3c39ccc8267f1ea9f84a2de63",
      "blockNumber": "0x577e9c",
      "from": "0x2273fFEd38ED040FBcd3e45Cd807594d27ebfAE3",
      "to": "0x3Ec11A31f21Df59C9CCDA45926b92FD9a9e84658",
      "cumulativeGasUsed": "0xba3dd4",
      "gasUsed": "0x2b88e",
      "contractAddress": null,
      "logs": [],
      "status": "0x1",
      "logsBloom": "0x00000000000000000000000000000000000000000000000000000000000000000000000000000000000000000000000000000000000000000000000000000000000000000000000000000000000000000000000000000000000000000000000000000000000000000000000000000000000000000000000000000000000000000000000000000000000000000000000000000000000000000000000000000000000000000000000000000000000000000000000000000000000000000000000000000000000000000000000000000000000000000000000000000000000000000000000000000000000000000000000000000000000000000000000000000000",
      "type": "0x2",
      "effectiveGasPrice": "0xc92993d0"
    },
    {
      "transactionHash": "0xea8bfd29c186f21b2835c15bbfd70e09301e068db3a0e9194e294f9b2bfcf1c2",
      "transactionIndex": "0x29",
      "blockHash": "0xf016c9f3fbfc6df9e740ed29a2ce759dc7a511c3c39ccc8267f1ea9f84a2de63",
      "blockNumber": "0x577e9c",
      "from": "0x2273fFEd38ED040FBcd3e45Cd807594d27ebfAE3",
      "to": "0x3Ec11A31f21Df59C9CCDA45926b92FD9a9e84658",
      "cumulativeGasUsed": "0xbf39fa",
      "gasUsed": "0x4fc26",
      "contractAddress": null,
      "logs": [],
      "status": "0x1",
      "logsBloom": "0x00000000000000000000000000000000000000000000000000000000000000000000000000000000000000000000000000000000000000000000000000000000000000000000000000000000000000000000000000000000000000000000000000000000000000000000000000000000000000000000000000000000000000000000000000000000000000000000000000000000000000000000000000000000000000000000000000000000000000000000000000000000000000000000000000000000000000000000000000000000000000000000000000000000000000000000000000000000000000000000000000000000000000000000000000000000",
      "type": "0x2",
      "effectiveGasPrice": "0xc92993d0"
    },
    {
      "transactionHash": "0xff0ddb351d2dfbe6a452457c3549548faacfc09d4eeded8748673492b30bc56b",
      "transactionIndex": "0x2a",
      "blockHash": "0xf016c9f3fbfc6df9e740ed29a2ce759dc7a511c3c39ccc8267f1ea9f84a2de63",
      "blockNumber": "0x577e9c",
      "from": "0x2273fFEd38ED040FBcd3e45Cd807594d27ebfAE3",
      "to": "0x3Ec11A31f21Df59C9CCDA45926b92FD9a9e84658",
      "cumulativeGasUsed": "0xc1f288",
      "gasUsed": "0x2b88e",
      "contractAddress": null,
      "logs": [],
      "status": "0x1",
      "logsBloom": "0x00000000000000000000000000000000000000000000000000000000000000000000000000000000000000000000000000000000000000000000000000000000000000000000000000000000000000000000000000000000000000000000000000000000000000000000000000000000000000000000000000000000000000000000000000000000000000000000000000000000000000000000000000000000000000000000000000000000000000000000000000000000000000000000000000000000000000000000000000000000000000000000000000000000000000000000000000000000000000000000000000000000000000000000000000000000",
      "type": "0x2",
      "effectiveGasPrice": "0xc92993d0"
    }
  ],
  "libraries": [],
  "pending": [],
  "returns": {},
  "timestamp": 1713559199,
  "chain": 11155111,
  "multi": false,
  "commit": "746c931"
}