{
  "transactions": [
    {
      "hash": "0x280464a66cd241ea5fbea1a19412b483e07be8520a3ff2a8ba2d1c20e1c18b2d",
      "transactionType": "CREATE",
      "contractName": "MMOSessionModule",
      "contractAddress": "0x2a1FC6D7eEd6cb6e4194A4Bce252c0d4f3bCBf76",
      "function": null,
      "arguments": null,
      "transaction": {
        "type": "0x02",
        "from": "0x2273ffed38ed040fbcd3e45cd807594d27ebfae3",
        "gas": "0x86f80",
        "value": "0x0",
        "data": "0x608060405234801561001057600080fd5b506106bb806100206000396000f3fe608060405234801561001057600080fd5b506004361061004c5760003560e01c80634051ddac14610051578063467e4a2f1461006f578063c4d66de814610090578063ce690668146100a5575b600080fd5b6100596100b8565b6040516100669190610567565b60405180910390f35b61008261007d3660046105f2565b61018e565b604051908152602001610066565b6100a361009e3660046105f2565b610278565b005b6100a36100b3366004610616565b6103d4565b6100ec604051806080016040528060006001600160a01b031681526020016060815260200160608152602001606081525090565b604080516080810182523081528151600080825260208281019094529192830191610127565b60608152602001906001900390816101125790505b508152602001600060405190808252806020026020018201604052801561016257816020015b606081526020019060019003908161014d5790505b50815260200160405180604001604052806005815260200164086c2e8c6d60db1b815250815250905090565b60405163070c412b60e01b8152602060048201526007602482015266706c617965727360c81b60448201526000906001600160a01b0383169063070c412b90606401602060405180830381865afa1580156101ed573d6000803e3d6000fd5b505050506040513d601f19601f82011682018060405250810190610211919061064f565b6001600160a01b031663c2e522066040518163ffffffff1660e01b8152600401602060405180830381865afa15801561024e573d6000803e3d6000fd5b505050506040513d601f19601f82011682018060405250810190610272919061066c565b92915050565b6000816001600160a01b031663eab150676040518163ffffffff1660e01b8152600401602060405180830381865afa1580156102b8573d6000803e3d6000fd5b505050506040513d601f19601f820116820180604052508101906102dc919061064f565b604080516337dffb9360e01b81526001600160a01b0385811660048301526024820192909252601060448201526f4d4d4f53657373696f6e456e7469747960801b60648201529116906337dffb93906084016020604051808303816000875af115801561034d573d6000803e3d6000fd5b505050506040513d601f19601f82011682018060405250810190610371919061064f565b604051633c5c0f4960e21b81526001600160a01b0380831660048301529192509083169063f1703d2490602401600060405180830381600087803b1580156103b857600080fd5b505af11580156103cc573d6000803e3d6000fd5b505050505050565b60405163070c412b60e01b8152602060048201526007602482015266706c617965727360c81b60448201526001600160a01b0383169063070c412b90606401602060405180830381865afa158015610430573d6000803e3d6000fd5b505050506040513d601f19601f82011682018060405250810190610454919061064f565b604051635893afcd60e11b81526001600160a01b038381166004830152919091169063b1275f9a906024016020604051808303816000875af115801561049e573d6000803e3d6000fd5b505050506040513d601f19601f820116820180604052508101906104c2919061066c565b505050565b6000815180845260005b818110156104ed576020818501810151868301820152016104d1565b506000602082860101526020601f19601f83011685010191505092915050565b60008282518085526020808601955060208260051b8401016020860160005b8481101561055a57601f198684030189526105488383516104c7565b9884019892509083019060010161052c565b5090979650505050505050565b602080825282516001600160a01b0316828201528201516080604083015260009061059560a084018261050d565b90506040840151601f19808584030160608601526105b3838361050d565b92506060860151915080858403016080860152506105d182826104c7565b95945050505050565b6001600160a01b03811681146105ef57600080fd5b50565b60006020828403121561060457600080fd5b813561060f816105da565b9392505050565b6000806040838503121561062957600080fd5b8235610634816105da565b91506020830135610644816105da565b809150509250929050565b60006020828403121561066157600080fd5b815161060f816105da565b60006020828403121561067e57600080fd5b505191905056fea26469706673582212207519425360751c0e3d66842106642b599356ae73ace1e83ac31c247e8443d2b864736f6c63430008180033",
        "nonce": "0x13e",
        "accessList": []
      },
      "additionalContracts": [],
      "isFixedGasLimit": false
    },
    {
      "hash": "0xfd9360f225a372513f40a65619421a4843726d86fbab868b6e53ca0fa40d796a",
      "transactionType": "CALL",
      "contractName": null,
      "contractAddress": "0xE17065CfD174eF6C9e2251ffd360019E8C492012",
      "function": "register(address)",
      "arguments": [
        "0x2a1FC6D7eEd6cb6e4194A4Bce252c0d4f3bCBf76"
      ],
      "transaction": {
        "type": "0x02",
        "from": "0x2273ffed38ed040fbcd3e45cd807594d27ebfae3",
        "to": "0xe17065cfd174ef6c9e2251ffd360019e8c492012",
        "gas": "0x10da9",
        "value": "0x0",
        "data": "0x4420e4860000000000000000000000002a1fc6d7eed6cb6e4194a4bce252c0d4f3bcbf76",
        "nonce": "0x13f",
        "accessList": []
      },
      "additionalContracts": [],
      "isFixedGasLimit": false
    },
    {
      "hash": "0x33c9653178de46bed40add1e39ff66bd3f4cc3ba8494164eadee2b166fd449ee",
      "transactionType": "CREATE",
      "contractName": "MMOSessionEntity",
      "contractAddress": "0xD366248253AfD19930998bC4C1DBC66dfF113F64",
      "function": null,
      "arguments": null,
      "transaction": {
        "type": "0x02",
        "from": "0x2273ffed38ed040fbcd3e45cd807594d27ebfae3",
        "gas": "0xd7fe9",
        "value": "0x0",
        "data": "0x608060405234801561001057600080fd5b50610b5a806100206000396000f3fe608060405234801561001057600080fd5b50600436106100935760003560e01c8063c3fe3e2811610066578063c3fe3e28146100ff578063c4d66de81461012a578063e82d2a851461013d578063ee88f1231461015d578063f71d96cb1461017257600080fd5b80630cb6aaf1146100985780635bb12a1a146100c1578063b1275f9a146100d6578063c2e52206146100f7575b600080fd5b6100ab6100a63660046107a0565b610185565b6040516100b891906107ff565b60405180910390f35b6100d46100cf366004610835565b610231565b005b6100e96100e4366004610835565b6103a0565b6040519081526020016100b8565b6002546100e9565b600054610112906001600160a01b031681565b6040516001600160a01b0390911681526020016100b8565b6100d4610138366004610835565b610437565b61015061014b366004610850565b61050f565b6040516100b8919061087a565b61016561069d565b6040516100b891906108c7565b6101126101803660046107a0565b610776565b6001818154811061019557600080fd5b9060005260206000200160009150905080546101b09061092b565b80601f01602080910402602001604051908101604052809291908181526020018280546101dc9061092b565b80156102295780601f106101fe57610100808354040283529160200191610229565b820191906000526020600020905b81548152906001019060200180831161020c57829003601f168201915b505050505081565b6001600160a01b03811660009081526003602052604081205490036102695760405163184537df60e21b815260040160405180910390fd5b6001600160a01b03811660009081526003602052604081205461028e9060019061097b565b60028054919250906102a29060019061097b565b815481106102b2576102b261098e565b600091825260209091200154600280546001600160a01b0390921691839081106102de576102de61098e565b600091825260209091200180546001600160a01b0319166001600160a01b03929092169190911790556103128160016109a4565b60036000600284815481106103295761032961098e565b60009182526020808320909101546001600160a01b03168352820192909252604001902055600280548061035f5761035f6109b7565b60008281526020808220830160001990810180546001600160a01b03191690559092019092556001600160a01b039390931681526003909252506040812055565b6001600160a01b038116600090815260036020526040812054156103d75760405163301c5d0160e21b815260040160405180910390fd5b50600280546001810182557f405787fa12a823e0f2b7631cc41b3ba8828b3321ca811111fa75cd3aa3bb5ace0180546001600160a01b039093166001600160a01b0319909316831790555460009182526003602052604090912081905590565b600080546001600160a01b0319166001600160a01b0383161781556001805480820182559152604080518082019091526007815266706c617965727360c81b60208201527fb10e2d527612073b26eecdfd717e6a320cf44b4afac2b0732d9fcbe2b7fa0cf6909101906104aa9082610a34565b5060018054808201825560009190915260408051808201909152600b81526a0e0d8c2f2cae492dcc8caf60ab1b60208201527fb10e2d527612073b26eecdfd717e6a320cf44b4afac2b0732d9fcbe2b7fa0cf69091019061050b9082610a34565b5050565b6060600061051e836002610af4565b67ffffffffffffffff811115610536576105366109cd565b60405190808252806020026020018201604052801561055f578160200160208202803683370190505b506001600160a01b03851660009081526003602052604081205491925090819085111561058f57600091506105b6565b6001600160a01b0386166000908152600360205260409020546105b390869061097b565b91505b6002546001600160a01b0387166000908152600360205260409020546105dd9087906109a4565b11156105ec5750600254610613565b6001600160a01b0386166000908152600360205260409020546106109086906109a4565b90505b6000825b8281101561068f57600281815481106106325761063261098e565b9060005260206000200160009054906101000a90046001600160a01b03168583815181106106625761066261098e565b6001600160a01b03909216602092830291909101909101528161068481610b0b565b925050600101610617565b509293505050505b92915050565b60606001805480602002602001604051908101604052809291908181526020016000905b8282101561076d5783829060005260206000200180546106e09061092b565b80601f016020809104026020016040519081016040528092919081815260200182805461070c9061092b565b80156107595780601f1061072e57610100808354040283529160200191610759565b820191906000526020600020905b81548152906001019060200180831161073c57829003601f168201915b5050505050815260200190600101906106c1565b50505050905090565b6002818154811061078657600080fd5b6000918252602090912001546001600160a01b0316905081565b6000602082840312156107b257600080fd5b5035919050565b6000815180845260005b818110156107df576020818501810151868301820152016107c3565b506000602082860101526020601f19601f83011685010191505092915050565b60208152600061081260208301846107b9565b9392505050565b80356001600160a01b038116811461083057600080fd5b919050565b60006020828403121561084757600080fd5b61081282610819565b6000806040838503121561086357600080fd5b61086c83610819565b946020939093013593505050565b6020808252825182820181905260009190848201906040850190845b818110156108bb5783516001600160a01b031683529284019291840191600101610896565b50909695505050505050565b600060208083016020845280855180835260408601915060408160051b87010192506020870160005b8281101561091e57603f1988860301845261090c8583516107b9565b945092850192908501906001016108f0565b5092979650505050505050565b600181811c9082168061093f57607f821691505b60208210810361095f57634e487b7160e01b600052602260045260246000fd5b50919050565b634e487b7160e01b600052601160045260246000fd5b8181038181111561069757610697610965565b634e487b7160e01b600052603260045260246000fd5b8082018082111561069757610697610965565b634e487b7160e01b600052603160045260246000fd5b634e487b7160e01b600052604160045260246000fd5b601f821115610a2f576000816000526020600020601f850160051c81016020861015610a0c5750805b601f850160051c820191505b81811015610a2b57828155600101610a18565b5050505b505050565b815167ffffffffffffffff811115610a4e57610a4e6109cd565b610a6281610a5c845461092b565b846109e3565b602080601f831160018114610a975760008415610a7f5750858301515b600019600386901b1c1916600185901b178555610a2b565b600085815260208120601f198616915b82811015610ac657888601518255948401946001909101908401610aa7565b5085821015610ae45787850151600019600388901b60f8161c191681555b5050505050600190811b01905550565b808202811582820484141761069757610697610965565b600060018201610b1d57610b1d610965565b506001019056fea2646970667358221220aa82dc7bdbb2a8a9d63f050067248692e88d5ca17e82097c3bf1572e59fef10064736f6c63430008180033",
        "nonce": "0x140",
        "accessList": []
      },
      "additionalContracts": [],
      "isFixedGasLimit": false
    },
    {
      "hash": "0xaf7a227238d6d4b06fec3f56c71b0b7f90e630486d16fd8aeecf5e68f4e6e85d",
      "transactionType": "CALL",
      "contractName": null,
      "contractAddress": "0xE040f1a4d5Cea3A2A9dC1D6D14997516844f2C1F",
      "function": "registerEntity(string,address)",
      "arguments": [
        "\"MMOSessionEntity\"",
        "0xD366248253AfD19930998bC4C1DBC66dfF113F64"
      ],
      "transaction": {
        "type": "0x02",
        "from": "0x2273ffed38ed040fbcd3e45cd807594d27ebfae3",
        "to": "0xe040f1a4d5cea3a2a9dc1d6d14997516844f2c1f",
        "gas": "0xb76d",
        "value": "0x0",
        "data": "0xb2533d9d0000000000000000000000000000000000000000000000000000000000000040000000000000000000000000d366248253afd19930998bc4c1dbc66dff113f6400000000000000000000000000000000000000000000000000000000000000104d4d4f53657373696f6e456e7469747900000000000000000000000000000000",
        "nonce": "0x141",
        "accessList": []
      },
      "additionalContracts": [],
      "isFixedGasLimit": false
    },
    {
      "hash": "0x25bc7eaf3b9479519de5bc074e5cb0a82354b058aacdba62684dd92c8264f2aa",
      "transactionType": "CREATE",
      "contractName": "MMONeighborInteractionModule",
      "contractAddress": "0xdEacB3118581872c0A295abe29EeA3C551F6bB6F",
      "function": null,
      "arguments": null,
      "transaction": {
        "type": "0x02",
        "from": "0x2273ffed38ed040fbcd3e45cd807594d27ebfae3",
        "gas": "0x1e44bd",
        "value": "0x0",
        "data": "0x60c060405260116080908152702230b4b63c9024b73a32b930b1ba34b7b760791b60a052600090620000329082620002af565b5060408051608081018252600781830190815266706c617965727360c81b606083015281528151808301909252600b82526a18d85b925b9d195c9858dd60aa1b60208381019190915281019190915262000091906001906002620000e6565b5060408051606081018252600e602082019081526d19d95d141b185e595c90dbdd5b9d60921b92820192909252908152620000d190600290600162000143565b50348015620000df57600080fd5b506200037b565b82805482825590600052602060002090810192821562000131579160200282015b82811115620001315782518290620001209082620002af565b509160200191906001019062000107565b506200013f9291506200018e565b5090565b82805482825590600052602060002090810192821562000131579160200282015b828111156200013157825182906200017d9082620002af565b509160200191906001019062000164565b808211156200013f576000620001a58282620001af565b506001016200018e565b508054620001bd906200021e565b6000825580601f10620001ce575050565b601f016020900490600052602060002090810190620001ee9190620001f1565b50565b5b808211156200013f5760008155600101620001f2565b634e487b7160e01b600052604160045260246000fd5b600181811c908216806200023357607f821691505b6020821081036200025457634e487b7160e01b600052602260045260246000fd5b50919050565b601f821115620002aa576000816000526020600020601f850160051c81016020861015620002855750805b601f850160051c820191505b81811015620002a65782815560010162000291565b5050505b505050565b81516001600160401b03811115620002cb57620002cb62000208565b620002e381620002dc84546200021e565b846200025a565b602080601f8311600181146200031b5760008415620003025750858301515b600019600386901b1c1916600185901b178555620002a6565b600085815260208120601f198616915b828110156200034c578886015182559484019460019091019084016200032b565b50858210156200036b5787850151600019600388901b60f8161c191681555b5050505050600190811b01905550565b6117f6806200038b6000396000f3fe608060405234801561001057600080fd5b50600436106100f55760003560e01c80634b24305311610097578063c4d66de811610066578063c4d66de814610201578063ce69066814610214578063eac0bd9014610227578063ebb187a21461023a57600080fd5b80634b243053146101a65780634c5a0aaa146101b957806371f1551f146101cc578063bf189ed9146101ec57600080fd5b8063401b5220116100d3578063401b5220146101635780634051ddac14610176578063467e4a2f1461018b5780634affb2601461019e57600080fd5b8063072bfb8f146100fa5780631848c3c9146101225780631b73f83014610143575b600080fd5b61010d6101083660046112b7565b61024d565b60405190151581526020015b60405180910390f35b6101356101303660046112b7565b61032f565b604051908152602001610119565b6101566101513660046112f0565b61040a565b604051610119919061134f565b61010d6101713660046112b7565b6104b6565b61017e610554565b60405161011991906113bc565b61013561019936600461142f565b610622565b6101566106f7565b6101356101b43660046112b7565b610704565b6101356101c736600461142f565b6107a2565b6101df6101da36600461142f565b61084d565b604051610119919061144c565b6101ff6101fa3660046112b7565b610920565b005b6101ff61020f36600461142f565b610aeb565b6101ff6102223660046112b7565b610d7b565b6101566102353660046112f0565b610fda565b6101ff610248366004611490565b610fea565b60405163070c412b60e01b81526000906001600160a01b0384169063070c412b9061027a906004016114d1565b602060405180830381865afa158015610297573d6000803e3d6000fd5b505050506040513d601f19601f820116820180604052508101906102bb91906114f6565b60405163dac732f360e01b81526001600160a01b038481166004830152919091169063dac732f3906024015b602060405180830381865afa158015610304573d6000803e3d6000fd5b505050506040513d601f19601f820116820180604052508101906103289190611513565b9392505050565b60405163070c412b60e01b81526000906001600160a01b0384169063070c412b9061035c906004016114d1565b602060405180830381865afa158015610379573d6000803e3d6000fd5b505050506040513d601f19601f8201168201806040525081019061039d91906114f6565b6040516306b7053b60e01b81526001600160a01b03848116600483015291909116906306b7053b906024015b602060405180830381865afa1580156103e6573d6000803e3d6000fd5b505050506040513d601f19601f820116820180604052508101906103289190611535565b6001818154811061041a57600080fd5b9060005260206000200160009150905080546104359061154e565b80601f01602080910402602001604051908101604052809291908181526020018280546104619061154e565b80156104ae5780601f10610483576101008083540402835291602001916104ae565b820191906000526020600020905b81548152906001019060200180831161049157829003601f168201915b505050505081565b60405163070c412b60e01b81526000906001600160a01b0384169063070c412b906104e3906004016114d1565b602060405180830381865afa158015610500573d6000803e3d6000fd5b505050506040513d601f19601f8201168201806040525081019061052491906114f6565b604051634d3337bb60e11b81526001600160a01b0384811660048301529190911690639a666f76906024016102e7565b610588604051806080016040528060006001600160a01b031681526020016060815260200160608152602001606081525090565b60408051608081018252308152815160018082528184019093529091602083019190816020015b60608152602001906001900390816105af575050815260408051600080825260208281019093529190920191906105f6565b60608152602001906001900390816105e15790505b50815260200160405180604001604052806005815260200164086c2e8c6d60db1b815250815250905090565b60405163070c412b60e01b81526000906001600160a01b0383169063070c412b9061064f9060040161159e565b602060405180830381865afa15801561066c573d6000803e3d6000fd5b505050506040513d601f19601f8201168201806040525081019061069091906114f6565b6001600160a01b031663c2e522066040518163ffffffff1660e01b8152600401602060405180830381865afa1580156106cd573d6000803e3d6000fd5b505050506040513d601f19601f820116820180604052508101906106f19190611535565b92915050565b600080546104359061154e565b60405163070c412b60e01b81526000906001600160a01b0384169063070c412b90610731906004016114d1565b602060405180830381865afa15801561074e573d6000803e3d6000fd5b505050506040513d601f19601f8201168201806040525081019061077291906114f6565b60405163fe436c5360e01b81526001600160a01b038481166004830152919091169063fe436c53906024016103c9565b60405163070c412b60e01b81526000906001600160a01b0383169063070c412b906107cf906004016114d1565b602060405180830381865afa1580156107ec573d6000803e3d6000fd5b505050506040513d601f19601f8201168201806040525081019061081091906114f6565b6001600160a01b03166317c48aee6040518163ffffffff1660e01b8152600401602060405180830381865afa1580156106cd573d6000803e3d6000fd5b60405163070c412b60e01b81526060906001600160a01b0383169063070c412b9061087a906004016114d1565b602060405180830381865afa158015610897573d6000803e3d6000fd5b505050506040513d601f19601f820116820180604052508101906108bb91906114f6565b6001600160a01b031663a1f2d3146040518163ffffffff1660e01b8152600401600060405180830381865afa1580156108f8573d6000803e3d6000fd5b505050506040513d6000823e601f3d908101601f191682016040526106f19190810190611614565b60405163070c412b60e01b81526000906001600160a01b0384169063070c412b9061094d906004016114d1565b602060405180830381865afa15801561096a573d6000803e3d6000fd5b505050506040513d601f19601f8201168201806040525081019061098e91906114f6565b604051630381634560e41b81526001600160a01b0384811660048301529190911690633816345090602401602060405180830381865afa1580156109d6573d6000803e3d6000fd5b505050506040513d601f19601f820116820180604052508101906109fa9190611535565b905080600003610a1d57604051630baae5ab60e31b815260040160405180910390fd5b60405163070c412b60e01b81526001600160a01b0384169063070c412b90610a47906004016114d1565b602060405180830381865afa158015610a64573d6000803e3d6000fd5b505050506040513d601f19601f82011682018060405250810190610a8891906114f6565b604051639ce3a19960e01b81526001600160a01b0384811660048301529190911690639ce3a199906024015b600060405180830381600087803b158015610ace57600080fd5b505af1158015610ae2573d6000803e3d6000fd5b50505050505050565b6000816001600160a01b031663eab150676040518163ffffffff1660e01b8152600401602060405180830381865afa158015610b2b573d6000803e3d6000fd5b505050506040513d601f19601f82011682018060405250810190610b4f91906114f6565b604080516337dffb9360e01b81526001600160a01b0385811660048301526024820192909252601c60448201527f4d4d4f4e65696768626f72496e746572616374696f6e456e746974790000000060648201529116906337dffb93906084016020604051808303816000875af1158015610bcd573d6000803e3d6000fd5b505050506040513d601f19601f82011682018060405250810190610bf191906114f6565b604051633c5c0f4960e21b81526001600160a01b0380831660048301529192509083169063f1703d2490602401600060405180830381600087803b158015610c3857600080fd5b505af1158015610c4c573d6000803e3d6000fd5b505050506000826001600160a01b031663eab150676040518163ffffffff1660e01b8152600401602060405180830381865afa158015610c90573d6000803e3d6000fd5b505050506040513d601f19601f82011682018060405250810190610cb491906114f6565b604080516337dffb9360e01b81526001600160a01b0386811660048301526024820192909252601060448201526f4d4d4f53657373696f6e456e7469747960801b60648201529116906337dffb93906084016020604051808303816000875af1158015610d25573d6000803e3d6000fd5b505050506040513d601f19601f82011682018060405250810190610d4991906114f6565b604051633c5c0f4960e21b81526001600160a01b0380831660048301529192509084169063f1703d2490602401610ab4565b60405163070c412b60e01b81526000906001600160a01b0384169063070c412b90610da89060040161159e565b602060405180830381865afa158015610dc5573d6000803e3d6000fd5b505050506040513d601f19601f82011682018060405250810190610de991906114f6565b604051635893afcd60e11b81526001600160a01b038481166004830152919091169063b1275f9a906024016020604051808303816000875af1158015610e33573d6000803e3d6000fd5b505050506040513d601f19601f82011682018060405250810190610e579190611535565b90506002610e6484610622565b610e6e91906116aa565b600003610fd55760405163070c412b60e01b81526001600160a01b0384169063070c412b90610e9f906004016114d1565b602060405180830381865afa158015610ebc573d6000803e3d6000fd5b505050506040513d601f19601f82011682018060405250810190610ee091906114f6565b604051632e23fe8b60e21b81526001600160a01b038481166004830152919091169063b88ffa2c90602401600060405180830381600087803b158015610f2557600080fd5b505af1158015610f39573d6000803e3d6000fd5b505060405163070c412b60e01b81526001600160a01b038616925063070c412b9150610f67906004016114d1565b602060405180830381865afa158015610f84573d6000803e3d6000fd5b505050506040513d601f19601f82011682018060405250810190610fa891906114f6565b6001600160a01b0316637a63a8a7826040518263ffffffff1660e01b8152600401610ab491815260200190565b505050565b6002818154811061041a57600080fd5b60405163070c412b60e01b81526000906001600160a01b0385169063070c412b90611017906004016114d1565b602060405180830381865afa158015611034573d6000803e3d6000fd5b505050506040513d601f19601f8201168201806040525081019061105891906114f6565b60405163dac732f360e01b81526001600160a01b038581166004830152919091169063dac732f390602401602060405180830381865afa1580156110a0573d6000803e3d6000fd5b505050506040513d601f19601f820116820180604052508101906110c49190611513565b9050806110e457604051630da4cc7560e31b815260040160405180910390fd5b60405163070c412b60e01b81526000906001600160a01b0386169063070c412b906111119060040161159e565b602060405180830381865afa15801561112e573d6000803e3d6000fd5b505050506040513d601f19601f8201168201806040525081019061115291906114f6565b60405163e82d2a8560e01b81526001600160a01b03868116600483015260248201869052919091169063e82d2a8590604401600060405180830381865afa1580156111a1573d6000803e3d6000fd5b505050506040513d6000823e601f3d908101601f191682016040526111c991908101906116cc565b60405163070c412b60e01b81529091506001600160a01b0386169063070c412b906111f6906004016114d1565b602060405180830381865afa158015611213573d6000803e3d6000fd5b505050506040513d601f19601f8201168201806040525081019061123791906114f6565b6001600160a01b031663b0f9a62f8583866040518463ffffffff1660e01b81526004016112669392919061175b565b600060405180830381600087803b15801561128057600080fd5b505af1158015611294573d6000803e3d6000fd5b505050505050505050565b6001600160a01b03811681146112b457600080fd5b50565b600080604083850312156112ca57600080fd5b82356112d58161129f565b915060208301356112e58161129f565b809150509250929050565b60006020828403121561130257600080fd5b5035919050565b6000815180845260005b8181101561132f57602081850181015186830182015201611313565b506000602082860101526020601f19601f83011685010191505092915050565b6020815260006103286020830184611309565b60008282518085526020808601955060208260051b8401016020860160005b848110156113af57601f1986840301895261139d838351611309565b98840198925090830190600101611381565b5090979650505050505050565b602080825282516001600160a01b031682820152820151608060408301526000906113ea60a0840182611362565b90506040840151601f19808584030160608601526114088383611362565b92506060860151915080858403016080860152506114268282611309565b95945050505050565b60006020828403121561144157600080fd5b81356103288161129f565b6020808252825182820181905260009190848201906040850190845b8181101561148457835183529284019291840191600101611468565b50909695505050505050565b6000806000606084860312156114a557600080fd5b83356114b08161129f565b925060208401356114c08161129f565b929592945050506040919091013590565b6020808252600b908201526a18d85b925b9d195c9858dd60aa1b604082015260600190565b60006020828403121561150857600080fd5b81516103288161129f565b60006020828403121561152557600080fd5b8151801515811461032857600080fd5b60006020828403121561154757600080fd5b5051919050565b600181811c9082168061156257607f821691505b60208210810361158257634e487b7160e01b600052602260045260246000fd5b50919050565b634e487b7160e01b600052604160045260246000fd5b602080825260079082015266706c617965727360c81b604082015260600190565b604051601f8201601f1916810167ffffffffffffffff811182821017156115e8576115e8611588565b604052919050565b600067ffffffffffffffff82111561160a5761160a611588565b5060051b60200190565b6000602080838503121561162757600080fd5b825167ffffffffffffffff81111561163e57600080fd5b8301601f8101851361164f57600080fd5b805161166261165d826115f0565b6115bf565b81815260059190911b8201830190838101908783111561168157600080fd5b928401925b8284101561169f57835182529284019290840190611686565b979650505050505050565b6000826116c757634e487b7160e01b600052601260045260246000fd5b500690565b600060208083850312156116df57600080fd5b825167ffffffffffffffff8111156116f657600080fd5b8301601f8101851361170757600080fd5b805161171561165d826115f0565b81815260059190911b8201830190838101908783111561173457600080fd5b928401925b8284101561169f57835161174c8161129f565b82529284019290840190611739565b6001600160a01b038481168252606060208084018290528551918401829052600092868201929091906080860190855b818110156117a957855185168352948301949183019160010161178b565b50508094505050505082604083015294935050505056fea2646970667358221220cce580de87dd707a455deb3714237dc3d668a9155677f1e05c170b4fd99790a264736f6c63430008180033",
        "nonce": "0x142",
        "accessList": []
      },
      "additionalContracts": [],
      "isFixedGasLimit": false
    },
    {
      "hash": "0xdcbe8da39e9688f0f5036d932ef3f270ef2a6f84dc8c0eebda1ceb6c786e6cef",
      "transactionType": "CALL",
      "contractName": null,
      "contractAddress": "0xE17065CfD174eF6C9e2251ffd360019E8C492012",
      "function": "register(address)",
      "arguments": [
        "0xdEacB3118581872c0A295abe29EeA3C551F6bB6F"
      ],
      "transaction": {
        "type": "0x02",
        "from": "0x2273ffed38ed040fbcd3e45cd807594d27ebfae3",
        "to": "0xe17065cfd174ef6c9e2251ffd360019e8c492012",
        "gas": "0x10da9",
        "value": "0x0",
        "data": "0x4420e486000000000000000000000000deacb3118581872c0a295abe29eea3c551f6bb6f",
        "nonce": "0x143",
        "accessList": []
      },
      "additionalContracts": [],
      "isFixedGasLimit": false
    },
    {
      "hash": "0xefc2e605cb9805d9921c0bc165ef4be1f1a49d325686e1473fc34e545d6349aa",
      "transactionType": "CREATE",
      "contractName": "MMONeighborInteractionEntity",
      "contractAddress": "0x62C6E45C3F0F40fA72a5242905CC5ACB13EE24e3",
      "function": null,
      "arguments": null,
      "transaction": {
        "type": "0x02",
        "from": "0x2273ffed38ed040fbcd3e45cd807594d27ebfae3",
        "gas": "0x10bad1",
        "value": "0x0",
        "data": "0x608060405234801561001057600080fd5b50610e4b806100206000396000f3fe608060405234801561001057600080fd5b50600436106101215760003560e01c8063a1f2d314116100ad578063c4d66de811610071578063c4d66de81461034f578063d8dbcfc814610362578063dac732f314610375578063ee88f123146103a0578063fe436c53146103b557600080fd5b8063a1f2d314146102a6578063a7e45e45146102bb578063b0f9a62f146102fe578063b88ffa2c14610311578063c3fe3e281461032457600080fd5b806338163450116100f457806338163450146101e05780637a63a8a7146102005780639a666f76146102455780639ce3a199146102805780639d0b30141461029357600080fd5b806306b7053b146101265780630ba460ff146101595780630cb6aaf1146101b757806317c48aee146101d7575b600080fd5b610146610134366004610a36565b60036020526000908152604090205481565b6040519081526020015b60405180910390f35b610192610167366004610a58565b6008602052600090815260409020805460028201546003909201546001600160a01b03909116919083565b604080516001600160a01b039094168452602084019290925290820152606001610150565b6101ca6101c5366004610a58565b6103d5565b6040516101509190610ab7565b61014660075481565b6101466101ee366004610a36565b60046020526000908152604090205481565b61024361020e366004610a58565b600580546001810182556000919091527f036b6384b5eca791c62761152d0c79bb0604c104a5fb6f4eb0703f3154bb3db00155565b005b610270610253366004610a36565b6001600160a01b0316600090815260046020526040902054151590565b6040519015158152602001610150565b61024361028e366004610a36565b610481565b6101466102a1366004610a58565b6105eb565b6102ae61060c565b6040516101509190610aca565b6102436102c9366004610a58565b600680546001810182556000919091527ff652222313e28459528d920b65115c16c04f3efc82aaedc97be59f3f377c0d3f0155565b61024361030c366004610b24565b610664565b61024361031f366004610a36565b61078c565b600054610337906001600160a01b031681565b6040516001600160a01b039091168152602001610150565b61024361035d366004610a36565b61083c565b610146610370366004610a58565b6108b7565b610270610383366004610a36565b6001600160a01b0316600090815260026020526040902054151590565b6103a86108c7565b6040516101509190610c04565b6101466103c3366004610a36565b60026020526000908152604090205481565b600181815481106103e557600080fd5b90600052602060002001600091509050805461040090610c68565b80601f016020809104026020016040519081016040528092919081815260200182805461042c90610c68565b80156104795780601f1061044e57610100808354040283529160200191610479565b820191906000526020600020905b81548152906001019060200180831161045c57829003601f168201915b505050505081565b6001600160a01b0381166000908152600460209081526040808320548084526008835281842060010180548351818602810186019094528084529194939091908301828280156104fa57602002820191906000526020600020905b81546001600160a01b031681526001909101906020018083116104dc575b5050505050905060005b81518110156105515760006004600084848151811061052557610525610ca2565b6020908102919091018101516001600160a01b0316825281019190915260400160002055600101610504565b50600082815260086020818152604080842080546001600160a01b031685526003808452828620869055429082015560028101859055815185815280840192839052948790529290915291516105ad92600190920191906109a0565b5050600081815260086020908152604080832080546001600160a01b039096166001600160a01b031990961686179055938252600290529190912055565b600681815481106105fb57600080fd5b600091825260209091200154905081565b6060600580548060200260200160405190810160405280929190818152602001828054801561065a57602002820191906000526020600020905b815481526020019060010190808311610646575b5050505050905090565b6001600160a01b03831660009081526002602081815260408084208054855260089092528084204260039091015590548352909120018190556106a981610e10610cce565b6001600160a01b03841660009081526002602090815260408083208054845260088352818420600301949094559254825291902083516106f1926001909201918501906109a0565b5060005b825181101561075c576001600160a01b0384166000908152600260205260408120548451909160049186908590811061073057610730610ca2565b6020908102919091018101516001600160a01b03168252810191909152604001600020556001016106f5565b5050506001600160a01b031660009081526002602081815260408084208054600384529185209190915591905255565b6007805490600061079c83610ceb565b90915550506007546001600160a01b03828116600081815260026020908152604080832086905580516080810182529384528051838152808301825284830190815284820184905242606086015295835260088252909120825181546001600160a01b0319169416939093178355925180519193610822926001850192909101906109a0565b506040820151600282015560609091015160039091015550565b600080546001600160a01b0319166001600160a01b038316178155600180548082018255915260408051808201909152600b81526a18d85b925b9d195c9858dd60aa1b60208201527fb10e2d527612073b26eecdfd717e6a320cf44b4afac2b0732d9fcbe2b7fa0cf6909101906108b39082610d55565b5050565b600581815481106105fb57600080fd5b60606001805480602002602001604051908101604052809291908181526020016000905b8282101561099757838290600052602060002001805461090a90610c68565b80601f016020809104026020016040519081016040528092919081815260200182805461093690610c68565b80156109835780601f1061095857610100808354040283529160200191610983565b820191906000526020600020905b81548152906001019060200180831161096657829003601f168201915b5050505050815260200190600101906108eb565b50505050905090565b8280548282559060005260206000209081019282156109f5579160200282015b828111156109f557825182546001600160a01b0319166001600160a01b039091161782556020909201916001909101906109c0565b50610a01929150610a05565b5090565b5b80821115610a015760008155600101610a06565b80356001600160a01b0381168114610a3157600080fd5b919050565b600060208284031215610a4857600080fd5b610a5182610a1a565b9392505050565b600060208284031215610a6a57600080fd5b5035919050565b6000815180845260005b81811015610a9757602081850181015186830182015201610a7b565b506000602082860101526020601f19601f83011685010191505092915050565b602081526000610a516020830184610a71565b6020808252825182820181905260009190848201906040850190845b81811015610b0257835183529284019291840191600101610ae6565b50909695505050505050565b634e487b7160e01b600052604160045260246000fd5b600080600060608486031215610b3957600080fd5b610b4284610a1a565b925060208085013567ffffffffffffffff80821115610b6057600080fd5b818701915087601f830112610b7457600080fd5b813581811115610b8657610b86610b0e565b8060051b604051601f19603f83011681018181108582111715610bab57610bab610b0e565b60405291825284820192508381018501918a831115610bc957600080fd5b938501935b82851015610bee57610bdf85610a1a565b84529385019392850192610bce565b979a979950505050604095909501359450505050565b600060208083016020845280855180835260408601915060408160051b87010192506020870160005b82811015610c5b57603f19888603018452610c49858351610a71565b94509285019290850190600101610c2d565b5092979650505050505050565b600181811c90821680610c7c57607f821691505b602082108103610c9c57634e487b7160e01b600052602260045260246000fd5b50919050565b634e487b7160e01b600052603260045260246000fd5b634e487b7160e01b600052601160045260246000fd5b8082028115828204841417610ce557610ce5610cb8565b92915050565b600060018201610cfd57610cfd610cb8565b5060010190565b601f821115610d50576000816000526020600020601f850160051c81016020861015610d2d5750805b601f850160051c820191505b81811015610d4c57828155600101610d39565b5050505b505050565b815167ffffffffffffffff811115610d6f57610d6f610b0e565b610d8381610d7d8454610c68565b84610d04565b602080601f831160018114610db85760008415610da05750858301515b600019600386901b1c1916600185901b178555610d4c565b600085815260208120601f198616915b82811015610de757888601518255948401946001909101908401610dc8565b5085821015610e055787850151600019600388901b60f8161c191681555b5050505050600190811b0190555056fea264697066735822122053975bd85726beffbf6d876daa7c94da7f0099ff72d95cda4b0fc7144ae0cce464736f6c63430008180033",
        "nonce": "0x144",
        "accessList": []
      },
      "additionalContracts": [],
      "isFixedGasLimit": false
    },
    {
      "hash": "0x49168c27e7dce278527725c31b89a82bf39c4781246a6f29894b1de83c98eef7",
      "transactionType": "CALL",
      "contractName": null,
      "contractAddress": "0xE040f1a4d5Cea3A2A9dC1D6D14997516844f2C1F",
      "function": "registerEntity(string,address)",
      "arguments": [
        "\"MMONeighborInteractionEntity\"",
        "0x62C6E45C3F0F40fA72a5242905CC5ACB13EE24e3"
      ],
      "transaction": {
        "type": "0x02",
        "from": "0x2273ffed38ed040fbcd3e45cd807594d27ebfae3",
        "to": "0xe040f1a4d5cea3a2a9dc1d6d14997516844f2c1f",
        "gas": "0xc32a",
        "value": "0x0",
        "data": "0xb2533d9d000000000000000000000000000000000000000000000000000000000000004000000000000000000000000062c6e45c3f0f40fa72a5242905cc5acb13ee24e3000000000000000000000000000000000000000000000000000000000000001c4d4d4f4e65696768626f72496e746572616374696f6e456e7469747900000000",
        "nonce": "0x145",
        "accessList": []
      },
      "additionalContracts": [],
      "isFixedGasLimit": false
    },
    {
      "hash": "0x0fb430c4ae1b75a132647381d400092a49b87c9b1dc34176e4ff27ed09812773",
      "transactionType": "CALL",
      "contractName": null,
      "contractAddress": "0x1e1778FC9d6fE2C870c76d51115f05A4dc759430",
      "function": "createGame(address,string)",
      "arguments": [
        "0x2273fFEd38ED040FBcd3e45Cd807594d27ebfAE3",
        "\"Catch\""
      ],
      "transaction": {
        "type": "0x02",
        "from": "0x2273ffed38ed040fbcd3e45cd807594d27ebfae3",
        "to": "0x1e1778fc9d6fe2c870c76d51115f05a4dc759430",
        "gas": "0x4024b",
        "value": "0x0",
        "data": "0xec06bb5d0000000000000000000000002273ffed38ed040fbcd3e45cd807594d27ebfae3000000000000000000000000000000000000000000000000000000000000004000000000000000000000000000000000000000000000000000000000000000054361746368000000000000000000000000000000000000000000000000000000",
        "nonce": "0x146",
        "accessList": []
      },
      "additionalContracts": [
        {
          "transactionType": "CREATE",
          "address": "0x39cD8b118C6e455b3f693EE522d7685E896FcB85",
          "initCode": "0x602c3d8160093d39f33d3d3d3d363d3d37363d73ebfe60fcfdb78c6e8f2049820fd91867d047aa1f5af43d3d93803e602a57fd5bf3"
        }
      ],
      "isFixedGasLimit": false
    },
    {
      "hash": "0x01f927e4cfc44c594336db34e5648c3b6bafac0e0233fa6bd76ad33ab65db205",
      "transactionType": "CALL",
      "contractName": "Game",
      "contractAddress": "0xfC3abc72a6c05059f25971a0432CA334Bb281B2C",
      "function": "addModule(address)",
      "arguments": [
        "0xdEacB3118581872c0A295abe29EeA3C551F6bB6F"
      ],
      "transaction": {
        "type": "0x02",
        "from": "0x2273ffed38ed040fbcd3e45cd807594d27ebfae3",
        "to": "0xfc3abc72a6c05059f25971a0432ca334bb281b2c",
        "gas": "0x10d26e",
        "value": "0x0",
        "data": "0x1ed86f19000000000000000000000000deacb3118581872c0a295abe29eea3c551f6bb6f",
        "nonce": "0x147",
        "accessList": []
      },
      "additionalContracts": [
        {
          "transactionType": "CREATE",
          "address": "0x5a0C7BeAD55ea4bbb178132366948499fB2a99b4",
          "initCode": "0x602c3d8160093d39f33d3d3d3d363d3d37363d7362c6e45c3f0f40fa72a5242905cc5acb13ee24e35af43d3d93803e602a57fd5bf3"
        },
        {
          "transactionType": "CREATE",
          "address": "0x1689cED0e3afE5325bc7dD3fe993D991C12A1ddb",
          "initCode": "0x602c3d8160093d39f33d3d3d3d363d3d37363d73d366248253afd19930998bc4c1dbc66dff113f645af43d3d93803e602a57fd5bf3"
        }
      ],
      "isFixedGasLimit": false
    },
    {
      "hash": "0xa29a8c270612e1f59500af350eebc831f6d410bb53066e129f7114fde3fd65bd",
      "transactionType": "CALL",
      "contractName": "src/modules/MMONeighborInteractionModule.sol:MMONeighborInteractionModule",
      "contractAddress": "0xdEacB3118581872c0A295abe29EeA3C551F6bB6F",
      "function": "joinSession(address,address)",
      "arguments": [
        "0xfC3abc72a6c05059f25971a0432CA334Bb281B2C",
        "0x0000000000000000000000000000000000000001"
      ],
      "transaction": {
        "type": "0x02",
        "from": "0x2273ffed38ed040fbcd3e45cd807594d27ebfae3",
        "to": "0xdeacb3118581872c0a295abe29eea3c551f6bb6f",
        "gas": "0x23e1a",
        "value": "0x0",
        "data": "0xce690668000000000000000000000000fc3abc72a6c05059f25971a0432ca334bb281b2c0000000000000000000000000000000000000000000000000000000000000001",
        "nonce": "0x148",
        "accessList": []
      },
      "additionalContracts": [],
      "isFixedGasLimit": false
    },
    {
      "hash": "0x5bc65b7de77d05737b57277d8f3595d4b74776dbea4a6fad7c60b262481d7149",
      "transactionType": "CALL",
      "contractName": "src/modules/MMONeighborInteractionModule.sol:MMONeighborInteractionModule",
      "contractAddress": "0xdEacB3118581872c0A295abe29EeA3C551F6bB6F",
      "function": "joinSession(address,address)",
      "arguments": [
        "0xfC3abc72a6c05059f25971a0432CA334Bb281B2C",
        "0x0000000000000000000000000000000000000002"
      ],
      "transaction": {
        "type": "0x02",
        "from": "0x2273ffed38ed040fbcd3e45cd807594d27ebfae3",
        "to": "0xdeacb3118581872c0a295abe29eea3c551f6bb6f",
        "gas": "0x50cff",
        "value": "0x0",
        "data": "0xce690668000000000000000000000000fc3abc72a6c05059f25971a0432ca334bb281b2c0000000000000000000000000000000000000000000000000000000000000002",
        "nonce": "0x149",
        "accessList": []
      },
      "additionalContracts": [],
      "isFixedGasLimit": false
    },
    {
      "hash": "0xc8f7f41b645bdab1764f7c1a6a0d2ee195ab8696962cdf5a725f232aa9570afb",
      "transactionType": "CALL",
      "contractName": "src/modules/MMONeighborInteractionModule.sol:MMONeighborInteractionModule",
      "contractAddress": "0xdEacB3118581872c0A295abe29EeA3C551F6bB6F",
      "function": "joinSession(address,address)",
      "arguments": [
        "0xfC3abc72a6c05059f25971a0432CA334Bb281B2C",
        "0x0000000000000000000000000000000000000003"
      ],
      "transaction": {
        "type": "0x02",
        "from": "0x2273ffed38ed040fbcd3e45cd807594d27ebfae3",
        "to": "0xdeacb3118581872c0a295abe29eea3c551f6bb6f",
        "gas": "0x1e1d6",
        "value": "0x0",
        "data": "0xce690668000000000000000000000000fc3abc72a6c05059f25971a0432ca334bb281b2c0000000000000000000000000000000000000000000000000000000000000003",
        "nonce": "0x14a",
        "accessList": []
      },
      "additionalContracts": [],
      "isFixedGasLimit": false
    },
    {
      "hash": "0x59eb0f64e4910b0d51ae45d76fb5aa4bf09c9b44dc71cb475958a30647fdb64a",
      "transactionType": "CALL",
      "contractName": "src/modules/MMONeighborInteractionModule.sol:MMONeighborInteractionModule",
      "contractAddress": "0xdEacB3118581872c0A295abe29EeA3C551F6bB6F",
      "function": "joinSession(address,address)",
      "arguments": [
        "0xfC3abc72a6c05059f25971a0432CA334Bb281B2C",
        "0x0000000000000000000000000000000000000004"
      ],
      "transaction": {
        "type": "0x02",
        "from": "0x2273ffed38ed040fbcd3e45cd807594d27ebfae3",
        "to": "0xdeacb3118581872c0a295abe29eea3c551f6bb6f",
        "gas": "0x45479",
        "value": "0x0",
        "data": "0xce690668000000000000000000000000fc3abc72a6c05059f25971a0432ca334bb281b2c0000000000000000000000000000000000000000000000000000000000000004",
        "nonce": "0x14b",
        "accessList": []
      },
      "additionalContracts": [],
      "isFixedGasLimit": false
    },
    {
      "hash": "0x5e87f12163dc57bc74f488e9e60c8a7aad3607176efcf3e8d65ab01536346a16",
      "transactionType": "CALL",
      "contractName": "src/modules/MMONeighborInteractionModule.sol:MMONeighborInteractionModule",
      "contractAddress": "0xdEacB3118581872c0A295abe29EeA3C551F6bB6F",
      "function": "joinSession(address,address)",
      "arguments": [
        "0xfC3abc72a6c05059f25971a0432CA334Bb281B2C",
        "0x0000000000000000000000000000000000000005"
      ],
      "transaction": {
        "type": "0x02",
        "from": "0x2273ffed38ed040fbcd3e45cd807594d27ebfae3",
        "to": "0xdeacb3118581872c0a295abe29eea3c551f6bb6f",
        "gas": "0x1e1d6",
        "value": "0x0",
        "data": "0xce690668000000000000000000000000fc3abc72a6c05059f25971a0432ca334bb281b2c0000000000000000000000000000000000000000000000000000000000000005",
        "nonce": "0x14c",
        "accessList": []
      },
      "additionalContracts": [],
      "isFixedGasLimit": false
    },
    {
      "hash": "0xdd6ed32f095d5fa77ceaa7aed408f3c5aba0ff65f4dab090daf0c9f56bc332cf",
      "transactionType": "CALL",
      "contractName": "src/modules/MMONeighborInteractionModule.sol:MMONeighborInteractionModule",
      "contractAddress": "0xdEacB3118581872c0A295abe29EeA3C551F6bB6F",
      "function": "joinSession(address,address)",
      "arguments": [
        "0xfC3abc72a6c05059f25971a0432CA334Bb281B2C",
        "0x0000000000000000000000000000000000000006"
      ],
      "transaction": {
        "type": "0x02",
        "from": "0x2273ffed38ed040fbcd3e45cd807594d27ebfae3",
        "to": "0xdeacb3118581872c0a295abe29eea3c551f6bb6f",
        "gas": "0x45479",
        "value": "0x0",
        "data": "0xce690668000000000000000000000000fc3abc72a6c05059f25971a0432ca334bb281b2c0000000000000000000000000000000000000000000000000000000000000006",
        "nonce": "0x14d",
        "accessList": []
      },
      "additionalContracts": [],
      "isFixedGasLimit": false
    },
    {
      "hash": "0x776d5f1b52b3a4231b99768f8ed47582748ea9e0293daf37c419cfeab0e9bed6",
      "transactionType": "CALL",
      "contractName": "src/modules/MMONeighborInteractionModule.sol:MMONeighborInteractionModule",
      "contractAddress": "0xdEacB3118581872c0A295abe29EeA3C551F6bB6F",
      "function": "joinSession(address,address)",
      "arguments": [
        "0xfC3abc72a6c05059f25971a0432CA334Bb281B2C",
        "0x0000000000000000000000000000000000000007"
      ],
      "transaction": {
        "type": "0x02",
        "from": "0x2273ffed38ed040fbcd3e45cd807594d27ebfae3",
        "to": "0xdeacb3118581872c0a295abe29eea3c551f6bb6f",
        "gas": "0x1e1d6",
        "value": "0x0",
        "data": "0xce690668000000000000000000000000fc3abc72a6c05059f25971a0432ca334bb281b2c0000000000000000000000000000000000000000000000000000000000000007",
        "nonce": "0x14e",
        "accessList": []
      },
      "additionalContracts": [],
      "isFixedGasLimit": false
    },
    {
      "hash": "0x37e24c6c1ea18563ecc5b8c110674c584693cdf762ae35a3739b0817ff234bbc",
      "transactionType": "CALL",
      "contractName": "src/modules/MMONeighborInteractionModule.sol:MMONeighborInteractionModule",
      "contractAddress": "0xdEacB3118581872c0A295abe29EeA3C551F6bB6F",
      "function": "joinSession(address,address)",
      "arguments": [
        "0xfC3abc72a6c05059f25971a0432CA334Bb281B2C",
        "0x0000000000000000000000000000000000000008"
      ],
      "transaction": {
        "type": "0x02",
        "from": "0x2273ffed38ed040fbcd3e45cd807594d27ebfae3",
        "to": "0xdeacb3118581872c0a295abe29eea3c551f6bb6f",
        "gas": "0x45479",
        "value": "0x0",
        "data": "0xce690668000000000000000000000000fc3abc72a6c05059f25971a0432ca334bb281b2c0000000000000000000000000000000000000000000000000000000000000008",
        "nonce": "0x14f",
        "accessList": []
      },
      "additionalContracts": [],
      "isFixedGasLimit": false
    },
    {
      "hash": "0xdd8ce33150f45107283886f2e8c5d32908b653bcddc9f23785644b4af6eddb8b",
      "transactionType": "CALL",
      "contractName": "src/modules/MMONeighborInteractionModule.sol:MMONeighborInteractionModule",
      "contractAddress": "0xdEacB3118581872c0A295abe29EeA3C551F6bB6F",
      "function": "joinSession(address,address)",
      "arguments": [
        "0xfC3abc72a6c05059f25971a0432CA334Bb281B2C",
        "0x0000000000000000000000000000000000000009"
      ],
      "transaction": {
        "type": "0x02",
        "from": "0x2273ffed38ed040fbcd3e45cd807594d27ebfae3",
        "to": "0xdeacb3118581872c0a295abe29eea3c551f6bb6f",
        "gas": "0x1e1d6",
        "value": "0x0",
        "data": "0xce690668000000000000000000000000fc3abc72a6c05059f25971a0432ca334bb281b2c0000000000000000000000000000000000000000000000000000000000000009",
        "nonce": "0x150",
        "accessList": []
      },
      "additionalContracts": [],
      "isFixedGasLimit": false
    },
    {
      "hash": "0x129860ea3eddcaf4fbd2db8ec7c769c5f7e74d2b732c4af21be3d09bb978b334",
      "transactionType": "CALL",
      "contractName": "src/modules/MMONeighborInteractionModule.sol:MMONeighborInteractionModule",
      "contractAddress": "0xdEacB3118581872c0A295abe29EeA3C551F6bB6F",
      "function": "joinSession(address,address)",
      "arguments": [
        "0xfC3abc72a6c05059f25971a0432CA334Bb281B2C",
        "0x000000000000000000000000000000000000000A"
      ],
      "transaction": {
        "type": "0x02",
        "from": "0x2273ffed38ed040fbcd3e45cd807594d27ebfae3",
        "to": "0xdeacb3118581872c0a295abe29eea3c551f6bb6f",
        "gas": "0x45479",
        "value": "0x0",
        "data": "0xce690668000000000000000000000000fc3abc72a6c05059f25971a0432ca334bb281b2c000000000000000000000000000000000000000000000000000000000000000a",
        "nonce": "0x151",
        "accessList": []
      },
      "additionalContracts": [],
      "isFixedGasLimit": false
    },
    {
      "hash": "0xc8532159e2c0a7cf74bf454dd2709175f25b2c9bcc06e073a31b498ae3e311cf",
      "transactionType": "CALL",
      "contractName": "src/modules/MMONeighborInteractionModule.sol:MMONeighborInteractionModule",
      "contractAddress": "0xdEacB3118581872c0A295abe29EeA3C551F6bB6F",
      "function": "joinSession(address,address)",
      "arguments": [
        "0xfC3abc72a6c05059f25971a0432CA334Bb281B2C",
        "0x000000000000000000000000000000000000000b"
      ],
      "transaction": {
        "type": "0x02",
        "from": "0x2273ffed38ed040fbcd3e45cd807594d27ebfae3",
        "to": "0xdeacb3118581872c0a295abe29eea3c551f6bb6f",
        "gas": "0x1e1d6",
        "value": "0x0",
        "data": "0xce690668000000000000000000000000fc3abc72a6c05059f25971a0432ca334bb281b2c000000000000000000000000000000000000000000000000000000000000000b",
        "nonce": "0x152",
        "accessList": []
      },
      "additionalContracts": [],
      "isFixedGasLimit": false
    },
    {
      "hash": "0x03e72d4ab5744909d7121f07c1146751518680ef422a8be3a104bba9abdbc3c4",
      "transactionType": "CALL",
      "contractName": "src/modules/MMONeighborInteractionModule.sol:MMONeighborInteractionModule",
      "contractAddress": "0xdEacB3118581872c0A295abe29EeA3C551F6bB6F",
      "function": "joinSession(address,address)",
      "arguments": [
        "0xfC3abc72a6c05059f25971a0432CA334Bb281B2C",
        "0x000000000000000000000000000000000000000C"
      ],
      "transaction": {
        "type": "0x02",
        "from": "0x2273ffed38ed040fbcd3e45cd807594d27ebfae3",
        "to": "0xdeacb3118581872c0a295abe29eea3c551f6bb6f",
        "gas": "0x45479",
        "value": "0x0",
        "data": "0xce690668000000000000000000000000fc3abc72a6c05059f25971a0432ca334bb281b2c000000000000000000000000000000000000000000000000000000000000000c",
        "nonce": "0x153",
        "accessList": []
      },
      "additionalContracts": [],
      "isFixedGasLimit": false
    },
    {
      "hash": "0xd1686931a615a8fbe87e460143402250e3fcbe864ff3d42e38e164a462e9a784",
      "transactionType": "CALL",
      "contractName": "src/modules/MMONeighborInteractionModule.sol:MMONeighborInteractionModule",
      "contractAddress": "0xdEacB3118581872c0A295abe29EeA3C551F6bB6F",
      "function": "joinSession(address,address)",
      "arguments": [
        "0xfC3abc72a6c05059f25971a0432CA334Bb281B2C",
        "0x000000000000000000000000000000000000000d"
      ],
      "transaction": {
        "type": "0x02",
        "from": "0x2273ffed38ed040fbcd3e45cd807594d27ebfae3",
        "to": "0xdeacb3118581872c0a295abe29eea3c551f6bb6f",
        "gas": "0x1e1d6",
        "value": "0x0",
        "data": "0xce690668000000000000000000000000fc3abc72a6c05059f25971a0432ca334bb281b2c000000000000000000000000000000000000000000000000000000000000000d",
        "nonce": "0x154",
        "accessList": []
      },
      "additionalContracts": [],
      "isFixedGasLimit": false
    },
    {
      "hash": "0x06f8c3136c179faf9e7854c83c5a22c6f81a4364dfad90f25d72465838ac6ed2",
      "transactionType": "CALL",
      "contractName": "src/modules/MMONeighborInteractionModule.sol:MMONeighborInteractionModule",
      "contractAddress": "0xdEacB3118581872c0A295abe29EeA3C551F6bB6F",
      "function": "joinSession(address,address)",
      "arguments": [
        "0xfC3abc72a6c05059f25971a0432CA334Bb281B2C",
        "0x000000000000000000000000000000000000000E"
      ],
      "transaction": {
        "type": "0x02",
        "from": "0x2273ffed38ed040fbcd3e45cd807594d27ebfae3",
        "to": "0xdeacb3118581872c0a295abe29eea3c551f6bb6f",
        "gas": "0x45479",
        "value": "0x0",
        "data": "0xce690668000000000000000000000000fc3abc72a6c05059f25971a0432ca334bb281b2c000000000000000000000000000000000000000000000000000000000000000e",
        "nonce": "0x155",
        "accessList": []
      },
      "additionalContracts": [],
      "isFixedGasLimit": false
    },
    {
      "hash": "0x5c46235dd3d649cfa4dbe713a9c20fbc9bd1ecb6e47a6441189aab0463118dd2",
      "transactionType": "CALL",
      "contractName": "src/modules/MMONeighborInteractionModule.sol:MMONeighborInteractionModule",
      "contractAddress": "0xdEacB3118581872c0A295abe29EeA3C551F6bB6F",
      "function": "joinSession(address,address)",
      "arguments": [
        "0xfC3abc72a6c05059f25971a0432CA334Bb281B2C",
        "0x000000000000000000000000000000000000000F"
      ],
      "transaction": {
        "type": "0x02",
        "from": "0x2273ffed38ed040fbcd3e45cd807594d27ebfae3",
        "to": "0xdeacb3118581872c0a295abe29eea3c551f6bb6f",
        "gas": "0x1e1d6",
        "value": "0x0",
        "data": "0xce690668000000000000000000000000fc3abc72a6c05059f25971a0432ca334bb281b2c000000000000000000000000000000000000000000000000000000000000000f",
        "nonce": "0x156",
        "accessList": []
      },
      "additionalContracts": [],
      "isFixedGasLimit": false
    },
    {
      "hash": "0x1b9adda159abf27d68e57c3cfa41294bf77a7ae4eeb90959c6e864d1d0d086aa",
      "transactionType": "CALL",
      "contractName": "src/modules/MMONeighborInteractionModule.sol:MMONeighborInteractionModule",
      "contractAddress": "0xdEacB3118581872c0A295abe29EeA3C551F6bB6F",
      "function": "joinSession(address,address)",
      "arguments": [
        "0xfC3abc72a6c05059f25971a0432CA334Bb281B2C",
        "0x0000000000000000000000000000000000000010"
      ],
      "transaction": {
        "type": "0x02",
        "from": "0x2273ffed38ed040fbcd3e45cd807594d27ebfae3",
        "to": "0xdeacb3118581872c0a295abe29eea3c551f6bb6f",
        "gas": "0x45479",
        "value": "0x0",
        "data": "0xce690668000000000000000000000000fc3abc72a6c05059f25971a0432ca334bb281b2c0000000000000000000000000000000000000000000000000000000000000010",
        "nonce": "0x157",
        "accessList": []
      },
      "additionalContracts": [],
      "isFixedGasLimit": false
    },
    {
      "hash": "0xeffdf88327dd1f3e13f2a75d2e0fb23ee99698bfa0d850982ab1dc8c3a62ef3c",
      "transactionType": "CALL",
      "contractName": "src/modules/MMONeighborInteractionModule.sol:MMONeighborInteractionModule",
      "contractAddress": "0xdEacB3118581872c0A295abe29EeA3C551F6bB6F",
      "function": "joinSession(address,address)",
      "arguments": [
        "0xfC3abc72a6c05059f25971a0432CA334Bb281B2C",
        "0x0000000000000000000000000000000000000011"
      ],
      "transaction": {
        "type": "0x02",
        "from": "0x2273ffed38ed040fbcd3e45cd807594d27ebfae3",
        "to": "0xdeacb3118581872c0a295abe29eea3c551f6bb6f",
        "gas": "0x1e1d6",
        "value": "0x0",
        "data": "0xce690668000000000000000000000000fc3abc72a6c05059f25971a0432ca334bb281b2c0000000000000000000000000000000000000000000000000000000000000011",
        "nonce": "0x158",
        "accessList": []
      },
      "additionalContracts": [],
      "isFixedGasLimit": false
    }
  ],
  "receipts": [],
  "libraries": [],
  "pending": [
    "0x280464a66cd241ea5fbea1a19412b483e07be8520a3ff2a8ba2d1c20e1c18b2d",
    "0xfd9360f225a372513f40a65619421a4843726d86fbab868b6e53ca0fa40d796a",
    "0x33c9653178de46bed40add1e39ff66bd3f4cc3ba8494164eadee2b166fd449ee",
    "0xaf7a227238d6d4b06fec3f56c71b0b7f90e630486d16fd8aeecf5e68f4e6e85d",
    "0x25bc7eaf3b9479519de5bc074e5cb0a82354b058aacdba62684dd92c8264f2aa",
    "0xdcbe8da39e9688f0f5036d932ef3f270ef2a6f84dc8c0eebda1ceb6c786e6cef",
    "0xefc2e605cb9805d9921c0bc165ef4be1f1a49d325686e1473fc34e545d6349aa",
    "0x49168c27e7dce278527725c31b89a82bf39c4781246a6f29894b1de83c98eef7",
    "0x0fb430c4ae1b75a132647381d400092a49b87c9b1dc34176e4ff27ed09812773",
    "0x01f927e4cfc44c594336db34e5648c3b6bafac0e0233fa6bd76ad33ab65db205",
    "0xa29a8c270612e1f59500af350eebc831f6d410bb53066e129f7114fde3fd65bd",
    "0x5bc65b7de77d05737b57277d8f3595d4b74776dbea4a6fad7c60b262481d7149",
    "0xc8f7f41b645bdab1764f7c1a6a0d2ee195ab8696962cdf5a725f232aa9570afb",
    "0x59eb0f64e4910b0d51ae45d76fb5aa4bf09c9b44dc71cb475958a30647fdb64a",
    "0x5e87f12163dc57bc74f488e9e60c8a7aad3607176efcf3e8d65ab01536346a16",
    "0xdd6ed32f095d5fa77ceaa7aed408f3c5aba0ff65f4dab090daf0c9f56bc332cf",
    "0x776d5f1b52b3a4231b99768f8ed47582748ea9e0293daf37c419cfeab0e9bed6",
    "0x37e24c6c1ea18563ecc5b8c110674c584693cdf762ae35a3739b0817ff234bbc",
    "0xdd8ce33150f45107283886f2e8c5d32908b653bcddc9f23785644b4af6eddb8b",
    "0x129860ea3eddcaf4fbd2db8ec7c769c5f7e74d2b732c4af21be3d09bb978b334",
    "0xc8532159e2c0a7cf74bf454dd2709175f25b2c9bcc06e073a31b498ae3e311cf",
    "0x03e72d4ab5744909d7121f07c1146751518680ef422a8be3a104bba9abdbc3c4",
    "0xd1686931a615a8fbe87e460143402250e3fcbe864ff3d42e38e164a462e9a784",
    "0x06f8c3136c179faf9e7854c83c5a22c6f81a4364dfad90f25d72465838ac6ed2",
    "0x5c46235dd3d649cfa4dbe713a9c20fbc9bd1ecb6e47a6441189aab0463118dd2",
    "0x1b9adda159abf27d68e57c3cfa41294bf77a7ae4eeb90959c6e864d1d0d086aa",
    "0xeffdf88327dd1f3e13f2a75d2e0fb23ee99698bfa0d850982ab1dc8c3a62ef3c"
  ],
  "returns": {},
  "timestamp": 1713290861,
  "chain": 11155111,
  "multi": false,
  "commit": "efdf94b"
}