{
  "transactions": [
    {
      "hash": "0x73f2f93f0c7018b61fe5e9dd40d8583c6d52e675fcd331b60efcae06b96e5cf8",
      "transactionType": "CREATE",
      "contractName": "MMOSessionModule",
      "contractAddress": "0x38C0377CF27A26849bde575F7547eA16D4d6a5e2",
      "function": null,
      "arguments": null,
      "transaction": {
        "type": "0x02",
        "from": "0x2273ffed38ed040fbcd3e45cd807594d27ebfae3",
        "gas": "0x86f80",
        "value": "0x0",
        "data": "0x608060405234801561001057600080fd5b506106bb806100206000396000f3fe608060405234801561001057600080fd5b506004361061004c5760003560e01c80634051ddac14610051578063467e4a2f1461006f578063c4d66de814610090578063ce690668146100a5575b600080fd5b6100596100b8565b6040516100669190610567565b60405180910390f35b61008261007d3660046105f2565b61018e565b604051908152602001610066565b6100a361009e3660046105f2565b610278565b005b6100a36100b3366004610616565b6103d4565b6100ec604051806080016040528060006001600160a01b031681526020016060815260200160608152602001606081525090565b604080516080810182523081528151600080825260208281019094529192830191610127565b60608152602001906001900390816101125790505b508152602001600060405190808252806020026020018201604052801561016257816020015b606081526020019060019003908161014d5790505b50815260200160405180604001604052806005815260200164086c2e8c6d60db1b815250815250905090565b60405163070c412b60e01b8152602060048201526007602482015266706c617965727360c81b60448201526000906001600160a01b0383169063070c412b90606401602060405180830381865afa1580156101ed573d6000803e3d6000fd5b505050506040513d601f19601f82011682018060405250810190610211919061064f565b6001600160a01b031663c2e522066040518163ffffffff1660e01b8152600401602060405180830381865afa15801561024e573d6000803e3d6000fd5b505050506040513d601f19601f82011682018060405250810190610272919061066c565b92915050565b6000816001600160a01b031663eab150676040518163ffffffff1660e01b8152600401602060405180830381865afa1580156102b8573d6000803e3d6000fd5b505050506040513d601f19601f820116820180604052508101906102dc919061064f565b604080516337dffb9360e01b81526001600160a01b0385811660048301526024820192909252601060448201526f4d4d4f53657373696f6e456e7469747960801b60648201529116906337dffb93906084016020604051808303816000875af115801561034d573d6000803e3d6000fd5b505050506040513d601f19601f82011682018060405250810190610371919061064f565b604051633c5c0f4960e21b81526001600160a01b0380831660048301529192509083169063f1703d2490602401600060405180830381600087803b1580156103b857600080fd5b505af11580156103cc573d6000803e3d6000fd5b505050505050565b60405163070c412b60e01b8152602060048201526007602482015266706c617965727360c81b60448201526001600160a01b0383169063070c412b90606401602060405180830381865afa158015610430573d6000803e3d6000fd5b505050506040513d601f19601f82011682018060405250810190610454919061064f565b604051635893afcd60e11b81526001600160a01b038381166004830152919091169063b1275f9a906024016020604051808303816000875af115801561049e573d6000803e3d6000fd5b505050506040513d601f19601f820116820180604052508101906104c2919061066c565b505050565b6000815180845260005b818110156104ed576020818501810151868301820152016104d1565b506000602082860101526020601f19601f83011685010191505092915050565b60008282518085526020808601955060208260051b8401016020860160005b8481101561055a57601f198684030189526105488383516104c7565b9884019892509083019060010161052c565b5090979650505050505050565b602080825282516001600160a01b0316828201528201516080604083015260009061059560a084018261050d565b90506040840151601f19808584030160608601526105b3838361050d565b92506060860151915080858403016080860152506105d182826104c7565b95945050505050565b6001600160a01b03811681146105ef57600080fd5b50565b60006020828403121561060457600080fd5b813561060f816105da565b9392505050565b6000806040838503121561062957600080fd5b8235610634816105da565b91506020830135610644816105da565b809150509250929050565b60006020828403121561066157600080fd5b815161060f816105da565b60006020828403121561067e57600080fd5b505191905056fea26469706673582212207519425360751c0e3d66842106642b599356ae73ace1e83ac31c247e8443d2b864736f6c63430008180033",
        "nonce": "0x123",
        "accessList": []
      },
      "additionalContracts": [],
      "isFixedGasLimit": false
    },
    {
      "hash": "0xa4aa3d1de79dfdbc7343cffe5f2efb52479cdd1b97ffd5a6d75861404ea5ee60",
      "transactionType": "CALL",
      "contractName": null,
      "contractAddress": "0xE17065CfD174eF6C9e2251ffd360019E8C492012",
      "function": "register(address)",
      "arguments": [
        "0x38C0377CF27A26849bde575F7547eA16D4d6a5e2"
      ],
      "transaction": {
        "type": "0x02",
        "from": "0x2273ffed38ed040fbcd3e45cd807594d27ebfae3",
        "to": "0xe17065cfd174ef6c9e2251ffd360019e8c492012",
        "gas": "0x10da9",
        "value": "0x0",
        "data": "0x4420e48600000000000000000000000038c0377cf27a26849bde575f7547ea16d4d6a5e2",
        "nonce": "0x124",
        "accessList": []
      },
      "additionalContracts": [],
      "isFixedGasLimit": false
    },
    {
      "hash": "0xe28f5d93015e05a0fafdcb9f43ab41fa2ba8e9aefaae3422a6cff135ebffee7e",
      "transactionType": "CREATE",
      "contractName": "MMOSessionEntity",
      "contractAddress": "0x08Fd496382f1a655878b6DDCB99E56268cdFF68d",
      "function": null,
      "arguments": null,
      "transaction": {
        "type": "0x02",
        "from": "0x2273ffed38ed040fbcd3e45cd807594d27ebfae3",
        "gas": "0xd7fe9",
        "value": "0x0",
        "data": "0x608060405234801561001057600080fd5b50610b5a806100206000396000f3fe608060405234801561001057600080fd5b50600436106100935760003560e01c8063c3fe3e2811610066578063c3fe3e28146100ff578063c4d66de81461012a578063e82d2a851461013d578063ee88f1231461015d578063f71d96cb1461017257600080fd5b80630cb6aaf1146100985780635bb12a1a146100c1578063b1275f9a146100d6578063c2e52206146100f7575b600080fd5b6100ab6100a63660046107a0565b610185565b6040516100b891906107ff565b60405180910390f35b6100d46100cf366004610835565b610231565b005b6100e96100e4366004610835565b6103a0565b6040519081526020016100b8565b6002546100e9565b600054610112906001600160a01b031681565b6040516001600160a01b0390911681526020016100b8565b6100d4610138366004610835565b610437565b61015061014b366004610850565b61050f565b6040516100b8919061087a565b61016561069d565b6040516100b891906108c7565b6101126101803660046107a0565b610776565b6001818154811061019557600080fd5b9060005260206000200160009150905080546101b09061092b565b80601f01602080910402602001604051908101604052809291908181526020018280546101dc9061092b565b80156102295780601f106101fe57610100808354040283529160200191610229565b820191906000526020600020905b81548152906001019060200180831161020c57829003601f168201915b505050505081565b6001600160a01b03811660009081526003602052604081205490036102695760405163184537df60e21b815260040160405180910390fd5b6001600160a01b03811660009081526003602052604081205461028e9060019061097b565b60028054919250906102a29060019061097b565b815481106102b2576102b261098e565b600091825260209091200154600280546001600160a01b0390921691839081106102de576102de61098e565b600091825260209091200180546001600160a01b0319166001600160a01b03929092169190911790556103128160016109a4565b60036000600284815481106103295761032961098e565b60009182526020808320909101546001600160a01b03168352820192909252604001902055600280548061035f5761035f6109b7565b60008281526020808220830160001990810180546001600160a01b03191690559092019092556001600160a01b039390931681526003909252506040812055565b6001600160a01b038116600090815260036020526040812054156103d75760405163301c5d0160e21b815260040160405180910390fd5b50600280546001810182557f405787fa12a823e0f2b7631cc41b3ba8828b3321ca811111fa75cd3aa3bb5ace0180546001600160a01b039093166001600160a01b0319909316831790555460009182526003602052604090912081905590565b600080546001600160a01b0319166001600160a01b0383161781556001805480820182559152604080518082019091526007815266706c617965727360c81b60208201527fb10e2d527612073b26eecdfd717e6a320cf44b4afac2b0732d9fcbe2b7fa0cf6909101906104aa9082610a34565b5060018054808201825560009190915260408051808201909152600b81526a0e0d8c2f2cae492dcc8caf60ab1b60208201527fb10e2d527612073b26eecdfd717e6a320cf44b4afac2b0732d9fcbe2b7fa0cf69091019061050b9082610a34565b5050565b6060600061051e836002610af4565b67ffffffffffffffff811115610536576105366109cd565b60405190808252806020026020018201604052801561055f578160200160208202803683370190505b506001600160a01b03851660009081526003602052604081205491925090819085111561058f57600091506105b6565b6001600160a01b0386166000908152600360205260409020546105b390869061097b565b91505b6002546001600160a01b0387166000908152600360205260409020546105dd9087906109a4565b11156105ec5750600254610613565b6001600160a01b0386166000908152600360205260409020546106109086906109a4565b90505b6000825b8281101561068f57600281815481106106325761063261098e565b9060005260206000200160009054906101000a90046001600160a01b03168583815181106106625761066261098e565b6001600160a01b03909216602092830291909101909101528161068481610b0b565b925050600101610617565b509293505050505b92915050565b60606001805480602002602001604051908101604052809291908181526020016000905b8282101561076d5783829060005260206000200180546106e09061092b565b80601f016020809104026020016040519081016040528092919081815260200182805461070c9061092b565b80156107595780601f1061072e57610100808354040283529160200191610759565b820191906000526020600020905b81548152906001019060200180831161073c57829003601f168201915b5050505050815260200190600101906106c1565b50505050905090565b6002818154811061078657600080fd5b6000918252602090912001546001600160a01b0316905081565b6000602082840312156107b257600080fd5b5035919050565b6000815180845260005b818110156107df576020818501810151868301820152016107c3565b506000602082860101526020601f19601f83011685010191505092915050565b60208152600061081260208301846107b9565b9392505050565b80356001600160a01b038116811461083057600080fd5b919050565b60006020828403121561084757600080fd5b61081282610819565b6000806040838503121561086357600080fd5b61086c83610819565b946020939093013593505050565b6020808252825182820181905260009190848201906040850190845b818110156108bb5783516001600160a01b031683529284019291840191600101610896565b50909695505050505050565b600060208083016020845280855180835260408601915060408160051b87010192506020870160005b8281101561091e57603f1988860301845261090c8583516107b9565b945092850192908501906001016108f0565b5092979650505050505050565b600181811c9082168061093f57607f821691505b60208210810361095f57634e487b7160e01b600052602260045260246000fd5b50919050565b634e487b7160e01b600052601160045260246000fd5b8181038181111561069757610697610965565b634e487b7160e01b600052603260045260246000fd5b8082018082111561069757610697610965565b634e487b7160e01b600052603160045260246000fd5b634e487b7160e01b600052604160045260246000fd5b601f821115610a2f576000816000526020600020601f850160051c81016020861015610a0c5750805b601f850160051c820191505b81811015610a2b57828155600101610a18565b5050505b505050565b815167ffffffffffffffff811115610a4e57610a4e6109cd565b610a6281610a5c845461092b565b846109e3565b602080601f831160018114610a975760008415610a7f5750858301515b600019600386901b1c1916600185901b178555610a2b565b600085815260208120601f198616915b82811015610ac657888601518255948401946001909101908401610aa7565b5085821015610ae45787850151600019600388901b60f8161c191681555b5050505050600190811b01905550565b808202811582820484141761069757610697610965565b600060018201610b1d57610b1d610965565b506001019056fea2646970667358221220aa82dc7bdbb2a8a9d63f050067248692e88d5ca17e82097c3bf1572e59fef10064736f6c63430008180033",
        "nonce": "0x125",
        "accessList": []
      },
      "additionalContracts": [],
      "isFixedGasLimit": false
    },
    {
      "hash": "0x5cc0b294729c9e80dfc71edae4170e169ea85a07fdb371dabda8f8892b48916e",
      "transactionType": "CALL",
      "contractName": "EntityFactory",
      "contractAddress": "0xE040f1a4d5Cea3A2A9dC1D6D14997516844f2C1F",
      "function": "registerEntity(string,address)",
      "arguments": [
        "\"MMOSessionEntity\"",
        "0x08Fd496382f1a655878b6DDCB99E56268cdFF68d"
      ],
      "transaction": {
        "type": "0x02",
        "from": "0x2273ffed38ed040fbcd3e45cd807594d27ebfae3",
        "to": "0xe040f1a4d5cea3a2a9dc1d6d14997516844f2c1f",
        "gas": "0x123e9",
        "value": "0x0",
        "data": "0xb2533d9d000000000000000000000000000000000000000000000000000000000000004000000000000000000000000008fd496382f1a655878b6ddcb99e56268cdff68d00000000000000000000000000000000000000000000000000000000000000104d4d4f53657373696f6e456e7469747900000000000000000000000000000000",
        "nonce": "0x126",
        "accessList": []
      },
      "additionalContracts": [],
      "isFixedGasLimit": false
    },
    {
      "hash": "0x804c743d01fd8ff72365d8cbe94af2a872d8fc0cd4c0ef6cab1bf23582a65c3b",
      "transactionType": "CREATE",
      "contractName": "MMONeighborInteractionModule",
      "contractAddress": "0x775fBBf98d8d1688C2c122f19a8F01bc02D2F2B1",
      "function": null,
      "arguments": null,
      "transaction": {
        "type": "0x02",
        "from": "0x2273ffed38ed040fbcd3e45cd807594d27ebfae3",
        "gas": "0x1987fd",
        "value": "0x0",
        "data": "0x608060405234801561001057600080fd5b50611653806100206000396000f3fe608060405234801561001057600080fd5b50600436106100b45760003560e01c80634c5a0aaa116100715780634c5a0aaa1461015057806371f1551f14610163578063bf189ed914610183578063c4d66de814610198578063ce690668146101ab578063ebb187a2146101be57600080fd5b8063072bfb8f146100b95780631848c3c9146100e1578063401b5220146101025780634051ddac14610115578063467e4a2f1461012a5780634b2430531461013d575b600080fd5b6100cc6100c736600461117a565b6101d1565b60405190151581526020015b60405180910390f35b6100f46100ef36600461117a565b6102b3565b6040519081526020016100d8565b6100cc61011036600461117a565b61038e565b61011d61042c565b6040516100d89190611253565b6100f46101383660046112c6565b610502565b6100f461014b36600461117a565b6105d7565b6100f461015e3660046112c6565b610675565b6101766101713660046112c6565b610720565b6040516100d891906112e3565b61019661019136600461117a565b6107f3565b005b6101966101a63660046112c6565b6109be565b6101966101b936600461117a565b610c4e565b6101966101cc366004611327565b610ead565b60405163070c412b60e01b81526000906001600160a01b0384169063070c412b906101fe90600401611368565b602060405180830381865afa15801561021b573d6000803e3d6000fd5b505050506040513d601f19601f8201168201806040525081019061023f919061138d565b60405163dac732f360e01b81526001600160a01b038481166004830152919091169063dac732f3906024015b602060405180830381865afa158015610288573d6000803e3d6000fd5b505050506040513d601f19601f820116820180604052508101906102ac91906113aa565b9392505050565b60405163070c412b60e01b81526000906001600160a01b0384169063070c412b906102e090600401611368565b602060405180830381865afa1580156102fd573d6000803e3d6000fd5b505050506040513d601f19601f82011682018060405250810190610321919061138d565b6040516306b7053b60e01b81526001600160a01b03848116600483015291909116906306b7053b906024015b602060405180830381865afa15801561036a573d6000803e3d6000fd5b505050506040513d601f19601f820116820180604052508101906102ac91906113cc565b60405163070c412b60e01b81526000906001600160a01b0384169063070c412b906103bb90600401611368565b602060405180830381865afa1580156103d8573d6000803e3d6000fd5b505050506040513d601f19601f820116820180604052508101906103fc919061138d565b604051634d3337bb60e11b81526001600160a01b0384811660048301529190911690639a666f769060240161026b565b610460604051806080016040528060006001600160a01b031681526020016060815260200160608152602001606081525090565b60408051608081018252308152815160008082526020828101909452919283019161049b565b60608152602001906001900390816104865790505b50815260200160006040519080825280602002602001820160405280156104d657816020015b60608152602001906001900390816104c15790505b50815260200160405180604001604052806005815260200164086c2e8c6d60db1b815250815250905090565b60405163070c412b60e01b81526000906001600160a01b0383169063070c412b9061052f906004016113fb565b602060405180830381865afa15801561054c573d6000803e3d6000fd5b505050506040513d601f19601f82011682018060405250810190610570919061138d565b6001600160a01b031663c2e522066040518163ffffffff1660e01b8152600401602060405180830381865afa1580156105ad573d6000803e3d6000fd5b505050506040513d601f19601f820116820180604052508101906105d191906113cc565b92915050565b60405163070c412b60e01b81526000906001600160a01b0384169063070c412b9061060490600401611368565b602060405180830381865afa158015610621573d6000803e3d6000fd5b505050506040513d601f19601f82011682018060405250810190610645919061138d565b60405163fe436c5360e01b81526001600160a01b038481166004830152919091169063fe436c539060240161034d565b60405163070c412b60e01b81526000906001600160a01b0383169063070c412b906106a290600401611368565b602060405180830381865afa1580156106bf573d6000803e3d6000fd5b505050506040513d601f19601f820116820180604052508101906106e3919061138d565b6001600160a01b03166317c48aee6040518163ffffffff1660e01b8152600401602060405180830381865afa1580156105ad573d6000803e3d6000fd5b60405163070c412b60e01b81526060906001600160a01b0383169063070c412b9061074d90600401611368565b602060405180830381865afa15801561076a573d6000803e3d6000fd5b505050506040513d601f19601f8201168201806040525081019061078e919061138d565b6001600160a01b031663a1f2d3146040518163ffffffff1660e01b8152600401600060405180830381865afa1580156107cb573d6000803e3d6000fd5b505050506040513d6000823e601f3d908101601f191682016040526105d19190810190611471565b60405163070c412b60e01b81526000906001600160a01b0384169063070c412b9061082090600401611368565b602060405180830381865afa15801561083d573d6000803e3d6000fd5b505050506040513d601f19601f82011682018060405250810190610861919061138d565b604051630381634560e41b81526001600160a01b0384811660048301529190911690633816345090602401602060405180830381865afa1580156108a9573d6000803e3d6000fd5b505050506040513d601f19601f820116820180604052508101906108cd91906113cc565b9050806000036108f057604051630baae5ab60e31b815260040160405180910390fd5b60405163070c412b60e01b81526001600160a01b0384169063070c412b9061091a90600401611368565b602060405180830381865afa158015610937573d6000803e3d6000fd5b505050506040513d601f19601f8201168201806040525081019061095b919061138d565b604051639ce3a19960e01b81526001600160a01b0384811660048301529190911690639ce3a199906024015b600060405180830381600087803b1580156109a157600080fd5b505af11580156109b5573d6000803e3d6000fd5b50505050505050565b6000816001600160a01b031663eab150676040518163ffffffff1660e01b8152600401602060405180830381865afa1580156109fe573d6000803e3d6000fd5b505050506040513d601f19601f82011682018060405250810190610a22919061138d565b604080516337dffb9360e01b81526001600160a01b0385811660048301526024820192909252601c60448201527f4d4d4f4e65696768626f72496e746572616374696f6e456e746974790000000060648201529116906337dffb93906084016020604051808303816000875af1158015610aa0573d6000803e3d6000fd5b505050506040513d601f19601f82011682018060405250810190610ac4919061138d565b604051633c5c0f4960e21b81526001600160a01b0380831660048301529192509083169063f1703d2490602401600060405180830381600087803b158015610b0b57600080fd5b505af1158015610b1f573d6000803e3d6000fd5b505050506000826001600160a01b031663eab150676040518163ffffffff1660e01b8152600401602060405180830381865afa158015610b63573d6000803e3d6000fd5b505050506040513d601f19601f82011682018060405250810190610b87919061138d565b604080516337dffb9360e01b81526001600160a01b0386811660048301526024820192909252601060448201526f4d4d4f53657373696f6e456e7469747960801b60648201529116906337dffb93906084016020604051808303816000875af1158015610bf8573d6000803e3d6000fd5b505050506040513d601f19601f82011682018060405250810190610c1c919061138d565b604051633c5c0f4960e21b81526001600160a01b0380831660048301529192509084169063f1703d2490602401610987565b60405163070c412b60e01b81526000906001600160a01b0384169063070c412b90610c7b906004016113fb565b602060405180830381865afa158015610c98573d6000803e3d6000fd5b505050506040513d601f19601f82011682018060405250810190610cbc919061138d565b604051635893afcd60e11b81526001600160a01b038481166004830152919091169063b1275f9a906024016020604051808303816000875af1158015610d06573d6000803e3d6000fd5b505050506040513d601f19601f82011682018060405250810190610d2a91906113cc565b90506002610d3784610502565b610d419190611507565b600003610ea85760405163070c412b60e01b81526001600160a01b0384169063070c412b90610d7290600401611368565b602060405180830381865afa158015610d8f573d6000803e3d6000fd5b505050506040513d601f19601f82011682018060405250810190610db3919061138d565b604051632e23fe8b60e21b81526001600160a01b038481166004830152919091169063b88ffa2c90602401600060405180830381600087803b158015610df857600080fd5b505af1158015610e0c573d6000803e3d6000fd5b505060405163070c412b60e01b81526001600160a01b038616925063070c412b9150610e3a90600401611368565b602060405180830381865afa158015610e57573d6000803e3d6000fd5b505050506040513d601f19601f82011682018060405250810190610e7b919061138d565b6001600160a01b0316637a63a8a7826040518263ffffffff1660e01b815260040161098791815260200190565b505050565b60405163070c412b60e01b81526000906001600160a01b0385169063070c412b90610eda90600401611368565b602060405180830381865afa158015610ef7573d6000803e3d6000fd5b505050506040513d601f19601f82011682018060405250810190610f1b919061138d565b60405163dac732f360e01b81526001600160a01b038581166004830152919091169063dac732f390602401602060405180830381865afa158015610f63573d6000803e3d6000fd5b505050506040513d601f19601f82011682018060405250810190610f8791906113aa565b905080610fa757604051630da4cc7560e31b815260040160405180910390fd5b60405163070c412b60e01b81526000906001600160a01b0386169063070c412b90610fd4906004016113fb565b602060405180830381865afa158015610ff1573d6000803e3d6000fd5b505050506040513d601f19601f82011682018060405250810190611015919061138d565b60405163e82d2a8560e01b81526001600160a01b03868116600483015260248201869052919091169063e82d2a8590604401600060405180830381865afa158015611064573d6000803e3d6000fd5b505050506040513d6000823e601f3d908101601f1916820160405261108c9190810190611529565b60405163070c412b60e01b81529091506001600160a01b0386169063070c412b906110b990600401611368565b602060405180830381865afa1580156110d6573d6000803e3d6000fd5b505050506040513d601f19601f820116820180604052508101906110fa919061138d565b6001600160a01b031663b0f9a62f8583866040518463ffffffff1660e01b8152600401611129939291906115b8565b600060405180830381600087803b15801561114357600080fd5b505af1158015611157573d6000803e3d6000fd5b505050505050505050565b6001600160a01b038116811461117757600080fd5b50565b6000806040838503121561118d57600080fd5b823561119881611162565b915060208301356111a881611162565b809150509250929050565b6000815180845260005b818110156111d9576020818501810151868301820152016111bd565b506000602082860101526020601f19601f83011685010191505092915050565b60008282518085526020808601955060208260051b8401016020860160005b8481101561124657601f198684030189526112348383516111b3565b98840198925090830190600101611218565b5090979650505050505050565b602080825282516001600160a01b0316828201528201516080604083015260009061128160a08401826111f9565b90506040840151601f198085840301606086015261129f83836111f9565b92506060860151915080858403016080860152506112bd82826111b3565b95945050505050565b6000602082840312156112d857600080fd5b81356102ac81611162565b6020808252825182820181905260009190848201906040850190845b8181101561131b578351835292840192918401916001016112ff565b50909695505050505050565b60008060006060848603121561133c57600080fd5b833561134781611162565b9250602084013561135781611162565b929592945050506040919091013590565b6020808252600b908201526a18d85b925b9d195c9858dd60aa1b604082015260600190565b60006020828403121561139f57600080fd5b81516102ac81611162565b6000602082840312156113bc57600080fd5b815180151581146102ac57600080fd5b6000602082840312156113de57600080fd5b5051919050565b634e487b7160e01b600052604160045260246000fd5b602080825260079082015266706c617965727360c81b604082015260600190565b604051601f8201601f1916810167ffffffffffffffff81118282101715611445576114456113e5565b604052919050565b600067ffffffffffffffff821115611467576114676113e5565b5060051b60200190565b6000602080838503121561148457600080fd5b825167ffffffffffffffff81111561149b57600080fd5b8301601f810185136114ac57600080fd5b80516114bf6114ba8261144d565b61141c565b81815260059190911b820183019083810190878311156114de57600080fd5b928401925b828410156114fc578351825292840192908401906114e3565b979650505050505050565b60008261152457634e487b7160e01b600052601260045260246000fd5b500690565b6000602080838503121561153c57600080fd5b825167ffffffffffffffff81111561155357600080fd5b8301601f8101851361156457600080fd5b80516115726114ba8261144d565b81815260059190911b8201830190838101908783111561159157600080fd5b928401925b828410156114fc5783516115a981611162565b82529284019290840190611596565b6001600160a01b038481168252606060208084018290528551918401829052600092868201929091906080860190855b818110156116065785518516835294830194918301916001016115e8565b50508094505050505082604083015294935050505056fea2646970667358221220bb0d027249432e8b8df09f589b45d9fe1c30d7a516cfa42535140d77e7ba46ac64736f6c63430008180033",
        "nonce": "0x127",
        "accessList": []
      },
      "additionalContracts": [],
      "isFixedGasLimit": false
    },
    {
      "hash": "0x3486bfd4dcb3a9a7e54debf38eab2fe5db529f6b0bd224bc3205acce889882fc",
      "transactionType": "CALL",
      "contractName": null,
      "contractAddress": "0xE17065CfD174eF6C9e2251ffd360019E8C492012",
      "function": "register(address)",
      "arguments": [
        "0x775fBBf98d8d1688C2c122f19a8F01bc02D2F2B1"
      ],
      "transaction": {
        "type": "0x02",
        "from": "0x2273ffed38ed040fbcd3e45cd807594d27ebfae3",
        "to": "0xe17065cfd174ef6c9e2251ffd360019e8c492012",
        "gas": "0x10da9",
        "value": "0x0",
        "data": "0x4420e486000000000000000000000000775fbbf98d8d1688c2c122f19a8f01bc02d2f2b1",
        "nonce": "0x128",
        "accessList": []
      },
      "additionalContracts": [],
      "isFixedGasLimit": false
    },
    {
      "hash": "0x4f1639e15b74efbca8e5d55c382e029ded9c5610fac63988376a135028a6b6e3",
      "transactionType": "CREATE",
      "contractName": "MMONeighborInteractionEntity",
      "contractAddress": "0xB74Db7d8dF97B3F8D7E5B8E5C8E9173725E79116",
      "function": null,
      "arguments": null,
      "transaction": {
        "type": "0x02",
        "from": "0x2273ffed38ed040fbcd3e45cd807594d27ebfae3",
        "gas": "0x10bad1",
        "value": "0x0",
        "data": "0x608060405234801561001057600080fd5b50610e4b806100206000396000f3fe608060405234801561001057600080fd5b50600436106101215760003560e01c8063a1f2d314116100ad578063c4d66de811610071578063c4d66de81461034f578063d8dbcfc814610362578063dac732f314610375578063ee88f123146103a0578063fe436c53146103b557600080fd5b8063a1f2d314146102a6578063a7e45e45146102bb578063b0f9a62f146102fe578063b88ffa2c14610311578063c3fe3e281461032457600080fd5b806338163450116100f457806338163450146101e05780637a63a8a7146102005780639a666f76146102455780639ce3a199146102805780639d0b30141461029357600080fd5b806306b7053b146101265780630ba460ff146101595780630cb6aaf1146101b757806317c48aee146101d7575b600080fd5b610146610134366004610a36565b60036020526000908152604090205481565b6040519081526020015b60405180910390f35b610192610167366004610a58565b6008602052600090815260409020805460028201546003909201546001600160a01b03909116919083565b604080516001600160a01b039094168452602084019290925290820152606001610150565b6101ca6101c5366004610a58565b6103d5565b6040516101509190610ab7565b61014660075481565b6101466101ee366004610a36565b60046020526000908152604090205481565b61024361020e366004610a58565b600580546001810182556000919091527f036b6384b5eca791c62761152d0c79bb0604c104a5fb6f4eb0703f3154bb3db00155565b005b610270610253366004610a36565b6001600160a01b0316600090815260046020526040902054151590565b6040519015158152602001610150565b61024361028e366004610a36565b610481565b6101466102a1366004610a58565b6105eb565b6102ae61060c565b6040516101509190610aca565b6102436102c9366004610a58565b600680546001810182556000919091527ff652222313e28459528d920b65115c16c04f3efc82aaedc97be59f3f377c0d3f0155565b61024361030c366004610b24565b610664565b61024361031f366004610a36565b61078c565b600054610337906001600160a01b031681565b6040516001600160a01b039091168152602001610150565b61024361035d366004610a36565b61083c565b610146610370366004610a58565b6108b7565b610270610383366004610a36565b6001600160a01b0316600090815260026020526040902054151590565b6103a86108c7565b6040516101509190610c04565b6101466103c3366004610a36565b60026020526000908152604090205481565b600181815481106103e557600080fd5b90600052602060002001600091509050805461040090610c68565b80601f016020809104026020016040519081016040528092919081815260200182805461042c90610c68565b80156104795780601f1061044e57610100808354040283529160200191610479565b820191906000526020600020905b81548152906001019060200180831161045c57829003601f168201915b505050505081565b6001600160a01b0381166000908152600460209081526040808320548084526008835281842060010180548351818602810186019094528084529194939091908301828280156104fa57602002820191906000526020600020905b81546001600160a01b031681526001909101906020018083116104dc575b5050505050905060005b81518110156105515760006004600084848151811061052557610525610ca2565b6020908102919091018101516001600160a01b0316825281019190915260400160002055600101610504565b50600082815260086020818152604080842080546001600160a01b031685526003808452828620869055429082015560028101859055815185815280840192839052948790529290915291516105ad92600190920191906109a0565b5050600081815260086020908152604080832080546001600160a01b039096166001600160a01b031990961686179055938252600290529190912055565b600681815481106105fb57600080fd5b600091825260209091200154905081565b6060600580548060200260200160405190810160405280929190818152602001828054801561065a57602002820191906000526020600020905b815481526020019060010190808311610646575b5050505050905090565b6001600160a01b03831660009081526002602081815260408084208054855260089092528084204260039091015590548352909120018190556106a981610e10610cce565b6001600160a01b03841660009081526002602090815260408083208054845260088352818420600301949094559254825291902083516106f1926001909201918501906109a0565b5060005b825181101561075c576001600160a01b0384166000908152600260205260408120548451909160049186908590811061073057610730610ca2565b6020908102919091018101516001600160a01b03168252810191909152604001600020556001016106f5565b5050506001600160a01b031660009081526002602081815260408084208054600384529185209190915591905255565b6007805490600061079c83610ceb565b90915550506007546001600160a01b03828116600081815260026020908152604080832086905580516080810182529384528051838152808301825284830190815284820184905242606086015295835260088252909120825181546001600160a01b0319169416939093178355925180519193610822926001850192909101906109a0565b506040820151600282015560609091015160039091015550565b600080546001600160a01b0319166001600160a01b038316178155600180548082018255915260408051808201909152600b81526a18d85b925b9d195c9858dd60aa1b60208201527fb10e2d527612073b26eecdfd717e6a320cf44b4afac2b0732d9fcbe2b7fa0cf6909101906108b39082610d55565b5050565b600581815481106105fb57600080fd5b60606001805480602002602001604051908101604052809291908181526020016000905b8282101561099757838290600052602060002001805461090a90610c68565b80601f016020809104026020016040519081016040528092919081815260200182805461093690610c68565b80156109835780601f1061095857610100808354040283529160200191610983565b820191906000526020600020905b81548152906001019060200180831161096657829003601f168201915b5050505050815260200190600101906108eb565b50505050905090565b8280548282559060005260206000209081019282156109f5579160200282015b828111156109f557825182546001600160a01b0319166001600160a01b039091161782556020909201916001909101906109c0565b50610a01929150610a05565b5090565b5b80821115610a015760008155600101610a06565b80356001600160a01b0381168114610a3157600080fd5b919050565b600060208284031215610a4857600080fd5b610a5182610a1a565b9392505050565b600060208284031215610a6a57600080fd5b5035919050565b6000815180845260005b81811015610a9757602081850181015186830182015201610a7b565b506000602082860101526020601f19601f83011685010191505092915050565b602081526000610a516020830184610a71565b6020808252825182820181905260009190848201906040850190845b81811015610b0257835183529284019291840191600101610ae6565b50909695505050505050565b634e487b7160e01b600052604160045260246000fd5b600080600060608486031215610b3957600080fd5b610b4284610a1a565b925060208085013567ffffffffffffffff80821115610b6057600080fd5b818701915087601f830112610b7457600080fd5b813581811115610b8657610b86610b0e565b8060051b604051601f19603f83011681018181108582111715610bab57610bab610b0e565b60405291825284820192508381018501918a831115610bc957600080fd5b938501935b82851015610bee57610bdf85610a1a565b84529385019392850192610bce565b979a979950505050604095909501359450505050565b600060208083016020845280855180835260408601915060408160051b87010192506020870160005b82811015610c5b57603f19888603018452610c49858351610a71565b94509285019290850190600101610c2d565b5092979650505050505050565b600181811c90821680610c7c57607f821691505b602082108103610c9c57634e487b7160e01b600052602260045260246000fd5b50919050565b634e487b7160e01b600052603260045260246000fd5b634e487b7160e01b600052601160045260246000fd5b8082028115828204841417610ce557610ce5610cb8565b92915050565b600060018201610cfd57610cfd610cb8565b5060010190565b601f821115610d50576000816000526020600020601f850160051c81016020861015610d2d5750805b601f850160051c820191505b81811015610d4c57828155600101610d39565b5050505b505050565b815167ffffffffffffffff811115610d6f57610d6f610b0e565b610d8381610d7d8454610c68565b84610d04565b602080601f831160018114610db85760008415610da05750858301515b600019600386901b1c1916600185901b178555610d4c565b600085815260208120601f198616915b82811015610de757888601518255948401946001909101908401610dc8565b5085821015610e055787850151600019600388901b60f8161c191681555b5050505050600190811b0190555056fea264697066735822122053975bd85726beffbf6d876daa7c94da7f0099ff72d95cda4b0fc7144ae0cce464736f6c63430008180033",
        "nonce": "0x129",
        "accessList": []
      },
      "additionalContracts": [],
      "isFixedGasLimit": false
    },
    {
      "hash": "0xe23473a0b7343bdd63e04e78a101472e5ce7152da2bb34de5dcde9990536c9a7",
      "transactionType": "CALL",
      "contractName": "EntityFactory",
      "contractAddress": "0xE040f1a4d5Cea3A2A9dC1D6D14997516844f2C1F",
      "function": "registerEntity(string,address)",
      "arguments": [
        "\"MMONeighborInteractionEntity\"",
        "0xB74Db7d8dF97B3F8D7E5B8E5C8E9173725E79116"
      ],
      "transaction": {
        "type": "0x02",
        "from": "0x2273ffed38ed040fbcd3e45cd807594d27ebfae3",
        "to": "0xe040f1a4d5cea3a2a9dc1d6d14997516844f2c1f",
        "gas": "0x11495",
        "value": "0x0",
        "data": "0xb2533d9d0000000000000000000000000000000000000000000000000000000000000040000000000000000000000000b74db7d8df97b3f8d7e5b8e5c8e9173725e79116000000000000000000000000000000000000000000000000000000000000001c4d4d4f4e65696768626f72496e746572616374696f6e456e7469747900000000",
        "nonce": "0x12a",
        "accessList": []
      },
      "additionalContracts": [],
      "isFixedGasLimit": false
    },
    {
      "hash": "0x9c99fea0dbf2494a8718e4fb05c1b11999f22283872be95fb604eebffedd0560",
      "transactionType": "CALL",
      "contractName": null,
      "contractAddress": "0x1e1778FC9d6fE2C870c76d51115f05A4dc759430",
      "function": "createGame(address,string)",
      "arguments": [
        "0x2273fFEd38ED040FBcd3e45Cd807594d27ebfAE3",
        "\"Catch\""
      ],
      "transaction": {
        "type": "0x02",
        "from": "0x2273ffed38ed040fbcd3e45cd807594d27ebfae3",
        "to": "0x1e1778fc9d6fe2c870c76d51115f05a4dc759430",
        "gas": "0x4a05b",
        "value": "0x0",
        "data": "0xec06bb5d0000000000000000000000002273ffed38ed040fbcd3e45cd807594d27ebfae3000000000000000000000000000000000000000000000000000000000000004000000000000000000000000000000000000000000000000000000000000000054361746368000000000000000000000000000000000000000000000000000000",
        "nonce": "0x12b",
        "accessList": []
      },
      "additionalContracts": [
        {
          "transactionType": "CREATE",
          "address": "0xfC3abc72a6c05059f25971a0432CA334Bb281B2C",
          "initCode": "0x602c3d8160093d39f33d3d3d3d363d3d37363d73ebfe60fcfdb78c6e8f2049820fd91867d047aa1f5af43d3d93803e602a57fd5bf3"
        }
      ],
      "isFixedGasLimit": false
    },
    {
      "hash": "0xc92bb36eb09e5cf94337cf7b5de577d2b26757b6dde211451427e69d40acbee8",
      "transactionType": "CALL",
      "contractName": "MetaMultiSigWallet",
      "contractAddress": "0xfC3abc72a6c05059f25971a0432CA334Bb281B2C",
      "function": "addModule(address)",
      "arguments": [
        "0x775fBBf98d8d1688C2c122f19a8F01bc02D2F2B1"
      ],
      "transaction": {
        "type": "0x02",
        "from": "0x2273ffed38ed040fbcd3e45cd807594d27ebfae3",
        "to": "0xfc3abc72a6c05059f25971a0432ca334bb281b2c",
        "gas": "0x117fad",
        "value": "0x0",
        "data": "0x1ed86f19000000000000000000000000775fbbf98d8d1688c2c122f19a8f01bc02d2f2b1",
        "nonce": "0x12c",
        "accessList": []
      },
      "additionalContracts": [
        {
          "transactionType": "CREATE",
          "address": "0x62A954Fd29e69f35E64201F6A010da895696BC21",
          "initCode": "0x602c3d8160093d39f33d3d3d3d363d3d37363d73b74db7d8df97b3f8d7e5b8e5c8e9173725e791165af43d3d93803e602a57fd5bf3"
        },
        {
          "transactionType": "CREATE",
          "address": "0xBB2E5E7071b7671F1d0f832A91e4F2bFd4B23F50",
          "initCode": "0x602c3d8160093d39f33d3d3d3d363d3d37363d7308fd496382f1a655878b6ddcb99e56268cdff68d5af43d3d93803e602a57fd5bf3"
        }
      ],
      "isFixedGasLimit": false
    },
    {
      "hash": "0xe39cc3896302584a5944c1116e59635f871f2d0ca8252b472c4e480d2e3c7c3f",
      "transactionType": "CALL",
      "contractName": "src/modules/MMONeighborInteractionModule.sol:MMONeighborInteractionModule",
      "contractAddress": "0x775fBBf98d8d1688C2c122f19a8F01bc02D2F2B1",
      "function": "joinSession(address,address)",
      "arguments": [
        "0xfC3abc72a6c05059f25971a0432CA334Bb281B2C",
        "0x0000000000000000000000000000000000000001"
      ],
      "transaction": {
        "type": "0x02",
        "from": "0x2273ffed38ed040fbcd3e45cd807594d27ebfae3",
        "to": "0x775fbbf98d8d1688c2c122f19a8f01bc02d2f2b1",
        "gas": "0x23e57",
        "value": "0x0",
        "data": "0xce690668000000000000000000000000fc3abc72a6c05059f25971a0432ca334bb281b2c0000000000000000000000000000000000000000000000000000000000000001",
        "nonce": "0x12d",
        "accessList": []
      },
      "additionalContracts": [],
      "isFixedGasLimit": false
    },
    {
      "hash": "0x9acdc95fb1cfc1b1703ba3cf7fbebe2f7f2763c9d584ecbac2a7411efbbba1b8",
      "transactionType": "CALL",
      "contractName": "src/modules/MMONeighborInteractionModule.sol:MMONeighborInteractionModule",
      "contractAddress": "0x775fBBf98d8d1688C2c122f19a8F01bc02D2F2B1",
      "function": "joinSession(address,address)",
      "arguments": [
        "0xfC3abc72a6c05059f25971a0432CA334Bb281B2C",
        "0x0000000000000000000000000000000000000002"
      ],
      "transaction": {
        "type": "0x02",
        "from": "0x2273ffed38ed040fbcd3e45cd807594d27ebfae3",
        "to": "0x775fbbf98d8d1688c2c122f19a8f01bc02d2f2b1",
        "gas": "0x50d3c",
        "value": "0x0",
        "data": "0xce690668000000000000000000000000fc3abc72a6c05059f25971a0432ca334bb281b2c0000000000000000000000000000000000000000000000000000000000000002",
        "nonce": "0x12e",
        "accessList": []
      },
      "additionalContracts": [],
      "isFixedGasLimit": false
    },
    {
      "hash": "0x1a51f5438bba2a439ca3a10f230fe1feecf3f70535615e2ca9656f6f91e30867",
      "transactionType": "CALL",
      "contractName": "src/modules/MMONeighborInteractionModule.sol:MMONeighborInteractionModule",
      "contractAddress": "0x775fBBf98d8d1688C2c122f19a8F01bc02D2F2B1",
      "function": "joinSession(address,address)",
      "arguments": [
        "0xfC3abc72a6c05059f25971a0432CA334Bb281B2C",
        "0x0000000000000000000000000000000000000003"
      ],
      "transaction": {
        "type": "0x02",
        "from": "0x2273ffed38ed040fbcd3e45cd807594d27ebfae3",
        "to": "0x775fbbf98d8d1688c2c122f19a8f01bc02d2f2b1",
        "gas": "0x1e213",
        "value": "0x0",
        "data": "0xce690668000000000000000000000000fc3abc72a6c05059f25971a0432ca334bb281b2c0000000000000000000000000000000000000000000000000000000000000003",
        "nonce": "0x12f",
        "accessList": []
      },
      "additionalContracts": [],
      "isFixedGasLimit": false
    },
    {
      "hash": "0x2ef5e8564c77ad83ee8285be919a09c0c3fa9aeba8e39ea36a7ee939b9cbcaca",
      "transactionType": "CALL",
      "contractName": "src/modules/MMONeighborInteractionModule.sol:MMONeighborInteractionModule",
      "contractAddress": "0x775fBBf98d8d1688C2c122f19a8F01bc02D2F2B1",
      "function": "joinSession(address,address)",
      "arguments": [
        "0xfC3abc72a6c05059f25971a0432CA334Bb281B2C",
        "0x0000000000000000000000000000000000000004"
      ],
      "transaction": {
        "type": "0x02",
        "from": "0x2273ffed38ed040fbcd3e45cd807594d27ebfae3",
        "to": "0x775fbbf98d8d1688c2c122f19a8f01bc02d2f2b1",
        "gas": "0x454b6",
        "value": "0x0",
        "data": "0xce690668000000000000000000000000fc3abc72a6c05059f25971a0432ca334bb281b2c0000000000000000000000000000000000000000000000000000000000000004",
        "nonce": "0x130",
        "accessList": []
      },
      "additionalContracts": [],
      "isFixedGasLimit": false
    },
    {
      "hash": "0xf4812799c28a9bd35fe663139de071b488d81646554f72674ac2a17c688782a9",
      "transactionType": "CALL",
      "contractName": "src/modules/MMONeighborInteractionModule.sol:MMONeighborInteractionModule",
      "contractAddress": "0x775fBBf98d8d1688C2c122f19a8F01bc02D2F2B1",
      "function": "joinSession(address,address)",
      "arguments": [
        "0xfC3abc72a6c05059f25971a0432CA334Bb281B2C",
        "0x0000000000000000000000000000000000000005"
      ],
      "transaction": {
        "type": "0x02",
        "from": "0x2273ffed38ed040fbcd3e45cd807594d27ebfae3",
        "to": "0x775fbbf98d8d1688c2c122f19a8f01bc02d2f2b1",
        "gas": "0x1e213",
        "value": "0x0",
        "data": "0xce690668000000000000000000000000fc3abc72a6c05059f25971a0432ca334bb281b2c0000000000000000000000000000000000000000000000000000000000000005",
        "nonce": "0x131",
        "accessList": []
      },
      "additionalContracts": [],
      "isFixedGasLimit": false
    },
    {
      "hash": "0x4b4da9995e6e196881fba217bd91c516f0bbb9b15752728637faf8293df92563",
      "transactionType": "CALL",
      "contractName": "src/modules/MMONeighborInteractionModule.sol:MMONeighborInteractionModule",
      "contractAddress": "0x775fBBf98d8d1688C2c122f19a8F01bc02D2F2B1",
      "function": "joinSession(address,address)",
      "arguments": [
        "0xfC3abc72a6c05059f25971a0432CA334Bb281B2C",
        "0x0000000000000000000000000000000000000006"
      ],
      "transaction": {
        "type": "0x02",
        "from": "0x2273ffed38ed040fbcd3e45cd807594d27ebfae3",
        "to": "0x775fbbf98d8d1688c2c122f19a8f01bc02d2f2b1",
        "gas": "0x454b6",
        "value": "0x0",
        "data": "0xce690668000000000000000000000000fc3abc72a6c05059f25971a0432ca334bb281b2c0000000000000000000000000000000000000000000000000000000000000006",
        "nonce": "0x132",
        "accessList": []
      },
      "additionalContracts": [],
      "isFixedGasLimit": false
    },
    {
      "hash": "0x61014d51f33cbf981f441503266ead5558f6fbcb72ff584c3ff4a4a434ea0e43",
      "transactionType": "CALL",
      "contractName": "src/modules/MMONeighborInteractionModule.sol:MMONeighborInteractionModule",
      "contractAddress": "0x775fBBf98d8d1688C2c122f19a8F01bc02D2F2B1",
      "function": "joinSession(address,address)",
      "arguments": [
        "0xfC3abc72a6c05059f25971a0432CA334Bb281B2C",
        "0x0000000000000000000000000000000000000007"
      ],
      "transaction": {
        "type": "0x02",
        "from": "0x2273ffed38ed040fbcd3e45cd807594d27ebfae3",
        "to": "0x775fbbf98d8d1688c2c122f19a8f01bc02d2f2b1",
        "gas": "0x1e213",
        "value": "0x0",
        "data": "0xce690668000000000000000000000000fc3abc72a6c05059f25971a0432ca334bb281b2c0000000000000000000000000000000000000000000000000000000000000007",
        "nonce": "0x133",
        "accessList": []
      },
      "additionalContracts": [],
      "isFixedGasLimit": false
    },
    {
      "hash": "0xb74fecb90567134fb444e59baa749a9ad579ba2a2f3bb7b8739c6d002a8be636",
      "transactionType": "CALL",
      "contractName": "src/modules/MMONeighborInteractionModule.sol:MMONeighborInteractionModule",
      "contractAddress": "0x775fBBf98d8d1688C2c122f19a8F01bc02D2F2B1",
      "function": "joinSession(address,address)",
      "arguments": [
        "0xfC3abc72a6c05059f25971a0432CA334Bb281B2C",
        "0x0000000000000000000000000000000000000008"
      ],
      "transaction": {
        "type": "0x02",
        "from": "0x2273ffed38ed040fbcd3e45cd807594d27ebfae3",
        "to": "0x775fbbf98d8d1688c2c122f19a8f01bc02d2f2b1",
        "gas": "0x454b6",
        "value": "0x0",
        "data": "0xce690668000000000000000000000000fc3abc72a6c05059f25971a0432ca334bb281b2c0000000000000000000000000000000000000000000000000000000000000008",
        "nonce": "0x134",
        "accessList": []
      },
      "additionalContracts": [],
      "isFixedGasLimit": false
    },
    {
      "hash": "0x48cde3e04e0affaa85087f220ff8a953542b23b5575b16f49d1552a6957c0834",
      "transactionType": "CALL",
      "contractName": "src/modules/MMONeighborInteractionModule.sol:MMONeighborInteractionModule",
      "contractAddress": "0x775fBBf98d8d1688C2c122f19a8F01bc02D2F2B1",
      "function": "joinSession(address,address)",
      "arguments": [
        "0xfC3abc72a6c05059f25971a0432CA334Bb281B2C",
        "0x0000000000000000000000000000000000000009"
      ],
      "transaction": {
        "type": "0x02",
        "from": "0x2273ffed38ed040fbcd3e45cd807594d27ebfae3",
        "to": "0x775fbbf98d8d1688c2c122f19a8f01bc02d2f2b1",
        "gas": "0x1e213",
        "value": "0x0",
        "data": "0xce690668000000000000000000000000fc3abc72a6c05059f25971a0432ca334bb281b2c0000000000000000000000000000000000000000000000000000000000000009",
        "nonce": "0x135",
        "accessList": []
      },
      "additionalContracts": [],
      "isFixedGasLimit": false
    },
    {
      "hash": "0xc44e5a0f201638362eb913a7cef9f0c224e0e97af829e975767f20065920f58d",
      "transactionType": "CALL",
      "contractName": "src/modules/MMONeighborInteractionModule.sol:MMONeighborInteractionModule",
      "contractAddress": "0x775fBBf98d8d1688C2c122f19a8F01bc02D2F2B1",
      "function": "joinSession(address,address)",
      "arguments": [
        "0xfC3abc72a6c05059f25971a0432CA334Bb281B2C",
        "0x000000000000000000000000000000000000000A"
      ],
      "transaction": {
        "type": "0x02",
        "from": "0x2273ffed38ed040fbcd3e45cd807594d27ebfae3",
        "to": "0x775fbbf98d8d1688c2c122f19a8f01bc02d2f2b1",
        "gas": "0x454b6",
        "value": "0x0",
        "data": "0xce690668000000000000000000000000fc3abc72a6c05059f25971a0432ca334bb281b2c000000000000000000000000000000000000000000000000000000000000000a",
        "nonce": "0x136",
        "accessList": []
      },
      "additionalContracts": [],
      "isFixedGasLimit": false
    },
    {
      "hash": "0xd83ba0d415779fcaadbad3a23b81f4684438b898930be5ea6cfe9101deb641ac",
      "transactionType": "CALL",
      "contractName": "src/modules/MMONeighborInteractionModule.sol:MMONeighborInteractionModule",
      "contractAddress": "0x775fBBf98d8d1688C2c122f19a8F01bc02D2F2B1",
      "function": "joinSession(address,address)",
      "arguments": [
        "0xfC3abc72a6c05059f25971a0432CA334Bb281B2C",
        "0x000000000000000000000000000000000000000b"
      ],
      "transaction": {
        "type": "0x02",
        "from": "0x2273ffed38ed040fbcd3e45cd807594d27ebfae3",
        "to": "0x775fbbf98d8d1688c2c122f19a8f01bc02d2f2b1",
        "gas": "0x1e213",
        "value": "0x0",
        "data": "0xce690668000000000000000000000000fc3abc72a6c05059f25971a0432ca334bb281b2c000000000000000000000000000000000000000000000000000000000000000b",
        "nonce": "0x137",
        "accessList": []
      },
      "additionalContracts": [],
      "isFixedGasLimit": false
    },
    {
      "hash": "0x9aa465a827847596ce9803251960dd8817f6be7620b71cb306dbc49ae5ba3e6a",
      "transactionType": "CALL",
      "contractName": "src/modules/MMONeighborInteractionModule.sol:MMONeighborInteractionModule",
      "contractAddress": "0x775fBBf98d8d1688C2c122f19a8F01bc02D2F2B1",
      "function": "joinSession(address,address)",
      "arguments": [
        "0xfC3abc72a6c05059f25971a0432CA334Bb281B2C",
        "0x000000000000000000000000000000000000000C"
      ],
      "transaction": {
        "type": "0x02",
        "from": "0x2273ffed38ed040fbcd3e45cd807594d27ebfae3",
        "to": "0x775fbbf98d8d1688c2c122f19a8f01bc02d2f2b1",
        "gas": "0x454b6",
        "value": "0x0",
        "data": "0xce690668000000000000000000000000fc3abc72a6c05059f25971a0432ca334bb281b2c000000000000000000000000000000000000000000000000000000000000000c",
        "nonce": "0x138",
        "accessList": []
      },
      "additionalContracts": [],
      "isFixedGasLimit": false
    },
    {
      "hash": "0x990f27f7950a1a11044d5d85c1c51656e3ecde103ce5280a1104c7216e968aeb",
      "transactionType": "CALL",
      "contractName": "src/modules/MMONeighborInteractionModule.sol:MMONeighborInteractionModule",
      "contractAddress": "0x775fBBf98d8d1688C2c122f19a8F01bc02D2F2B1",
      "function": "joinSession(address,address)",
      "arguments": [
        "0xfC3abc72a6c05059f25971a0432CA334Bb281B2C",
        "0x000000000000000000000000000000000000000d"
      ],
      "transaction": {
        "type": "0x02",
        "from": "0x2273ffed38ed040fbcd3e45cd807594d27ebfae3",
        "to": "0x775fbbf98d8d1688c2c122f19a8f01bc02d2f2b1",
        "gas": "0x1e213",
        "value": "0x0",
        "data": "0xce690668000000000000000000000000fc3abc72a6c05059f25971a0432ca334bb281b2c000000000000000000000000000000000000000000000000000000000000000d",
        "nonce": "0x139",
        "accessList": []
      },
      "additionalContracts": [],
      "isFixedGasLimit": false
    },
    {
      "hash": "0x3b0bcaad47ae792bb35d7f22716ff8661a3a1a6a98bcee0658c4a2550ea56c77",
      "transactionType": "CALL",
      "contractName": "src/modules/MMONeighborInteractionModule.sol:MMONeighborInteractionModule",
      "contractAddress": "0x775fBBf98d8d1688C2c122f19a8F01bc02D2F2B1",
      "function": "joinSession(address,address)",
      "arguments": [
        "0xfC3abc72a6c05059f25971a0432CA334Bb281B2C",
        "0x000000000000000000000000000000000000000E"
      ],
      "transaction": {
        "type": "0x02",
        "from": "0x2273ffed38ed040fbcd3e45cd807594d27ebfae3",
        "to": "0x775fbbf98d8d1688c2c122f19a8f01bc02d2f2b1",
        "gas": "0x454b6",
        "value": "0x0",
        "data": "0xce690668000000000000000000000000fc3abc72a6c05059f25971a0432ca334bb281b2c000000000000000000000000000000000000000000000000000000000000000e",
        "nonce": "0x13a",
        "accessList": []
      },
      "additionalContracts": [],
      "isFixedGasLimit": false
    },
    {
      "hash": "0x32a19b42c2483d0bbf3e34bb4399908b4073dfe77a5123637df94df6c03b102e",
      "transactionType": "CALL",
      "contractName": "src/modules/MMONeighborInteractionModule.sol:MMONeighborInteractionModule",
      "contractAddress": "0x775fBBf98d8d1688C2c122f19a8F01bc02D2F2B1",
      "function": "joinSession(address,address)",
      "arguments": [
        "0xfC3abc72a6c05059f25971a0432CA334Bb281B2C",
        "0x000000000000000000000000000000000000000F"
      ],
      "transaction": {
        "type": "0x02",
        "from": "0x2273ffed38ed040fbcd3e45cd807594d27ebfae3",
        "to": "0x775fbbf98d8d1688c2c122f19a8f01bc02d2f2b1",
        "gas": "0x1e213",
        "value": "0x0",
        "data": "0xce690668000000000000000000000000fc3abc72a6c05059f25971a0432ca334bb281b2c000000000000000000000000000000000000000000000000000000000000000f",
        "nonce": "0x13b",
        "accessList": []
      },
      "additionalContracts": [],
      "isFixedGasLimit": false
    },
    {
      "hash": "0xa4315be815e6f2f6702bcc7e9599b468c9a7265b008895c23dd4f5c719642565",
      "transactionType": "CALL",
      "contractName": "src/modules/MMONeighborInteractionModule.sol:MMONeighborInteractionModule",
      "contractAddress": "0x775fBBf98d8d1688C2c122f19a8F01bc02D2F2B1",
      "function": "joinSession(address,address)",
      "arguments": [
        "0xfC3abc72a6c05059f25971a0432CA334Bb281B2C",
        "0x0000000000000000000000000000000000000010"
      ],
      "transaction": {
        "type": "0x02",
        "from": "0x2273ffed38ed040fbcd3e45cd807594d27ebfae3",
        "to": "0x775fbbf98d8d1688c2c122f19a8f01bc02d2f2b1",
        "gas": "0x454b6",
        "value": "0x0",
        "data": "0xce690668000000000000000000000000fc3abc72a6c05059f25971a0432ca334bb281b2c0000000000000000000000000000000000000000000000000000000000000010",
        "nonce": "0x13c",
        "accessList": []
      },
      "additionalContracts": [],
      "isFixedGasLimit": false
    },
    {
      "hash": "0x1f77f29d0b1c998462d7d2e1fcd8270d38ea05c47141ec042b836970b1687ece",
      "transactionType": "CALL",
      "contractName": "src/modules/MMONeighborInteractionModule.sol:MMONeighborInteractionModule",
      "contractAddress": "0x775fBBf98d8d1688C2c122f19a8F01bc02D2F2B1",
      "function": "joinSession(address,address)",
      "arguments": [
        "0xfC3abc72a6c05059f25971a0432CA334Bb281B2C",
        "0x0000000000000000000000000000000000000011"
      ],
      "transaction": {
        "type": "0x02",
        "from": "0x2273ffed38ed040fbcd3e45cd807594d27ebfae3",
        "to": "0x775fbbf98d8d1688c2c122f19a8f01bc02d2f2b1",
        "gas": "0x1e213",
        "value": "0x0",
        "data": "0xce690668000000000000000000000000fc3abc72a6c05059f25971a0432ca334bb281b2c0000000000000000000000000000000000000000000000000000000000000011",
        "nonce": "0x13d",
        "accessList": []
      },
      "additionalContracts": [],
      "isFixedGasLimit": false
    }
  ],
  "receipts": [],
  "libraries": [],
  "pending": [
    "0x73f2f93f0c7018b61fe5e9dd40d8583c6d52e675fcd331b60efcae06b96e5cf8",
    "0xa4aa3d1de79dfdbc7343cffe5f2efb52479cdd1b97ffd5a6d75861404ea5ee60",
    "0xe28f5d93015e05a0fafdcb9f43ab41fa2ba8e9aefaae3422a6cff135ebffee7e",
    "0x5cc0b294729c9e80dfc71edae4170e169ea85a07fdb371dabda8f8892b48916e",
    "0x804c743d01fd8ff72365d8cbe94af2a872d8fc0cd4c0ef6cab1bf23582a65c3b",
    "0x3486bfd4dcb3a9a7e54debf38eab2fe5db529f6b0bd224bc3205acce889882fc",
    "0x4f1639e15b74efbca8e5d55c382e029ded9c5610fac63988376a135028a6b6e3",
    "0xe23473a0b7343bdd63e04e78a101472e5ce7152da2bb34de5dcde9990536c9a7",
    "0x9c99fea0dbf2494a8718e4fb05c1b11999f22283872be95fb604eebffedd0560",
    "0xc92bb36eb09e5cf94337cf7b5de577d2b26757b6dde211451427e69d40acbee8",
    "0xe39cc3896302584a5944c1116e59635f871f2d0ca8252b472c4e480d2e3c7c3f",
    "0x9acdc95fb1cfc1b1703ba3cf7fbebe2f7f2763c9d584ecbac2a7411efbbba1b8",
    "0x1a51f5438bba2a439ca3a10f230fe1feecf3f70535615e2ca9656f6f91e30867",
    "0x2ef5e8564c77ad83ee8285be919a09c0c3fa9aeba8e39ea36a7ee939b9cbcaca",
    "0xf4812799c28a9bd35fe663139de071b488d81646554f72674ac2a17c688782a9",
    "0x4b4da9995e6e196881fba217bd91c516f0bbb9b15752728637faf8293df92563",
    "0x61014d51f33cbf981f441503266ead5558f6fbcb72ff584c3ff4a4a434ea0e43",
    "0xb74fecb90567134fb444e59baa749a9ad579ba2a2f3bb7b8739c6d002a8be636",
    "0x48cde3e04e0affaa85087f220ff8a953542b23b5575b16f49d1552a6957c0834",
    "0xc44e5a0f201638362eb913a7cef9f0c224e0e97af829e975767f20065920f58d",
    "0xd83ba0d415779fcaadbad3a23b81f4684438b898930be5ea6cfe9101deb641ac",
    "0x9aa465a827847596ce9803251960dd8817f6be7620b71cb306dbc49ae5ba3e6a",
    "0x990f27f7950a1a11044d5d85c1c51656e3ecde103ce5280a1104c7216e968aeb",
    "0x3b0bcaad47ae792bb35d7f22716ff8661a3a1a6a98bcee0658c4a2550ea56c77",
    "0x32a19b42c2483d0bbf3e34bb4399908b4073dfe77a5123637df94df6c03b102e",
    "0xa4315be815e6f2f6702bcc7e9599b468c9a7265b008895c23dd4f5c719642565",
    "0x1f77f29d0b1c998462d7d2e1fcd8270d38ea05c47141ec042b836970b1687ece"
  ],
  "returns": {},
  "timestamp": 1713290351,
  "chain": 11155111,
  "multi": false,
  "commit": "efdf94b"
}