{
  "transactions": [
    {
      "hash": "0x02d0994c9c431c4ba7e153d5dfafe0c0433a643e0ad5b8e88af51c1fc14628ba",
      "transactionType": "CREATE",
      "contractName": "MMOSessionModule",
      "contractAddress": "0xD1a656993AD2984Ebdc27B0282dF1B8d55B1B57f",
      "function": null,
      "arguments": null,
      "transaction": {
        "type": "0x02",
        "from": "0x2273ffed38ed040fbcd3e45cd807594d27ebfae3",
        "gas": "0x86f80",
        "value": "0x0",
        "data": "0x608060405234801561001057600080fd5b506106bb806100206000396000f3fe608060405234801561001057600080fd5b506004361061004c5760003560e01c80634051ddac14610051578063467e4a2f1461006f578063c4d66de814610090578063ce690668146100a5575b600080fd5b6100596100b8565b6040516100669190610567565b60405180910390f35b61008261007d3660046105f2565b61018e565b604051908152602001610066565b6100a361009e3660046105f2565b610278565b005b6100a36100b3366004610616565b6103d4565b6100ec604051806080016040528060006001600160a01b031681526020016060815260200160608152602001606081525090565b604080516080810182523081528151600080825260208281019094529192830191610127565b60608152602001906001900390816101125790505b508152602001600060405190808252806020026020018201604052801561016257816020015b606081526020019060019003908161014d5790505b50815260200160405180604001604052806005815260200164086c2e8c6d60db1b815250815250905090565b60405163070c412b60e01b8152602060048201526007602482015266706c617965727360c81b60448201526000906001600160a01b0383169063070c412b90606401602060405180830381865afa1580156101ed573d6000803e3d6000fd5b505050506040513d601f19601f82011682018060405250810190610211919061064f565b6001600160a01b031663c2e522066040518163ffffffff1660e01b8152600401602060405180830381865afa15801561024e573d6000803e3d6000fd5b505050506040513d601f19601f82011682018060405250810190610272919061066c565b92915050565b6000816001600160a01b031663eab150676040518163ffffffff1660e01b8152600401602060405180830381865afa1580156102b8573d6000803e3d6000fd5b505050506040513d601f19601f820116820180604052508101906102dc919061064f565b604080516337dffb9360e01b81526001600160a01b0385811660048301526024820192909252601060448201526f4d4d4f53657373696f6e456e7469747960801b60648201529116906337dffb93906084016020604051808303816000875af115801561034d573d6000803e3d6000fd5b505050506040513d601f19601f82011682018060405250810190610371919061064f565b604051633c5c0f4960e21b81526001600160a01b0380831660048301529192509083169063f1703d2490602401600060405180830381600087803b1580156103b857600080fd5b505af11580156103cc573d6000803e3d6000fd5b505050505050565b60405163070c412b60e01b8152602060048201526007602482015266706c617965727360c81b60448201526001600160a01b0383169063070c412b90606401602060405180830381865afa158015610430573d6000803e3d6000fd5b505050506040513d601f19601f82011682018060405250810190610454919061064f565b604051635893afcd60e11b81526001600160a01b038381166004830152919091169063b1275f9a906024016020604051808303816000875af115801561049e573d6000803e3d6000fd5b505050506040513d601f19601f820116820180604052508101906104c2919061066c565b505050565b6000815180845260005b818110156104ed576020818501810151868301820152016104d1565b506000602082860101526020601f19601f83011685010191505092915050565b60008282518085526020808601955060208260051b8401016020860160005b8481101561055a57601f198684030189526105488383516104c7565b9884019892509083019060010161052c565b5090979650505050505050565b602080825282516001600160a01b0316828201528201516080604083015260009061059560a084018261050d565b90506040840151601f19808584030160608601526105b3838361050d565b92506060860151915080858403016080860152506105d182826104c7565b95945050505050565b6001600160a01b03811681146105ef57600080fd5b50565b60006020828403121561060457600080fd5b813561060f816105da565b9392505050565b6000806040838503121561062957600080fd5b8235610634816105da565b91506020830135610644816105da565b809150509250929050565b60006020828403121561066157600080fd5b815161060f816105da565b60006020828403121561067e57600080fd5b505191905056fea26469706673582212208f67affb682993ea6a401b76a4020811992df5c90ddcc448795dfebed5b315f864736f6c63430008180033",
        "nonce": "0x1a3",
        "accessList": []
      },
      "additionalContracts": [],
      "isFixedGasLimit": false
    },
    {
      "hash": "0x1334cd97241366e4345444a29f099540625be98135a1ac7b93a92abf5458a644",
      "transactionType": "CALL",
      "contractName": null,
      "contractAddress": "0x1D9136eb63fFAD2EF8a8b908853814ACa7a0F810",
      "function": "register(address)",
      "arguments": [
        "0xD1a656993AD2984Ebdc27B0282dF1B8d55B1B57f"
      ],
      "transaction": {
        "type": "0x02",
        "from": "0x2273ffed38ed040fbcd3e45cd807594d27ebfae3",
        "to": "0x1d9136eb63ffad2ef8a8b908853814aca7a0f810",
        "gas": "0x10da9",
        "value": "0x0",
        "data": "0x4420e486000000000000000000000000d1a656993ad2984ebdc27b0282df1b8d55b1b57f",
        "nonce": "0x1a4",
        "accessList": []
      },
      "additionalContracts": [],
      "isFixedGasLimit": false
    },
    {
      "hash": "0x3b7ccdc93ae8f2a4c6cf7f409af3268790fdc82d4dbd7bdca69f8c94173b1b26",
      "transactionType": "CREATE",
      "contractName": "MMOSessionEntity",
      "contractAddress": "0x4FA212E4743c17e42db9cdB775e4DC029Feb1B91",
      "function": null,
      "arguments": null,
      "transaction": {
        "type": "0x02",
        "from": "0x2273ffed38ed040fbcd3e45cd807594d27ebfae3",
        "gas": "0x115780",
        "value": "0x0",
        "data": "0x608060405234801561001057600080fd5b50610edb806100206000396000f3fe608060405234801561001057600080fd5b50600436106100935760003560e01c8063c3fe3e2811610066578063c3fe3e28146100ff578063c4d66de81461012a578063e82d2a851461013d578063ee88f1231461015d578063f71d96cb1461017257600080fd5b80630cb6aaf1146100985780635bb12a1a146100c1578063b1275f9a146100d6578063c2e52206146100f7575b600080fd5b6100ab6100a63660046109c9565b610185565b6040516100b89190610a32565b60405180910390f35b6100d46100cf366004610a63565b610231565b005b6100e96100e4366004610a63565b61045c565b6040519081526020016100b8565b6002546100e9565b600054610112906001600160a01b031681565b6040516001600160a01b0390911681526020016100b8565b6100d4610138366004610a63565b6105ae565b61015061014b366004610a7e565b610686565b6040516100b89190610aa8565b610165610865565b6040516100b89190610af5565b6101126101803660046109c9565b61093e565b6001818154811061019557600080fd5b9060005260206000200160009150905080546101b090610b59565b80601f01602080910402602001604051908101604052809291908181526020018280546101dc90610b59565b80156102295780601f106101fe57610100808354040283529160200191610229565b820191906000526020600020905b81548152906001019060200180831161020c57829003601f168201915b505050505081565b60005460405163a555cfcd60e01b81523360048201526001600160a01b039091169063a555cfcd90602401600060405180830381865afa158015610279573d6000803e3d6000fd5b505050506040513d6000823e601f3d908101601f191682016040526102a19190810190610bda565b516000036102ed5760405162461bcd60e51b8152602060048201526014602482015273135bd91d5b19481b9bdd081cdd5c1c1bdc9d195960621b60448201526064015b60405180910390fd5b6001600160a01b03811660009081526003602052604081205490036103255760405163184537df60e21b815260040160405180910390fd5b6001600160a01b03811660009081526003602052604081205461034a90600190610d07565b600280549192509061035e90600190610d07565b8154811061036e5761036e610d1a565b600091825260209091200154600280546001600160a01b03909216918390811061039a5761039a610d1a565b600091825260209091200180546001600160a01b0319166001600160a01b03929092169190911790556103ce816001610d30565b60036000600284815481106103e5576103e5610d1a565b60009182526020808320909101546001600160a01b03168352820192909252604001902055600280548061041b5761041b610d43565b60008281526020808220830160001990810180546001600160a01b03191690559092019092556001600160a01b039390931681526003909252506040812055565b6000805460405163a555cfcd60e01b81523360048201526001600160a01b039091169063a555cfcd90602401600060405180830381865afa1580156104a5573d6000803e3d6000fd5b505050506040513d6000823e601f3d908101601f191682016040526104cd9190810190610bda565b516000036105145760405162461bcd60e51b8152602060048201526014602482015273135bd91d5b19481b9bdd081cdd5c1c1bdc9d195960621b60448201526064016102e4565b6001600160a01b0382166000908152600360205260409020541561054b5760405163301c5d0160e21b815260040160405180910390fd5b50600280546001810182557f405787fa12a823e0f2b7631cc41b3ba8828b3321ca811111fa75cd3aa3bb5ace0180546001600160a01b0319166001600160a01b03841690811790915590546000918252600360205260409091208190555b919050565b600080546001600160a01b0319166001600160a01b0383161781556001805480820182559152604080518082019091526007815266706c617965727360c81b60208201527fb10e2d527612073b26eecdfd717e6a320cf44b4afac2b0732d9fcbe2b7fa0cf6909101906106219082610daa565b5060018054808201825560009190915260408051808201909152600b81526a0e0d8c2f2cae492dcc8caf60ab1b60208201527fb10e2d527612073b26eecdfd717e6a320cf44b4afac2b0732d9fcbe2b7fa0cf6909101906106829082610daa565b5050565b6001600160a01b0382166000908152600360205260408120546060919081908411156106b557600091506106dc565b6001600160a01b0385166000908152600360205260409020546106d9908590610d07565b91505b6002546001600160a01b038616600090815260036020526040902054610703908690610d30565b11156107125750600254610739565b6001600160a01b038516600090815260036020526040902054610736908590610d30565b90505b60006107458383610d07565b67ffffffffffffffff81111561075d5761075d610b93565b604051908082528060200260200182016040528015610786578160200160208202803683370190505b5090506107b3604051806040016040528060088152602001671cdd185c9d08185d60c21b81525084610968565b6107db60405180604001604052806006815260200165195b9908185d60d21b81525083610968565b6000835b8381101561085757600281815481106107fa576107fa610d1a565b9060005260206000200160009054906101000a90046001600160a01b031683838151811061082a5761082a610d1a565b6001600160a01b03909216602092830291909101909101528161084c81610e6a565b9250506001016107df565b509093505050505b92915050565b60606001805480602002602001604051908101604052809291908181526020016000905b828210156109355783829060005260206000200180546108a890610b59565b80601f01602080910402602001604051908101604052809291908181526020018280546108d490610b59565b80156109215780601f106108f657610100808354040283529160200191610921565b820191906000526020600020905b81548152906001019060200180831161090457829003601f168201915b505050505081526020019060010190610889565b50505050905090565b6002818154811061094e57600080fd5b6000918252602090912001546001600160a01b0316905081565b610682828260405160240161097e929190610e83565b60408051601f198184030181529190526020810180516001600160e01b03166309710a9d60e41b17905280516a636f6e736f6c652e6c6f67602083016000808483855afa5050505050565b6000602082840312156109db57600080fd5b5035919050565b60005b838110156109fd5781810151838201526020016109e5565b50506000910152565b60008151808452610a1e8160208601602086016109e2565b601f01601f19169290920160200192915050565b602081526000610a456020830184610a06565b9392505050565b80356001600160a01b03811681146105a957600080fd5b600060208284031215610a7557600080fd5b610a4582610a4c565b60008060408385031215610a9157600080fd5b610a9a83610a4c565b946020939093013593505050565b6020808252825182820181905260009190848201906040850190845b81811015610ae95783516001600160a01b031683529284019291840191600101610ac4565b50909695505050505050565b600060208083016020845280855180835260408601915060408160051b87010192506020870160005b82811015610b4c57603f19888603018452610b3a858351610a06565b94509285019290850190600101610b1e565b5092979650505050505050565b600181811c90821680610b6d57607f821691505b602082108103610b8d57634e487b7160e01b600052602260045260246000fd5b50919050565b634e487b7160e01b600052604160045260246000fd5b604051601f8201601f1916810167ffffffffffffffff81118282101715610bd257610bd2610b93565b604052919050565b60006020808385031215610bed57600080fd5b825167ffffffffffffffff80821115610c0557600080fd5b8185019150601f86601f840112610c1b57600080fd5b825182811115610c2d57610c2d610b93565b8060051b610c3c868201610ba9565b918252848101860191868101908a841115610c5657600080fd5b87870192505b83831015610ce357825186811115610c745760008081fd5b8701603f81018c13610c865760008081fd5b88810151604088821115610c9c57610c9c610b93565b610cad828901601f19168c01610ba9565b8281528e82848601011115610cc25760008081fd5b610cd1838d83018487016109e2565b85525050509187019190870190610c5c565b9a9950505050505050505050565b634e487b7160e01b600052601160045260246000fd5b8181038181111561085f5761085f610cf1565b634e487b7160e01b600052603260045260246000fd5b8082018082111561085f5761085f610cf1565b634e487b7160e01b600052603160045260246000fd5b601f821115610da5576000816000526020600020601f850160051c81016020861015610d825750805b601f850160051c820191505b81811015610da157828155600101610d8e565b5050505b505050565b815167ffffffffffffffff811115610dc457610dc4610b93565b610dd881610dd28454610b59565b84610d59565b602080601f831160018114610e0d5760008415610df55750858301515b600019600386901b1c1916600185901b178555610da1565b600085815260208120601f198616915b82811015610e3c57888601518255948401946001909101908401610e1d565b5085821015610e5a5787850151600019600388901b60f8161c191681555b5050505050600190811b01905550565b600060018201610e7c57610e7c610cf1565b5060010190565b604081526000610e966040830185610a06565b9050826020830152939250505056fea26469706673582212208aaccaaacd96c8f343889dded4ee5aa9cd45d97dcff4b1acfa98e7b9506c61ea64736f6c63430008180033",
        "nonce": "0x1a5",
        "accessList": []
      },
      "additionalContracts": [],
      "isFixedGasLimit": false
    },
    {
      "hash": "0x7c193edc1bc57879f6930273471e0c4bc9b2cfc9021828122da0ed2bde4b0c37",
      "transactionType": "CALL",
      "contractName": null,
      "contractAddress": "0x6E0BE2b9c9026D9080EEbffBdf423d1B451A227E",
      "function": "registerEntity(string,address)",
      "arguments": [
        "\"MMOSessionEntity\"",
        "0x4FA212E4743c17e42db9cdB775e4DC029Feb1B91"
      ],
      "transaction": {
        "type": "0x02",
        "from": "0x2273ffed38ed040fbcd3e45cd807594d27ebfae3",
        "to": "0x6e0be2b9c9026d9080eebffbdf423d1b451a227e",
        "gas": "0x123e9",
        "value": "0x0",
        "data": "0xb2533d9d00000000000000000000000000000000000000000000000000000000000000400000000000000000000000004fa212e4743c17e42db9cdb775e4dc029feb1b9100000000000000000000000000000000000000000000000000000000000000104d4d4f53657373696f6e456e7469747900000000000000000000000000000000",
        "nonce": "0x1a6",
        "accessList": []
      },
      "additionalContracts": [],
      "isFixedGasLimit": false
    },
    {
      "hash": "0x8258e66c4e7e7516c55b0df71c51d3f607335c5f9b01a5a91309ef3557b247d4",
      "transactionType": "CREATE",
      "contractName": "MMONeighborInteractionModule",
      "contractAddress": "0x0F6e3ebAD5962690B50D4a0FC804235Db3886A3c",
      "function": null,
      "arguments": null,
      "transaction": {
        "type": "0x02",
        "from": "0x2273ffed38ed040fbcd3e45cd807594d27ebfae3",
        "gas": "0x1ffe12",
        "value": "0x0",
        "data": "0x60c060405260116080908152702230b4b63c9024b73a32b930b1ba34b7b760791b60a052600090620000329082620002b2565b5060408051608081018252600781830190815266706c617965727360c81b606083015281528151808301909252600e82526d63616e506c617965725468726f7760901b60208381019190915281019190915262000094906001906002620000e9565b5060408051606081018252600e602082019081526d19d95d141b185e595c90dbdd5b9d60921b92820192909252908152620000d490600290600162000146565b50348015620000e257600080fd5b506200037e565b82805482825590600052602060002090810192821562000134579160200282015b82811115620001345782518290620001239082620002b2565b50916020019190600101906200010a565b506200014292915062000191565b5090565b82805482825590600052602060002090810192821562000134579160200282015b82811115620001345782518290620001809082620002b2565b509160200191906001019062000167565b8082111562000142576000620001a88282620001b2565b5060010162000191565b508054620001c09062000221565b6000825580601f10620001d1575050565b601f016020900490600052602060002090810190620001f19190620001f4565b50565b5b80821115620001425760008155600101620001f5565b634e487b7160e01b600052604160045260246000fd5b600181811c908216806200023657607f821691505b6020821081036200025757634e487b7160e01b600052602260045260246000fd5b50919050565b601f821115620002ad576000816000526020600020601f850160051c81016020861015620002885750805b601f850160051c820191505b81811015620002a95782815560010162000294565b5050505b505050565b81516001600160401b03811115620002ce57620002ce6200020b565b620002e681620002df845462000221565b846200025d565b602080601f8311600181146200031e5760008415620003055750858301515b600019600386901b1c1916600185901b178555620002a9565b600085815260208120601f198616915b828110156200034f578886015182559484019460019091019084016200032e565b50858210156200036e5787850151600019600388901b60f8161c191681555b5050505050600190811b01905550565b611988806200038e6000396000f3fe608060405234801561001057600080fd5b50600436106100f55760003560e01c8063a79312dd11610097578063dc64051011610066578063dc640510146101f5578063e6e84ea014610218578063eac0bd901461022b578063ef536fbc1461023e57600080fd5b8063a79312dd146101a9578063aa84eb79146101bc578063c4d66de8146101cf578063ce690668146101e257600080fd5b8063467e4a2f116100d3578063467e4a2f146101595780634affb2601461016c5780636bcca4571461017457806371f1551f1461018957600080fd5b80631b73f830146100fa5780633e88345c146101235780634051ddac14610144575b600080fd5b61010d6101083660046113cd565b610251565b60405161011a919061142c565b60405180910390f35b610136610131366004611457565b6102fd565b60405190815260200161011a565b61014c6103de565b60405161011a91906114ea565b61013661016736600461155d565b610600565b61010d6106d5565b610187610182366004611457565b6106e2565b005b61019c61019736600461155d565b6108aa565b60405161011a919061157a565b6101366101b736600461155d565b61097d565b6101876101ca3660046115d2565b610a28565b6101876101dd36600461155d565b610cdd565b6101876101f0366004611457565b610f5b565b610208610203366004611457565b611199565b604051901515815260200161011a565b61019c61022636600461155d565b611274565b61010d6102393660046113cd565b61131f565b61020861024c366004611457565b61132f565b6001818154811061026157600080fd5b90600052602060002001600091509050805461027c90611613565b80601f01602080910402602001604051908101604052809291908181526020018280546102a890611613565b80156102f55780601f106102ca576101008083540402835291602001916102f5565b820191906000526020600020905b8154815290600101906020018083116102d857829003601f168201915b505050505081565b60405163070c412b60e01b81526000906001600160a01b0384169063070c412b9061032a9060040161164d565b602060405180830381865afa158015610347573d6000803e3d6000fd5b505050506040513d601f19601f8201168201806040525081019061036b919061166c565b6040516303f8318160e41b81526001600160a01b0384811660048301529190911690633f83181090602401602060405180830381865afa1580156103b3573d6000803e3d6000fd5b505050506040513d601f19601f820116820180604052508101906103d79190611689565b9392505050565b610412604051806080016040528060006001600160a01b031681526020016060815260200160608152602001606081525090565b6040518060800160405280306001600160a01b031681526020016002805480602002602001604051908101604052809291908181526020016000905b828210156104fa57838290600052602060002001805461046d90611613565b80601f016020809104026020016040519081016040528092919081815260200182805461049990611613565b80156104e65780601f106104bb576101008083540402835291602001916104e6565b820191906000526020600020905b8154815290600101906020018083116104c957829003601f168201915b50505050508152602001906001019061044e565b5050505081526020016001805480602002602001604051908101604052809291908181526020016000905b828210156105d157838290600052602060002001805461054490611613565b80601f016020809104026020016040519081016040528092919081815260200182805461057090611613565b80156105bd5780601f10610592576101008083540402835291602001916105bd565b820191906000526020600020905b8154815290600101906020018083116105a057829003601f168201915b505050505081526020019060010190610525565b50505050815260200160405180604001604052806005815260200164086c2e8c6d60db1b815250815250905090565b60405163070c412b60e01b81526000906001600160a01b0383169063070c412b9061062d906004016116a2565b602060405180830381865afa15801561064a573d6000803e3d6000fd5b505050506040513d601f19601f8201168201806040525081019061066e919061166c565b6001600160a01b031663c2e522066040518163ffffffff1660e01b8152600401602060405180830381865afa1580156106ab573d6000803e3d6000fd5b505050506040513d601f19601f820116820180604052508101906106cf9190611689565b92915050565b6000805461027c90611613565b60405163070c412b60e01b81526000906001600160a01b0384169063070c412b9061070f9060040161164d565b602060405180830381865afa15801561072c573d6000803e3d6000fd5b505050506040513d601f19601f82011682018060405250810190610750919061166c565b604051631298741160e01b81526001600160a01b0384811660048301529190911690631298741190602401602060405180830381865afa158015610798573d6000803e3d6000fd5b505050506040513d601f19601f820116820180604052508101906107bc91906116c3565b9050806107dc57604051630baae5ab60e31b815260040160405180910390fd5b60405163070c412b60e01b81526001600160a01b0384169063070c412b906108069060040161164d565b602060405180830381865afa158015610823573d6000803e3d6000fd5b505050506040513d601f19601f82011682018060405250810190610847919061166c565b604051632c59437b60e01b81526001600160a01b0384811660048301529190911690632c59437b906024015b600060405180830381600087803b15801561088d57600080fd5b505af11580156108a1573d6000803e3d6000fd5b50505050505050565b60405163070c412b60e01b81526060906001600160a01b0383169063070c412b906108d79060040161164d565b602060405180830381865afa1580156108f4573d6000803e3d6000fd5b505050506040513d601f19601f82011682018060405250810190610918919061166c565b6001600160a01b031663414b226e6040518163ffffffff1660e01b8152600401600060405180830381865afa158015610955573d6000803e3d6000fd5b505050506040513d6000823e601f3d908101601f191682016040526106cf9190810190611779565b60405163070c412b60e01b81526000906001600160a01b0383169063070c412b906109aa9060040161164d565b602060405180830381865afa1580156109c7573d6000803e3d6000fd5b505050506040513d601f19601f820116820180604052508101906109eb919061166c565b6001600160a01b0316639ceaddc96040518163ffffffff1660e01b8152600401602060405180830381865afa1580156106ab573d6000803e3d6000fd5b60405163070c412b60e01b81526000906001600160a01b0385169063070c412b90610a559060040161164d565b602060405180830381865afa158015610a72573d6000803e3d6000fd5b505050506040513d601f19601f82011682018060405250810190610a96919061166c565b60405163070dae7760e51b81526001600160a01b038581166004830152919091169063e1b5cee090602401602060405180830381865afa158015610ade573d6000803e3d6000fd5b505050506040513d601f19601f82011682018060405250810190610b0291906116c3565b905080610b2257604051630da4cc7560e31b815260040160405180910390fd5b60405163070c412b60e01b81526000906001600160a01b0386169063070c412b90610b4f906004016116a2565b602060405180830381865afa158015610b6c573d6000803e3d6000fd5b505050506040513d601f19601f82011682018060405250810190610b90919061166c565b60405163e82d2a8560e01b81526001600160a01b03868116600483015260248201869052919091169063e82d2a8590604401600060405180830381865afa158015610bdf573d6000803e3d6000fd5b505050506040513d6000823e601f3d908101601f19168201604052610c07919081019061183e565b60405163070c412b60e01b81529091506001600160a01b0386169063070c412b90610c349060040161164d565b602060405180830381865afa158015610c51573d6000803e3d6000fd5b505050506040513d601f19601f82011682018060405250810190610c75919061166c565b6001600160a01b03166353eec7928585846040518463ffffffff1660e01b8152600401610ca4939291906118cd565b600060405180830381600087803b158015610cbe57600080fd5b505af1158015610cd2573d6000803e3d6000fd5b505050505050505050565b6000816001600160a01b031663eab150676040518163ffffffff1660e01b8152600401602060405180830381865afa158015610d1d573d6000803e3d6000fd5b505050506040513d601f19601f82011682018060405250810190610d41919061166c565b604080516337dffb9360e01b81526001600160a01b0385811660048301526024820192909252600b60448201526a4361746368456e7469747960a81b60648201529116906337dffb93906084016020604051808303816000875af1158015610dad573d6000803e3d6000fd5b505050506040513d601f19601f82011682018060405250810190610dd1919061166c565b604051633c5c0f4960e21b81526001600160a01b0380831660048301529192509083169063f1703d2490602401600060405180830381600087803b158015610e1857600080fd5b505af1158015610e2c573d6000803e3d6000fd5b505050506000826001600160a01b031663eab150676040518163ffffffff1660e01b8152600401602060405180830381865afa158015610e70573d6000803e3d6000fd5b505050506040513d601f19601f82011682018060405250810190610e94919061166c565b604080516337dffb9360e01b81526001600160a01b0386811660048301526024820192909252601060448201526f4d4d4f53657373696f6e456e7469747960801b60648201529116906337dffb93906084016020604051808303816000875af1158015610f05573d6000803e3d6000fd5b505050506040513d601f19601f82011682018060405250810190610f29919061166c565b604051633c5c0f4960e21b81526001600160a01b0380831660048301529192509084169063f1703d2490602401610873565b60405163070c412b60e01b81526000906001600160a01b0384169063070c412b90610f88906004016116a2565b602060405180830381865afa158015610fa5573d6000803e3d6000fd5b505050506040513d601f19601f82011682018060405250810190610fc9919061166c565b604051635893afcd60e11b81526001600160a01b038481166004830152919091169063b1275f9a906024016020604051808303816000875af1158015611013573d6000803e3d6000fd5b505050506040513d601f19601f820116820180604052508101906110379190611689565b9050600261104484610600565b61104e9190611930565b6000036110f75760405163070c412b60e01b81526001600160a01b0384169063070c412b9061107f9060040161164d565b602060405180830381865afa15801561109c573d6000803e3d6000fd5b505050506040513d601f19601f820116820180604052508101906110c0919061166c565b604051630ebcf79b60e11b81526001600160a01b038481166004830152602482018490529190911690631d79ef3690604401610873565b60405163070c412b60e01b81526001600160a01b0384169063070c412b906111219060040161164d565b602060405180830381865afa15801561113e573d6000803e3d6000fd5b505050506040513d601f19601f82011682018060405250810190611162919061166c565b6040516330a37ed560e21b81526001600160a01b03848116600483015260248201849052919091169063c28dfb5490604401610873565b60405163070c412b60e01b81526000906001600160a01b0384169063070c412b906111c69060040161164d565b602060405180830381865afa1580156111e3573d6000803e3d6000fd5b505050506040513d601f19601f82011682018060405250810190611207919061166c565b60405163070dae7760e51b81526001600160a01b038481166004830152919091169063e1b5cee0906024015b602060405180830381865afa158015611250573d6000803e3d6000fd5b505050506040513d601f19601f820116820180604052508101906103d791906116c3565b60405163070c412b60e01b81526060906001600160a01b0383169063070c412b906112a19060040161164d565b602060405180830381865afa1580156112be573d6000803e3d6000fd5b505050506040513d601f19601f820116820180604052508101906112e2919061166c565b6001600160a01b0316633fdb8e0a6040518163ffffffff1660e01b8152600401600060405180830381865afa158015610955573d6000803e3d6000fd5b6002818154811061026157600080fd5b60405163070c412b60e01b81526000906001600160a01b0384169063070c412b9061135c9060040161164d565b602060405180830381865afa158015611379573d6000803e3d6000fd5b505050506040513d601f19601f8201168201806040525081019061139d919061166c565b604051631298741160e01b81526001600160a01b0384811660048301529190911690631298741190602401611233565b6000602082840312156113df57600080fd5b5035919050565b6000815180845260005b8181101561140c576020818501810151868301820152016113f0565b506000602082860101526020601f19601f83011685010191505092915050565b6020815260006103d760208301846113e6565b6001600160a01b038116811461145457600080fd5b50565b6000806040838503121561146a57600080fd5b82356114758161143f565b915060208301356114858161143f565b809150509250929050565b60008282518085526020808601955060208260051b8401016020860160005b848110156114dd57601f198684030189526114cb8383516113e6565b988401989250908301906001016114af565b5090979650505050505050565b602080825282516001600160a01b0316828201528201516080604083015260009061151860a0840182611490565b90506040840151601f19808584030160608601526115368383611490565b925060608601519150808584030160808601525061155482826113e6565b95945050505050565b60006020828403121561156f57600080fd5b81356103d78161143f565b602080825282518282018190526000919060409081850190868401855b828110156115c5578151805185528601516001600160a01b0316868501529284019290850190600101611597565b5091979650505050505050565b6000806000606084860312156115e757600080fd5b83356115f28161143f565b925060208401356116028161143f565b929592945050506040919091013590565b600181811c9082168061162757607f821691505b60208210810361164757634e487b7160e01b600052602260045260246000fd5b50919050565b60208082526005908201526462616c6c7360d81b604082015260600190565b60006020828403121561167e57600080fd5b81516103d78161143f565b60006020828403121561169b57600080fd5b5051919050565b602080825260079082015266706c617965727360c81b604082015260600190565b6000602082840312156116d557600080fd5b815180151581146103d757600080fd5b634e487b7160e01b600052604160045260246000fd5b6040805190810167ffffffffffffffff8111828210171561171e5761171e6116e5565b60405290565b604051601f8201601f1916810167ffffffffffffffff8111828210171561174d5761174d6116e5565b604052919050565b600067ffffffffffffffff82111561176f5761176f6116e5565b5060051b60200190565b6000602080838503121561178c57600080fd5b825167ffffffffffffffff8111156117a357600080fd5b8301601f810185136117b457600080fd5b80516117c76117c282611755565b611724565b81815260069190911b820183019083810190878311156117e657600080fd5b928401925b8284101561183357604084890312156118045760008081fd5b61180c6116fb565b845181528585015161181d8161143f565b81870152825260409390930192908401906117eb565b979650505050505050565b6000602080838503121561185157600080fd5b825167ffffffffffffffff81111561186857600080fd5b8301601f8101851361187957600080fd5b80516118876117c282611755565b81815260059190911b820183019083810190878311156118a657600080fd5b928401925b828410156118335783516118be8161143f565b825292840192908401906118ab565b6001600160a01b038481168252602080830185905260606040840181905284519084018190526000928583019290916080860190855b81811015611921578551851683529483019491830191600101611903565b50909998505050505050505050565b60008261194d57634e487b7160e01b600052601260045260246000fd5b50069056fea26469706673582212202a5b1b217dd9a94fcebc1f0d460bff04d21150b9654f068da351d207ac356b9a64736f6c63430008180033",
        "nonce": "0x1a7",
        "accessList": []
      },
      "additionalContracts": [],
      "isFixedGasLimit": false
    },
    {
      "hash": "0xba11b0c1a256620a80870546ce5b6b821ca770b66e897f0c50230d076989602c",
      "transactionType": "CALL",
      "contractName": null,
      "contractAddress": "0x1D9136eb63fFAD2EF8a8b908853814ACa7a0F810",
      "function": "register(address)",
      "arguments": [
        "0x0F6e3ebAD5962690B50D4a0FC804235Db3886A3c"
      ],
      "transaction": {
        "type": "0x02",
        "from": "0x2273ffed38ed040fbcd3e45cd807594d27ebfae3",
        "to": "0x1d9136eb63ffad2ef8a8b908853814aca7a0f810",
        "gas": "0x10da9",
        "value": "0x0",
        "data": "0x4420e4860000000000000000000000000f6e3ebad5962690b50d4a0fc804235db3886a3c",
        "nonce": "0x1a8",
        "accessList": []
      },
      "additionalContracts": [],
      "isFixedGasLimit": false
    },
    {
      "hash": "0x91e9550affc889722db6207c2236c40c3d61145623cc82a7c125273b2ada7fb0",
      "transactionType": "CREATE",
      "contractName": "MMONeighborInteractionEntity",
      "contractAddress": "0xCa97CeFcB800f2eacB3a959D15ab951184A975Ed",
      "function": null,
      "arguments": null,
      "transaction": {
        "type": "0x02",
        "from": "0x2273ffed38ed040fbcd3e45cd807594d27ebfae3",
        "gas": "0x70316",
        "value": "0x0",
        "data": "0x608060405234801561001057600080fd5b5061056f806100206000396000f3fe608060405234801561001057600080fd5b506004361061004c5760003560e01c80630cb6aaf114610051578063c3fe3e281461007a578063c4d66de8146100a5578063ee88f123146100ba575b600080fd5b61006461005f3660046102d2565b6100cf565b6040516100719190610331565b60405180910390f35b60005461008d906001600160a01b031681565b6040516001600160a01b039091168152602001610071565b6100b86100b336600461034b565b61017b565b005b6100c26101f9565b6040516100719190610374565b600181815481106100df57600080fd5b9060005260206000200160009150905080546100fa906103d8565b80601f0160208091040260200160405190810160405280929190818152602001828054610126906103d8565b80156101735780601f1061014857610100808354040283529160200191610173565b820191906000526020600020905b81548152906001019060200180831161015657829003601f168201915b505050505081565b600080546001600160a01b0319166001600160a01b038316178155600180548082018255915260408051808201909152600e81526d63616e506c617965725468726f7760901b60208201527fb10e2d527612073b26eecdfd717e6a320cf44b4afac2b0732d9fcbe2b7fa0cf6909101906101f59082610479565b5050565b60606001805480602002602001604051908101604052809291908181526020016000905b828210156102c957838290600052602060002001805461023c906103d8565b80601f0160208091040260200160405190810160405280929190818152602001828054610268906103d8565b80156102b55780601f1061028a576101008083540402835291602001916102b5565b820191906000526020600020905b81548152906001019060200180831161029857829003601f168201915b50505050508152602001906001019061021d565b50505050905090565b6000602082840312156102e457600080fd5b5035919050565b6000815180845260005b81811015610311576020818501810151868301820152016102f5565b506000602082860101526020601f19601f83011685010191505092915050565b60208152600061034460208301846102eb565b9392505050565b60006020828403121561035d57600080fd5b81356001600160a01b038116811461034457600080fd5b600060208083016020845280855180835260408601915060408160051b87010192506020870160005b828110156103cb57603f198886030184526103b98583516102eb565b9450928501929085019060010161039d565b5092979650505050505050565b600181811c908216806103ec57607f821691505b60208210810361040c57634e487b7160e01b600052602260045260246000fd5b50919050565b634e487b7160e01b600052604160045260246000fd5b601f821115610474576000816000526020600020601f850160051c810160208610156104515750805b601f850160051c820191505b818110156104705782815560010161045d565b5050505b505050565b815167ffffffffffffffff81111561049357610493610412565b6104a7816104a184546103d8565b84610428565b602080601f8311600181146104dc57600084156104c45750858301515b600019600386901b1c1916600185901b178555610470565b600085815260208120601f198616915b8281101561050b578886015182559484019460019091019084016104ec565b50858210156105295787850151600019600388901b60f8161c191681555b5050505050600190811b0190555056fea2646970667358221220bbdc12879020f75921b76a22edcce897e80e4f544330410764365927fcfc52b964736f6c63430008180033",
        "nonce": "0x1a9",
        "accessList": []
      },
      "additionalContracts": [],
      "isFixedGasLimit": false
    },
    {
      "hash": "0x16c9f117565904d6057030dd4401348014336e88eaafb1281133bf002934f774",
      "transactionType": "CALL",
      "contractName": null,
      "contractAddress": "0x6E0BE2b9c9026D9080EEbffBdf423d1B451A227E",
      "function": "registerEntity(string,address)",
      "arguments": [
        "\"MMONeighborInteractionEntity\"",
        "0xCa97CeFcB800f2eacB3a959D15ab951184A975Ed"
      ],
      "transaction": {
        "type": "0x02",
        "from": "0x2273ffed38ed040fbcd3e45cd807594d27ebfae3",
        "to": "0x6e0be2b9c9026d9080eebffbdf423d1b451a227e",
        "gas": "0x11449",
        "value": "0x0",
        "data": "0xb2533d9d0000000000000000000000000000000000000000000000000000000000000040000000000000000000000000ca97cefcb800f2eacb3a959d15ab951184a975ed000000000000000000000000000000000000000000000000000000000000001c4d4d4f4e65696768626f72496e746572616374696f6e456e7469747900000000",
        "nonce": "0x1aa",
        "accessList": []
      },
      "additionalContracts": [],
      "isFixedGasLimit": false
    },
    {
      "hash": "0x0e4f2867bbc501220df2066f79e9af40656e44ef7aafc60b730f6ec5787ec93e",
      "transactionType": "CREATE",
      "contractName": "CatchEntity",
      "contractAddress": "0x9202ACC5497ec0a3dB92472cE861FDF55F73368f",
      "function": null,
      "arguments": null,
      "transaction": {
        "type": "0x02",
        "from": "0x2273ffed38ed040fbcd3e45cd807594d27ebfae3",
        "gas": "0x222c50",
        "value": "0x0",
        "data": "0x608060405234801561001057600080fd5b50611e35806100206000396000f3fe608060405234801561001057600080fd5b50600436106101005760003560e01c80636eee2f7a11610097578063c3fe3e2811610066578063c3fe3e281461025d578063c4d66de814610288578063e1b5cee01461029b578063ee88f123146102c657600080fd5b80636eee2f7a146101fe5780639ceaddc91461022e578063a33257a314610237578063c28dfb541461024a57600080fd5b80633f831810116100d35780633f831810146101945780633fdb8e0a146101ce578063414b226e146101e357806353eec792146101eb57600080fd5b80630cb6aaf114610105578063129874111461012e5780631d79ef361461016c5780632c59437b14610181575b600080fd5b61011861011336600461181f565b6102db565b6040516101259190611888565b60405180910390f35b61015c61013c3660046118be565b6001600160a01b0316600090815260056020526040902060010154151590565b6040519015158152602001610125565b61017f61017a3660046118d9565b610387565b005b61017f61018f3660046118be565b6105a6565b6101c06101a23660046118be565b6001600160a01b031660009081526005602052604090206002015490565b604051908152602001610125565b6101d6610dbd565b6040516101259190611903565b6101d6610ead565b61017f6101f93660046119c6565b610f18565b61021161020c36600461181f565b6114be565b604080519283526001600160a01b03909116602083015201610125565b6101c060025481565b61021161024536600461181f565b6114f5565b61017f6102583660046118d9565b611505565b600054610270906001600160a01b031681565b6040516001600160a01b039091168152602001610125565b61017f6102963660046118be565b6115b4565b61015c6102a93660046118be565b6001600160a01b0316600090815260056020526040902054151590565b6102ce611629565b6040516101259190611a7f565b600181815481106102eb57600080fd5b90600052602060002001600091509050805461030690611ae3565b80601f016020809104026020016040519081016040528092919081815260200182805461033290611ae3565b801561037f5780601f106103545761010080835404028352916020019161037f565b820191906000526020600020905b81548152906001019060200180831161036257829003601f168201915b505050505081565b60005460405163a555cfcd60e01b81523360048201526001600160a01b039091169063a555cfcd90602401600060405180830381865afa1580156103cf573d6000803e3d6000fd5b505050506040513d6000823e601f3d908101601f191682016040526103f79190810190611b1d565b516000036104205760405162461bcd60e51b815260040161041790611c22565b60405180910390fd5b6002805490600061043083611c66565b90915550506001600160a01b038216600081815260056020908152604080832060028054825460018101845583875285872001558585520185905580516060810182529384528051838152808301909152908301915081526000602091820181905260025481526006825260409020825181546001600160a01b0319166001600160a01b0390911617815582820151805191926104d5926001850192909101906117a5565b5060409182015160029182015581518083019092528282526001600160a01b038085166020840190815260038054600181810183556000839052955194027fc2575a0e9e593c00f959f8c92f12db2869c3395a3b0502d05e2516446f71f85b81019490945590517fc2575a0e9e593c00f959f8c92f12db2869c3395a3b0502d05e2516446f71f85c9093018054939092166001600160a01b0319909316929092179055546105839190611c7f565b6001600160a01b0390921660009081526005602052604090206003019190915550565b60005460405163a555cfcd60e01b81523360048201526001600160a01b039091169063a555cfcd90602401600060405180830381865afa1580156105ee573d6000803e3d6000fd5b505050506040513d6000823e601f3d908101601f191682016040526106169190810190611b1d565b516000036106365760405162461bcd60e51b815260040161041790611c22565b6001600160a01b03811660009081526005602052604081206001018054829061066157610661611c98565b60009182526020808320909101546001600160a01b03851680845260058352604084208054600181810183558287529486200183905593529181018054929350916106ac9190611c7f565b815481106106bc576106bc611c98565b906000526020600020015460056000846001600160a01b03166001600160a01b0316815260200190815260200160002060010160008154811061070157610701611c98565b60009182526020808320909101929092556001600160a01b038416815260059091526040902060010180548061073957610739611cae565b6000828152602080822083016000199081018390559092019092556001600160a01b0384168252600590526040902054600103610843576040805180820182526001600160a01b03848116600081815260056020908152948120600290810154855294840191825260038054600180820183559282905294517fc2575a0e9e593c00f959f8c92f12db2869c3395a3b0502d05e2516446f71f85b959096029485019590955590517fc2575a0e9e593c00f959f8c92f12db2869c3395a3b0502d05e2516446f71f85c90930180546001600160a01b0319169390921692909217905590546108269190611c7f565b6001600160a01b0383166000908152600560205260409020600301555b60005b600082815260066020526040902060010154811015610d57576000828152600660205260408120600101805460059291908490811061088757610887611c98565b60009182526020808320909101546001600160a01b0316835282019290925260400190206001908101549003610aaa57600480546108c790600190611c7f565b815481106108d7576108d7611c98565b906000526020600020906002020160046005600060066000878152602001908152602001600020600101858154811061091257610912611c98565b60009182526020808320909101546001600160a01b031683528201929092526040019020600401548154811061094a5761094a611c98565b60009182526020808320845460029093020191825560019384015491840180546001600160a01b0319166001600160a01b0390931692909217909155848252600690526040812090910180546005929190849081106109ab576109ab611c98565b60009182526020808320909101546001600160a01b0316835282810193909352604091820181206004908101548683526006909452918120600101805460059391849184919088908110610a0157610a01611c98565b60009182526020808320909101546001600160a01b0316835282019290925260400190206004015481548110610a3957610a39611c98565b60009182526020808320600160029093020191909101546001600160a01b031683528201929092526040019020600490810191909155805480610a7e57610a7e611cae565b60008281526020812060026000199093019283020190815560010180546001600160a01b031916905590555b60005b60008381526006602052604081206001018054600592919085908110610ad557610ad5611c98565b60009182526020808320909101546001600160a01b03168352820192909252604001902060010154811015610d4e578260056000600660008781526020019081526020016000206001018581548110610b3057610b30611c98565b60009182526020808320909101546001600160a01b031683528201929092526040019020600101805483908110610b6957610b69611c98565b906000526020600020015403610d465760008381526006602052604081206001018054600592919085908110610ba157610ba1611c98565b9060005260206000200160009054906101000a90046001600160a01b03166001600160a01b03166001600160a01b03168152602001908152602001600020600101600160056000600660008881526020019081526020016000206001018681548110610c0f57610c0f611c98565b60009182526020808320909101546001600160a01b03168352820192909252604001902060010154610c419190611c7f565b81548110610c5157610c51611c98565b906000526020600020015460056000600660008781526020019081526020016000206001018581548110610c8757610c87611c98565b60009182526020808320909101546001600160a01b031683528201929092526040019020600101805483908110610cc057610cc0611c98565b906000526020600020018190555060056000600660008681526020019081526020016000206001018481548110610cf957610cf9611c98565b60009182526020808320909101546001600160a01b031683528201929092526040019020600101805480610d2f57610d2f611cae565b600190038181906000526020600020016000905590555b600101610aad565b50600101610846565b50604080516000808252602080830180855285835260069091529290209051610d8692600190920191906117a5565b506000908152600660205260408120600281019190915580546001600160a01b0319166001600160a01b0392909216919091179055565b606060005b600454811015610e3957610e316040518060400160405280601481526020017362616c6c43617463686572506f736974696f6e7360601b81525060048381548110610e0f57610e0f611c98565b60009182526020909120600160029092020101546001600160a01b03166116f9565b600101610dc2565b506004805480602002602001604051908101604052809291908181526020016000905b82821015610ea45760008481526020908190206040805180820190915260028502909101805482526001908101546001600160a01b0316828401529083529092019101610e5c565b50505050905090565b606060038054806020026020016040519081016040528092919081815260200160009082821015610ea45760008481526020908190206040805180820190915260028502909101805482526001908101546001600160a01b0316828401529083529092019101610e5c565b60005460405163a555cfcd60e01b81523360048201526001600160a01b039091169063a555cfcd90602401600060405180830381865afa158015610f60573d6000803e3d6000fd5b505050506040513d6000823e601f3d908101601f19168201604052610f889190810190611b1d565b51600003610fa85760405162461bcd60e51b815260040161041790611c22565b6001600160a01b038316600090815260056020526040812080548290610fd057610fd0611c98565b906000526020600020015490508260066000838152602001908152602001600020600201819055506110256040518060400160405280600c81526020016b1d5c19185d19590818985b1b60a21b81525061173e565b60005b8251811015611243576005600084838151811061104757611047611c98565b6020908102919091018101516001600160a01b0316825281810192909252604090810160009081206001908101805480830182559083528483200186905585825260069093522084519101908490839081106110a5576110a5611c98565b6020908102919091018101518254600181018455600093845291832090910180546001600160a01b0319166001600160a01b039092169190911790558351600591908590849081106110f9576110f9611c98565b60200260200101516001600160a01b03166001600160a01b031681526020019081526020016000206001018054905060010361123b57600460405180604001604052806005600087868151811061115257611152611c98565b60200260200101516001600160a01b03166001600160a01b0316815260200190815260200160002060020154815260200185848151811061119557611195611c98565b6020908102919091018101516001600160a01b03908116909252835460018082018655600095865294829020845160029092020190815592015191830180546001600160a01b031916929091169190911790556004546111f59190611c7f565b6005600085848151811061120b5761120b611c98565b60200260200101516001600160a01b03166001600160a01b03168152602001908152602001600020600401819055505b600101611028565b506112756040518060400160405280601081526020016f7570646174656420636174636865727360801b81525061173e565b6001600160a01b0384166000908152600560205260409020805461129b90600190611c7f565b815481106112ab576112ab611c98565b60009182526020808320909101546001600160a01b03871683526005909152604082208054919290916112e0576112e0611c98565b60009182526020808320909101929092556001600160a01b038616815260059091526040902080548061131557611315611cae565b6001900381819060005260206000200160009055905561135a6040518060400160405280600e81526020016d3ab83230ba32b210383630bcb2b960911b81525061173e565b6001600160a01b03841660009081526005602052604081205490036114b8576003805461138990600190611c7f565b8154811061139957611399611c98565b9060005260206000209060020201600360056000876001600160a01b03166001600160a01b0316815260200190815260200160002060030154815481106113e2576113e2611c98565b6000918252602080832084546002909302019182556001938401549390910180546001600160a01b0319166001600160a01b03948516179055918616815260059182905260408120600390810154815490939291908490811061144757611447611c98565b60009182526020808320600160029093020191909101546001600160a01b03168352820192909252604001902060039081019190915580548061148c5761148c611cae565b60008281526020812060026000199093019283020190815560010180546001600160a01b031916905590555b50505050565b600481815481106114ce57600080fd5b6000918252602090912060029091020180546001909101549091506001600160a01b031682565b600381815481106114ce57600080fd5b60005460405163a555cfcd60e01b81523360048201526001600160a01b039091169063a555cfcd90602401600060405180830381865afa15801561154d573d6000803e3d6000fd5b505050506040513d6000823e601f3d908101601f191682016040526115759190810190611b1d565b516000036115955760405162461bcd60e51b815260040161041790611c22565b6001600160a01b03909116600090815260056020526040902060020155565b600080546001600160a01b0319166001600160a01b038316178155600180548082018255915260408051808201909152600581526462616c6c7360d81b60208201527fb10e2d527612073b26eecdfd717e6a320cf44b4afac2b0732d9fcbe2b7fa0cf6909101906116259082611d15565b5050565b60606001805480602002602001604051908101604052809291908181526020016000905b82821015610ea457838290600052602060002001805461166c90611ae3565b80601f016020809104026020016040519081016040528092919081815260200182805461169890611ae3565b80156116e55780601f106116ba576101008083540402835291602001916116e5565b820191906000526020600020905b8154815290600101906020018083116116c857829003601f168201915b50505050508152602001906001019061164d565b611625828260405160240161170f929190611dd5565b60408051601f198184030181529190526020810180516001600160e01b031663319af33360e01b179052611784565b611781816040516024016117529190611888565b60408051601f198184030181529190526020810180516001600160e01b031663104c13eb60e21b179052611784565b50565b80516a636f6e736f6c652e6c6f67602083016000808483855afa5050505050565b8280548282559060005260206000209081019282156117fa579160200282015b828111156117fa57825182546001600160a01b0319166001600160a01b039091161782556020909201916001909101906117c5565b5061180692915061180a565b5090565b5b80821115611806576000815560010161180b565b60006020828403121561183157600080fd5b5035919050565b60005b8381101561185357818101518382015260200161183b565b50506000910152565b60008151808452611874816020860160208601611838565b601f01601f19169290920160200192915050565b60208152600061189b602083018461185c565b9392505050565b80356001600160a01b03811681146118b957600080fd5b919050565b6000602082840312156118d057600080fd5b61189b826118a2565b600080604083850312156118ec57600080fd5b6118f5836118a2565b946020939093013593505050565b602080825282518282018190526000919060409081850190868401855b8281101561194e578151805185528601516001600160a01b0316868501529284019290850190600101611920565b5091979650505050505050565b634e487b7160e01b600052604160045260246000fd5b604051601f8201601f1916810167ffffffffffffffff8111828210171561199a5761199a61195b565b604052919050565b600067ffffffffffffffff8211156119bc576119bc61195b565b5060051b60200190565b6000806000606084860312156119db57600080fd5b6119e4846118a2565b92506020808501359250604085013567ffffffffffffffff811115611a0857600080fd5b8501601f81018713611a1957600080fd5b8035611a2c611a27826119a2565b611971565b81815260059190911b82018301908381019089831115611a4b57600080fd5b928401925b82841015611a7057611a61846118a2565b82529284019290840190611a50565b80955050505050509250925092565b600060208083016020845280855180835260408601915060408160051b87010192506020870160005b82811015611ad657603f19888603018452611ac485835161185c565b94509285019290850190600101611aa8565b5092979650505050505050565b600181811c90821680611af757607f821691505b602082108103611b1757634e487b7160e01b600052602260045260246000fd5b50919050565b60006020808385031215611b3057600080fd5b825167ffffffffffffffff80821115611b4857600080fd5b8185019150601f86601f840112611b5e57600080fd5b8251611b6c611a27826119a2565b81815260059190911b84018501908581019089831115611b8b57600080fd5b8686015b83811015611c1457805186811115611ba75760008081fd5b8701603f81018c13611bb95760008081fd5b88810151604088821115611bcf57611bcf61195b565b611be0828901601f19168c01611971565b8281528e82848601011115611bf55760008081fd5b611c04838d8301848701611838565b8652505050918701918701611b8f565b509998505050505050505050565b602080825260149082015273135bd91d5b19481b9bdd081cdd5c1c1bdc9d195960621b604082015260600190565b634e487b7160e01b600052601160045260246000fd5b600060018201611c7857611c78611c50565b5060010190565b81810381811115611c9257611c92611c50565b92915050565b634e487b7160e01b600052603260045260246000fd5b634e487b7160e01b600052603160045260246000fd5b601f821115611d10576000816000526020600020601f850160051c81016020861015611ced5750805b601f850160051c820191505b81811015611d0c57828155600101611cf9565b5050505b505050565b815167ffffffffffffffff811115611d2f57611d2f61195b565b611d4381611d3d8454611ae3565b84611cc4565b602080601f831160018114611d785760008415611d605750858301515b600019600386901b1c1916600185901b178555611d0c565b600085815260208120601f198616915b82811015611da757888601518255948401946001909101908401611d88565b5085821015611dc55787850151600019600388901b60f8161c191681555b5050505050600190811b01905550565b604081526000611de8604083018561185c565b905060018060a01b0383166020830152939250505056fea2646970667358221220f42abb5bdff7cbf9bdf94f44e9dfb472a52dc2d45ca9c105ae9ec63f9270134c64736f6c63430008180033",
        "nonce": "0x1ab",
        "accessList": []
      },
      "additionalContracts": [],
      "isFixedGasLimit": false
    },
    {
      "hash": "0xa9a6107d2bcda9d44de96dc1007c2c8979b46e587d03f0523b5edd3c3b9b2170",
      "transactionType": "CALL",
      "contractName": null,
      "contractAddress": "0x6E0BE2b9c9026D9080EEbffBdf423d1B451A227E",
      "function": "registerEntity(string,address)",
      "arguments": [
        "\"CatchEntity\"",
        "0x9202ACC5497ec0a3dB92472cE861FDF55F73368f"
      ],
      "transaction": {
        "type": "0x02",
        "from": "0x2273ffed38ed040fbcd3e45cd807594d27ebfae3",
        "to": "0x6e0be2b9c9026d9080eebffbdf423d1b451a227e",
        "gas": "0x123b1",
        "value": "0x0",
        "data": "0xb2533d9d00000000000000000000000000000000000000000000000000000000000000400000000000000000000000009202acc5497ec0a3db92472ce861fdf55f73368f000000000000000000000000000000000000000000000000000000000000000b4361746368456e74697479000000000000000000000000000000000000000000",
        "nonce": "0x1ac",
        "accessList": []
      },
      "additionalContracts": [],
      "isFixedGasLimit": false
    },
    {
      "hash": "0x2bfc51de31ff070f8da8a2182e605148309949e6451cf7f5481f12bbe030fd1d",
      "transactionType": "CALL",
      "contractName": null,
      "contractAddress": "0x97DB50c4416B3Df2d797144f35fAd7bdF79aC567",
      "function": "createGame(address,string)",
      "arguments": [
        "0x2273fFEd38ED040FBcd3e45Cd807594d27ebfAE3",
        "\"Catch\""
      ],
      "transaction": {
        "type": "0x02",
        "from": "0x2273ffed38ed040fbcd3e45cd807594d27ebfae3",
        "to": "0x97db50c4416b3df2d797144f35fad7bdf79ac567",
        "gas": "0x4a05b",
        "value": "0x0",
        "data": "0xec06bb5d0000000000000000000000002273ffed38ed040fbcd3e45cd807594d27ebfae3000000000000000000000000000000000000000000000000000000000000004000000000000000000000000000000000000000000000000000000000000000054361746368000000000000000000000000000000000000000000000000000000",
        "nonce": "0x1ad",
        "accessList": []
      },
      "additionalContracts": [
        {
          "transactionType": "CREATE",
          "address": "0xF260136A018cFEe24aE3Db3d7066bCc204d7D78d",
          "initCode": "0x602c3d8160093d39f33d3d3d3d363d3d37363d7313146526e94cf7ba47b66fb97eab164fa227064e5af43d3d93803e602a57fd5bf3"
        }
      ],
      "isFixedGasLimit": false
    },
    {
      "hash": "0x1c267496d97feca3e1cb129be97021475b7d3286eb3e66314e089ff0e26462c9",
      "transactionType": "CALL",
      "contractName": "MetaMultiSigWallet",
      "contractAddress": "0xF260136A018cFEe24aE3Db3d7066bCc204d7D78d",
      "function": "addModule(address)",
      "arguments": [
        "0x0F6e3ebAD5962690B50D4a0FC804235Db3886A3c"
      ],
      "transaction": {
        "type": "0x02",
        "from": "0x2273ffed38ed040fbcd3e45cd807594d27ebfae3",
        "to": "0xf260136a018cfee24ae3db3d7066bcc204d7d78d",
        "gas": "0x14abea",
        "value": "0x0",
        "data": "0x1ed86f190000000000000000000000000f6e3ebad5962690b50d4a0fc804235db3886a3c",
        "nonce": "0x1ae",
        "accessList": []
      },
      "additionalContracts": [
        {
          "transactionType": "CREATE",
          "address": "0xebD5ECca5AcC24b842c1eD707f15003b96F452D6",
          "initCode": "0x602c3d8160093d39f33d3d3d3d363d3d37363d739202acc5497ec0a3db92472ce861fdf55f73368f5af43d3d93803e602a57fd5bf3"
        },
        {
          "transactionType": "CREATE",
          "address": "0x2015D12B4A41d2B8d40FbbCd64B831A3dF360114",
          "initCode": "0x602c3d8160093d39f33d3d3d3d363d3d37363d734fa212e4743c17e42db9cdb775e4dc029feb1b915af43d3d93803e602a57fd5bf3"
        }
      ],
      "isFixedGasLimit": false
    },
    {
      "hash": "0x2842f61e05f54c95f2efc232a1d40370d6cf6421b467df5bf8d399a45675f8b7",
      "transactionType": "CALL",
      "contractName": "src/modules/MMONeighborInteractionModule.sol:MMONeighborInteractionModule",
      "contractAddress": "0x0F6e3ebAD5962690B50D4a0FC804235Db3886A3c",
      "function": "joinSession(address,address)",
      "arguments": [
        "0xF260136A018cFEe24aE3Db3d7066bCc204d7D78d",
        "0x0000000000000000000000000000000000000001"
      ],
      "transaction": {
        "type": "0x02",
        "from": "0x2273ffed38ed040fbcd3e45cd807594d27ebfae3",
        "to": "0x0f6e3ebad5962690b50d4a0fc804235db3886a3c",
        "gas": "0x37004",
        "value": "0x0",
        "data": "0xce690668000000000000000000000000f260136a018cfee24ae3db3d7066bcc204d7d78d0000000000000000000000000000000000000000000000000000000000000001",
        "nonce": "0x1af",
        "accessList": []
      },
      "additionalContracts": [],
      "isFixedGasLimit": false
    },
    {
      "hash": "0xf60026950a4126a5005471800909551ed8c2e469655749b8550b7e38a80651f5",
      "transactionType": "CALL",
      "contractName": "src/modules/MMONeighborInteractionModule.sol:MMONeighborInteractionModule",
      "contractAddress": "0x0F6e3ebAD5962690B50D4a0FC804235Db3886A3c",
      "function": "joinSession(address,address)",
      "arguments": [
        "0xF260136A018cFEe24aE3Db3d7066bCc204d7D78d",
        "0x0000000000000000000000000000000000000002"
      ],
      "transaction": {
        "type": "0x02",
        "from": "0x2273ffed38ed040fbcd3e45cd807594d27ebfae3",
        "to": "0x0f6e3ebad5962690b50d4a0fc804235db3886a3c",
        "gas": "0x65094",
        "value": "0x0",
        "data": "0xce690668000000000000000000000000f260136a018cfee24ae3db3d7066bcc204d7d78d0000000000000000000000000000000000000000000000000000000000000002",
        "nonce": "0x1b0",
        "accessList": []
      },
      "additionalContracts": [],
      "isFixedGasLimit": false
    },
    {
      "hash": "0x3e7e87095a0987cb30c9b661a02aa5377d7dc73ba8cbf970dda4ea8dca05b4d4",
      "transactionType": "CALL",
      "contractName": "src/modules/MMONeighborInteractionModule.sol:MMONeighborInteractionModule",
      "contractAddress": "0x0F6e3ebAD5962690B50D4a0FC804235Db3886A3c",
      "function": "joinSession(address,address)",
      "arguments": [
        "0xF260136A018cFEe24aE3Db3d7066bCc204d7D78d",
        "0x0000000000000000000000000000000000000003"
      ],
      "transaction": {
        "type": "0x02",
        "from": "0x2273ffed38ed040fbcd3e45cd807594d27ebfae3",
        "to": "0x0f6e3ebad5962690b50d4a0fc804235db3886a3c",
        "gas": "0x2e2dc",
        "value": "0x0",
        "data": "0xce690668000000000000000000000000f260136a018cfee24ae3db3d7066bcc204d7d78d0000000000000000000000000000000000000000000000000000000000000003",
        "nonce": "0x1b1",
        "accessList": []
      },
      "additionalContracts": [],
      "isFixedGasLimit": false
    },
    {
      "hash": "0xca6f57e6d1be1e016c0ad3373201fcaa6e0dc5c9d0c0cc8cd3962ee5cde02911",
      "transactionType": "CALL",
      "contractName": "src/modules/MMONeighborInteractionModule.sol:MMONeighborInteractionModule",
      "contractAddress": "0x0F6e3ebAD5962690B50D4a0FC804235Db3886A3c",
      "function": "joinSession(address,address)",
      "arguments": [
        "0xF260136A018cFEe24aE3Db3d7066bCc204d7D78d",
        "0x0000000000000000000000000000000000000004"
      ],
      "transaction": {
        "type": "0x02",
        "from": "0x2273ffed38ed040fbcd3e45cd807594d27ebfae3",
        "to": "0x0f6e3ebad5962690b50d4a0fc804235db3886a3c",
        "gas": "0x6036c",
        "value": "0x0",
        "data": "0xce690668000000000000000000000000f260136a018cfee24ae3db3d7066bcc204d7d78d0000000000000000000000000000000000000000000000000000000000000004",
        "nonce": "0x1b2",
        "accessList": []
      },
      "additionalContracts": [],
      "isFixedGasLimit": false
    },
    {
      "hash": "0x9785fc4c5b1fc7b104e08dec787a4d95279b29e4982ae0879bcebaf4bb7572a9",
      "transactionType": "CALL",
      "contractName": "src/modules/MMONeighborInteractionModule.sol:MMONeighborInteractionModule",
      "contractAddress": "0x0F6e3ebAD5962690B50D4a0FC804235Db3886A3c",
      "function": "joinSession(address,address)",
      "arguments": [
        "0xF260136A018cFEe24aE3Db3d7066bCc204d7D78d",
        "0x0000000000000000000000000000000000000005"
      ],
      "transaction": {
        "type": "0x02",
        "from": "0x2273ffed38ed040fbcd3e45cd807594d27ebfae3",
        "to": "0x0f6e3ebad5962690b50d4a0fc804235db3886a3c",
        "gas": "0x2e2dc",
        "value": "0x0",
        "data": "0xce690668000000000000000000000000f260136a018cfee24ae3db3d7066bcc204d7d78d0000000000000000000000000000000000000000000000000000000000000005",
        "nonce": "0x1b3",
        "accessList": []
      },
      "additionalContracts": [],
      "isFixedGasLimit": false
    },
    {
      "hash": "0x2b35092f3bc6d3cd638b059d1640f05cb688804670bc31ddb7cdba9715980309",
      "transactionType": "CALL",
      "contractName": "src/modules/MMONeighborInteractionModule.sol:MMONeighborInteractionModule",
      "contractAddress": "0x0F6e3ebAD5962690B50D4a0FC804235Db3886A3c",
      "function": "joinSession(address,address)",
      "arguments": [
        "0xF260136A018cFEe24aE3Db3d7066bCc204d7D78d",
        "0x0000000000000000000000000000000000000006"
      ],
      "transaction": {
        "type": "0x02",
        "from": "0x2273ffed38ed040fbcd3e45cd807594d27ebfae3",
        "to": "0x0f6e3ebad5962690b50d4a0fc804235db3886a3c",
        "gas": "0x6036c",
        "value": "0x0",
        "data": "0xce690668000000000000000000000000f260136a018cfee24ae3db3d7066bcc204d7d78d0000000000000000000000000000000000000000000000000000000000000006",
        "nonce": "0x1b4",
        "accessList": []
      },
      "additionalContracts": [],
      "isFixedGasLimit": false
    },
    {
      "hash": "0x6db40319408274fb68ac8b4872548da2f73ab35cb032b480c159830c8a0645bc",
      "transactionType": "CALL",
      "contractName": "src/modules/MMONeighborInteractionModule.sol:MMONeighborInteractionModule",
      "contractAddress": "0x0F6e3ebAD5962690B50D4a0FC804235Db3886A3c",
      "function": "joinSession(address,address)",
      "arguments": [
        "0xF260136A018cFEe24aE3Db3d7066bCc204d7D78d",
        "0x0000000000000000000000000000000000000007"
      ],
      "transaction": {
        "type": "0x02",
        "from": "0x2273ffed38ed040fbcd3e45cd807594d27ebfae3",
        "to": "0x0f6e3ebad5962690b50d4a0fc804235db3886a3c",
        "gas": "0x2e2dc",
        "value": "0x0",
        "data": "0xce690668000000000000000000000000f260136a018cfee24ae3db3d7066bcc204d7d78d0000000000000000000000000000000000000000000000000000000000000007",
        "nonce": "0x1b5",
        "accessList": []
      },
      "additionalContracts": [],
      "isFixedGasLimit": false
    },
    {
      "hash": "0x4d0e4e233cd84d9383900f9a9878516a8dfae7eca705ba3233b407f77dd17e48",
      "transactionType": "CALL",
      "contractName": "src/modules/MMONeighborInteractionModule.sol:MMONeighborInteractionModule",
      "contractAddress": "0x0F6e3ebAD5962690B50D4a0FC804235Db3886A3c",
      "function": "joinSession(address,address)",
      "arguments": [
        "0xF260136A018cFEe24aE3Db3d7066bCc204d7D78d",
        "0x0000000000000000000000000000000000000008"
      ],
      "transaction": {
        "type": "0x02",
        "from": "0x2273ffed38ed040fbcd3e45cd807594d27ebfae3",
        "to": "0x0f6e3ebad5962690b50d4a0fc804235db3886a3c",
        "gas": "0x6036c",
        "value": "0x0",
        "data": "0xce690668000000000000000000000000f260136a018cfee24ae3db3d7066bcc204d7d78d0000000000000000000000000000000000000000000000000000000000000008",
        "nonce": "0x1b6",
        "accessList": []
      },
      "additionalContracts": [],
      "isFixedGasLimit": false
    },
    {
      "hash": "0x1ac2cd7ba32e5b30a97aed046cb8b2caaba2ab55d1c538d7b5a81fe3e5984579",
      "transactionType": "CALL",
      "contractName": "src/modules/MMONeighborInteractionModule.sol:MMONeighborInteractionModule",
      "contractAddress": "0x0F6e3ebAD5962690B50D4a0FC804235Db3886A3c",
      "function": "joinSession(address,address)",
      "arguments": [
        "0xF260136A018cFEe24aE3Db3d7066bCc204d7D78d",
        "0x0000000000000000000000000000000000000009"
      ],
      "transaction": {
        "type": "0x02",
        "from": "0x2273ffed38ed040fbcd3e45cd807594d27ebfae3",
        "to": "0x0f6e3ebad5962690b50d4a0fc804235db3886a3c",
        "gas": "0x2e2dc",
        "value": "0x0",
        "data": "0xce690668000000000000000000000000f260136a018cfee24ae3db3d7066bcc204d7d78d0000000000000000000000000000000000000000000000000000000000000009",
        "nonce": "0x1b7",
        "accessList": []
      },
      "additionalContracts": [],
      "isFixedGasLimit": false
    },
    {
      "hash": "0x241d77e664e6fc1cb5b20e4fc4629834afd843e955c0fa6886ae7e14935a021c",
      "transactionType": "CALL",
      "contractName": "src/modules/MMONeighborInteractionModule.sol:MMONeighborInteractionModule",
      "contractAddress": "0x0F6e3ebAD5962690B50D4a0FC804235Db3886A3c",
      "function": "joinSession(address,address)",
      "arguments": [
        "0xF260136A018cFEe24aE3Db3d7066bCc204d7D78d",
        "0x000000000000000000000000000000000000000A"
      ],
      "transaction": {
        "type": "0x02",
        "from": "0x2273ffed38ed040fbcd3e45cd807594d27ebfae3",
        "to": "0x0f6e3ebad5962690b50d4a0fc804235db3886a3c",
        "gas": "0x6036c",
        "value": "0x0",
        "data": "0xce690668000000000000000000000000f260136a018cfee24ae3db3d7066bcc204d7d78d000000000000000000000000000000000000000000000000000000000000000a",
        "nonce": "0x1b8",
        "accessList": []
      },
      "additionalContracts": [],
      "isFixedGasLimit": false
    },
    {
      "hash": "0x36cafa5a7fdd95538c7718f659efcedab491c728e455bea9a0c3ac5f69e4d122",
      "transactionType": "CALL",
      "contractName": "src/modules/MMONeighborInteractionModule.sol:MMONeighborInteractionModule",
      "contractAddress": "0x0F6e3ebAD5962690B50D4a0FC804235Db3886A3c",
      "function": "joinSession(address,address)",
      "arguments": [
        "0xF260136A018cFEe24aE3Db3d7066bCc204d7D78d",
        "0x000000000000000000000000000000000000000b"
      ],
      "transaction": {
        "type": "0x02",
        "from": "0x2273ffed38ed040fbcd3e45cd807594d27ebfae3",
        "to": "0x0f6e3ebad5962690b50d4a0fc804235db3886a3c",
        "gas": "0x2e2dc",
        "value": "0x0",
        "data": "0xce690668000000000000000000000000f260136a018cfee24ae3db3d7066bcc204d7d78d000000000000000000000000000000000000000000000000000000000000000b",
        "nonce": "0x1b9",
        "accessList": []
      },
      "additionalContracts": [],
      "isFixedGasLimit": false
    },
    {
      "hash": "0x5de55a58b56aa7815a0e0d16b7988fa82c7d86e7913280da3ea5349def8f30d0",
      "transactionType": "CALL",
      "contractName": "src/modules/MMONeighborInteractionModule.sol:MMONeighborInteractionModule",
      "contractAddress": "0x0F6e3ebAD5962690B50D4a0FC804235Db3886A3c",
      "function": "joinSession(address,address)",
      "arguments": [
        "0xF260136A018cFEe24aE3Db3d7066bCc204d7D78d",
        "0x000000000000000000000000000000000000000C"
      ],
      "transaction": {
        "type": "0x02",
        "from": "0x2273ffed38ed040fbcd3e45cd807594d27ebfae3",
        "to": "0x0f6e3ebad5962690b50d4a0fc804235db3886a3c",
        "gas": "0x6036c",
        "value": "0x0",
        "data": "0xce690668000000000000000000000000f260136a018cfee24ae3db3d7066bcc204d7d78d000000000000000000000000000000000000000000000000000000000000000c",
        "nonce": "0x1ba",
        "accessList": []
      },
      "additionalContracts": [],
      "isFixedGasLimit": false
    },
    {
      "hash": "0xa6439cb83da6d833ba37eae5b628c69f45cc5b993582d68391c5268aee0e7cc6",
      "transactionType": "CALL",
      "contractName": "src/modules/MMONeighborInteractionModule.sol:MMONeighborInteractionModule",
      "contractAddress": "0x0F6e3ebAD5962690B50D4a0FC804235Db3886A3c",
      "function": "joinSession(address,address)",
      "arguments": [
        "0xF260136A018cFEe24aE3Db3d7066bCc204d7D78d",
        "0x000000000000000000000000000000000000000d"
      ],
      "transaction": {
        "type": "0x02",
        "from": "0x2273ffed38ed040fbcd3e45cd807594d27ebfae3",
        "to": "0x0f6e3ebad5962690b50d4a0fc804235db3886a3c",
        "gas": "0x2e2dc",
        "value": "0x0",
        "data": "0xce690668000000000000000000000000f260136a018cfee24ae3db3d7066bcc204d7d78d000000000000000000000000000000000000000000000000000000000000000d",
        "nonce": "0x1bb",
        "accessList": []
      },
      "additionalContracts": [],
      "isFixedGasLimit": false
    },
    {
      "hash": "0xa69017e7766d005879477562b09c850a2b9305f2bfefd46f600362ecbe44ea83",
      "transactionType": "CALL",
      "contractName": "src/modules/MMONeighborInteractionModule.sol:MMONeighborInteractionModule",
      "contractAddress": "0x0F6e3ebAD5962690B50D4a0FC804235Db3886A3c",
      "function": "joinSession(address,address)",
      "arguments": [
        "0xF260136A018cFEe24aE3Db3d7066bCc204d7D78d",
        "0x000000000000000000000000000000000000000E"
      ],
      "transaction": {
        "type": "0x02",
        "from": "0x2273ffed38ed040fbcd3e45cd807594d27ebfae3",
        "to": "0x0f6e3ebad5962690b50d4a0fc804235db3886a3c",
        "gas": "0x6036c",
        "value": "0x0",
        "data": "0xce690668000000000000000000000000f260136a018cfee24ae3db3d7066bcc204d7d78d000000000000000000000000000000000000000000000000000000000000000e",
        "nonce": "0x1bc",
        "accessList": []
      },
      "additionalContracts": [],
      "isFixedGasLimit": false
    },
    {
      "hash": "0x0a4f1627e8f3636d35ad92989806f5654d1be72efd6b609d8995b76215e560a5",
      "transactionType": "CALL",
      "contractName": "src/modules/MMONeighborInteractionModule.sol:MMONeighborInteractionModule",
      "contractAddress": "0x0F6e3ebAD5962690B50D4a0FC804235Db3886A3c",
      "function": "joinSession(address,address)",
      "arguments": [
        "0xF260136A018cFEe24aE3Db3d7066bCc204d7D78d",
        "0x000000000000000000000000000000000000000F"
      ],
      "transaction": {
        "type": "0x02",
        "from": "0x2273ffed38ed040fbcd3e45cd807594d27ebfae3",
        "to": "0x0f6e3ebad5962690b50d4a0fc804235db3886a3c",
        "gas": "0x2e2dc",
        "value": "0x0",
        "data": "0xce690668000000000000000000000000f260136a018cfee24ae3db3d7066bcc204d7d78d000000000000000000000000000000000000000000000000000000000000000f",
        "nonce": "0x1bd",
        "accessList": []
      },
      "additionalContracts": [],
      "isFixedGasLimit": false
    },
    {
      "hash": "0x117d90c26b4f779b5e0e1de2a87ecadf55b7594ae1c928c088e255580b248992",
      "transactionType": "CALL",
      "contractName": "src/modules/MMONeighborInteractionModule.sol:MMONeighborInteractionModule",
      "contractAddress": "0x0F6e3ebAD5962690B50D4a0FC804235Db3886A3c",
      "function": "joinSession(address,address)",
      "arguments": [
        "0xF260136A018cFEe24aE3Db3d7066bCc204d7D78d",
        "0x0000000000000000000000000000000000000010"
      ],
      "transaction": {
        "type": "0x02",
        "from": "0x2273ffed38ed040fbcd3e45cd807594d27ebfae3",
        "to": "0x0f6e3ebad5962690b50d4a0fc804235db3886a3c",
        "gas": "0x6036c",
        "value": "0x0",
        "data": "0xce690668000000000000000000000000f260136a018cfee24ae3db3d7066bcc204d7d78d0000000000000000000000000000000000000000000000000000000000000010",
        "nonce": "0x1be",
        "accessList": []
      },
      "additionalContracts": [],
      "isFixedGasLimit": false
    },
    {
      "hash": "0xcc838a4d1377604c47c3d66c39b07b850c5917f9fea6daa877af307e8f07960b",
      "transactionType": "CALL",
      "contractName": "src/modules/MMONeighborInteractionModule.sol:MMONeighborInteractionModule",
      "contractAddress": "0x0F6e3ebAD5962690B50D4a0FC804235Db3886A3c",
      "function": "joinSession(address,address)",
      "arguments": [
        "0xF260136A018cFEe24aE3Db3d7066bCc204d7D78d",
        "0x0000000000000000000000000000000000000011"
      ],
      "transaction": {
        "type": "0x02",
        "from": "0x2273ffed38ed040fbcd3e45cd807594d27ebfae3",
        "to": "0x0f6e3ebad5962690b50d4a0fc804235db3886a3c",
        "gas": "0x2e2dc",
        "value": "0x0",
        "data": "0xce690668000000000000000000000000f260136a018cfee24ae3db3d7066bcc204d7d78d0000000000000000000000000000000000000000000000000000000000000011",
        "nonce": "0x1bf",
        "accessList": []
      },
      "additionalContracts": [],
      "isFixedGasLimit": false
    }
  ],
  "receipts": [
    {
      "transactionHash": "0x02d0994c9c431c4ba7e153d5dfafe0c0433a643e0ad5b8e88af51c1fc14628ba",
      "transactionIndex": "0x8",
      "blockHash": "0x1fd590d1652c48e59d6cac629b63674fd2a537b060fbdbc1831bed306d1816f7",
      "blockNumber": "0x575fcc",
      "from": "0x2273fFEd38ED040FBcd3e45Cd807594d27ebfAE3",
      "to": null,
      "cumulativeGasUsed": "0x9ede3",
      "gasUsed": "0x67d96",
      "contractAddress": "0xD1a656993AD2984Ebdc27B0282dF1B8d55B1B57f",
      "logs": [],
      "status": "0x1",
      "logsBloom": "0x00000000000000000000000000000000000000000000000000000000000000000000000000000000000000000000000000000000000000000000000000000000000000000000000000000000000000000000000000000000000000000000000000000000000000000000000000000000000000000000000000000000000000000000000000000000000000000000000000000000000000000000000000000000000000000000000000000000000000000000000000000000000000000000000000000000000000000000000000000000000000000000000000000000000000000000000000000000000000000000000000000000000000000000000000000000",
      "type": "0x2",
      "effectiveGasPrice": "0xc7b1ca86"
    },
    {
      "transactionHash": "0x1334cd97241366e4345444a29f099540625be98135a1ac7b93a92abf5458a644",
      "transactionIndex": "0x9",
      "blockHash": "0x1fd590d1652c48e59d6cac629b63674fd2a537b060fbdbc1831bed306d1816f7",
      "blockNumber": "0x575fcc",
      "from": "0x2273fFEd38ED040FBcd3e45Cd807594d27ebfAE3",
      "to": "0x1D9136eb63fFAD2EF8a8b908853814ACa7a0F810",
      "cumulativeGasUsed": "0xab11f",
      "gasUsed": "0xc33c",
      "contractAddress": null,
      "logs": [
        {
          "address": "0x1D9136eb63fFAD2EF8a8b908853814ACa7a0F810",
          "topics": [
            "0x0961fbae397458c42f3f186eaabee4a989aafde93ac5d8d122cff462423a241e"
          ],
          "data": "0x000000000000000000000000d1a656993ad2984ebdc27b0282df1b8d55b1b57f",
          "blockHash": "0x1fd590d1652c48e59d6cac629b63674fd2a537b060fbdbc1831bed306d1816f7",
          "blockNumber": "0x575fcc",
          "transactionHash": "0x1334cd97241366e4345444a29f099540625be98135a1ac7b93a92abf5458a644",
          "transactionIndex": "0x9",
          "logIndex": "0x3",
          "removed": false
        }
      ],
      "status": "0x1",
      "logsBloom": "0x00000000000000000001000000000000000000000000000000000000000000000000000000000000000010000000000000000000004000800000000000000000000000000004000000000000000000008000000000000000000000000000000000000000000000000000000000000000000000000000000000000000000000000000000000000000000000000000000000000000000000000000000000000000000000000000000000000000000000000000000000000000000000000000000000000000000000000000000000000000000000000000000000000000000000000000000000000000000000000000000000000000000000000000000000000000",
      "type": "0x2",
      "effectiveGasPrice": "0xc7b1ca86"
    },
    {
      "transactionHash": "0x3b7ccdc93ae8f2a4c6cf7f409af3268790fdc82d4dbd7bdca69f8c94173b1b26",
      "transactionIndex": "0xa",
      "blockHash": "0x1fd590d1652c48e59d6cac629b63674fd2a537b060fbdbc1831bed306d1816f7",
      "blockNumber": "0x575fcc",
      "from": "0x2273fFEd38ED040FBcd3e45Cd807594d27ebfAE3",
      "to": null,
      "cumulativeGasUsed": "0x18090f",
      "gasUsed": "0xd57f0",
      "contractAddress": "0x4FA212E4743c17e42db9cdB775e4DC029Feb1B91",
      "logs": [],
      "status": "0x1",
      "logsBloom": "0x00000000000000000000000000000000000000000000000000000000000000000000000000000000000000000000000000000000000000000000000000000000000000000000000000000000000000000000000000000000000000000000000000000000000000000000000000000000000000000000000000000000000000000000000000000000000000000000000000000000000000000000000000000000000000000000000000000000000000000000000000000000000000000000000000000000000000000000000000000000000000000000000000000000000000000000000000000000000000000000000000000000000000000000000000000000",
      "type": "0x2",
      "effectiveGasPrice": "0xc7b1ca86"
    },
    {
      "transactionHash": "0x7c193edc1bc57879f6930273471e0c4bc9b2cfc9021828122da0ed2bde4b0c37",
      "transactionIndex": "0xb",
      "blockHash": "0x1fd590d1652c48e59d6cac629b63674fd2a537b060fbdbc1831bed306d1816f7",
      "blockNumber": "0x575fcc",
      "from": "0x2273fFEd38ED040FBcd3e45Cd807594d27ebfAE3",
      "to": "0x6E0BE2b9c9026D9080EEbffBdf423d1B451A227E",
      "cumulativeGasUsed": "0x18d0a8",
      "gasUsed": "0xc799",
      "contractAddress": null,
      "logs": [],
      "status": "0x1",
      "logsBloom": "0x00000000000000000000000000000000000000000000000000000000000000000000000000000000000000000000000000000000000000000000000000000000000000000000000000000000000000000000000000000000000000000000000000000000000000000000000000000000000000000000000000000000000000000000000000000000000000000000000000000000000000000000000000000000000000000000000000000000000000000000000000000000000000000000000000000000000000000000000000000000000000000000000000000000000000000000000000000000000000000000000000000000000000000000000000000000",
      "type": "0x2",
      "effectiveGasPrice": "0xc7b1ca86"
    },
    {
      "transactionHash": "0x8258e66c4e7e7516c55b0df71c51d3f607335c5f9b01a5a91309ef3557b247d4",
      "transactionIndex": "0xc",
      "blockHash": "0x1fd590d1652c48e59d6cac629b63674fd2a537b060fbdbc1831bed306d1816f7",
      "blockNumber": "0x575fcc",
      "from": "0x2273fFEd38ED040FBcd3e45Cd807594d27ebfAE3",
      "to": null,
      "cumulativeGasUsed": "0x316e88",
      "gasUsed": "0x189de0",
      "contractAddress": "0x0F6e3ebAD5962690B50D4a0FC804235Db3886A3c",
      "logs": [],
      "status": "0x1",
      "logsBloom": "0x00000000000000000000000000000000000000000000000000000000000000000000000000000000000000000000000000000000000000000000000000000000000000000000000000000000000000000000000000000000000000000000000000000000000000000000000000000000000000000000000000000000000000000000000000000000000000000000000000000000000000000000000000000000000000000000000000000000000000000000000000000000000000000000000000000000000000000000000000000000000000000000000000000000000000000000000000000000000000000000000000000000000000000000000000000000",
      "type": "0x2",
      "effectiveGasPrice": "0xc7b1ca86"
    },
    {
      "transactionHash": "0xba11b0c1a256620a80870546ce5b6b821ca770b66e897f0c50230d076989602c",
      "transactionIndex": "0xd",
      "blockHash": "0x1fd590d1652c48e59d6cac629b63674fd2a537b060fbdbc1831bed306d1816f7",
      "blockNumber": "0x575fcc",
      "from": "0x2273fFEd38ED040FBcd3e45Cd807594d27ebfAE3",
      "to": "0x1D9136eb63fFAD2EF8a8b908853814ACa7a0F810",
      "cumulativeGasUsed": "0x3231c4",
      "gasUsed": "0xc33c",
      "contractAddress": null,
      "logs": [
        {
          "address": "0x1D9136eb63fFAD2EF8a8b908853814ACa7a0F810",
          "topics": [
            "0x0961fbae397458c42f3f186eaabee4a989aafde93ac5d8d122cff462423a241e"
          ],
          "data": "0x0000000000000000000000000f6e3ebad5962690b50d4a0fc804235db3886a3c",
          "blockHash": "0x1fd590d1652c48e59d6cac629b63674fd2a537b060fbdbc1831bed306d1816f7",
          "blockNumber": "0x575fcc",
          "transactionHash": "0xba11b0c1a256620a80870546ce5b6b821ca770b66e897f0c50230d076989602c",
          "transactionIndex": "0xd",
          "logIndex": "0x4",
          "removed": false
        }
      ],
      "status": "0x1",
      "logsBloom": "0x00000000000000000001000000000000000000000000000000000000000000000000000000000000000010000000000000000000004000800000000000000000000000000004000000000000000000008000000000000000000000000000000000000000000000000000000000000000000000000000000000000000000000000000000000000000000000000000000000000000000000000000000000000000000000000000000000000000000000000000000000000000000000000000000000000000000000000000000000000000000000000000000000000000000000000000000000000000000000000000000000000000000000000000000000000000",
      "type": "0x2",
      "effectiveGasPrice": "0xc7b1ca86"
    },
    {
      "transactionHash": "0x91e9550affc889722db6207c2236c40c3d61145623cc82a7c125273b2ada7fb0",
      "transactionIndex": "0xe",
      "blockHash": "0x1fd590d1652c48e59d6cac629b63674fd2a537b060fbdbc1831bed306d1816f7",
      "blockNumber": "0x575fcc",
      "from": "0x2273fFEd38ED040FBcd3e45Cd807594d27ebfAE3",
      "to": null,
      "cumulativeGasUsed": "0x3796f4",
      "gasUsed": "0x56530",
      "contractAddress": "0xCa97CeFcB800f2eacB3a959D15ab951184A975Ed",
      "logs": [],
      "status": "0x1",
      "logsBloom": "0x00000000000000000000000000000000000000000000000000000000000000000000000000000000000000000000000000000000000000000000000000000000000000000000000000000000000000000000000000000000000000000000000000000000000000000000000000000000000000000000000000000000000000000000000000000000000000000000000000000000000000000000000000000000000000000000000000000000000000000000000000000000000000000000000000000000000000000000000000000000000000000000000000000000000000000000000000000000000000000000000000000000000000000000000000000000",
      "type": "0x2",
      "effectiveGasPrice": "0xc7b1ca86"
    },
    {
      "transactionHash": "0x16c9f117565904d6057030dd4401348014336e88eaafb1281133bf002934f774",
      "transactionIndex": "0xf",
      "blockHash": "0x1fd590d1652c48e59d6cac629b63674fd2a537b060fbdbc1831bed306d1816f7",
      "blockNumber": "0x575fcc",
      "from": "0x2273fFEd38ED040FBcd3e45Cd807594d27ebfAE3",
      "to": "0x6E0BE2b9c9026D9080EEbffBdf423d1B451A227E",
      "cumulativeGasUsed": "0x385efb",
      "gasUsed": "0xc807",
      "contractAddress": null,
      "logs": [],
      "status": "0x1",
      "logsBloom": "0x00000000000000000000000000000000000000000000000000000000000000000000000000000000000000000000000000000000000000000000000000000000000000000000000000000000000000000000000000000000000000000000000000000000000000000000000000000000000000000000000000000000000000000000000000000000000000000000000000000000000000000000000000000000000000000000000000000000000000000000000000000000000000000000000000000000000000000000000000000000000000000000000000000000000000000000000000000000000000000000000000000000000000000000000000000000",
      "type": "0x2",
      "effectiveGasPrice": "0xc7b1ca86"
    },
    {
      "transactionHash": "0x0e4f2867bbc501220df2066f79e9af40656e44ef7aafc60b730f6ec5787ec93e",
      "transactionIndex": "0x10",
      "blockHash": "0x1fd590d1652c48e59d6cac629b63674fd2a537b060fbdbc1831bed306d1816f7",
      "blockNumber": "0x575fcc",
      "from": "0x2273fFEd38ED040FBcd3e45Cd807594d27ebfAE3",
      "to": null,
      "cumulativeGasUsed": "0x52aa5a",
      "gasUsed": "0x1a4b5f",
      "contractAddress": "0x9202ACC5497ec0a3dB92472cE861FDF55F73368f",
      "logs": [],
      "status": "0x1",
      "logsBloom": "0x00000000000000000000000000000000000000000000000000000000000000000000000000000000000000000000000000000000000000000000000000000000000000000000000000000000000000000000000000000000000000000000000000000000000000000000000000000000000000000000000000000000000000000000000000000000000000000000000000000000000000000000000000000000000000000000000000000000000000000000000000000000000000000000000000000000000000000000000000000000000000000000000000000000000000000000000000000000000000000000000000000000000000000000000000000000",
      "type": "0x2",
      "effectiveGasPrice": "0xc7b1ca86"
    },
    {
      "transactionHash": "0xa9a6107d2bcda9d44de96dc1007c2c8979b46e587d03f0523b5edd3c3b9b2170",
      "transactionIndex": "0x11",
      "blockHash": "0x1fd590d1652c48e59d6cac629b63674fd2a537b060fbdbc1831bed306d1816f7",
      "blockNumber": "0x575fcc",
      "from": "0x2273fFEd38ED040FBcd3e45Cd807594d27ebfAE3",
      "to": "0x6E0BE2b9c9026D9080EEbffBdf423d1B451A227E",
      "cumulativeGasUsed": "0x5371cd",
      "gasUsed": "0xc773",
      "contractAddress": null,
      "logs": [],
      "status": "0x1",
      "logsBloom": "0x00000000000000000000000000000000000000000000000000000000000000000000000000000000000000000000000000000000000000000000000000000000000000000000000000000000000000000000000000000000000000000000000000000000000000000000000000000000000000000000000000000000000000000000000000000000000000000000000000000000000000000000000000000000000000000000000000000000000000000000000000000000000000000000000000000000000000000000000000000000000000000000000000000000000000000000000000000000000000000000000000000000000000000000000000000000",
      "type": "0x2",
      "effectiveGasPrice": "0xc7b1ca86"
    },
    {
      "transactionHash": "0x2bfc51de31ff070f8da8a2182e605148309949e6451cf7f5481f12bbe030fd1d",
      "transactionIndex": "0x12",
      "blockHash": "0x1fd590d1652c48e59d6cac629b63674fd2a537b060fbdbc1831bed306d1816f7",
      "blockNumber": "0x575fcc",
      "from": "0x2273fFEd38ED040FBcd3e45Cd807594d27ebfAE3",
      "to": "0x97DB50c4416B3Df2d797144f35fAd7bdF79aC567",
      "cumulativeGasUsed": "0x569ba2",
      "gasUsed": "0x329d5",
      "contractAddress": null,
      "logs": [
        {
          "address": "0xF260136A018cFEe24aE3Db3d7066bCc204d7D78d",
          "topics": [
            "0xc7f505b2f371ae2175ee4913f4499e1f2633a7b5936321eed1cdaeb6115181d2"
          ],
          "data": "0x0000000000000000000000000000000000000000000000000000000000000001",
          "blockHash": "0x1fd590d1652c48e59d6cac629b63674fd2a537b060fbdbc1831bed306d1816f7",
          "blockNumber": "0x575fcc",
          "transactionHash": "0x2bfc51de31ff070f8da8a2182e605148309949e6451cf7f5481f12bbe030fd1d",
          "transactionIndex": "0x12",
          "logIndex": "0x5",
          "removed": false
        },
        {
          "address": "0x97DB50c4416B3Df2d797144f35fAd7bdF79aC567",
          "topics": [
            "0xb60d84e37a6658effce28870b1d123cb86f86409df5888679310c0f276e1f5d2"
          ],
          "data": "0x0000000000000000000000002273ffed38ed040fbcd3e45cd807594d27ebfae3000000000000000000000000f260136a018cfee24ae3db3d7066bcc204d7d78d",
          "blockHash": "0x1fd590d1652c48e59d6cac629b63674fd2a537b060fbdbc1831bed306d1816f7",
          "blockNumber": "0x575fcc",
          "transactionHash": "0x2bfc51de31ff070f8da8a2182e605148309949e6451cf7f5481f12bbe030fd1d",
          "transactionIndex": "0x12",
          "logIndex": "0x6",
          "removed": false
        }
      ],
      "status": "0x1",
      "logsBloom": "0x00000000000000000000000000000000000000000000000000000800000000000200000000000000000000000000000000000000000000000000000000000000000000000000000000000000000000000000000000000000040000000000000000000000000000000000000000000008400000000000402000000000000000000000000000000000000800000000000000000000000080000000000000000000000000000000000000000000000000000000000000000000000000000000000000000000000000000000000000000000000000000004001000000000000000000000000000000000000000000000000200000000000000000000000000000000",
      "type": "0x2",
      "effectiveGasPrice": "0xc7b1ca86"
    },
    {
      "transactionHash": "0x1c267496d97feca3e1cb129be97021475b7d3286eb3e66314e089ff0e26462c9",
      "transactionIndex": "0x13",
      "blockHash": "0x1fd590d1652c48e59d6cac629b63674fd2a537b060fbdbc1831bed306d1816f7",
      "blockNumber": "0x575fcc",
      "from": "0x2273fFEd38ED040FBcd3e45Cd807594d27ebfAE3",
      "to": "0xF260136A018cFEe24aE3Db3d7066bCc204d7D78d",
      "cumulativeGasUsed": "0x6592ea",
      "gasUsed": "0xef748",
      "contractAddress": null,
      "logs": [],
      "status": "0x1",
      "logsBloom": "0x00000000000000000000000000000000000000000000000000000000000000000000000000000000000000000000000000000000000000000000000000000000000000000000000000000000000000000000000000000000000000000000000000000000000000000000000000000000000000000000000000000000000000000000000000000000000000000000000000000000000000000000000000000000000000000000000000000000000000000000000000000000000000000000000000000000000000000000000000000000000000000000000000000000000000000000000000000000000000000000000000000000000000000000000000000000",
      "type": "0x2",
      "effectiveGasPrice": "0xc7b1ca86"
    },
    {
      "transactionHash": "0x2842f61e05f54c95f2efc232a1d40370d6cf6421b467df5bf8d399a45675f8b7",
      "transactionIndex": "0x14",
      "blockHash": "0x1fd590d1652c48e59d6cac629b63674fd2a537b060fbdbc1831bed306d1816f7",
      "blockNumber": "0x575fcc",
      "from": "0x2273fFEd38ED040FBcd3e45Cd807594d27ebfAE3",
      "to": "0x0F6e3ebAD5962690B50D4a0FC804235Db3886A3c",
      "cumulativeGasUsed": "0x67eca3",
      "gasUsed": "0x259b9",
      "contractAddress": null,
      "logs": [],
      "status": "0x1",
      "logsBloom": "0x00000000000000000000000000000000000000000000000000000000000000000000000000000000000000000000000000000000000000000000000000000000000000000000000000000000000000000000000000000000000000000000000000000000000000000000000000000000000000000000000000000000000000000000000000000000000000000000000000000000000000000000000000000000000000000000000000000000000000000000000000000000000000000000000000000000000000000000000000000000000000000000000000000000000000000000000000000000000000000000000000000000000000000000000000000000",
      "type": "0x2",
      "effectiveGasPrice": "0xc7b1ca86"
    },
    {
      "transactionHash": "0xf60026950a4126a5005471800909551ed8c2e469655749b8550b7e38a80651f5",
      "transactionIndex": "0x15",
      "blockHash": "0x1fd590d1652c48e59d6cac629b63674fd2a537b060fbdbc1831bed306d1816f7",
      "blockNumber": "0x575fcc",
      "from": "0x2273fFEd38ED040FBcd3e45Cd807594d27ebfAE3",
      "to": "0x0F6e3ebAD5962690B50D4a0FC804235Db3886A3c",
      "cumulativeGasUsed": "0x6c7f03",
      "gasUsed": "0x49260",
      "contractAddress": null,
      "logs": [],
      "status": "0x1",
      "logsBloom": "0x00000000000000000000000000000000000000000000000000000000000000000000000000000000000000000000000000000000000000000000000000000000000000000000000000000000000000000000000000000000000000000000000000000000000000000000000000000000000000000000000000000000000000000000000000000000000000000000000000000000000000000000000000000000000000000000000000000000000000000000000000000000000000000000000000000000000000000000000000000000000000000000000000000000000000000000000000000000000000000000000000000000000000000000000000000000",
      "type": "0x2",
      "effectiveGasPrice": "0xc7b1ca86"
    },
    {
      "transactionHash": "0x3e7e87095a0987cb30c9b661a02aa5377d7dc73ba8cbf970dda4ea8dca05b4d4",
      "transactionIndex": "0x16",
      "blockHash": "0x1fd590d1652c48e59d6cac629b63674fd2a537b060fbdbc1831bed306d1816f7",
      "blockNumber": "0x575fcc",
      "from": "0x2273fFEd38ED040FBcd3e45Cd807594d27ebfAE3",
      "to": "0x0F6e3ebAD5962690B50D4a0FC804235Db3886A3c",
      "cumulativeGasUsed": "0x6e95f0",
      "gasUsed": "0x216ed",
      "contractAddress": null,
      "logs": [],
      "status": "0x1",
      "logsBloom": "0x00000000000000000000000000000000000000000000000000000000000000000000000000000000000000000000000000000000000000000000000000000000000000000000000000000000000000000000000000000000000000000000000000000000000000000000000000000000000000000000000000000000000000000000000000000000000000000000000000000000000000000000000000000000000000000000000000000000000000000000000000000000000000000000000000000000000000000000000000000000000000000000000000000000000000000000000000000000000000000000000000000000000000000000000000000000",
      "type": "0x2",
      "effectiveGasPrice": "0xc7b1ca86"
    },
    {
      "transactionHash": "0xca6f57e6d1be1e016c0ad3373201fcaa6e0dc5c9d0c0cc8cd3962ee5cde02911",
      "transactionIndex": "0x18",
      "blockHash": "0x1fd590d1652c48e59d6cac629b63674fd2a537b060fbdbc1831bed306d1816f7",
      "blockNumber": "0x575fcc",
      "from": "0x2273fFEd38ED040FBcd3e45Cd807594d27ebfAE3",
      "to": "0x0F6e3ebAD5962690B50D4a0FC804235Db3886A3c",
      "cumulativeGasUsed": "0x747596",
      "gasUsed": "0x45a84",
      "contractAddress": null,
      "logs": [],
      "status": "0x1",
      "logsBloom": "0x00000000000000000000000000000000000000000000000000000000000000000000000000000000000000000000000000000000000000000000000000000000000000000000000000000000000000000000000000000000000000000000000000000000000000000000000000000000000000000000000000000000000000000000000000000000000000000000000000000000000000000000000000000000000000000000000000000000000000000000000000000000000000000000000000000000000000000000000000000000000000000000000000000000000000000000000000000000000000000000000000000000000000000000000000000000",
      "type": "0x2",
      "effectiveGasPrice": "0xc7b1ca86"
    },
    {
      "transactionHash": "0x9785fc4c5b1fc7b104e08dec787a4d95279b29e4982ae0879bcebaf4bb7572a9",
      "transactionIndex": "0x19",
      "blockHash": "0x1fd590d1652c48e59d6cac629b63674fd2a537b060fbdbc1831bed306d1816f7",
      "blockNumber": "0x575fcc",
      "from": "0x2273fFEd38ED040FBcd3e45Cd807594d27ebfAE3",
      "to": "0x0F6e3ebAD5962690B50D4a0FC804235Db3886A3c",
      "cumulativeGasUsed": "0x768c83",
      "gasUsed": "0x216ed",
      "contractAddress": null,
      "logs": [],
      "status": "0x1",
      "logsBloom": "0x00000000000000000000000000000000000000000000000000000000000000000000000000000000000000000000000000000000000000000000000000000000000000000000000000000000000000000000000000000000000000000000000000000000000000000000000000000000000000000000000000000000000000000000000000000000000000000000000000000000000000000000000000000000000000000000000000000000000000000000000000000000000000000000000000000000000000000000000000000000000000000000000000000000000000000000000000000000000000000000000000000000000000000000000000000000",
      "type": "0x2",
      "effectiveGasPrice": "0xc7b1ca86"
    },
    {
      "transactionHash": "0x2b35092f3bc6d3cd638b059d1640f05cb688804670bc31ddb7cdba9715980309",
      "transactionIndex": "0x1a",
      "blockHash": "0x1fd590d1652c48e59d6cac629b63674fd2a537b060fbdbc1831bed306d1816f7",
      "blockNumber": "0x575fcc",
      "from": "0x2273fFEd38ED040FBcd3e45Cd807594d27ebfAE3",
      "to": "0x0F6e3ebAD5962690B50D4a0FC804235Db3886A3c",
      "cumulativeGasUsed": "0x7ae707",
      "gasUsed": "0x45a84",
      "contractAddress": null,
      "logs": [],
      "status": "0x1",
      "logsBloom": "0x00000000000000000000000000000000000000000000000000000000000000000000000000000000000000000000000000000000000000000000000000000000000000000000000000000000000000000000000000000000000000000000000000000000000000000000000000000000000000000000000000000000000000000000000000000000000000000000000000000000000000000000000000000000000000000000000000000000000000000000000000000000000000000000000000000000000000000000000000000000000000000000000000000000000000000000000000000000000000000000000000000000000000000000000000000000",
      "type": "0x2",
      "effectiveGasPrice": "0xc7b1ca86"
    },
    {
      "transactionHash": "0x6db40319408274fb68ac8b4872548da2f73ab35cb032b480c159830c8a0645bc",
      "transactionIndex": "0x1b",
      "blockHash": "0x1fd590d1652c48e59d6cac629b63674fd2a537b060fbdbc1831bed306d1816f7",
      "blockNumber": "0x575fcc",
      "from": "0x2273fFEd38ED040FBcd3e45Cd807594d27ebfAE3",
      "to": "0x0F6e3ebAD5962690B50D4a0FC804235Db3886A3c",
      "cumulativeGasUsed": "0x7cfdf4",
      "gasUsed": "0x216ed",
      "contractAddress": null,
      "logs": [],
      "status": "0x1",
      "logsBloom": "0x00000000000000000000000000000000000000000000000000000000000000000000000000000000000000000000000000000000000000000000000000000000000000000000000000000000000000000000000000000000000000000000000000000000000000000000000000000000000000000000000000000000000000000000000000000000000000000000000000000000000000000000000000000000000000000000000000000000000000000000000000000000000000000000000000000000000000000000000000000000000000000000000000000000000000000000000000000000000000000000000000000000000000000000000000000000",
      "type": "0x2",
      "effectiveGasPrice": "0xc7b1ca86"
    },
    {
      "transactionHash": "0x4d0e4e233cd84d9383900f9a9878516a8dfae7eca705ba3233b407f77dd17e48",
      "transactionIndex": "0x1c",
      "blockHash": "0x1fd590d1652c48e59d6cac629b63674fd2a537b060fbdbc1831bed306d1816f7",
      "blockNumber": "0x575fcc",
      "from": "0x2273fFEd38ED040FBcd3e45Cd807594d27ebfAE3",
      "to": "0x0F6e3ebAD5962690B50D4a0FC804235Db3886A3c",
      "cumulativeGasUsed": "0x815878",
      "gasUsed": "0x45a84",
      "contractAddress": null,
      "logs": [],
      "status": "0x1",
      "logsBloom": "0x00000000000000000000000000000000000000000000000000000000000000000000000000000000000000000000000000000000000000000000000000000000000000000000000000000000000000000000000000000000000000000000000000000000000000000000000000000000000000000000000000000000000000000000000000000000000000000000000000000000000000000000000000000000000000000000000000000000000000000000000000000000000000000000000000000000000000000000000000000000000000000000000000000000000000000000000000000000000000000000000000000000000000000000000000000000",
      "type": "0x2",
      "effectiveGasPrice": "0xc7b1ca86"
    },
    {
      "transactionHash": "0x1ac2cd7ba32e5b30a97aed046cb8b2caaba2ab55d1c538d7b5a81fe3e5984579",
      "transactionIndex": "0x1d",
      "blockHash": "0x1fd590d1652c48e59d6cac629b63674fd2a537b060fbdbc1831bed306d1816f7",
      "blockNumber": "0x575fcc",
      "from": "0x2273fFEd38ED040FBcd3e45Cd807594d27ebfAE3",
      "to": "0x0F6e3ebAD5962690B50D4a0FC804235Db3886A3c",
      "cumulativeGasUsed": "0x836f65",
      "gasUsed": "0x216ed",
      "contractAddress": null,
      "logs": [],
      "status": "0x1",
      "logsBloom": "0x00000000000000000000000000000000000000000000000000000000000000000000000000000000000000000000000000000000000000000000000000000000000000000000000000000000000000000000000000000000000000000000000000000000000000000000000000000000000000000000000000000000000000000000000000000000000000000000000000000000000000000000000000000000000000000000000000000000000000000000000000000000000000000000000000000000000000000000000000000000000000000000000000000000000000000000000000000000000000000000000000000000000000000000000000000000",
      "type": "0x2",
      "effectiveGasPrice": "0xc7b1ca86"
    },
    {
      "transactionHash": "0x241d77e664e6fc1cb5b20e4fc4629834afd843e955c0fa6886ae7e14935a021c",
      "transactionIndex": "0x1e",
      "blockHash": "0x1fd590d1652c48e59d6cac629b63674fd2a537b060fbdbc1831bed306d1816f7",
      "blockNumber": "0x575fcc",
      "from": "0x2273fFEd38ED040FBcd3e45Cd807594d27ebfAE3",
      "to": "0x0F6e3ebAD5962690B50D4a0FC804235Db3886A3c",
      "cumulativeGasUsed": "0x87c9e9",
      "gasUsed": "0x45a84",
      "contractAddress": null,
      "logs": [],
      "status": "0x1",
      "logsBloom": "0x00000000000000000000000000000000000000000000000000000000000000000000000000000000000000000000000000000000000000000000000000000000000000000000000000000000000000000000000000000000000000000000000000000000000000000000000000000000000000000000000000000000000000000000000000000000000000000000000000000000000000000000000000000000000000000000000000000000000000000000000000000000000000000000000000000000000000000000000000000000000000000000000000000000000000000000000000000000000000000000000000000000000000000000000000000000",
      "type": "0x2",
      "effectiveGasPrice": "0xc7b1ca86"
    },
    {
      "transactionHash": "0x36cafa5a7fdd95538c7718f659efcedab491c728e455bea9a0c3ac5f69e4d122",
      "transactionIndex": "0x1f",
      "blockHash": "0x1fd590d1652c48e59d6cac629b63674fd2a537b060fbdbc1831bed306d1816f7",
      "blockNumber": "0x575fcc",
      "from": "0x2273fFEd38ED040FBcd3e45Cd807594d27ebfAE3",
      "to": "0x0F6e3ebAD5962690B50D4a0FC804235Db3886A3c",
      "cumulativeGasUsed": "0x89e0d6",
      "gasUsed": "0x216ed",
      "contractAddress": null,
      "logs": [],
      "status": "0x1",
      "logsBloom": "0x00000000000000000000000000000000000000000000000000000000000000000000000000000000000000000000000000000000000000000000000000000000000000000000000000000000000000000000000000000000000000000000000000000000000000000000000000000000000000000000000000000000000000000000000000000000000000000000000000000000000000000000000000000000000000000000000000000000000000000000000000000000000000000000000000000000000000000000000000000000000000000000000000000000000000000000000000000000000000000000000000000000000000000000000000000000",
      "type": "0x2",
      "effectiveGasPrice": "0xc7b1ca86"
    },
    {
      "transactionHash": "0x5de55a58b56aa7815a0e0d16b7988fa82c7d86e7913280da3ea5349def8f30d0",
      "transactionIndex": "0xe",
      "blockHash": "0x410f4be8697f814ac8ccc706b42cd9df66ce0cfb1a7f4dd81712517a48168c96",
      "blockNumber": "0x575fcd",
      "from": "0x2273fFEd38ED040FBcd3e45Cd807594d27ebfAE3",
      "to": "0x0F6e3ebAD5962690B50D4a0FC804235Db3886A3c",
      "cumulativeGasUsed": "0xe8d9a",
      "gasUsed": "0x45a84",
      "contractAddress": null,
      "logs": [],
      "status": "0x1",
      "logsBloom": "0x00000000000000000000000000000000000000000000000000000000000000000000000000000000000000000000000000000000000000000000000000000000000000000000000000000000000000000000000000000000000000000000000000000000000000000000000000000000000000000000000000000000000000000000000000000000000000000000000000000000000000000000000000000000000000000000000000000000000000000000000000000000000000000000000000000000000000000000000000000000000000000000000000000000000000000000000000000000000000000000000000000000000000000000000000000000",
      "type": "0x2",
      "effectiveGasPrice": "0xc7e5f412"
    },
    {
      "transactionHash": "0xa6439cb83da6d833ba37eae5b628c69f45cc5b993582d68391c5268aee0e7cc6",
      "transactionIndex": "0xf",
      "blockHash": "0x410f4be8697f814ac8ccc706b42cd9df66ce0cfb1a7f4dd81712517a48168c96",
      "blockNumber": "0x575fcd",
      "from": "0x2273fFEd38ED040FBcd3e45Cd807594d27ebfAE3",
      "to": "0x0F6e3ebAD5962690B50D4a0FC804235Db3886A3c",
      "cumulativeGasUsed": "0x10a487",
      "gasUsed": "0x216ed",
      "contractAddress": null,
      "logs": [],
      "status": "0x1",
      "logsBloom": "0x00000000000000000000000000000000000000000000000000000000000000000000000000000000000000000000000000000000000000000000000000000000000000000000000000000000000000000000000000000000000000000000000000000000000000000000000000000000000000000000000000000000000000000000000000000000000000000000000000000000000000000000000000000000000000000000000000000000000000000000000000000000000000000000000000000000000000000000000000000000000000000000000000000000000000000000000000000000000000000000000000000000000000000000000000000000",
      "type": "0x2",
      "effectiveGasPrice": "0xc7e5f412"
    },
    {
      "transactionHash": "0xa69017e7766d005879477562b09c850a2b9305f2bfefd46f600362ecbe44ea83",
      "transactionIndex": "0x10",
      "blockHash": "0x410f4be8697f814ac8ccc706b42cd9df66ce0cfb1a7f4dd81712517a48168c96",
      "blockNumber": "0x575fcd",
      "from": "0x2273fFEd38ED040FBcd3e45Cd807594d27ebfAE3",
      "to": "0x0F6e3ebAD5962690B50D4a0FC804235Db3886A3c",
      "cumulativeGasUsed": "0x14ff0b",
      "gasUsed": "0x45a84",
      "contractAddress": null,
      "logs": [],
      "status": "0x1",
      "logsBloom": "0x00000000000000000000000000000000000000000000000000000000000000000000000000000000000000000000000000000000000000000000000000000000000000000000000000000000000000000000000000000000000000000000000000000000000000000000000000000000000000000000000000000000000000000000000000000000000000000000000000000000000000000000000000000000000000000000000000000000000000000000000000000000000000000000000000000000000000000000000000000000000000000000000000000000000000000000000000000000000000000000000000000000000000000000000000000000",
      "type": "0x2",
      "effectiveGasPrice": "0xc7e5f412"
    },
    {
      "transactionHash": "0x0a4f1627e8f3636d35ad92989806f5654d1be72efd6b609d8995b76215e560a5",
      "transactionIndex": "0x11",
      "blockHash": "0x410f4be8697f814ac8ccc706b42cd9df66ce0cfb1a7f4dd81712517a48168c96",
      "blockNumber": "0x575fcd",
      "from": "0x2273fFEd38ED040FBcd3e45Cd807594d27ebfAE3",
      "to": "0x0F6e3ebAD5962690B50D4a0FC804235Db3886A3c",
      "cumulativeGasUsed": "0x1715f8",
      "gasUsed": "0x216ed",
      "contractAddress": null,
      "logs": [],
      "status": "0x1",
      "logsBloom": "0x00000000000000000000000000000000000000000000000000000000000000000000000000000000000000000000000000000000000000000000000000000000000000000000000000000000000000000000000000000000000000000000000000000000000000000000000000000000000000000000000000000000000000000000000000000000000000000000000000000000000000000000000000000000000000000000000000000000000000000000000000000000000000000000000000000000000000000000000000000000000000000000000000000000000000000000000000000000000000000000000000000000000000000000000000000000",
      "type": "0x2",
      "effectiveGasPrice": "0xc7e5f412"
    },
    {
      "transactionHash": "0x117d90c26b4f779b5e0e1de2a87ecadf55b7594ae1c928c088e255580b248992",
      "transactionIndex": "0x12",
      "blockHash": "0x410f4be8697f814ac8ccc706b42cd9df66ce0cfb1a7f4dd81712517a48168c96",
      "blockNumber": "0x575fcd",
      "from": "0x2273fFEd38ED040FBcd3e45Cd807594d27ebfAE3",
      "to": "0x0F6e3ebAD5962690B50D4a0FC804235Db3886A3c",
      "cumulativeGasUsed": "0x1b707c",
      "gasUsed": "0x45a84",
      "contractAddress": null,
      "logs": [],
      "status": "0x1",
      "logsBloom": "0x00000000000000000000000000000000000000000000000000000000000000000000000000000000000000000000000000000000000000000000000000000000000000000000000000000000000000000000000000000000000000000000000000000000000000000000000000000000000000000000000000000000000000000000000000000000000000000000000000000000000000000000000000000000000000000000000000000000000000000000000000000000000000000000000000000000000000000000000000000000000000000000000000000000000000000000000000000000000000000000000000000000000000000000000000000000",
      "type": "0x2",
      "effectiveGasPrice": "0xc7e5f412"
    },
    {
      "transactionHash": "0xcc838a4d1377604c47c3d66c39b07b850c5917f9fea6daa877af307e8f07960b",
      "transactionIndex": "0x13",
      "blockHash": "0x410f4be8697f814ac8ccc706b42cd9df66ce0cfb1a7f4dd81712517a48168c96",
      "blockNumber": "0x575fcd",
      "from": "0x2273fFEd38ED040FBcd3e45Cd807594d27ebfAE3",
      "to": "0x0F6e3ebAD5962690B50D4a0FC804235Db3886A3c",
      "cumulativeGasUsed": "0x1d8769",
      "gasUsed": "0x216ed",
      "contractAddress": null,
      "logs": [],
      "status": "0x1",
      "logsBloom": "0x00000000000000000000000000000000000000000000000000000000000000000000000000000000000000000000000000000000000000000000000000000000000000000000000000000000000000000000000000000000000000000000000000000000000000000000000000000000000000000000000000000000000000000000000000000000000000000000000000000000000000000000000000000000000000000000000000000000000000000000000000000000000000000000000000000000000000000000000000000000000000000000000000000000000000000000000000000000000000000000000000000000000000000000000000000000",
      "type": "0x2",
      "effectiveGasPrice": "0xc7e5f412"
    }
  ],
  "libraries": [],
  "pending": [],
  "returns": {},
  "timestamp": 1713461990,
  "chain": 11155111,
  "multi": false,
  "commit": "e4e6703"
}