{
  "transactions": [
    {
      "hash": "0x032784436e5e20051b61bc7328b804e8bf131e3b5737ebb5cbb656725e248b63",
      "transactionType": "CREATE",
      "contractName": "MMOSessionModule",
      "contractAddress": "0xb409041aAB09Ef1dbE2E2e924675fc220fE6C475",
      "function": null,
      "arguments": null,
      "transaction": {
        "type": "0x02",
        "from": "0x2273ffed38ed040fbcd3e45cd807594d27ebfae3",
        "gas": "0x86f80",
        "value": "0x0",
        "data": "0x608060405234801561001057600080fd5b506106bb806100206000396000f3fe608060405234801561001057600080fd5b506004361061004c5760003560e01c80634051ddac14610051578063467e4a2f1461006f578063c4d66de814610090578063ce690668146100a5575b600080fd5b6100596100b8565b6040516100669190610567565b60405180910390f35b61008261007d3660046105f2565b61018e565b604051908152602001610066565b6100a361009e3660046105f2565b610278565b005b6100a36100b3366004610616565b6103d4565b6100ec604051806080016040528060006001600160a01b031681526020016060815260200160608152602001606081525090565b604080516080810182523081528151600080825260208281019094529192830191610127565b60608152602001906001900390816101125790505b508152602001600060405190808252806020026020018201604052801561016257816020015b606081526020019060019003908161014d5790505b50815260200160405180604001604052806005815260200164086c2e8c6d60db1b815250815250905090565b60405163070c412b60e01b8152602060048201526007602482015266706c617965727360c81b60448201526000906001600160a01b0383169063070c412b90606401602060405180830381865afa1580156101ed573d6000803e3d6000fd5b505050506040513d601f19601f82011682018060405250810190610211919061064f565b6001600160a01b031663c2e522066040518163ffffffff1660e01b8152600401602060405180830381865afa15801561024e573d6000803e3d6000fd5b505050506040513d601f19601f82011682018060405250810190610272919061066c565b92915050565b6000816001600160a01b031663eab150676040518163ffffffff1660e01b8152600401602060405180830381865afa1580156102b8573d6000803e3d6000fd5b505050506040513d601f19601f820116820180604052508101906102dc919061064f565b604080516337dffb9360e01b81526001600160a01b0385811660048301526024820192909252601060448201526f4d4d4f53657373696f6e456e7469747960801b60648201529116906337dffb93906084016020604051808303816000875af115801561034d573d6000803e3d6000fd5b505050506040513d601f19601f82011682018060405250810190610371919061064f565b604051633c5c0f4960e21b81526001600160a01b0380831660048301529192509083169063f1703d2490602401600060405180830381600087803b1580156103b857600080fd5b505af11580156103cc573d6000803e3d6000fd5b505050505050565b60405163070c412b60e01b8152602060048201526007602482015266706c617965727360c81b60448201526001600160a01b0383169063070c412b90606401602060405180830381865afa158015610430573d6000803e3d6000fd5b505050506040513d601f19601f82011682018060405250810190610454919061064f565b604051635893afcd60e11b81526001600160a01b038381166004830152919091169063b1275f9a906024016020604051808303816000875af115801561049e573d6000803e3d6000fd5b505050506040513d601f19601f820116820180604052508101906104c2919061066c565b505050565b6000815180845260005b818110156104ed576020818501810151868301820152016104d1565b506000602082860101526020601f19601f83011685010191505092915050565b60008282518085526020808601955060208260051b8401016020860160005b8481101561055a57601f198684030189526105488383516104c7565b9884019892509083019060010161052c565b5090979650505050505050565b602080825282516001600160a01b0316828201528201516080604083015260009061059560a084018261050d565b90506040840151601f19808584030160608601526105b3838361050d565b92506060860151915080858403016080860152506105d182826104c7565b95945050505050565b6001600160a01b03811681146105ef57600080fd5b50565b60006020828403121561060457600080fd5b813561060f816105da565b9392505050565b6000806040838503121561062957600080fd5b8235610634816105da565b91506020830135610644816105da565b809150509250929050565b60006020828403121561066157600080fd5b815161060f816105da565b60006020828403121561067e57600080fd5b505191905056fea26469706673582212207519425360751c0e3d66842106642b599356ae73ace1e83ac31c247e8443d2b864736f6c63430008180033",
        "nonce": "0x159",
        "accessList": []
      },
      "additionalContracts": [],
      "isFixedGasLimit": false
    },
    {
      "hash": "0x2d7e16469fd122405466f65a417bba2dc457fc0b92fc3c8046abfbd5f0a886ea",
      "transactionType": "CALL",
      "contractName": null,
      "contractAddress": "0xE17065CfD174eF6C9e2251ffd360019E8C492012",
      "function": "register(address)",
      "arguments": [
        "0xb409041aAB09Ef1dbE2E2e924675fc220fE6C475"
      ],
      "transaction": {
        "type": "0x02",
        "from": "0x2273ffed38ed040fbcd3e45cd807594d27ebfae3",
        "to": "0xe17065cfd174ef6c9e2251ffd360019e8c492012",
        "gas": "0x10da9",
        "value": "0x0",
        "data": "0x4420e486000000000000000000000000b409041aab09ef1dbe2e2e924675fc220fe6c475",
        "nonce": "0x15a",
        "accessList": []
      },
      "additionalContracts": [],
      "isFixedGasLimit": false
    },
    {
      "hash": "0x8fe7b79577919def926c37f5206090ef0e1509405edb1e71168337300fab58f3",
      "transactionType": "CREATE",
      "contractName": "MMOSessionEntity",
      "contractAddress": "0x003114C7F4166DC95323A7a9Db89B40Ab2E7Da72",
      "function": null,
      "arguments": null,
      "transaction": {
        "type": "0x02",
        "from": "0x2273ffed38ed040fbcd3e45cd807594d27ebfae3",
        "gas": "0xd7fe9",
        "value": "0x0",
        "data": "0x608060405234801561001057600080fd5b50610b5a806100206000396000f3fe608060405234801561001057600080fd5b50600436106100935760003560e01c8063c3fe3e2811610066578063c3fe3e28146100ff578063c4d66de81461012a578063e82d2a851461013d578063ee88f1231461015d578063f71d96cb1461017257600080fd5b80630cb6aaf1146100985780635bb12a1a146100c1578063b1275f9a146100d6578063c2e52206146100f7575b600080fd5b6100ab6100a63660046107a0565b610185565b6040516100b891906107ff565b60405180910390f35b6100d46100cf366004610835565b610231565b005b6100e96100e4366004610835565b6103a0565b6040519081526020016100b8565b6002546100e9565b600054610112906001600160a01b031681565b6040516001600160a01b0390911681526020016100b8565b6100d4610138366004610835565b610437565b61015061014b366004610850565b61050f565b6040516100b8919061087a565b61016561069d565b6040516100b891906108c7565b6101126101803660046107a0565b610776565b6001818154811061019557600080fd5b9060005260206000200160009150905080546101b09061092b565b80601f01602080910402602001604051908101604052809291908181526020018280546101dc9061092b565b80156102295780601f106101fe57610100808354040283529160200191610229565b820191906000526020600020905b81548152906001019060200180831161020c57829003601f168201915b505050505081565b6001600160a01b03811660009081526003602052604081205490036102695760405163184537df60e21b815260040160405180910390fd5b6001600160a01b03811660009081526003602052604081205461028e9060019061097b565b60028054919250906102a29060019061097b565b815481106102b2576102b261098e565b600091825260209091200154600280546001600160a01b0390921691839081106102de576102de61098e565b600091825260209091200180546001600160a01b0319166001600160a01b03929092169190911790556103128160016109a4565b60036000600284815481106103295761032961098e565b60009182526020808320909101546001600160a01b03168352820192909252604001902055600280548061035f5761035f6109b7565b60008281526020808220830160001990810180546001600160a01b03191690559092019092556001600160a01b039390931681526003909252506040812055565b6001600160a01b038116600090815260036020526040812054156103d75760405163301c5d0160e21b815260040160405180910390fd5b50600280546001810182557f405787fa12a823e0f2b7631cc41b3ba8828b3321ca811111fa75cd3aa3bb5ace0180546001600160a01b039093166001600160a01b0319909316831790555460009182526003602052604090912081905590565b600080546001600160a01b0319166001600160a01b0383161781556001805480820182559152604080518082019091526007815266706c617965727360c81b60208201527fb10e2d527612073b26eecdfd717e6a320cf44b4afac2b0732d9fcbe2b7fa0cf6909101906104aa9082610a34565b5060018054808201825560009190915260408051808201909152600b81526a0e0d8c2f2cae492dcc8caf60ab1b60208201527fb10e2d527612073b26eecdfd717e6a320cf44b4afac2b0732d9fcbe2b7fa0cf69091019061050b9082610a34565b5050565b6060600061051e836002610af4565b67ffffffffffffffff811115610536576105366109cd565b60405190808252806020026020018201604052801561055f578160200160208202803683370190505b506001600160a01b03851660009081526003602052604081205491925090819085111561058f57600091506105b6565b6001600160a01b0386166000908152600360205260409020546105b390869061097b565b91505b6002546001600160a01b0387166000908152600360205260409020546105dd9087906109a4565b11156105ec5750600254610613565b6001600160a01b0386166000908152600360205260409020546106109086906109a4565b90505b6000825b8281101561068f57600281815481106106325761063261098e565b9060005260206000200160009054906101000a90046001600160a01b03168583815181106106625761066261098e565b6001600160a01b03909216602092830291909101909101528161068481610b0b565b925050600101610617565b509293505050505b92915050565b60606001805480602002602001604051908101604052809291908181526020016000905b8282101561076d5783829060005260206000200180546106e09061092b565b80601f016020809104026020016040519081016040528092919081815260200182805461070c9061092b565b80156107595780601f1061072e57610100808354040283529160200191610759565b820191906000526020600020905b81548152906001019060200180831161073c57829003601f168201915b5050505050815260200190600101906106c1565b50505050905090565b6002818154811061078657600080fd5b6000918252602090912001546001600160a01b0316905081565b6000602082840312156107b257600080fd5b5035919050565b6000815180845260005b818110156107df576020818501810151868301820152016107c3565b506000602082860101526020601f19601f83011685010191505092915050565b60208152600061081260208301846107b9565b9392505050565b80356001600160a01b038116811461083057600080fd5b919050565b60006020828403121561084757600080fd5b61081282610819565b6000806040838503121561086357600080fd5b61086c83610819565b946020939093013593505050565b6020808252825182820181905260009190848201906040850190845b818110156108bb5783516001600160a01b031683529284019291840191600101610896565b50909695505050505050565b600060208083016020845280855180835260408601915060408160051b87010192506020870160005b8281101561091e57603f1988860301845261090c8583516107b9565b945092850192908501906001016108f0565b5092979650505050505050565b600181811c9082168061093f57607f821691505b60208210810361095f57634e487b7160e01b600052602260045260246000fd5b50919050565b634e487b7160e01b600052601160045260246000fd5b8181038181111561069757610697610965565b634e487b7160e01b600052603260045260246000fd5b8082018082111561069757610697610965565b634e487b7160e01b600052603160045260246000fd5b634e487b7160e01b600052604160045260246000fd5b601f821115610a2f576000816000526020600020601f850160051c81016020861015610a0c5750805b601f850160051c820191505b81811015610a2b57828155600101610a18565b5050505b505050565b815167ffffffffffffffff811115610a4e57610a4e6109cd565b610a6281610a5c845461092b565b846109e3565b602080601f831160018114610a975760008415610a7f5750858301515b600019600386901b1c1916600185901b178555610a2b565b600085815260208120601f198616915b82811015610ac657888601518255948401946001909101908401610aa7565b5085821015610ae45787850151600019600388901b60f8161c191681555b5050505050600190811b01905550565b808202811582820484141761069757610697610965565b600060018201610b1d57610b1d610965565b506001019056fea2646970667358221220aa82dc7bdbb2a8a9d63f050067248692e88d5ca17e82097c3bf1572e59fef10064736f6c63430008180033",
        "nonce": "0x15b",
        "accessList": []
      },
      "additionalContracts": [],
      "isFixedGasLimit": false
    },
    {
      "hash": "0x0d63b0413fbb5fc31449c9f11d7f8eb6dd9f31b3ed9efe85e21f613114e7713d",
      "transactionType": "CALL",
      "contractName": null,
      "contractAddress": "0xE040f1a4d5Cea3A2A9dC1D6D14997516844f2C1F",
      "function": "registerEntity(string,address)",
      "arguments": [
        "\"MMOSessionEntity\"",
        "0x003114C7F4166DC95323A7a9Db89B40Ab2E7Da72"
      ],
      "transaction": {
        "type": "0x02",
        "from": "0x2273ffed38ed040fbcd3e45cd807594d27ebfae3",
        "to": "0xe040f1a4d5cea3a2a9dc1d6d14997516844f2c1f",
        "gas": "0xc226",
        "value": "0x0",
        "data": "0xb2533d9d0000000000000000000000000000000000000000000000000000000000000040000000000000000000000000003114c7f4166dc95323a7a9db89b40ab2e7da7200000000000000000000000000000000000000000000000000000000000000104d4d4f53657373696f6e456e7469747900000000000000000000000000000000",
        "nonce": "0x15c",
        "accessList": []
      },
      "additionalContracts": [],
      "isFixedGasLimit": false
    },
    {
      "hash": "0x8cfc3d8beb948c15b8518b5a45a7efb2fd3dc1d8d9a6572f14d6c1aadc15163f",
      "transactionType": "CREATE",
      "contractName": "MMONeighborInteractionModule",
      "contractAddress": "0x19A1A9554d0037728770fF4697DE074113496F18",
      "function": null,
      "arguments": null,
      "transaction": {
        "type": "0x02",
        "from": "0x2273ffed38ed040fbcd3e45cd807594d27ebfae3",
        "gas": "0x1fb952",
        "value": "0x0",
        "data": "0x60c060405260116080908152702230b4b63c9024b73a32b930b1ba34b7b760791b60a052600090620000329082620002af565b5060408051608081018252600781830190815266706c617965727360c81b606083015281528151808301909252600b82526a18d85b925b9d195c9858dd60aa1b60208381019190915281019190915262000091906001906002620000e6565b5060408051606081018252600e602082019081526d19d95d141b185e595c90dbdd5b9d60921b92820192909252908152620000d190600290600162000143565b50348015620000df57600080fd5b506200037b565b82805482825590600052602060002090810192821562000131579160200282015b82811115620001315782518290620001209082620002af565b509160200191906001019062000107565b506200013f9291506200018e565b5090565b82805482825590600052602060002090810192821562000131579160200282015b828111156200013157825182906200017d9082620002af565b509160200191906001019062000164565b808211156200013f576000620001a58282620001af565b506001016200018e565b508054620001bd906200021e565b6000825580601f10620001ce575050565b601f016020900490600052602060002090810190620001ee9190620001f1565b50565b5b808211156200013f5760008155600101620001f2565b634e487b7160e01b600052604160045260246000fd5b600181811c908216806200023357607f821691505b6020821081036200025457634e487b7160e01b600052602260045260246000fd5b50919050565b601f821115620002aa576000816000526020600020601f850160051c81016020861015620002855750805b601f850160051c820191505b81811015620002a65782815560010162000291565b5050505b505050565b81516001600160401b03811115620002cb57620002cb62000208565b620002e381620002dc84546200021e565b846200025a565b602080601f8311600181146200031b5760008415620003025750858301515b600019600386901b1c1916600185901b178555620002a6565b600085815260208120601f198616915b828110156200034c578886015182559484019460019091019084016200032b565b50858210156200036b5787850151600019600388901b60f8161c191681555b5050505050600190811b01905550565b61194a806200038b6000396000f3fe608060405234801561001057600080fd5b50600436106100f55760003560e01c80634b24305311610097578063c4d66de811610066578063c4d66de814610201578063ce69066814610214578063eac0bd9014610227578063ebb187a21461023a57600080fd5b80634b243053146101a65780634c5a0aaa146101b957806371f1551f146101cc578063bf189ed9146101ec57600080fd5b8063401b5220116100d3578063401b5220146101635780634051ddac14610176578063467e4a2f1461018b5780634affb2601461019e57600080fd5b8063072bfb8f146100fa5780631848c3c9146101225780631b73f83014610143575b600080fd5b61010d61010836600461140b565b61024d565b60405190151581526020015b60405180910390f35b61013561013036600461140b565b61032f565b604051908152602001610119565b610156610151366004611444565b61040a565b60405161011991906114a3565b61010d61017136600461140b565b6104b6565b61017e610554565b6040516101199190611510565b610135610199366004611583565b610776565b61015661084b565b6101356101b436600461140b565b610858565b6101356101c7366004611583565b6108f6565b6101df6101da366004611583565b6109a1565b60405161011991906115a0565b6101ff6101fa36600461140b565b610a74565b005b6101ff61020f366004611583565b610c3f565b6101ff61022236600461140b565b610ecf565b610156610235366004611444565b61112e565b6101ff6102483660046115e4565b61113e565b60405163070c412b60e01b81526000906001600160a01b0384169063070c412b9061027a90600401611625565b602060405180830381865afa158015610297573d6000803e3d6000fd5b505050506040513d601f19601f820116820180604052508101906102bb919061164a565b60405163dac732f360e01b81526001600160a01b038481166004830152919091169063dac732f3906024015b602060405180830381865afa158015610304573d6000803e3d6000fd5b505050506040513d601f19601f820116820180604052508101906103289190611667565b9392505050565b60405163070c412b60e01b81526000906001600160a01b0384169063070c412b9061035c90600401611625565b602060405180830381865afa158015610379573d6000803e3d6000fd5b505050506040513d601f19601f8201168201806040525081019061039d919061164a565b6040516306b7053b60e01b81526001600160a01b03848116600483015291909116906306b7053b906024015b602060405180830381865afa1580156103e6573d6000803e3d6000fd5b505050506040513d601f19601f820116820180604052508101906103289190611689565b6001818154811061041a57600080fd5b906000526020600020016000915090508054610435906116a2565b80601f0160208091040260200160405190810160405280929190818152602001828054610461906116a2565b80156104ae5780601f10610483576101008083540402835291602001916104ae565b820191906000526020600020905b81548152906001019060200180831161049157829003601f168201915b505050505081565b60405163070c412b60e01b81526000906001600160a01b0384169063070c412b906104e390600401611625565b602060405180830381865afa158015610500573d6000803e3d6000fd5b505050506040513d601f19601f82011682018060405250810190610524919061164a565b604051634d3337bb60e11b81526001600160a01b0384811660048301529190911690639a666f76906024016102e7565b610588604051806080016040528060006001600160a01b031681526020016060815260200160608152602001606081525090565b6040518060800160405280306001600160a01b031681526020016002805480602002602001604051908101604052809291908181526020016000905b828210156106705783829060005260206000200180546105e3906116a2565b80601f016020809104026020016040519081016040528092919081815260200182805461060f906116a2565b801561065c5780601f106106315761010080835404028352916020019161065c565b820191906000526020600020905b81548152906001019060200180831161063f57829003601f168201915b5050505050815260200190600101906105c4565b5050505081526020016001805480602002602001604051908101604052809291908181526020016000905b828210156107475783829060005260206000200180546106ba906116a2565b80601f01602080910402602001604051908101604052809291908181526020018280546106e6906116a2565b80156107335780601f1061070857610100808354040283529160200191610733565b820191906000526020600020905b81548152906001019060200180831161071657829003601f168201915b50505050508152602001906001019061069b565b50505050815260200160405180604001604052806005815260200164086c2e8c6d60db1b815250815250905090565b60405163070c412b60e01b81526000906001600160a01b0383169063070c412b906107a3906004016116dc565b602060405180830381865afa1580156107c0573d6000803e3d6000fd5b505050506040513d601f19601f820116820180604052508101906107e4919061164a565b6001600160a01b031663c2e522066040518163ffffffff1660e01b8152600401602060405180830381865afa158015610821573d6000803e3d6000fd5b505050506040513d601f19601f820116820180604052508101906108459190611689565b92915050565b60008054610435906116a2565b60405163070c412b60e01b81526000906001600160a01b0384169063070c412b9061088590600401611625565b602060405180830381865afa1580156108a2573d6000803e3d6000fd5b505050506040513d601f19601f820116820180604052508101906108c6919061164a565b60405163fe436c5360e01b81526001600160a01b038481166004830152919091169063fe436c53906024016103c9565b60405163070c412b60e01b81526000906001600160a01b0383169063070c412b9061092390600401611625565b602060405180830381865afa158015610940573d6000803e3d6000fd5b505050506040513d601f19601f82011682018060405250810190610964919061164a565b6001600160a01b03166317c48aee6040518163ffffffff1660e01b8152600401602060405180830381865afa158015610821573d6000803e3d6000fd5b60405163070c412b60e01b81526060906001600160a01b0383169063070c412b906109ce90600401611625565b602060405180830381865afa1580156109eb573d6000803e3d6000fd5b505050506040513d601f19601f82011682018060405250810190610a0f919061164a565b6001600160a01b031663a1f2d3146040518163ffffffff1660e01b8152600401600060405180830381865afa158015610a4c573d6000803e3d6000fd5b505050506040513d6000823e601f3d908101601f191682016040526108459190810190611768565b60405163070c412b60e01b81526000906001600160a01b0384169063070c412b90610aa190600401611625565b602060405180830381865afa158015610abe573d6000803e3d6000fd5b505050506040513d601f19601f82011682018060405250810190610ae2919061164a565b604051630381634560e41b81526001600160a01b0384811660048301529190911690633816345090602401602060405180830381865afa158015610b2a573d6000803e3d6000fd5b505050506040513d601f19601f82011682018060405250810190610b4e9190611689565b905080600003610b7157604051630baae5ab60e31b815260040160405180910390fd5b60405163070c412b60e01b81526001600160a01b0384169063070c412b90610b9b90600401611625565b602060405180830381865afa158015610bb8573d6000803e3d6000fd5b505050506040513d601f19601f82011682018060405250810190610bdc919061164a565b604051639ce3a19960e01b81526001600160a01b0384811660048301529190911690639ce3a199906024015b600060405180830381600087803b158015610c2257600080fd5b505af1158015610c36573d6000803e3d6000fd5b50505050505050565b6000816001600160a01b031663eab150676040518163ffffffff1660e01b8152600401602060405180830381865afa158015610c7f573d6000803e3d6000fd5b505050506040513d601f19601f82011682018060405250810190610ca3919061164a565b604080516337dffb9360e01b81526001600160a01b0385811660048301526024820192909252601c60448201527f4d4d4f4e65696768626f72496e746572616374696f6e456e746974790000000060648201529116906337dffb93906084016020604051808303816000875af1158015610d21573d6000803e3d6000fd5b505050506040513d601f19601f82011682018060405250810190610d45919061164a565b604051633c5c0f4960e21b81526001600160a01b0380831660048301529192509083169063f1703d2490602401600060405180830381600087803b158015610d8c57600080fd5b505af1158015610da0573d6000803e3d6000fd5b505050506000826001600160a01b031663eab150676040518163ffffffff1660e01b8152600401602060405180830381865afa158015610de4573d6000803e3d6000fd5b505050506040513d601f19601f82011682018060405250810190610e08919061164a565b604080516337dffb9360e01b81526001600160a01b0386811660048301526024820192909252601060448201526f4d4d4f53657373696f6e456e7469747960801b60648201529116906337dffb93906084016020604051808303816000875af1158015610e79573d6000803e3d6000fd5b505050506040513d601f19601f82011682018060405250810190610e9d919061164a565b604051633c5c0f4960e21b81526001600160a01b0380831660048301529192509084169063f1703d2490602401610c08565b60405163070c412b60e01b81526000906001600160a01b0384169063070c412b90610efc906004016116dc565b602060405180830381865afa158015610f19573d6000803e3d6000fd5b505050506040513d601f19601f82011682018060405250810190610f3d919061164a565b604051635893afcd60e11b81526001600160a01b038481166004830152919091169063b1275f9a906024016020604051808303816000875af1158015610f87573d6000803e3d6000fd5b505050506040513d601f19601f82011682018060405250810190610fab9190611689565b90506002610fb884610776565b610fc291906117fe565b6000036111295760405163070c412b60e01b81526001600160a01b0384169063070c412b90610ff390600401611625565b602060405180830381865afa158015611010573d6000803e3d6000fd5b505050506040513d601f19601f82011682018060405250810190611034919061164a565b604051632e23fe8b60e21b81526001600160a01b038481166004830152919091169063b88ffa2c90602401600060405180830381600087803b15801561107957600080fd5b505af115801561108d573d6000803e3d6000fd5b505060405163070c412b60e01b81526001600160a01b038616925063070c412b91506110bb90600401611625565b602060405180830381865afa1580156110d8573d6000803e3d6000fd5b505050506040513d601f19601f820116820180604052508101906110fc919061164a565b6001600160a01b0316637a63a8a7826040518263ffffffff1660e01b8152600401610c0891815260200190565b505050565b6002818154811061041a57600080fd5b60405163070c412b60e01b81526000906001600160a01b0385169063070c412b9061116b90600401611625565b602060405180830381865afa158015611188573d6000803e3d6000fd5b505050506040513d601f19601f820116820180604052508101906111ac919061164a565b60405163dac732f360e01b81526001600160a01b038581166004830152919091169063dac732f390602401602060405180830381865afa1580156111f4573d6000803e3d6000fd5b505050506040513d601f19601f820116820180604052508101906112189190611667565b90508061123857604051630da4cc7560e31b815260040160405180910390fd5b60405163070c412b60e01b81526000906001600160a01b0386169063070c412b90611265906004016116dc565b602060405180830381865afa158015611282573d6000803e3d6000fd5b505050506040513d601f19601f820116820180604052508101906112a6919061164a565b60405163e82d2a8560e01b81526001600160a01b03868116600483015260248201869052919091169063e82d2a8590604401600060405180830381865afa1580156112f5573d6000803e3d6000fd5b505050506040513d6000823e601f3d908101601f1916820160405261131d9190810190611820565b60405163070c412b60e01b81529091506001600160a01b0386169063070c412b9061134a90600401611625565b602060405180830381865afa158015611367573d6000803e3d6000fd5b505050506040513d601f19601f8201168201806040525081019061138b919061164a565b6001600160a01b031663b0f9a62f8583866040518463ffffffff1660e01b81526004016113ba939291906118af565b600060405180830381600087803b1580156113d457600080fd5b505af11580156113e8573d6000803e3d6000fd5b505050505050505050565b6001600160a01b038116811461140857600080fd5b50565b6000806040838503121561141e57600080fd5b8235611429816113f3565b91506020830135611439816113f3565b809150509250929050565b60006020828403121561145657600080fd5b5035919050565b6000815180845260005b8181101561148357602081850181015186830182015201611467565b506000602082860101526020601f19601f83011685010191505092915050565b602081526000610328602083018461145d565b60008282518085526020808601955060208260051b8401016020860160005b8481101561150357601f198684030189526114f183835161145d565b988401989250908301906001016114d5565b5090979650505050505050565b602080825282516001600160a01b0316828201528201516080604083015260009061153e60a08401826114b6565b90506040840151601f198085840301606086015261155c83836114b6565b925060608601519150808584030160808601525061157a828261145d565b95945050505050565b60006020828403121561159557600080fd5b8135610328816113f3565b6020808252825182820181905260009190848201906040850190845b818110156115d8578351835292840192918401916001016115bc565b50909695505050505050565b6000806000606084860312156115f957600080fd5b8335611604816113f3565b92506020840135611614816113f3565b929592945050506040919091013590565b6020808252600b908201526a18d85b925b9d195c9858dd60aa1b604082015260600190565b60006020828403121561165c57600080fd5b8151610328816113f3565b60006020828403121561167957600080fd5b8151801515811461032857600080fd5b60006020828403121561169b57600080fd5b5051919050565b600181811c908216806116b657607f821691505b6020821081036116d657634e487b7160e01b600052602260045260246000fd5b50919050565b602080825260079082015266706c617965727360c81b604082015260600190565b634e487b7160e01b600052604160045260246000fd5b604051601f8201601f1916810167ffffffffffffffff8111828210171561173c5761173c6116fd565b604052919050565b600067ffffffffffffffff82111561175e5761175e6116fd565b5060051b60200190565b6000602080838503121561177b57600080fd5b825167ffffffffffffffff81111561179257600080fd5b8301601f810185136117a357600080fd5b80516117b66117b182611744565b611713565b81815260059190911b820183019083810190878311156117d557600080fd5b928401925b828410156117f3578351825292840192908401906117da565b979650505050505050565b60008261181b57634e487b7160e01b600052601260045260246000fd5b500690565b6000602080838503121561183357600080fd5b825167ffffffffffffffff81111561184a57600080fd5b8301601f8101851361185b57600080fd5b80516118696117b182611744565b81815260059190911b8201830190838101908783111561188857600080fd5b928401925b828410156117f35783516118a0816113f3565b8252928401929084019061188d565b6001600160a01b038481168252606060208084018290528551918401829052600092868201929091906080860190855b818110156118fd5785518516835294830194918301916001016118df565b50508094505050505082604083015294935050505056fea2646970667358221220045f9bf90657c211f761bda81d8c9938b8c654a9fee501e305472200218a2d1a64736f6c63430008180033",
        "nonce": "0x15d",
        "accessList": []
      },
      "additionalContracts": [],
      "isFixedGasLimit": false
    },
    {
      "hash": "0xe665bb2463509e887d81cd8f9916ef44f9b639b44f2963d3272ddce744476917",
      "transactionType": "CALL",
      "contractName": null,
      "contractAddress": "0xE17065CfD174eF6C9e2251ffd360019E8C492012",
      "function": "register(address)",
      "arguments": [
        "0x19A1A9554d0037728770fF4697DE074113496F18"
      ],
      "transaction": {
        "type": "0x02",
        "from": "0x2273ffed38ed040fbcd3e45cd807594d27ebfae3",
        "to": "0xe17065cfd174ef6c9e2251ffd360019e8c492012",
        "gas": "0x10d9a",
        "value": "0x0",
        "data": "0x4420e48600000000000000000000000019a1a9554d0037728770ff4697de074113496f18",
        "nonce": "0x15e",
        "accessList": []
      },
      "additionalContracts": [],
      "isFixedGasLimit": false
    },
    {
      "hash": "0x62d932289fc9b71f41b67b473bf6f7ed407ca74f031b354e7d79bcc8ecdc6413",
      "transactionType": "CREATE",
      "contractName": "MMONeighborInteractionEntity",
      "contractAddress": "0xcfff10c09c29cf589582Aa39fBb53d64d7eD63bC",
      "function": null,
      "arguments": null,
      "transaction": {
        "type": "0x02",
        "from": "0x2273ffed38ed040fbcd3e45cd807594d27ebfae3",
        "gas": "0x10bad1",
        "value": "0x0",
        "data": "0x608060405234801561001057600080fd5b50610e4b806100206000396000f3fe608060405234801561001057600080fd5b50600436106101215760003560e01c8063a1f2d314116100ad578063c4d66de811610071578063c4d66de81461034f578063d8dbcfc814610362578063dac732f314610375578063ee88f123146103a0578063fe436c53146103b557600080fd5b8063a1f2d314146102a6578063a7e45e45146102bb578063b0f9a62f146102fe578063b88ffa2c14610311578063c3fe3e281461032457600080fd5b806338163450116100f457806338163450146101e05780637a63a8a7146102005780639a666f76146102455780639ce3a199146102805780639d0b30141461029357600080fd5b806306b7053b146101265780630ba460ff146101595780630cb6aaf1146101b757806317c48aee146101d7575b600080fd5b610146610134366004610a36565b60036020526000908152604090205481565b6040519081526020015b60405180910390f35b610192610167366004610a58565b6008602052600090815260409020805460028201546003909201546001600160a01b03909116919083565b604080516001600160a01b039094168452602084019290925290820152606001610150565b6101ca6101c5366004610a58565b6103d5565b6040516101509190610ab7565b61014660075481565b6101466101ee366004610a36565b60046020526000908152604090205481565b61024361020e366004610a58565b600580546001810182556000919091527f036b6384b5eca791c62761152d0c79bb0604c104a5fb6f4eb0703f3154bb3db00155565b005b610270610253366004610a36565b6001600160a01b0316600090815260046020526040902054151590565b6040519015158152602001610150565b61024361028e366004610a36565b610481565b6101466102a1366004610a58565b6105eb565b6102ae61060c565b6040516101509190610aca565b6102436102c9366004610a58565b600680546001810182556000919091527ff652222313e28459528d920b65115c16c04f3efc82aaedc97be59f3f377c0d3f0155565b61024361030c366004610b24565b610664565b61024361031f366004610a36565b61078c565b600054610337906001600160a01b031681565b6040516001600160a01b039091168152602001610150565b61024361035d366004610a36565b61083c565b610146610370366004610a58565b6108b7565b610270610383366004610a36565b6001600160a01b0316600090815260026020526040902054151590565b6103a86108c7565b6040516101509190610c04565b6101466103c3366004610a36565b60026020526000908152604090205481565b600181815481106103e557600080fd5b90600052602060002001600091509050805461040090610c68565b80601f016020809104026020016040519081016040528092919081815260200182805461042c90610c68565b80156104795780601f1061044e57610100808354040283529160200191610479565b820191906000526020600020905b81548152906001019060200180831161045c57829003601f168201915b505050505081565b6001600160a01b0381166000908152600460209081526040808320548084526008835281842060010180548351818602810186019094528084529194939091908301828280156104fa57602002820191906000526020600020905b81546001600160a01b031681526001909101906020018083116104dc575b5050505050905060005b81518110156105515760006004600084848151811061052557610525610ca2565b6020908102919091018101516001600160a01b0316825281019190915260400160002055600101610504565b50600082815260086020818152604080842080546001600160a01b031685526003808452828620869055429082015560028101859055815185815280840192839052948790529290915291516105ad92600190920191906109a0565b5050600081815260086020908152604080832080546001600160a01b039096166001600160a01b031990961686179055938252600290529190912055565b600681815481106105fb57600080fd5b600091825260209091200154905081565b6060600580548060200260200160405190810160405280929190818152602001828054801561065a57602002820191906000526020600020905b815481526020019060010190808311610646575b5050505050905090565b6001600160a01b03831660009081526002602081815260408084208054855260089092528084204260039091015590548352909120018190556106a981610e10610cce565b6001600160a01b03841660009081526002602090815260408083208054845260088352818420600301949094559254825291902083516106f1926001909201918501906109a0565b5060005b825181101561075c576001600160a01b0384166000908152600260205260408120548451909160049186908590811061073057610730610ca2565b6020908102919091018101516001600160a01b03168252810191909152604001600020556001016106f5565b5050506001600160a01b031660009081526002602081815260408084208054600384529185209190915591905255565b6007805490600061079c83610ceb565b90915550506007546001600160a01b03828116600081815260026020908152604080832086905580516080810182529384528051838152808301825284830190815284820184905242606086015295835260088252909120825181546001600160a01b0319169416939093178355925180519193610822926001850192909101906109a0565b506040820151600282015560609091015160039091015550565b600080546001600160a01b0319166001600160a01b038316178155600180548082018255915260408051808201909152600b81526a18d85b925b9d195c9858dd60aa1b60208201527fb10e2d527612073b26eecdfd717e6a320cf44b4afac2b0732d9fcbe2b7fa0cf6909101906108b39082610d55565b5050565b600581815481106105fb57600080fd5b60606001805480602002602001604051908101604052809291908181526020016000905b8282101561099757838290600052602060002001805461090a90610c68565b80601f016020809104026020016040519081016040528092919081815260200182805461093690610c68565b80156109835780601f1061095857610100808354040283529160200191610983565b820191906000526020600020905b81548152906001019060200180831161096657829003601f168201915b5050505050815260200190600101906108eb565b50505050905090565b8280548282559060005260206000209081019282156109f5579160200282015b828111156109f557825182546001600160a01b0319166001600160a01b039091161782556020909201916001909101906109c0565b50610a01929150610a05565b5090565b5b80821115610a015760008155600101610a06565b80356001600160a01b0381168114610a3157600080fd5b919050565b600060208284031215610a4857600080fd5b610a5182610a1a565b9392505050565b600060208284031215610a6a57600080fd5b5035919050565b6000815180845260005b81811015610a9757602081850181015186830182015201610a7b565b506000602082860101526020601f19601f83011685010191505092915050565b602081526000610a516020830184610a71565b6020808252825182820181905260009190848201906040850190845b81811015610b0257835183529284019291840191600101610ae6565b50909695505050505050565b634e487b7160e01b600052604160045260246000fd5b600080600060608486031215610b3957600080fd5b610b4284610a1a565b925060208085013567ffffffffffffffff80821115610b6057600080fd5b818701915087601f830112610b7457600080fd5b813581811115610b8657610b86610b0e565b8060051b604051601f19603f83011681018181108582111715610bab57610bab610b0e565b60405291825284820192508381018501918a831115610bc957600080fd5b938501935b82851015610bee57610bdf85610a1a565b84529385019392850192610bce565b979a979950505050604095909501359450505050565b600060208083016020845280855180835260408601915060408160051b87010192506020870160005b82811015610c5b57603f19888603018452610c49858351610a71565b94509285019290850190600101610c2d565b5092979650505050505050565b600181811c90821680610c7c57607f821691505b602082108103610c9c57634e487b7160e01b600052602260045260246000fd5b50919050565b634e487b7160e01b600052603260045260246000fd5b634e487b7160e01b600052601160045260246000fd5b8082028115828204841417610ce557610ce5610cb8565b92915050565b600060018201610cfd57610cfd610cb8565b5060010190565b601f821115610d50576000816000526020600020601f850160051c81016020861015610d2d5750805b601f850160051c820191505b81811015610d4c57828155600101610d39565b5050505b505050565b815167ffffffffffffffff811115610d6f57610d6f610b0e565b610d8381610d7d8454610c68565b84610d04565b602080601f831160018114610db85760008415610da05750858301515b600019600386901b1c1916600185901b178555610d4c565b600085815260208120601f198616915b82811015610de757888601518255948401946001909101908401610dc8565b5085821015610e055787850151600019600388901b60f8161c191681555b5050505050600190811b0190555056fea264697066735822122053975bd85726beffbf6d876daa7c94da7f0099ff72d95cda4b0fc7144ae0cce464736f6c63430008180033",
        "nonce": "0x15f",
        "accessList": []
      },
      "additionalContracts": [],
      "isFixedGasLimit": false
    },
    {
      "hash": "0x9a22bca1571b7e954382d366f41f49bbbe26bfd9013c4aef342fb894b29049e1",
      "transactionType": "CALL",
      "contractName": null,
      "contractAddress": "0xE040f1a4d5Cea3A2A9dC1D6D14997516844f2C1F",
      "function": "registerEntity(string,address)",
      "arguments": [
        "\"MMONeighborInteractionEntity\"",
        "0xcfff10c09c29cf589582Aa39fBb53d64d7eD63bC"
      ],
      "transaction": {
        "type": "0x02",
        "from": "0x2273ffed38ed040fbcd3e45cd807594d27ebfae3",
        "to": "0xe040f1a4d5cea3a2a9dc1d6d14997516844f2c1f",
        "gas": "0xc32a",
        "value": "0x0",
        "data": "0xb2533d9d0000000000000000000000000000000000000000000000000000000000000040000000000000000000000000cfff10c09c29cf589582aa39fbb53d64d7ed63bc000000000000000000000000000000000000000000000000000000000000001c4d4d4f4e65696768626f72496e746572616374696f6e456e7469747900000000",
        "nonce": "0x160",
        "accessList": []
      },
      "additionalContracts": [],
      "isFixedGasLimit": false
    },
    {
      "hash": "0x1c4d138e4ec58f134a8e03f6e5ab60fc7a5b6e00e63e767eb0ea032f14e95848",
      "transactionType": "CALL",
      "contractName": null,
      "contractAddress": "0x1e1778FC9d6fE2C870c76d51115f05A4dc759430",
      "function": "createGame(address,string)",
      "arguments": [
        "0x2273fFEd38ED040FBcd3e45Cd807594d27ebfAE3",
        "\"Catch\""
      ],
      "transaction": {
        "type": "0x02",
        "from": "0x2273ffed38ed040fbcd3e45cd807594d27ebfae3",
        "to": "0x1e1778fc9d6fe2c870c76d51115f05a4dc759430",
        "gas": "0x4024b",
        "value": "0x0",
        "data": "0xec06bb5d0000000000000000000000002273ffed38ed040fbcd3e45cd807594d27ebfae3000000000000000000000000000000000000000000000000000000000000004000000000000000000000000000000000000000000000000000000000000000054361746368000000000000000000000000000000000000000000000000000000",
        "nonce": "0x161",
        "accessList": []
      },
      "additionalContracts": [
        {
          "transactionType": "CREATE",
          "address": "0x1eD3Db8236F7Ce0F49714C90E7bF5C87A055016d",
          "initCode": "0x602c3d8160093d39f33d3d3d3d363d3d37363d73ebfe60fcfdb78c6e8f2049820fd91867d047aa1f5af43d3d93803e602a57fd5bf3"
        }
      ],
      "isFixedGasLimit": false
    },
    {
      "hash": "0xa1b7ddab71112eb8b2d92b25e6af08a48766caa86f3776dcb883762d405ae82f",
      "transactionType": "CALL",
      "contractName": "MetaMultiSigWallet",
      "contractAddress": "0x1eD3Db8236F7Ce0F49714C90E7bF5C87A055016d",
      "function": "addModule(address)",
      "arguments": [
        "0x19A1A9554d0037728770fF4697DE074113496F18"
      ],
      "transaction": {
        "type": "0x02",
        "from": "0x2273ffed38ed040fbcd3e45cd807594d27ebfae3",
        "to": "0x1ed3db8236f7ce0f49714c90e7bf5c87a055016d",
        "gas": "0x13b824",
        "value": "0x0",
        "data": "0x1ed86f1900000000000000000000000019a1a9554d0037728770ff4697de074113496f18",
        "nonce": "0x162",
        "accessList": []
      },
      "additionalContracts": [
        {
          "transactionType": "CREATE",
          "address": "0x49139893462151DcFBB6305e4dF7fc01469f41dF",
          "initCode": "0x602c3d8160093d39f33d3d3d3d363d3d37363d73cfff10c09c29cf589582aa39fbb53d64d7ed63bc5af43d3d93803e602a57fd5bf3"
        },
        {
          "transactionType": "CREATE",
          "address": "0x1fE212b34B439A8932d4A2527B6a0A14FD51F080",
          "initCode": "0x602c3d8160093d39f33d3d3d3d363d3d37363d73003114c7f4166dc95323a7a9db89b40ab2e7da725af43d3d93803e602a57fd5bf3"
        }
      ],
      "isFixedGasLimit": false
    },
    {
      "hash": "0xca5ef491dd57daf351973229926a80bde8bec0b37a2932e993ce2878e9d23b37",
      "transactionType": "CALL",
      "contractName": "src/modules/MMONeighborInteractionModule.sol:MMONeighborInteractionModule",
      "contractAddress": "0x19A1A9554d0037728770fF4697DE074113496F18",
      "function": "joinSession(address,address)",
      "arguments": [
        "0x1eD3Db8236F7Ce0F49714C90E7bF5C87A055016d",
        "0x0000000000000000000000000000000000000001"
      ],
      "transaction": {
        "type": "0x02",
        "from": "0x2273ffed38ed040fbcd3e45cd807594d27ebfae3",
        "to": "0x19a1a9554d0037728770ff4697de074113496f18",
        "gas": "0x23e1a",
        "value": "0x0",
        "data": "0xce6906680000000000000000000000001ed3db8236f7ce0f49714c90e7bf5c87a055016d0000000000000000000000000000000000000000000000000000000000000001",
        "nonce": "0x163",
        "accessList": []
      },
      "additionalContracts": [],
      "isFixedGasLimit": false
    },
    {
      "hash": "0x95b4a09ac6e7b783b10dc67619c7468cf692acd88b467ed90ce1e052911a680f",
      "transactionType": "CALL",
      "contractName": "src/modules/MMONeighborInteractionModule.sol:MMONeighborInteractionModule",
      "contractAddress": "0x19A1A9554d0037728770fF4697DE074113496F18",
      "function": "joinSession(address,address)",
      "arguments": [
        "0x1eD3Db8236F7Ce0F49714C90E7bF5C87A055016d",
        "0x0000000000000000000000000000000000000002"
      ],
      "transaction": {
        "type": "0x02",
        "from": "0x2273ffed38ed040fbcd3e45cd807594d27ebfae3",
        "to": "0x19a1a9554d0037728770ff4697de074113496f18",
        "gas": "0x50cff",
        "value": "0x0",
        "data": "0xce6906680000000000000000000000001ed3db8236f7ce0f49714c90e7bf5c87a055016d0000000000000000000000000000000000000000000000000000000000000002",
        "nonce": "0x164",
        "accessList": []
      },
      "additionalContracts": [],
      "isFixedGasLimit": false
    },
    {
      "hash": "0x77e01278e5bc538e50d780c7244851b719d7da229b4abe328633f344fddcc4e1",
      "transactionType": "CALL",
      "contractName": "src/modules/MMONeighborInteractionModule.sol:MMONeighborInteractionModule",
      "contractAddress": "0x19A1A9554d0037728770fF4697DE074113496F18",
      "function": "joinSession(address,address)",
      "arguments": [
        "0x1eD3Db8236F7Ce0F49714C90E7bF5C87A055016d",
        "0x0000000000000000000000000000000000000003"
      ],
      "transaction": {
        "type": "0x02",
        "from": "0x2273ffed38ed040fbcd3e45cd807594d27ebfae3",
        "to": "0x19a1a9554d0037728770ff4697de074113496f18",
        "gas": "0x1e1d6",
        "value": "0x0",
        "data": "0xce6906680000000000000000000000001ed3db8236f7ce0f49714c90e7bf5c87a055016d0000000000000000000000000000000000000000000000000000000000000003",
        "nonce": "0x165",
        "accessList": []
      },
      "additionalContracts": [],
      "isFixedGasLimit": false
    },
    {
      "hash": "0xb53d59e8e1c1b6341e078fcd0eb20e3c46aca002e7f550fbcaffa83d7f34250b",
      "transactionType": "CALL",
      "contractName": "src/modules/MMONeighborInteractionModule.sol:MMONeighborInteractionModule",
      "contractAddress": "0x19A1A9554d0037728770fF4697DE074113496F18",
      "function": "joinSession(address,address)",
      "arguments": [
        "0x1eD3Db8236F7Ce0F49714C90E7bF5C87A055016d",
        "0x0000000000000000000000000000000000000004"
      ],
      "transaction": {
        "type": "0x02",
        "from": "0x2273ffed38ed040fbcd3e45cd807594d27ebfae3",
        "to": "0x19a1a9554d0037728770ff4697de074113496f18",
        "gas": "0x45479",
        "value": "0x0",
        "data": "0xce6906680000000000000000000000001ed3db8236f7ce0f49714c90e7bf5c87a055016d0000000000000000000000000000000000000000000000000000000000000004",
        "nonce": "0x166",
        "accessList": []
      },
      "additionalContracts": [],
      "isFixedGasLimit": false
    },
    {
      "hash": "0xc31442ceea338d0ac2201021f51f32a1d8f74fa2b568dc1d7913dd7222d13320",
      "transactionType": "CALL",
      "contractName": "src/modules/MMONeighborInteractionModule.sol:MMONeighborInteractionModule",
      "contractAddress": "0x19A1A9554d0037728770fF4697DE074113496F18",
      "function": "joinSession(address,address)",
      "arguments": [
        "0x1eD3Db8236F7Ce0F49714C90E7bF5C87A055016d",
        "0x0000000000000000000000000000000000000005"
      ],
      "transaction": {
        "type": "0x02",
        "from": "0x2273ffed38ed040fbcd3e45cd807594d27ebfae3",
        "to": "0x19a1a9554d0037728770ff4697de074113496f18",
        "gas": "0x1e1d6",
        "value": "0x0",
        "data": "0xce6906680000000000000000000000001ed3db8236f7ce0f49714c90e7bf5c87a055016d0000000000000000000000000000000000000000000000000000000000000005",
        "nonce": "0x167",
        "accessList": []
      },
      "additionalContracts": [],
      "isFixedGasLimit": false
    },
    {
      "hash": "0x8e5e4b50760ce1c2c4b70b1c16fa06b31217a477e1cab346880cf37b2e51c10c",
      "transactionType": "CALL",
      "contractName": "src/modules/MMONeighborInteractionModule.sol:MMONeighborInteractionModule",
      "contractAddress": "0x19A1A9554d0037728770fF4697DE074113496F18",
      "function": "joinSession(address,address)",
      "arguments": [
        "0x1eD3Db8236F7Ce0F49714C90E7bF5C87A055016d",
        "0x0000000000000000000000000000000000000006"
      ],
      "transaction": {
        "type": "0x02",
        "from": "0x2273ffed38ed040fbcd3e45cd807594d27ebfae3",
        "to": "0x19a1a9554d0037728770ff4697de074113496f18",
        "gas": "0x45479",
        "value": "0x0",
        "data": "0xce6906680000000000000000000000001ed3db8236f7ce0f49714c90e7bf5c87a055016d0000000000000000000000000000000000000000000000000000000000000006",
        "nonce": "0x168",
        "accessList": []
      },
      "additionalContracts": [],
      "isFixedGasLimit": false
    },
    {
      "hash": "0x03cafdc92a19974f2bcbcd37ca4700d9f6b337fcdbdf9bc29630535637fc91bb",
      "transactionType": "CALL",
      "contractName": "src/modules/MMONeighborInteractionModule.sol:MMONeighborInteractionModule",
      "contractAddress": "0x19A1A9554d0037728770fF4697DE074113496F18",
      "function": "joinSession(address,address)",
      "arguments": [
        "0x1eD3Db8236F7Ce0F49714C90E7bF5C87A055016d",
        "0x0000000000000000000000000000000000000007"
      ],
      "transaction": {
        "type": "0x02",
        "from": "0x2273ffed38ed040fbcd3e45cd807594d27ebfae3",
        "to": "0x19a1a9554d0037728770ff4697de074113496f18",
        "gas": "0x1e1d6",
        "value": "0x0",
        "data": "0xce6906680000000000000000000000001ed3db8236f7ce0f49714c90e7bf5c87a055016d0000000000000000000000000000000000000000000000000000000000000007",
        "nonce": "0x169",
        "accessList": []
      },
      "additionalContracts": [],
      "isFixedGasLimit": false
    },
    {
      "hash": "0x4dc3d3238d0e2be199c02a503179889c5a2c9a891e1faf5ae724f5c2f30da349",
      "transactionType": "CALL",
      "contractName": "src/modules/MMONeighborInteractionModule.sol:MMONeighborInteractionModule",
      "contractAddress": "0x19A1A9554d0037728770fF4697DE074113496F18",
      "function": "joinSession(address,address)",
      "arguments": [
        "0x1eD3Db8236F7Ce0F49714C90E7bF5C87A055016d",
        "0x0000000000000000000000000000000000000008"
      ],
      "transaction": {
        "type": "0x02",
        "from": "0x2273ffed38ed040fbcd3e45cd807594d27ebfae3",
        "to": "0x19a1a9554d0037728770ff4697de074113496f18",
        "gas": "0x45479",
        "value": "0x0",
        "data": "0xce6906680000000000000000000000001ed3db8236f7ce0f49714c90e7bf5c87a055016d0000000000000000000000000000000000000000000000000000000000000008",
        "nonce": "0x16a",
        "accessList": []
      },
      "additionalContracts": [],
      "isFixedGasLimit": false
    },
    {
      "hash": "0x7c65b68541290277d9af9afeb3d2319a023348970984250e10d27b28656588d5",
      "transactionType": "CALL",
      "contractName": "src/modules/MMONeighborInteractionModule.sol:MMONeighborInteractionModule",
      "contractAddress": "0x19A1A9554d0037728770fF4697DE074113496F18",
      "function": "joinSession(address,address)",
      "arguments": [
        "0x1eD3Db8236F7Ce0F49714C90E7bF5C87A055016d",
        "0x0000000000000000000000000000000000000009"
      ],
      "transaction": {
        "type": "0x02",
        "from": "0x2273ffed38ed040fbcd3e45cd807594d27ebfae3",
        "to": "0x19a1a9554d0037728770ff4697de074113496f18",
        "gas": "0x1e1d6",
        "value": "0x0",
        "data": "0xce6906680000000000000000000000001ed3db8236f7ce0f49714c90e7bf5c87a055016d0000000000000000000000000000000000000000000000000000000000000009",
        "nonce": "0x16b",
        "accessList": []
      },
      "additionalContracts": [],
      "isFixedGasLimit": false
    },
    {
      "hash": "0x43933b7aedc439a90ed69157b0ad23e2843dd5e6311d682fb8fb98c0727c4229",
      "transactionType": "CALL",
      "contractName": "src/modules/MMONeighborInteractionModule.sol:MMONeighborInteractionModule",
      "contractAddress": "0x19A1A9554d0037728770fF4697DE074113496F18",
      "function": "joinSession(address,address)",
      "arguments": [
        "0x1eD3Db8236F7Ce0F49714C90E7bF5C87A055016d",
        "0x000000000000000000000000000000000000000A"
      ],
      "transaction": {
        "type": "0x02",
        "from": "0x2273ffed38ed040fbcd3e45cd807594d27ebfae3",
        "to": "0x19a1a9554d0037728770ff4697de074113496f18",
        "gas": "0x45479",
        "value": "0x0",
        "data": "0xce6906680000000000000000000000001ed3db8236f7ce0f49714c90e7bf5c87a055016d000000000000000000000000000000000000000000000000000000000000000a",
        "nonce": "0x16c",
        "accessList": []
      },
      "additionalContracts": [],
      "isFixedGasLimit": false
    },
    {
      "hash": "0x0bc917e387a737677eca5f52a736aedf16ff93c02a47b1c94a5138b16e1f25b2",
      "transactionType": "CALL",
      "contractName": "src/modules/MMONeighborInteractionModule.sol:MMONeighborInteractionModule",
      "contractAddress": "0x19A1A9554d0037728770fF4697DE074113496F18",
      "function": "joinSession(address,address)",
      "arguments": [
        "0x1eD3Db8236F7Ce0F49714C90E7bF5C87A055016d",
        "0x000000000000000000000000000000000000000b"
      ],
      "transaction": {
        "type": "0x02",
        "from": "0x2273ffed38ed040fbcd3e45cd807594d27ebfae3",
        "to": "0x19a1a9554d0037728770ff4697de074113496f18",
        "gas": "0x1e1d6",
        "value": "0x0",
        "data": "0xce6906680000000000000000000000001ed3db8236f7ce0f49714c90e7bf5c87a055016d000000000000000000000000000000000000000000000000000000000000000b",
        "nonce": "0x16d",
        "accessList": []
      },
      "additionalContracts": [],
      "isFixedGasLimit": false
    },
    {
      "hash": "0xbe7c534fbd421a744e24066a5da1eaceb32d402302ee93e683d0c462677a5406",
      "transactionType": "CALL",
      "contractName": "src/modules/MMONeighborInteractionModule.sol:MMONeighborInteractionModule",
      "contractAddress": "0x19A1A9554d0037728770fF4697DE074113496F18",
      "function": "joinSession(address,address)",
      "arguments": [
        "0x1eD3Db8236F7Ce0F49714C90E7bF5C87A055016d",
        "0x000000000000000000000000000000000000000C"
      ],
      "transaction": {
        "type": "0x02",
        "from": "0x2273ffed38ed040fbcd3e45cd807594d27ebfae3",
        "to": "0x19a1a9554d0037728770ff4697de074113496f18",
        "gas": "0x45479",
        "value": "0x0",
        "data": "0xce6906680000000000000000000000001ed3db8236f7ce0f49714c90e7bf5c87a055016d000000000000000000000000000000000000000000000000000000000000000c",
        "nonce": "0x16e",
        "accessList": []
      },
      "additionalContracts": [],
      "isFixedGasLimit": false
    },
    {
      "hash": "0x048ffe8d6abaa503ba11e3ebbb599d245e4ca46d4f7ef490fe0c42b9e7c9f35a",
      "transactionType": "CALL",
      "contractName": "src/modules/MMONeighborInteractionModule.sol:MMONeighborInteractionModule",
      "contractAddress": "0x19A1A9554d0037728770fF4697DE074113496F18",
      "function": "joinSession(address,address)",
      "arguments": [
        "0x1eD3Db8236F7Ce0F49714C90E7bF5C87A055016d",
        "0x000000000000000000000000000000000000000d"
      ],
      "transaction": {
        "type": "0x02",
        "from": "0x2273ffed38ed040fbcd3e45cd807594d27ebfae3",
        "to": "0x19a1a9554d0037728770ff4697de074113496f18",
        "gas": "0x1e1d6",
        "value": "0x0",
        "data": "0xce6906680000000000000000000000001ed3db8236f7ce0f49714c90e7bf5c87a055016d000000000000000000000000000000000000000000000000000000000000000d",
        "nonce": "0x16f",
        "accessList": []
      },
      "additionalContracts": [],
      "isFixedGasLimit": false
    },
    {
      "hash": "0x6d0ff6032617ace969308b48aaa30f8791afc6a7ebcb702ad1cd8922f2401e20",
      "transactionType": "CALL",
      "contractName": "src/modules/MMONeighborInteractionModule.sol:MMONeighborInteractionModule",
      "contractAddress": "0x19A1A9554d0037728770fF4697DE074113496F18",
      "function": "joinSession(address,address)",
      "arguments": [
        "0x1eD3Db8236F7Ce0F49714C90E7bF5C87A055016d",
        "0x000000000000000000000000000000000000000E"
      ],
      "transaction": {
        "type": "0x02",
        "from": "0x2273ffed38ed040fbcd3e45cd807594d27ebfae3",
        "to": "0x19a1a9554d0037728770ff4697de074113496f18",
        "gas": "0x45479",
        "value": "0x0",
        "data": "0xce6906680000000000000000000000001ed3db8236f7ce0f49714c90e7bf5c87a055016d000000000000000000000000000000000000000000000000000000000000000e",
        "nonce": "0x170",
        "accessList": []
      },
      "additionalContracts": [],
      "isFixedGasLimit": false
    },
    {
      "hash": "0xe44b2ab42d8f4b1e906f44571ec29e5c2d88a2de8c81914ff2dddba89ce8a51a",
      "transactionType": "CALL",
      "contractName": "src/modules/MMONeighborInteractionModule.sol:MMONeighborInteractionModule",
      "contractAddress": "0x19A1A9554d0037728770fF4697DE074113496F18",
      "function": "joinSession(address,address)",
      "arguments": [
        "0x1eD3Db8236F7Ce0F49714C90E7bF5C87A055016d",
        "0x000000000000000000000000000000000000000F"
      ],
      "transaction": {
        "type": "0x02",
        "from": "0x2273ffed38ed040fbcd3e45cd807594d27ebfae3",
        "to": "0x19a1a9554d0037728770ff4697de074113496f18",
        "gas": "0x1e1d6",
        "value": "0x0",
        "data": "0xce6906680000000000000000000000001ed3db8236f7ce0f49714c90e7bf5c87a055016d000000000000000000000000000000000000000000000000000000000000000f",
        "nonce": "0x171",
        "accessList": []
      },
      "additionalContracts": [],
      "isFixedGasLimit": false
    },
    {
      "hash": "0x3269958c86820f2f3ae998042f655c64cc75b9d874f444dde1b8219b014455f9",
      "transactionType": "CALL",
      "contractName": "src/modules/MMONeighborInteractionModule.sol:MMONeighborInteractionModule",
      "contractAddress": "0x19A1A9554d0037728770fF4697DE074113496F18",
      "function": "joinSession(address,address)",
      "arguments": [
        "0x1eD3Db8236F7Ce0F49714C90E7bF5C87A055016d",
        "0x0000000000000000000000000000000000000010"
      ],
      "transaction": {
        "type": "0x02",
        "from": "0x2273ffed38ed040fbcd3e45cd807594d27ebfae3",
        "to": "0x19a1a9554d0037728770ff4697de074113496f18",
        "gas": "0x45479",
        "value": "0x0",
        "data": "0xce6906680000000000000000000000001ed3db8236f7ce0f49714c90e7bf5c87a055016d0000000000000000000000000000000000000000000000000000000000000010",
        "nonce": "0x172",
        "accessList": []
      },
      "additionalContracts": [],
      "isFixedGasLimit": false
    },
    {
      "hash": "0x5e106b8e27dfe94e5304fe67e23449b1551204d133b49e89645dc30bf09a8b53",
      "transactionType": "CALL",
      "contractName": "src/modules/MMONeighborInteractionModule.sol:MMONeighborInteractionModule",
      "contractAddress": "0x19A1A9554d0037728770fF4697DE074113496F18",
      "function": "joinSession(address,address)",
      "arguments": [
        "0x1eD3Db8236F7Ce0F49714C90E7bF5C87A055016d",
        "0x0000000000000000000000000000000000000011"
      ],
      "transaction": {
        "type": "0x02",
        "from": "0x2273ffed38ed040fbcd3e45cd807594d27ebfae3",
        "to": "0x19a1a9554d0037728770ff4697de074113496f18",
        "gas": "0x1e1d6",
        "value": "0x0",
        "data": "0xce6906680000000000000000000000001ed3db8236f7ce0f49714c90e7bf5c87a055016d0000000000000000000000000000000000000000000000000000000000000011",
        "nonce": "0x173",
        "accessList": []
      },
      "additionalContracts": [],
      "isFixedGasLimit": false
    }
  ],
  "receipts": [],
  "libraries": [],
  "pending": [
    "0x032784436e5e20051b61bc7328b804e8bf131e3b5737ebb5cbb656725e248b63",
    "0x2d7e16469fd122405466f65a417bba2dc457fc0b92fc3c8046abfbd5f0a886ea",
    "0x8fe7b79577919def926c37f5206090ef0e1509405edb1e71168337300fab58f3",
    "0x0d63b0413fbb5fc31449c9f11d7f8eb6dd9f31b3ed9efe85e21f613114e7713d",
    "0x8cfc3d8beb948c15b8518b5a45a7efb2fd3dc1d8d9a6572f14d6c1aadc15163f",
    "0xe665bb2463509e887d81cd8f9916ef44f9b639b44f2963d3272ddce744476917",
    "0x62d932289fc9b71f41b67b473bf6f7ed407ca74f031b354e7d79bcc8ecdc6413",
    "0x9a22bca1571b7e954382d366f41f49bbbe26bfd9013c4aef342fb894b29049e1",
    "0x1c4d138e4ec58f134a8e03f6e5ab60fc7a5b6e00e63e767eb0ea032f14e95848",
    "0xa1b7ddab71112eb8b2d92b25e6af08a48766caa86f3776dcb883762d405ae82f",
    "0xca5ef491dd57daf351973229926a80bde8bec0b37a2932e993ce2878e9d23b37",
    "0x95b4a09ac6e7b783b10dc67619c7468cf692acd88b467ed90ce1e052911a680f",
    "0x77e01278e5bc538e50d780c7244851b719d7da229b4abe328633f344fddcc4e1",
    "0xb53d59e8e1c1b6341e078fcd0eb20e3c46aca002e7f550fbcaffa83d7f34250b",
    "0xc31442ceea338d0ac2201021f51f32a1d8f74fa2b568dc1d7913dd7222d13320",
    "0x8e5e4b50760ce1c2c4b70b1c16fa06b31217a477e1cab346880cf37b2e51c10c",
    "0x03cafdc92a19974f2bcbcd37ca4700d9f6b337fcdbdf9bc29630535637fc91bb",
    "0x4dc3d3238d0e2be199c02a503179889c5a2c9a891e1faf5ae724f5c2f30da349",
    "0x7c65b68541290277d9af9afeb3d2319a023348970984250e10d27b28656588d5",
    "0x43933b7aedc439a90ed69157b0ad23e2843dd5e6311d682fb8fb98c0727c4229",
    "0x0bc917e387a737677eca5f52a736aedf16ff93c02a47b1c94a5138b16e1f25b2",
    "0xbe7c534fbd421a744e24066a5da1eaceb32d402302ee93e683d0c462677a5406",
    "0x048ffe8d6abaa503ba11e3ebbb599d245e4ca46d4f7ef490fe0c42b9e7c9f35a",
    "0x6d0ff6032617ace969308b48aaa30f8791afc6a7ebcb702ad1cd8922f2401e20",
    "0xe44b2ab42d8f4b1e906f44571ec29e5c2d88a2de8c81914ff2dddba89ce8a51a",
    "0x3269958c86820f2f3ae998042f655c64cc75b9d874f444dde1b8219b014455f9",
    "0x5e106b8e27dfe94e5304fe67e23449b1551204d133b49e89645dc30bf09a8b53"
  ],
  "returns": {},
  "timestamp": 1713291133,
  "chain": 11155111,
  "multi": false,
  "commit": "efdf94b"
}